{
	"contracts/TreasuryContract/treasurycontract.sol": {
		"Treasury": {
			"abi": [
				{
					"inputs": [
						{
							"internalType": "address",
							"name": "_uniswapRouterContractAddress",
							"type": "address"
						},
						{
							"internalType": "address",
							"name": "_uniswapV2FactoryContractAddress",
							"type": "address"
						},
						{
							"internalType": "address",
							"name": "_ilendingpoolContractAddress",
							"type": "address"
						},
						{
							"internalType": "address",
							"name": "_usdcTokenaddress",
							"type": "address"
						},
						{
							"internalType": "address",
							"name": "_usdtTokenTokenAddress",
							"type": "address"
						}
					],
					"stateMutability": "nonpayable",
					"type": "constructor"
				},
				{
					"anonymous": false,
					"inputs": [
						{
							"indexed": false,
							"internalType": "uint256",
							"name": "amount",
							"type": "uint256"
						}
					],
					"name": "FundsAdded",
					"type": "event"
				},
				{
					"anonymous": false,
					"inputs": [
						{
							"indexed": false,
							"internalType": "uint256",
							"name": "amount",
							"type": "uint256"
						},
						{
							"indexed": false,
							"internalType": "uint256",
							"name": "key",
							"type": "uint256"
						}
					],
					"name": "FundsWithdrawFromPool",
					"type": "event"
				},
				{
					"anonymous": false,
					"inputs": [
						{
							"indexed": false,
							"internalType": "uint256",
							"name": "usdcbal",
							"type": "uint256"
						},
						{
							"indexed": false,
							"internalType": "uint256",
							"name": "usdtbal",
							"type": "uint256"
						}
					],
					"name": "FundsWithdrawnToWallet",
					"type": "event"
				},
				{
					"anonymous": false,
					"inputs": [
						{
							"indexed": true,
							"internalType": "address",
							"name": "previousOwner",
							"type": "address"
						},
						{
							"indexed": true,
							"internalType": "address",
							"name": "newOwner",
							"type": "address"
						}
					],
					"name": "OwnershipTransferred",
					"type": "event"
				},
				{
					"inputs": [],
					"name": "aaveRatio",
					"outputs": [
						{
							"internalType": "uint256",
							"name": "",
							"type": "uint256"
						}
					],
					"stateMutability": "view",
					"type": "function"
				},
				{
					"inputs": [],
					"name": "acceptOwnership",
					"outputs": [
						{
							"internalType": "bool",
							"name": "",
							"type": "bool"
						}
					],
					"stateMutability": "nonpayable",
					"type": "function"
				},
				{
					"inputs": [
						{
							"internalType": "uint256",
							"name": "_amount",
							"type": "uint256"
						}
					],
					"name": "addFundsToAave",
					"outputs": [
						{
							"internalType": "bool",
							"name": "",
							"type": "bool"
						}
					],
					"stateMutability": "nonpayable",
					"type": "function"
				},
				{
					"inputs": [
						{
							"internalType": "uint256",
							"name": "_amount",
							"type": "uint256"
						}
					],
					"name": "addLiquidityToUniswap",
					"outputs": [
						{
							"internalType": "bool",
							"name": "",
							"type": "bool"
						}
					],
					"stateMutability": "nonpayable",
					"type": "function"
				},
				{
					"inputs": [],
					"name": "calculateAaveYield",
					"outputs": [
						{
							"internalType": "uint256",
							"name": "",
							"type": "uint256"
						}
					],
					"stateMutability": "view",
					"type": "function"
				},
				{
					"inputs": [],
					"name": "calculateAggregatedYeild",
					"outputs": [
						{
							"internalType": "uint256",
							"name": "",
							"type": "uint256"
						}
					],
					"stateMutability": "view",
					"type": "function"
				},
				{
					"inputs": [],
					"name": "calculateUniswapYeild",
					"outputs": [
						{
							"internalType": "uint256",
							"name": "",
							"type": "uint256"
						}
					],
					"stateMutability": "view",
					"type": "function"
				},
				{
					"inputs": [
						{
							"internalType": "uint256",
							"name": "_amount",
							"type": "uint256"
						}
					],
					"name": "depositAndDistributeFunds",
					"outputs": [
						{
							"internalType": "bool",
							"name": "",
							"type": "bool"
						}
					],
					"stateMutability": "nonpayable",
					"type": "function"
				},
				{
					"inputs": [
						{
							"internalType": "address",
							"name": "asset",
							"type": "address"
						}
					],
					"name": "getCurrentLiquidityRate",
					"outputs": [
						{
							"internalType": "uint128",
							"name": "",
							"type": "uint128"
						}
					],
					"stateMutability": "view",
					"type": "function"
				},
				{
					"inputs": [],
					"name": "ilendingpool",
					"outputs": [
						{
							"internalType": "contract ILendingPool",
							"name": "",
							"type": "address"
						}
					],
					"stateMutability": "view",
					"type": "function"
				},
				{
					"inputs": [],
					"name": "iuniswapv2router02",
					"outputs": [
						{
							"internalType": "contract IUniswapV2Router02",
							"name": "",
							"type": "address"
						}
					],
					"stateMutability": "view",
					"type": "function"
				},
				{
					"inputs": [],
					"name": "newOwner",
					"outputs": [
						{
							"internalType": "address payable",
							"name": "",
							"type": "address"
						}
					],
					"stateMutability": "view",
					"type": "function"
				},
				{
					"inputs": [
						{
							"internalType": "uint256",
							"name": "amount",
							"type": "uint256"
						}
					],
					"name": "onlyDeposit",
					"outputs": [
						{
							"internalType": "bool",
							"name": "",
							"type": "bool"
						}
					],
					"stateMutability": "nonpayable",
					"type": "function"
				},
				{
					"inputs": [],
					"name": "owner",
					"outputs": [
						{
							"internalType": "address payable",
							"name": "",
							"type": "address"
						}
					],
					"stateMutability": "view",
					"type": "function"
				},
				{
					"inputs": [
						{
							"internalType": "uint256",
							"name": "_uniRatio",
							"type": "uint256"
						},
						{
							"internalType": "uint256",
							"name": "_aaveRatio",
							"type": "uint256"
						}
					],
					"name": "setRatio",
					"outputs": [
						{
							"internalType": "bool",
							"name": "",
							"type": "bool"
						}
					],
					"stateMutability": "nonpayable",
					"type": "function"
				},
				{
					"inputs": [
						{
							"internalType": "address payable",
							"name": "_newOwner",
							"type": "address"
						}
					],
					"name": "transferOwnership",
					"outputs": [],
					"stateMutability": "nonpayable",
					"type": "function"
				},
				{
					"inputs": [],
					"name": "uniswapRatio",
					"outputs": [
						{
							"internalType": "uint256",
							"name": "",
							"type": "uint256"
						}
					],
					"stateMutability": "view",
					"type": "function"
				},
				{
					"inputs": [],
					"name": "uniswapV2factory",
					"outputs": [
						{
							"internalType": "contract IUniswapV2Factory",
							"name": "",
							"type": "address"
						}
					],
					"stateMutability": "view",
					"type": "function"
				},
				{
					"inputs": [],
					"name": "usdcTokenAddress",
					"outputs": [
						{
							"internalType": "address",
							"name": "",
							"type": "address"
						}
					],
					"stateMutability": "view",
					"type": "function"
				},
				{
					"inputs": [],
					"name": "usdtTokenAddress",
					"outputs": [
						{
							"internalType": "address",
							"name": "",
							"type": "address"
						}
					],
					"stateMutability": "view",
					"type": "function"
				},
				{
					"inputs": [],
					"name": "withdrawAllToWallet",
					"outputs": [
						{
							"internalType": "bool",
							"name": "",
							"type": "bool"
						}
					],
					"stateMutability": "nonpayable",
					"type": "function"
				},
				{
					"inputs": [
						{
							"internalType": "uint256",
							"name": "_amount",
							"type": "uint256"
						},
						{
							"internalType": "uint256",
							"name": "key",
							"type": "uint256"
						}
					],
					"name": "withdrawFromPool",
					"outputs": [
						{
							"internalType": "bool",
							"name": "",
							"type": "bool"
						}
					],
					"stateMutability": "nonpayable",
					"type": "function"
				}
			],
			"devdoc": {
				"kind": "dev",
				"methods": {
					"transferOwnership(address)": {
						"details": "Transfers ownership of the contract to a new account (`newOwner`). Can only be called by the current owner."
					}
				},
				"version": 1
			},
			"evm": {
				"assembly": "    /* \"contracts/TreasuryContract/treasurycontract.sol\":372:7139  contract Treasury is Ownable {... */\n  mstore(0x40, 0xa0)\n    /* \"contracts/TreasuryContract/treasurycontract.sol\":804:812  31536000 */\n  0x01e13380\n    /* \"contracts/TreasuryContract/treasurycontract.sol\":767:812  uint256 immutable SECONDS_PER_YEAR = 31536000 */\n  0x80\n  swap1\n  dup2\n  mstore\n  pop\n    /* \"contracts/TreasuryContract/treasurycontract.sol\":1075:1077  50 */\n  0x32\n    /* \"contracts/TreasuryContract/treasurycontract.sol\":1045:1077  uint256 public uniswapRatio = 50 */\n  0x07\n  sstore\n    /* \"contracts/TreasuryContract/treasurycontract.sol\":1133:1135  50 */\n  0x32\n    /* \"contracts/TreasuryContract/treasurycontract.sol\":1106:1135  uint256 public aaveRatio = 50 */\n  0x08\n  sstore\n    /* \"contracts/TreasuryContract/treasurycontract.sol\":1339:1918  constructor(... */\n  callvalue\n  dup1\n  iszero\n  tag_1\n  jumpi\n  0x00\n  dup1\n  revert\ntag_1:\n  pop\n  mload(0x40)\n  sub(codesize, bytecodeSize)\n  dup1\n  bytecodeSize\n  dup4\n  codecopy\n  dup2\n  dup2\n  add\n  0x40\n  mstore\n  dup2\n  add\n  swap1\n  tag_2\n  swap2\n  swap1\n  tag_3\n  jump\t// in\ntag_2:\n    /* \"contracts/TreasuryContract/lib/Ownable.sol\":885:924  _transferOwnership(payable(msg.sender)) */\n  tag_7\n    /* \"contracts/TreasuryContract/lib/Ownable.sol\":912:922  msg.sender */\n  caller\n    /* \"contracts/TreasuryContract/lib/Ownable.sol\":885:903  _transferOwnership */\n  shl(0x20, tag_8)\n    /* \"contracts/TreasuryContract/lib/Ownable.sol\":885:924  _transferOwnership(payable(msg.sender)) */\n  0x20\n  shr\n  jump\t// in\ntag_7:\n    /* \"contracts/TreasuryContract/treasurycontract.sol\":1632:1661  _uniswapRouterContractAddress */\n  dup5\n    /* \"contracts/TreasuryContract/treasurycontract.sol\":1592:1610  iuniswapv2router02 */\n  0x02\n  0x00\n    /* \"contracts/TreasuryContract/treasurycontract.sol\":1592:1662  iuniswapv2router02 = IUniswapV2Router02(_uniswapRouterContractAddress) */\n  0x0100\n  exp\n  dup2\n  sload\n  dup2\n  0xffffffffffffffffffffffffffffffffffffffff\n  mul\n  not\n  and\n  swap1\n  dup4\n  0xffffffffffffffffffffffffffffffffffffffff\n  and\n  mul\n  or\n  swap1\n  sstore\n  pop\n    /* \"contracts/TreasuryContract/treasurycontract.sol\":1710:1742  _uniswapV2FactoryContractAddress */\n  dup4\n    /* \"contracts/TreasuryContract/treasurycontract.sol\":1673:1689  uniswapV2factory */\n  0x04\n  0x00\n    /* \"contracts/TreasuryContract/treasurycontract.sol\":1673:1743  uniswapV2factory = IUniswapV2Factory(_uniswapV2FactoryContractAddress) */\n  0x0100\n  exp\n  dup2\n  sload\n  dup2\n  0xffffffffffffffffffffffffffffffffffffffff\n  mul\n  not\n  and\n  swap1\n  dup4\n  0xffffffffffffffffffffffffffffffffffffffff\n  and\n  mul\n  or\n  swap1\n  sstore\n  pop\n    /* \"contracts/TreasuryContract/treasurycontract.sol\":1782:1810  _ilendingpoolContractAddress */\n  dup3\n    /* \"contracts/TreasuryContract/treasurycontract.sol\":1754:1766  ilendingpool */\n  0x03\n  0x00\n    /* \"contracts/TreasuryContract/treasurycontract.sol\":1754:1811  ilendingpool = ILendingPool(_ilendingpoolContractAddress) */\n  0x0100\n  exp\n  dup2\n  sload\n  dup2\n  0xffffffffffffffffffffffffffffffffffffffff\n  mul\n  not\n  and\n  swap1\n  dup4\n  0xffffffffffffffffffffffffffffffffffffffff\n  and\n  mul\n  or\n  swap1\n  sstore\n  pop\n    /* \"contracts/TreasuryContract/treasurycontract.sol\":1841:1858  _usdcTokenaddress */\n  dup2\n    /* \"contracts/TreasuryContract/treasurycontract.sol\":1822:1838  usdcTokenAddress */\n  0x05\n  0x00\n    /* \"contracts/TreasuryContract/treasurycontract.sol\":1822:1858  usdcTokenAddress = _usdcTokenaddress */\n  0x0100\n  exp\n  dup2\n  sload\n  dup2\n  0xffffffffffffffffffffffffffffffffffffffff\n  mul\n  not\n  and\n  swap1\n  dup4\n  0xffffffffffffffffffffffffffffffffffffffff\n  and\n  mul\n  or\n  swap1\n  sstore\n  pop\n    /* \"contracts/TreasuryContract/treasurycontract.sol\":1888:1910  _usdtTokenTokenAddress */\n  dup1\n    /* \"contracts/TreasuryContract/treasurycontract.sol\":1869:1885  usdtTokenAddress */\n  0x06\n  0x00\n    /* \"contracts/TreasuryContract/treasurycontract.sol\":1869:1910  usdtTokenAddress = _usdtTokenTokenAddress */\n  0x0100\n  exp\n  dup2\n  sload\n  dup2\n  0xffffffffffffffffffffffffffffffffffffffff\n  mul\n  not\n  and\n  swap1\n  dup4\n  0xffffffffffffffffffffffffffffffffffffffff\n  and\n  mul\n  or\n  swap1\n  sstore\n  pop\n    /* \"contracts/TreasuryContract/treasurycontract.sol\":1339:1918  constructor(... */\n  pop\n  pop\n  pop\n  pop\n  pop\n    /* \"contracts/TreasuryContract/treasurycontract.sol\":372:7139  contract Treasury is Ownable {... */\n  jump(tag_10)\n    /* \"contracts/TreasuryContract/lib/Ownable.sol\":940:1082  function _transferOwnership(address payable _whom) internal {... */\ntag_8:\n    /* \"contracts/TreasuryContract/lib/Ownable.sol\":1044:1049  _whom */\n  dup1\n    /* \"contracts/TreasuryContract/lib/Ownable.sol\":1016:1050  OwnershipTransferred(owner, _whom) */\n  0xffffffffffffffffffffffffffffffffffffffff\n  and\n    /* \"contracts/TreasuryContract/lib/Ownable.sol\":1037:1042  owner */\n  0x00\n  dup1\n  sload\n  swap1\n  0x0100\n  exp\n  swap1\n  div\n  0xffffffffffffffffffffffffffffffffffffffff\n  and\n    /* \"contracts/TreasuryContract/lib/Ownable.sol\":1016:1050  OwnershipTransferred(owner, _whom) */\n  0xffffffffffffffffffffffffffffffffffffffff\n  and\n  0x8be0079c531659141344cd1fd0a4f28419497f9722a3daafe3b4186f6b6457e0\n  mload(0x40)\n  mload(0x40)\n  dup1\n  swap2\n  sub\n  swap1\n  log3\n    /* \"contracts/TreasuryContract/lib/Ownable.sol\":1069:1074  _whom */\n  dup1\n    /* \"contracts/TreasuryContract/lib/Ownable.sol\":1061:1066  owner */\n  0x00\n  dup1\n    /* \"contracts/TreasuryContract/lib/Ownable.sol\":1061:1074  owner = _whom */\n  0x0100\n  exp\n  dup2\n  sload\n  dup2\n  0xffffffffffffffffffffffffffffffffffffffff\n  mul\n  not\n  and\n  swap1\n  dup4\n  0xffffffffffffffffffffffffffffffffffffffff\n  and\n  mul\n  or\n  swap1\n  sstore\n  pop\n    /* \"contracts/TreasuryContract/lib/Ownable.sol\":940:1082  function _transferOwnership(address payable _whom) internal {... */\n  pop\n  jump\t// out\n    /* \"#utility.yul\":88:205   */\ntag_13:\n    /* \"#utility.yul\":197:198   */\n  0x00\n    /* \"#utility.yul\":194:195   */\n  dup1\n    /* \"#utility.yul\":187:199   */\n  revert\n    /* \"#utility.yul\":334:460   */\ntag_15:\n    /* \"#utility.yul\":371:378   */\n  0x00\n    /* \"#utility.yul\":411:453   */\n  0xffffffffffffffffffffffffffffffffffffffff\n    /* \"#utility.yul\":404:409   */\n  dup3\n    /* \"#utility.yul\":400:454   */\n  and\n    /* \"#utility.yul\":389:454   */\n  swap1\n  pop\n    /* \"#utility.yul\":334:460   */\n  swap2\n  swap1\n  pop\n  jump\t// out\n    /* \"#utility.yul\":466:562   */\ntag_16:\n    /* \"#utility.yul\":503:510   */\n  0x00\n    /* \"#utility.yul\":532:556   */\n  tag_25\n    /* \"#utility.yul\":550:555   */\n  dup3\n    /* \"#utility.yul\":532:556   */\n  tag_15\n  jump\t// in\ntag_25:\n    /* \"#utility.yul\":521:556   */\n  swap1\n  pop\n    /* \"#utility.yul\":466:562   */\n  swap2\n  swap1\n  pop\n  jump\t// out\n    /* \"#utility.yul\":568:690   */\ntag_17:\n    /* \"#utility.yul\":641:665   */\n  tag_27\n    /* \"#utility.yul\":659:664   */\n  dup2\n    /* \"#utility.yul\":641:665   */\n  tag_16\n  jump\t// in\ntag_27:\n    /* \"#utility.yul\":634:639   */\n  dup2\n    /* \"#utility.yul\":631:666   */\n  eq\n    /* \"#utility.yul\":621:684   */\n  tag_28\n  jumpi\n    /* \"#utility.yul\":680:681   */\n  0x00\n    /* \"#utility.yul\":677:678   */\n  dup1\n    /* \"#utility.yul\":670:682   */\n  revert\n    /* \"#utility.yul\":621:684   */\ntag_28:\n    /* \"#utility.yul\":568:690   */\n  pop\n  jump\t// out\n    /* \"#utility.yul\":696:839   */\ntag_18:\n    /* \"#utility.yul\":753:758   */\n  0x00\n    /* \"#utility.yul\":784:790   */\n  dup2\n    /* \"#utility.yul\":778:791   */\n  mload\n    /* \"#utility.yul\":769:791   */\n  swap1\n  pop\n    /* \"#utility.yul\":800:833   */\n  tag_30\n    /* \"#utility.yul\":827:832   */\n  dup2\n    /* \"#utility.yul\":800:833   */\n  tag_17\n  jump\t// in\ntag_30:\n    /* \"#utility.yul\":696:839   */\n  swap3\n  swap2\n  pop\n  pop\n  jump\t// out\n    /* \"#utility.yul\":845:1822   */\ntag_3:\n    /* \"#utility.yul\":951:957   */\n  0x00\n    /* \"#utility.yul\":959:965   */\n  dup1\n    /* \"#utility.yul\":967:973   */\n  0x00\n    /* \"#utility.yul\":975:981   */\n  dup1\n    /* \"#utility.yul\":983:989   */\n  0x00\n    /* \"#utility.yul\":1032:1035   */\n  0xa0\n    /* \"#utility.yul\":1020:1029   */\n  dup7\n    /* \"#utility.yul\":1011:1018   */\n  dup9\n    /* \"#utility.yul\":1007:1030   */\n  sub\n    /* \"#utility.yul\":1003:1036   */\n  slt\n    /* \"#utility.yul\":1000:1120   */\n  iszero\n  tag_32\n  jumpi\n    /* \"#utility.yul\":1039:1118   */\n  tag_33\n  tag_13\n  jump\t// in\ntag_33:\n    /* \"#utility.yul\":1000:1120   */\ntag_32:\n    /* \"#utility.yul\":1159:1160   */\n  0x00\n    /* \"#utility.yul\":1184:1248   */\n  tag_34\n    /* \"#utility.yul\":1240:1247   */\n  dup9\n    /* \"#utility.yul\":1231:1237   */\n  dup3\n    /* \"#utility.yul\":1220:1229   */\n  dup10\n    /* \"#utility.yul\":1216:1238   */\n  add\n    /* \"#utility.yul\":1184:1248   */\n  tag_18\n  jump\t// in\ntag_34:\n    /* \"#utility.yul\":1174:1248   */\n  swap6\n  pop\n    /* \"#utility.yul\":1130:1258   */\n  pop\n    /* \"#utility.yul\":1297:1299   */\n  0x20\n    /* \"#utility.yul\":1323:1387   */\n  tag_35\n    /* \"#utility.yul\":1379:1386   */\n  dup9\n    /* \"#utility.yul\":1370:1376   */\n  dup3\n    /* \"#utility.yul\":1359:1368   */\n  dup10\n    /* \"#utility.yul\":1355:1377   */\n  add\n    /* \"#utility.yul\":1323:1387   */\n  tag_18\n  jump\t// in\ntag_35:\n    /* \"#utility.yul\":1313:1387   */\n  swap5\n  pop\n    /* \"#utility.yul\":1268:1397   */\n  pop\n    /* \"#utility.yul\":1436:1438   */\n  0x40\n    /* \"#utility.yul\":1462:1526   */\n  tag_36\n    /* \"#utility.yul\":1518:1525   */\n  dup9\n    /* \"#utility.yul\":1509:1515   */\n  dup3\n    /* \"#utility.yul\":1498:1507   */\n  dup10\n    /* \"#utility.yul\":1494:1516   */\n  add\n    /* \"#utility.yul\":1462:1526   */\n  tag_18\n  jump\t// in\ntag_36:\n    /* \"#utility.yul\":1452:1526   */\n  swap4\n  pop\n    /* \"#utility.yul\":1407:1536   */\n  pop\n    /* \"#utility.yul\":1575:1577   */\n  0x60\n    /* \"#utility.yul\":1601:1665   */\n  tag_37\n    /* \"#utility.yul\":1657:1664   */\n  dup9\n    /* \"#utility.yul\":1648:1654   */\n  dup3\n    /* \"#utility.yul\":1637:1646   */\n  dup10\n    /* \"#utility.yul\":1633:1655   */\n  add\n    /* \"#utility.yul\":1601:1665   */\n  tag_18\n  jump\t// in\ntag_37:\n    /* \"#utility.yul\":1591:1665   */\n  swap3\n  pop\n    /* \"#utility.yul\":1546:1675   */\n  pop\n    /* \"#utility.yul\":1714:1717   */\n  0x80\n    /* \"#utility.yul\":1741:1805   */\n  tag_38\n    /* \"#utility.yul\":1797:1804   */\n  dup9\n    /* \"#utility.yul\":1788:1794   */\n  dup3\n    /* \"#utility.yul\":1777:1786   */\n  dup10\n    /* \"#utility.yul\":1773:1795   */\n  add\n    /* \"#utility.yul\":1741:1805   */\n  tag_18\n  jump\t// in\ntag_38:\n    /* \"#utility.yul\":1731:1805   */\n  swap2\n  pop\n    /* \"#utility.yul\":1685:1815   */\n  pop\n    /* \"#utility.yul\":845:1822   */\n  swap3\n  swap6\n  pop\n  swap3\n  swap6\n  swap1\n  swap4\n  pop\n  jump\t// out\n    /* \"contracts/TreasuryContract/treasurycontract.sol\":372:7139  contract Treasury is Ownable {... */\ntag_10:\n  mload(0x80)\n  codecopy(0x00, dataOffset(sub_0), dataSize(sub_0))\n  0x00\n  assignImmutable(\"0xa98a2f5aeb9ac9608e39eb3f8b40f1c25875f48fb0abb123ad85a5ab2ba25315\")\n  return(0x00, dataSize(sub_0))\nstop\n\nsub_0: assembly {\n        /* \"contracts/TreasuryContract/treasurycontract.sol\":372:7139  contract Treasury is Ownable {... */\n      mstore(0x40, 0x80)\n      callvalue\n      dup1\n      iszero\n      tag_1\n      jumpi\n      0x00\n      dup1\n      revert\n    tag_1:\n      pop\n      jumpi(tag_2, lt(calldatasize, 0x04))\n      shr(0xe0, calldataload(0x00))\n      dup1\n      0x9d741e5d\n      gt\n      tag_25\n      jumpi\n      dup1\n      0xd4ee1d90\n      gt\n      tag_26\n      jumpi\n      dup1\n      0xd4ee1d90\n      eq\n      tag_19\n      jumpi\n      dup1\n      0xd522dd96\n      eq\n      tag_20\n      jumpi\n      dup1\n      0xef1b3166\n      eq\n      tag_21\n      jumpi\n      dup1\n      0xf2fde38b\n      eq\n      tag_22\n      jumpi\n      dup1\n      0xf785ccd0\n      eq\n      tag_23\n      jumpi\n      dup1\n      0xfea54e02\n      eq\n      tag_24\n      jumpi\n      jump(tag_2)\n    tag_26:\n      dup1\n      0x9d741e5d\n      eq\n      tag_14\n      jumpi\n      dup1\n      0xa741ff7c\n      eq\n      tag_15\n      jumpi\n      dup1\n      0xb1c7f1f2\n      eq\n      tag_16\n      jumpi\n      dup1\n      0xb583ba9c\n      eq\n      tag_17\n      jumpi\n      dup1\n      0xc40ce80f\n      eq\n      tag_18\n      jumpi\n      jump(tag_2)\n    tag_25:\n      dup1\n      0x52d66e9c\n      gt\n      tag_27\n      jumpi\n      dup1\n      0x52d66e9c\n      eq\n      tag_8\n      jumpi\n      dup1\n      0x70fe251b\n      eq\n      tag_9\n      jumpi\n      dup1\n      0x72eb856b\n      eq\n      tag_10\n      jumpi\n      dup1\n      0x77b53ece\n      eq\n      tag_11\n      jumpi\n      dup1\n      0x79ba5097\n      eq\n      tag_12\n      jumpi\n      dup1\n      0x8da5cb5b\n      eq\n      tag_13\n      jumpi\n      jump(tag_2)\n    tag_27:\n      dup1\n      0x042f6d0c\n      eq\n      tag_3\n      jumpi\n      dup1\n      0x2a9b20be\n      eq\n      tag_4\n      jumpi\n      dup1\n      0x4746e0cc\n      eq\n      tag_5\n      jumpi\n      dup1\n      0x51e8fa94\n      eq\n      tag_6\n      jumpi\n      dup1\n      0x52bff014\n      eq\n      tag_7\n      jumpi\n    tag_2:\n      0x00\n      dup1\n      revert\n        /* \"contracts/TreasuryContract/treasurycontract.sol\":6461:6598  function calculateAggregatedYeild() public view returns (uint256){... */\n    tag_3:\n      tag_28\n      tag_29\n      jump\t// in\n    tag_28:\n      mload(0x40)\n      tag_30\n      swap2\n      swap1\n      tag_31\n      jump\t// in\n    tag_30:\n      mload(0x40)\n      dup1\n      swap2\n      sub\n      swap1\n      return\n        /* \"contracts/TreasuryContract/treasurycontract.sol\":2161:2495  function onlyDeposit(uint256 amount) public returns (bool) {... */\n    tag_4:\n      tag_32\n      0x04\n      dup1\n      calldatasize\n      sub\n      dup2\n      add\n      swap1\n      tag_33\n      swap2\n      swap1\n      tag_34\n      jump\t// in\n    tag_33:\n      tag_35\n      jump\t// in\n    tag_32:\n      mload(0x40)\n      tag_36\n      swap2\n      swap1\n      tag_37\n      jump\t// in\n    tag_36:\n      mload(0x40)\n      dup1\n      swap2\n      sub\n      swap1\n      return\n        /* \"contracts/TreasuryContract/treasurycontract.sol\":2775:3169  function addFundsToAave(uint256 _amount) public returns (bool) {... */\n    tag_5:\n      tag_38\n      0x04\n      dup1\n      calldatasize\n      sub\n      dup2\n      add\n      swap1\n      tag_39\n      swap2\n      swap1\n      tag_34\n      jump\t// in\n    tag_39:\n      tag_40\n      jump\t// in\n    tag_38:\n      mload(0x40)\n      tag_41\n      swap2\n      swap1\n      tag_37\n      jump\t// in\n    tag_41:\n      mload(0x40)\n      dup1\n      swap2\n      sub\n      swap1\n      return\n        /* \"contracts/TreasuryContract/treasurycontract.sol\":6057:6449  function calculateAaveYield() public view returns (uint256) {... */\n    tag_6:\n      tag_42\n      tag_43\n      jump\t// in\n    tag_42:\n      mload(0x40)\n      tag_44\n      swap2\n      swap1\n      tag_31\n      jump\t// in\n    tag_44:\n      mload(0x40)\n      dup1\n      swap2\n      sub\n      swap1\n      return\n        /* \"contracts/TreasuryContract/treasurycontract.sol\":821:865  IUniswapV2Router02 public iuniswapv2router02 */\n    tag_7:\n      tag_45\n      tag_46\n      jump\t// in\n    tag_45:\n      mload(0x40)\n      tag_47\n      swap2\n      swap1\n      tag_48\n      jump\t// in\n    tag_47:\n      mload(0x40)\n      dup1\n      swap2\n      sub\n      swap1\n      return\n        /* \"contracts/TreasuryContract/treasurycontract.sol\":1106:1135  uint256 public aaveRatio = 50 */\n    tag_8:\n      tag_49\n      tag_50\n      jump\t// in\n    tag_49:\n      mload(0x40)\n      tag_51\n      swap2\n      swap1\n      tag_31\n      jump\t// in\n    tag_51:\n      mload(0x40)\n      dup1\n      swap2\n      sub\n      swap1\n      return\n        /* \"contracts/TreasuryContract/treasurycontract.sol\":911:952  IUniswapV2Factory public uniswapV2factory */\n    tag_9:\n      tag_52\n      tag_53\n      jump\t// in\n    tag_52:\n      mload(0x40)\n      tag_54\n      swap2\n      swap1\n      tag_55\n      jump\t// in\n    tag_54:\n      mload(0x40)\n      dup1\n      swap2\n      sub\n      swap1\n      return\n        /* \"contracts/TreasuryContract/treasurycontract.sol\":1045:1077  uint256 public uniswapRatio = 50 */\n    tag_10:\n      tag_56\n      tag_57\n      jump\t// in\n    tag_56:\n      mload(0x40)\n      tag_58\n      swap2\n      swap1\n      tag_31\n      jump\t// in\n    tag_58:\n      mload(0x40)\n      dup1\n      swap2\n      sub\n      swap1\n      return\n        /* \"contracts/TreasuryContract/treasurycontract.sol\":961:992  address public usdcTokenAddress */\n    tag_11:\n      tag_59\n      tag_60\n      jump\t// in\n    tag_59:\n      mload(0x40)\n      tag_61\n      swap2\n      swap1\n      tag_62\n      jump\t// in\n    tag_61:\n      mload(0x40)\n      dup1\n      swap2\n      sub\n      swap1\n      return\n        /* \"contracts/TreasuryContract/lib/Ownable.sol\":1561:1827  function acceptOwnership() external returns (bool) {... */\n    tag_12:\n      tag_63\n      tag_64\n      jump\t// in\n    tag_63:\n      mload(0x40)\n      tag_65\n      swap2\n      swap1\n      tag_37\n      jump\t// in\n    tag_65:\n      mload(0x40)\n      dup1\n      swap2\n      sub\n      swap1\n      return\n        /* \"contracts/TreasuryContract/lib/Ownable.sol\":594:622  address payable public owner */\n    tag_13:\n      tag_66\n      tag_67\n      jump\t// in\n    tag_66:\n      mload(0x40)\n      tag_68\n      swap2\n      swap1\n      tag_69\n      jump\t// in\n    tag_68:\n      mload(0x40)\n      dup1\n      swap2\n      sub\n      swap1\n      return\n        /* \"contracts/TreasuryContract/treasurycontract.sol\":999:1030  address public usdtTokenAddress */\n    tag_14:\n      tag_70\n      tag_71\n      jump\t// in\n    tag_70:\n      mload(0x40)\n      tag_72\n      swap2\n      swap1\n      tag_62\n      jump\t// in\n    tag_72:\n      mload(0x40)\n      dup1\n      swap2\n      sub\n      swap1\n      return\n        /* \"contracts/TreasuryContract/treasurycontract.sol\":5311:6049  function calculateUniswapYeild() public view returns (uint256) {... */\n    tag_15:\n      tag_73\n      tag_74\n      jump\t// in\n    tag_73:\n      mload(0x40)\n      tag_75\n      swap2\n      swap1\n      tag_31\n      jump\t// in\n    tag_75:\n      mload(0x40)\n      dup1\n      swap2\n      sub\n      swap1\n      return\n        /* \"contracts/TreasuryContract/treasurycontract.sol\":872:904  ILendingPool public ilendingpool */\n    tag_16:\n      tag_76\n      tag_77\n      jump\t// in\n    tag_76:\n      mload(0x40)\n      tag_78\n      swap2\n      swap1\n      tag_79\n      jump\t// in\n    tag_78:\n      mload(0x40)\n      dup1\n      swap2\n      sub\n      swap1\n      return\n        /* \"contracts/TreasuryContract/treasurycontract.sol\":6606:7136  function withdrawAllToWallet() public returns (bool){... */\n    tag_17:\n      tag_80\n      tag_81\n      jump\t// in\n    tag_80:\n      mload(0x40)\n      tag_82\n      swap2\n      swap1\n      tag_37\n      jump\t// in\n    tag_82:\n      mload(0x40)\n      dup1\n      swap2\n      sub\n      swap1\n      return\n        /* \"contracts/TreasuryContract/treasurycontract.sol\":3177:4177  function addLiquidityToUniswap(uint256 _amount) public returns (bool){... */\n    tag_18:\n      tag_83\n      0x04\n      dup1\n      calldatasize\n      sub\n      dup2\n      add\n      swap1\n      tag_84\n      swap2\n      swap1\n      tag_34\n      jump\t// in\n    tag_84:\n      tag_85\n      jump\t// in\n    tag_83:\n      mload(0x40)\n      tag_86\n      swap2\n      swap1\n      tag_37\n      jump\t// in\n    tag_86:\n      mload(0x40)\n      dup1\n      swap2\n      sub\n      swap1\n      return\n        /* \"contracts/TreasuryContract/lib/Ownable.sol\":629:660  address payable public newOwner */\n    tag_19:\n      tag_87\n      tag_88\n      jump\t// in\n    tag_87:\n      mload(0x40)\n      tag_89\n      swap2\n      swap1\n      tag_69\n      jump\t// in\n    tag_89:\n      mload(0x40)\n      dup1\n      swap2\n      sub\n      swap1\n      return\n        /* \"contracts/TreasuryContract/treasurycontract.sol\":4187:4621  function depositAndDistributeFunds(uint256 _amount) public returns(bool)  {... */\n    tag_20:\n      tag_90\n      0x04\n      dup1\n      calldatasize\n      sub\n      dup2\n      add\n      swap1\n      tag_91\n      swap2\n      swap1\n      tag_34\n      jump\t// in\n    tag_91:\n      tag_92\n      jump\t// in\n    tag_90:\n      mload(0x40)\n      tag_93\n      swap2\n      swap1\n      tag_37\n      jump\t// in\n    tag_93:\n      mload(0x40)\n      dup1\n      swap2\n      sub\n      swap1\n      return\n        /* \"contracts/TreasuryContract/treasurycontract.sol\":4629:5303  function withdrawFromPool(uint256 _amount, uint256 key ) external onlyOwner() returns(bool) {... */\n    tag_21:\n      tag_94\n      0x04\n      dup1\n      calldatasize\n      sub\n      dup2\n      add\n      swap1\n      tag_95\n      swap2\n      swap1\n      tag_96\n      jump\t// in\n    tag_95:\n      tag_97\n      jump\t// in\n    tag_94:\n      mload(0x40)\n      tag_98\n      swap2\n      swap1\n      tag_37\n      jump\t// in\n    tag_98:\n      mload(0x40)\n      dup1\n      swap2\n      sub\n      swap1\n      return\n        /* \"contracts/TreasuryContract/lib/Ownable.sol\":1441:1553  function transferOwnership(address payable _newOwner) external onlyOwner {... */\n    tag_22:\n      tag_99\n      0x04\n      dup1\n      calldatasize\n      sub\n      dup2\n      add\n      swap1\n      tag_100\n      swap2\n      swap1\n      tag_101\n      jump\t// in\n    tag_100:\n      tag_102\n      jump\t// in\n    tag_99:\n      stop\n        /* \"contracts/TreasuryContract/treasurycontract.sol\":2503:2765  function setRatio(uint256 _uniRatio, uint256 _aaveRatio)public onlyOwner() returns(bool){... */\n    tag_23:\n      tag_103\n      0x04\n      dup1\n      calldatasize\n      sub\n      dup2\n      add\n      swap1\n      tag_104\n      swap2\n      swap1\n      tag_96\n      jump\t// in\n    tag_104:\n      tag_105\n      jump\t// in\n    tag_103:\n      mload(0x40)\n      tag_106\n      swap2\n      swap1\n      tag_37\n      jump\t// in\n    tag_106:\n      mload(0x40)\n      dup1\n      swap2\n      sub\n      swap1\n      return\n        /* \"contracts/TreasuryContract/treasurycontract.sol\":1926:2153  function getCurrentLiquidityRate(address asset) public view returns (uint128) {... */\n    tag_24:\n      tag_107\n      0x04\n      dup1\n      calldatasize\n      sub\n      dup2\n      add\n      swap1\n      tag_108\n      swap2\n      swap1\n      tag_109\n      jump\t// in\n    tag_108:\n      tag_110\n      jump\t// in\n    tag_107:\n      mload(0x40)\n      tag_111\n      swap2\n      swap1\n      tag_112\n      jump\t// in\n    tag_111:\n      mload(0x40)\n      dup1\n      swap2\n      sub\n      swap1\n      return\n        /* \"contracts/TreasuryContract/treasurycontract.sol\":6461:6598  function calculateAggregatedYeild() public view returns (uint256){... */\n    tag_29:\n        /* \"contracts/TreasuryContract/treasurycontract.sol\":6518:6525  uint256 */\n      0x00\n        /* \"contracts/TreasuryContract/treasurycontract.sol\":6567:6590  calculateUniswapYeild() */\n      tag_114\n        /* \"contracts/TreasuryContract/treasurycontract.sol\":6567:6588  calculateUniswapYeild */\n      tag_74\n        /* \"contracts/TreasuryContract/treasurycontract.sol\":6567:6590  calculateUniswapYeild() */\n      jump\t// in\n    tag_114:\n        /* \"contracts/TreasuryContract/treasurycontract.sol\":6544:6564  calculateAaveYield() */\n      tag_115\n        /* \"contracts/TreasuryContract/treasurycontract.sol\":6544:6562  calculateAaveYield */\n      tag_43\n        /* \"contracts/TreasuryContract/treasurycontract.sol\":6544:6564  calculateAaveYield() */\n      jump\t// in\n    tag_115:\n        /* \"contracts/TreasuryContract/treasurycontract.sol\":6544:6590  calculateAaveYield() + calculateUniswapYeild() */\n      tag_116\n      swap2\n      swap1\n      tag_117\n      jump\t// in\n    tag_116:\n        /* \"contracts/TreasuryContract/treasurycontract.sol\":6537:6590  return calculateAaveYield() + calculateUniswapYeild() */\n      swap1\n      pop\n        /* \"contracts/TreasuryContract/treasurycontract.sol\":6461:6598  function calculateAggregatedYeild() public view returns (uint256){... */\n      swap1\n      jump\t// out\n        /* \"contracts/TreasuryContract/treasurycontract.sol\":2161:2495  function onlyDeposit(uint256 amount) public returns (bool) {... */\n    tag_35:\n        /* \"contracts/TreasuryContract/treasurycontract.sol\":2214:2218  bool */\n      0x00\n        /* \"contracts/TreasuryContract/treasurycontract.sol\":2246:2247  0 */\n      dup1\n        /* \"contracts/TreasuryContract/treasurycontract.sol\":2239:2245  amount */\n      dup3\n        /* \"contracts/TreasuryContract/treasurycontract.sol\":2239:2247  amount>0 */\n      gt\n        /* \"contracts/TreasuryContract/treasurycontract.sol\":2231:2268  require(amount>0,\"amount can't be 0\") */\n      tag_119\n      jumpi\n      mload(0x40)\n      0x08c379a000000000000000000000000000000000000000000000000000000000\n      dup2\n      mstore\n      0x04\n      add\n      tag_120\n      swap1\n      tag_121\n      jump\t// in\n    tag_120:\n      mload(0x40)\n      dup1\n      swap2\n      sub\n      swap1\n      revert\n    tag_119:\n        /* \"contracts/TreasuryContract/treasurycontract.sol\":2281:2297  IERC20 usdcToken */\n      0x00\n        /* \"contracts/TreasuryContract/treasurycontract.sol\":2307:2323  usdcTokenAddress */\n      0x05\n      0x00\n      swap1\n      sload\n      swap1\n      0x0100\n      exp\n      swap1\n      div\n      0xffffffffffffffffffffffffffffffffffffffff\n      and\n        /* \"contracts/TreasuryContract/treasurycontract.sol\":2281:2324  IERC20 usdcToken = IERC20(usdcTokenAddress) */\n      swap1\n      pop\n        /* \"contracts/TreasuryContract/treasurycontract.sol\":2357:2366  usdcToken */\n      dup1\n        /* \"contracts/TreasuryContract/treasurycontract.sol\":2357:2379  usdcToken.transferFrom */\n      0xffffffffffffffffffffffffffffffffffffffff\n      and\n      0x23b872dd\n        /* \"contracts/TreasuryContract/treasurycontract.sol\":2380:2390  msg.sender */\n      caller\n        /* \"contracts/TreasuryContract/treasurycontract.sol\":2400:2404  this */\n      address\n        /* \"contracts/TreasuryContract/treasurycontract.sol\":2407:2413  amount */\n      dup7\n        /* \"contracts/TreasuryContract/treasurycontract.sol\":2357:2414  usdcToken.transferFrom(msg.sender, address(this), amount) */\n      mload(0x40)\n      dup5\n      0xffffffff\n      and\n      0xe0\n      shl\n      dup2\n      mstore\n      0x04\n      add\n      tag_122\n      swap4\n      swap3\n      swap2\n      swap1\n      tag_123\n      jump\t// in\n    tag_122:\n      0x20\n      mload(0x40)\n      dup1\n      dup4\n      sub\n      dup2\n      0x00\n      dup8\n      gas\n      call\n      iszero\n      dup1\n      iszero\n      tag_125\n      jumpi\n      returndatasize\n      0x00\n      dup1\n      returndatacopy\n      revert(0x00, returndatasize)\n    tag_125:\n      pop\n      pop\n      pop\n      pop\n      mload(0x40)\n      returndatasize\n      not(0x1f)\n      0x1f\n      dup3\n      add\n      and\n      dup3\n      add\n      dup1\n      0x40\n      mstore\n      pop\n      dup2\n      add\n      swap1\n      tag_126\n      swap2\n      swap1\n      tag_127\n      jump\t// in\n    tag_126:\n        /* \"contracts/TreasuryContract/treasurycontract.sol\":2335:2465  require(... */\n      tag_128\n      jumpi\n      mload(0x40)\n      0x08c379a000000000000000000000000000000000000000000000000000000000\n      dup2\n      mstore\n      0x04\n      add\n      tag_129\n      swap1\n      tag_130\n      jump\t// in\n    tag_129:\n      mload(0x40)\n      dup1\n      swap2\n      sub\n      swap1\n      revert\n    tag_128:\n        /* \"contracts/TreasuryContract/treasurycontract.sol\":2483:2487  true */\n      0x01\n        /* \"contracts/TreasuryContract/treasurycontract.sol\":2476:2487  return true */\n      swap2\n      pop\n      pop\n        /* \"contracts/TreasuryContract/treasurycontract.sol\":2161:2495  function onlyDeposit(uint256 amount) public returns (bool) {... */\n      swap2\n      swap1\n      pop\n      jump\t// out\n        /* \"contracts/TreasuryContract/treasurycontract.sol\":2775:3169  function addFundsToAave(uint256 _amount) public returns (bool) {... */\n    tag_40:\n        /* \"contracts/TreasuryContract/treasurycontract.sol\":2832:2836  bool */\n      0x00\n        /* \"contracts/TreasuryContract/treasurycontract.sol\":2865:2866  0 */\n      dup1\n        /* \"contracts/TreasuryContract/treasurycontract.sol\":2857:2864  _amount */\n      dup3\n        /* \"contracts/TreasuryContract/treasurycontract.sol\":2857:2866  _amount>0 */\n      gt\n        /* \"contracts/TreasuryContract/treasurycontract.sol\":2849:2887  require(_amount>0,\"amount can't be 0\") */\n      tag_132\n      jumpi\n      mload(0x40)\n      0x08c379a000000000000000000000000000000000000000000000000000000000\n      dup2\n      mstore\n      0x04\n      add\n      tag_133\n      swap1\n      tag_121\n      jump\t// in\n    tag_133:\n      mload(0x40)\n      dup1\n      swap2\n      sub\n      swap1\n      revert\n    tag_132:\n        /* \"contracts/TreasuryContract/treasurycontract.sol\":2957:2964  _amount */\n      dup2\n        /* \"contracts/TreasuryContract/treasurycontract.sol\":2913:2929  usdcTokenAddress */\n      0x05\n      0x00\n      swap1\n      sload\n      swap1\n      0x0100\n      exp\n      swap1\n      div\n      0xffffffffffffffffffffffffffffffffffffffff\n      and\n        /* \"contracts/TreasuryContract/treasurycontract.sol\":2906:2940  IERC20(usdcTokenAddress).balanceOf */\n      0xffffffffffffffffffffffffffffffffffffffff\n      and\n      0x70a08231\n        /* \"contracts/TreasuryContract/treasurycontract.sol\":2949:2953  this */\n      address\n        /* \"contracts/TreasuryContract/treasurycontract.sol\":2906:2955  IERC20(usdcTokenAddress).balanceOf(address(this)) */\n      mload(0x40)\n      dup3\n      0xffffffff\n      and\n      0xe0\n      shl\n      dup2\n      mstore\n      0x04\n      add\n      tag_134\n      swap2\n      swap1\n      tag_62\n      jump\t// in\n    tag_134:\n      0x20\n      mload(0x40)\n      dup1\n      dup4\n      sub\n      dup2\n      dup7\n      gas\n      staticcall\n      iszero\n      dup1\n      iszero\n      tag_136\n      jumpi\n      returndatasize\n      0x00\n      dup1\n      returndatacopy\n      revert(0x00, returndatasize)\n    tag_136:\n      pop\n      pop\n      pop\n      pop\n      mload(0x40)\n      returndatasize\n      not(0x1f)\n      0x1f\n      dup3\n      add\n      and\n      dup3\n      add\n      dup1\n      0x40\n      mstore\n      pop\n      dup2\n      add\n      swap1\n      tag_137\n      swap2\n      swap1\n      tag_138\n      jump\t// in\n    tag_137:\n        /* \"contracts/TreasuryContract/treasurycontract.sol\":2906:2964  IERC20(usdcTokenAddress).balanceOf(address(this))>=_amount */\n      lt\n      iszero\n        /* \"contracts/TreasuryContract/treasurycontract.sol\":2898:2984  require(IERC20(usdcTokenAddress).balanceOf(address(this))>=_amount,\"not enough funds\") */\n      tag_139\n      jumpi\n      mload(0x40)\n      0x08c379a000000000000000000000000000000000000000000000000000000000\n      dup2\n      mstore\n      0x04\n      add\n      tag_140\n      swap1\n      tag_141\n      jump\t// in\n    tag_140:\n      mload(0x40)\n      dup1\n      swap2\n      sub\n      swap1\n      revert\n    tag_139:\n        /* \"contracts/TreasuryContract/treasurycontract.sol\":3004:3020  usdcTokenAddress */\n      0x05\n      0x00\n      swap1\n      sload\n      swap1\n      0x0100\n      exp\n      swap1\n      div\n      0xffffffffffffffffffffffffffffffffffffffff\n      and\n        /* \"contracts/TreasuryContract/treasurycontract.sol\":2997:3029  IERC20(usdcTokenAddress).approve */\n      0xffffffffffffffffffffffffffffffffffffffff\n      and\n      0x095ea7b3\n        /* \"contracts/TreasuryContract/treasurycontract.sol\":3038:3050  ilendingpool */\n      0x03\n      0x00\n      swap1\n      sload\n      swap1\n      0x0100\n      exp\n      swap1\n      div\n      0xffffffffffffffffffffffffffffffffffffffff\n      and\n        /* \"contracts/TreasuryContract/treasurycontract.sol\":3053:3060  _amount */\n      dup5\n        /* \"contracts/TreasuryContract/treasurycontract.sol\":2997:3061  IERC20(usdcTokenAddress).approve(address(ilendingpool), _amount) */\n      mload(0x40)\n      dup4\n      0xffffffff\n      and\n      0xe0\n      shl\n      dup2\n      mstore\n      0x04\n      add\n      tag_142\n      swap3\n      swap2\n      swap1\n      tag_143\n      jump\t// in\n    tag_142:\n      0x20\n      mload(0x40)\n      dup1\n      dup4\n      sub\n      dup2\n      0x00\n      dup8\n      gas\n      call\n      iszero\n      dup1\n      iszero\n      tag_145\n      jumpi\n      returndatasize\n      0x00\n      dup1\n      returndatacopy\n      revert(0x00, returndatasize)\n    tag_145:\n      pop\n      pop\n      pop\n      pop\n      mload(0x40)\n      returndatasize\n      not(0x1f)\n      0x1f\n      dup3\n      add\n      and\n      dup3\n      add\n      dup1\n      0x40\n      mstore\n      pop\n      dup2\n      add\n      swap1\n      tag_146\n      swap2\n      swap1\n      tag_127\n      jump\t// in\n    tag_146:\n      pop\n        /* \"contracts/TreasuryContract/treasurycontract.sol\":3072:3084  ilendingpool */\n      0x03\n      0x00\n      swap1\n      sload\n      swap1\n      0x0100\n      exp\n      swap1\n      div\n      0xffffffffffffffffffffffffffffffffffffffff\n      and\n        /* \"contracts/TreasuryContract/treasurycontract.sol\":3072:3092  ilendingpool.deposit */\n      0xffffffffffffffffffffffffffffffffffffffff\n      and\n      0xe8eda9df\n        /* \"contracts/TreasuryContract/treasurycontract.sol\":3093:3109  usdcTokenAddress */\n      0x05\n      0x00\n      swap1\n      sload\n      swap1\n      0x0100\n      exp\n      swap1\n      div\n      0xffffffffffffffffffffffffffffffffffffffff\n      and\n        /* \"contracts/TreasuryContract/treasurycontract.sol\":3111:3118  _amount */\n      dup5\n        /* \"contracts/TreasuryContract/treasurycontract.sol\":3128:3132  this */\n      address\n        /* \"contracts/TreasuryContract/treasurycontract.sol\":3135:3136  0 */\n      0x00\n        /* \"contracts/TreasuryContract/treasurycontract.sol\":3072:3137  ilendingpool.deposit(usdcTokenAddress, _amount, address(this), 0) */\n      mload(0x40)\n      dup6\n      0xffffffff\n      and\n      0xe0\n      shl\n      dup2\n      mstore\n      0x04\n      add\n      tag_147\n      swap5\n      swap4\n      swap3\n      swap2\n      swap1\n      tag_148\n      jump\t// in\n    tag_147:\n      0x00\n      mload(0x40)\n      dup1\n      dup4\n      sub\n      dup2\n      0x00\n      dup8\n      dup1\n      extcodesize\n      iszero\n      dup1\n      iszero\n      tag_149\n      jumpi\n      0x00\n      dup1\n      revert\n    tag_149:\n      pop\n      gas\n      call\n      iszero\n      dup1\n      iszero\n      tag_151\n      jumpi\n      returndatasize\n      0x00\n      dup1\n      returndatacopy\n      revert(0x00, returndatasize)\n    tag_151:\n      pop\n      pop\n      pop\n      pop\n        /* \"contracts/TreasuryContract/treasurycontract.sol\":3157:3161  true */\n      0x01\n        /* \"contracts/TreasuryContract/treasurycontract.sol\":3150:3161  return true */\n      swap1\n      pop\n        /* \"contracts/TreasuryContract/treasurycontract.sol\":2775:3169  function addFundsToAave(uint256 _amount) public returns (bool) {... */\n      swap2\n      swap1\n      pop\n      jump\t// out\n        /* \"contracts/TreasuryContract/treasurycontract.sol\":6057:6449  function calculateAaveYield() public view returns (uint256) {... */\n    tag_43:\n        /* \"contracts/TreasuryContract/treasurycontract.sol\":6108:6115  uint256 */\n      0x00\n        /* \"contracts/TreasuryContract/treasurycontract.sol\":6128:6156  uint128 currentLiquidityRate */\n      dup1\n        /* \"contracts/TreasuryContract/treasurycontract.sol\":6159:6200  getCurrentLiquidityRate(usdcTokenAddress) */\n      tag_153\n        /* \"contracts/TreasuryContract/treasurycontract.sol\":6183:6199  usdcTokenAddress */\n      0x05\n      0x00\n      swap1\n      sload\n      swap1\n      0x0100\n      exp\n      swap1\n      div\n      0xffffffffffffffffffffffffffffffffffffffff\n      and\n        /* \"contracts/TreasuryContract/treasurycontract.sol\":6159:6182  getCurrentLiquidityRate */\n      tag_110\n        /* \"contracts/TreasuryContract/treasurycontract.sol\":6159:6200  getCurrentLiquidityRate(usdcTokenAddress) */\n      jump\t// in\n    tag_153:\n        /* \"contracts/TreasuryContract/treasurycontract.sol\":6128:6200  uint128 currentLiquidityRate = getCurrentLiquidityRate(usdcTokenAddress) */\n      swap1\n      pop\n        /* \"contracts/TreasuryContract/treasurycontract.sol\":6211:6239  uint256 depositDurationYears */\n      0x00\n        /* \"contracts/TreasuryContract/treasurycontract.sol\":6269:6285  SECONDS_PER_YEAR */\n      immutable(\"0xa98a2f5aeb9ac9608e39eb3f8b40f1c25875f48fb0abb123ad85a5ab2ba25315\")\n        /* \"contracts/TreasuryContract/treasurycontract.sol\":6250:6267  2592000 *10000000 */\n      0x1792f8648000\n        /* \"contracts/TreasuryContract/treasurycontract.sol\":6242:6285  uint256(2592000 *10000000)/SECONDS_PER_YEAR */\n      tag_154\n      swap2\n      swap1\n      tag_155\n      jump\t// in\n    tag_154:\n        /* \"contracts/TreasuryContract/treasurycontract.sol\":6211:6285  uint256 depositDurationYears = uint256(2592000 *10000000)/SECONDS_PER_YEAR */\n      swap1\n      pop\n        /* \"contracts/TreasuryContract/treasurycontract.sol\":6351:6368  uint256 aaveYeild */\n      0x00\n        /* \"contracts/TreasuryContract/treasurycontract.sol\":6394:6414  depositDurationYears */\n      dup2\n        /* \"contracts/TreasuryContract/treasurycontract.sol\":6371:6391  currentLiquidityRate */\n      dup4\n        /* \"contracts/TreasuryContract/treasurycontract.sol\":6371:6414  currentLiquidityRate * depositDurationYears */\n      0xffffffffffffffffffffffffffffffff\n      and\n      tag_156\n      swap2\n      swap1\n      tag_157\n      jump\t// in\n    tag_156:\n        /* \"contracts/TreasuryContract/treasurycontract.sol\":6351:6414  uint256 aaveYeild = currentLiquidityRate * depositDurationYears */\n      swap1\n      pop\n        /* \"contracts/TreasuryContract/treasurycontract.sol\":6432:6441  aaveYeild */\n      dup1\n        /* \"contracts/TreasuryContract/treasurycontract.sol\":6425:6441  return aaveYeild */\n      swap4\n      pop\n      pop\n      pop\n      pop\n        /* \"contracts/TreasuryContract/treasurycontract.sol\":6057:6449  function calculateAaveYield() public view returns (uint256) {... */\n      swap1\n      jump\t// out\n        /* \"contracts/TreasuryContract/treasurycontract.sol\":821:865  IUniswapV2Router02 public iuniswapv2router02 */\n    tag_46:\n      0x02\n      0x00\n      swap1\n      sload\n      swap1\n      0x0100\n      exp\n      swap1\n      div\n      0xffffffffffffffffffffffffffffffffffffffff\n      and\n      dup2\n      jump\t// out\n        /* \"contracts/TreasuryContract/treasurycontract.sol\":1106:1135  uint256 public aaveRatio = 50 */\n    tag_50:\n      sload(0x08)\n      dup2\n      jump\t// out\n        /* \"contracts/TreasuryContract/treasurycontract.sol\":911:952  IUniswapV2Factory public uniswapV2factory */\n    tag_53:\n      0x04\n      0x00\n      swap1\n      sload\n      swap1\n      0x0100\n      exp\n      swap1\n      div\n      0xffffffffffffffffffffffffffffffffffffffff\n      and\n      dup2\n      jump\t// out\n        /* \"contracts/TreasuryContract/treasurycontract.sol\":1045:1077  uint256 public uniswapRatio = 50 */\n    tag_57:\n      sload(0x07)\n      dup2\n      jump\t// out\n        /* \"contracts/TreasuryContract/treasurycontract.sol\":961:992  address public usdcTokenAddress */\n    tag_60:\n      0x05\n      0x00\n      swap1\n      sload\n      swap1\n      0x0100\n      exp\n      swap1\n      div\n      0xffffffffffffffffffffffffffffffffffffffff\n      and\n      dup2\n      jump\t// out\n        /* \"contracts/TreasuryContract/lib/Ownable.sol\":1561:1827  function acceptOwnership() external returns (bool) {... */\n    tag_64:\n        /* \"contracts/TreasuryContract/lib/Ownable.sol\":1606:1610  bool */\n      0x00\n        /* \"contracts/TreasuryContract/lib/Ownable.sol\":1645:1653  newOwner */\n      0x01\n      0x00\n      swap1\n      sload\n      swap1\n      0x0100\n      exp\n      swap1\n      div\n      0xffffffffffffffffffffffffffffffffffffffff\n      and\n        /* \"contracts/TreasuryContract/lib/Ownable.sol\":1631:1653  msg.sender == newOwner */\n      0xffffffffffffffffffffffffffffffffffffffff\n      and\n        /* \"contracts/TreasuryContract/lib/Ownable.sol\":1631:1641  msg.sender */\n      caller\n        /* \"contracts/TreasuryContract/lib/Ownable.sol\":1631:1653  msg.sender == newOwner */\n      0xffffffffffffffffffffffffffffffffffffffff\n      and\n      eq\n        /* \"contracts/TreasuryContract/lib/Ownable.sol\":1623:1676  require(msg.sender == newOwner, \"ERR_ONLY_NEW_OWNER\") */\n      tag_159\n      jumpi\n      mload(0x40)\n      0x08c379a000000000000000000000000000000000000000000000000000000000\n      dup2\n      mstore\n      0x04\n      add\n      tag_160\n      swap1\n      tag_161\n      jump\t// in\n    tag_160:\n      mload(0x40)\n      dup1\n      swap2\n      sub\n      swap1\n      revert\n    tag_159:\n        /* \"contracts/TreasuryContract/lib/Ownable.sol\":1695:1703  newOwner */\n      0x01\n      0x00\n      swap1\n      sload\n      swap1\n      0x0100\n      exp\n      swap1\n      div\n      0xffffffffffffffffffffffffffffffffffffffff\n      and\n        /* \"contracts/TreasuryContract/lib/Ownable.sol\":1687:1692  owner */\n      0x00\n      dup1\n        /* \"contracts/TreasuryContract/lib/Ownable.sol\":1687:1703  owner = newOwner */\n      0x0100\n      exp\n      dup2\n      sload\n      dup2\n      0xffffffffffffffffffffffffffffffffffffffff\n      mul\n      not\n      and\n      swap1\n      dup4\n      0xffffffffffffffffffffffffffffffffffffffff\n      and\n      mul\n      or\n      swap1\n      sstore\n      pop\n        /* \"contracts/TreasuryContract/lib/Ownable.sol\":1747:1755  newOwner */\n      0x01\n      0x00\n      swap1\n      sload\n      swap1\n      0x0100\n      exp\n      swap1\n      div\n      0xffffffffffffffffffffffffffffffffffffffff\n      and\n        /* \"contracts/TreasuryContract/lib/Ownable.sol\":1719:1756  OwnershipTransferred(owner, newOwner) */\n      0xffffffffffffffffffffffffffffffffffffffff\n      and\n        /* \"contracts/TreasuryContract/lib/Ownable.sol\":1740:1745  owner */\n      0x00\n      dup1\n      sload\n      swap1\n      0x0100\n      exp\n      swap1\n      div\n      0xffffffffffffffffffffffffffffffffffffffff\n      and\n        /* \"contracts/TreasuryContract/lib/Ownable.sol\":1719:1756  OwnershipTransferred(owner, newOwner) */\n      0xffffffffffffffffffffffffffffffffffffffff\n      and\n      0x8be0079c531659141344cd1fd0a4f28419497f9722a3daafe3b4186f6b6457e0\n      mload(0x40)\n      mload(0x40)\n      dup1\n      swap2\n      sub\n      swap1\n      log3\n        /* \"contracts/TreasuryContract/lib/Ownable.sol\":1794:1795  0 */\n      0x00\n        /* \"contracts/TreasuryContract/lib/Ownable.sol\":1767:1775  newOwner */\n      0x01\n      0x00\n        /* \"contracts/TreasuryContract/lib/Ownable.sol\":1767:1797  newOwner = payable(address(0)) */\n      0x0100\n      exp\n      dup2\n      sload\n      dup2\n      0xffffffffffffffffffffffffffffffffffffffff\n      mul\n      not\n      and\n      swap1\n      dup4\n      0xffffffffffffffffffffffffffffffffffffffff\n      and\n      mul\n      or\n      swap1\n      sstore\n      pop\n        /* \"contracts/TreasuryContract/lib/Ownable.sol\":1815:1819  true */\n      0x01\n        /* \"contracts/TreasuryContract/lib/Ownable.sol\":1808:1819  return true */\n      swap1\n      pop\n        /* \"contracts/TreasuryContract/lib/Ownable.sol\":1561:1827  function acceptOwnership() external returns (bool) {... */\n      swap1\n      jump\t// out\n        /* \"contracts/TreasuryContract/lib/Ownable.sol\":594:622  address payable public owner */\n    tag_67:\n      0x00\n      dup1\n      sload\n      swap1\n      0x0100\n      exp\n      swap1\n      div\n      0xffffffffffffffffffffffffffffffffffffffff\n      and\n      dup2\n      jump\t// out\n        /* \"contracts/TreasuryContract/treasurycontract.sol\":999:1030  address public usdtTokenAddress */\n    tag_71:\n      0x06\n      0x00\n      swap1\n      sload\n      swap1\n      0x0100\n      exp\n      swap1\n      div\n      0xffffffffffffffffffffffffffffffffffffffff\n      and\n      dup2\n      jump\t// out\n        /* \"contracts/TreasuryContract/treasurycontract.sol\":5311:6049  function calculateUniswapYeild() public view returns (uint256) {... */\n    tag_74:\n        /* \"contracts/TreasuryContract/treasurycontract.sol\":5365:5372  uint256 */\n      0x00\n        /* \"contracts/TreasuryContract/treasurycontract.sol\":5385:5407  address lpTokenAddress */\n      dup1\n        /* \"contracts/TreasuryContract/treasurycontract.sol\":5410:5426  uniswapV2factory */\n      0x04\n      0x00\n      swap1\n      sload\n      swap1\n      0x0100\n      exp\n      swap1\n      div\n      0xffffffffffffffffffffffffffffffffffffffff\n      and\n        /* \"contracts/TreasuryContract/treasurycontract.sol\":5410:5434  uniswapV2factory.getPair */\n      0xffffffffffffffffffffffffffffffffffffffff\n      and\n      0xe6a43905\n        /* \"contracts/TreasuryContract/treasurycontract.sol\":5435:5451  usdcTokenAddress */\n      0x05\n      0x00\n      swap1\n      sload\n      swap1\n      0x0100\n      exp\n      swap1\n      div\n      0xffffffffffffffffffffffffffffffffffffffff\n      and\n        /* \"contracts/TreasuryContract/treasurycontract.sol\":5453:5469  usdtTokenAddress */\n      0x06\n      0x00\n      swap1\n      sload\n      swap1\n      0x0100\n      exp\n      swap1\n      div\n      0xffffffffffffffffffffffffffffffffffffffff\n      and\n        /* \"contracts/TreasuryContract/treasurycontract.sol\":5410:5470  uniswapV2factory.getPair(usdcTokenAddress, usdtTokenAddress) */\n      mload(0x40)\n      dup4\n      0xffffffff\n      and\n      0xe0\n      shl\n      dup2\n      mstore\n      0x04\n      add\n      tag_163\n      swap3\n      swap2\n      swap1\n      tag_164\n      jump\t// in\n    tag_163:\n      0x20\n      mload(0x40)\n      dup1\n      dup4\n      sub\n      dup2\n      dup7\n      gas\n      staticcall\n      iszero\n      dup1\n      iszero\n      tag_166\n      jumpi\n      returndatasize\n      0x00\n      dup1\n      returndatacopy\n      revert(0x00, returndatasize)\n    tag_166:\n      pop\n      pop\n      pop\n      pop\n      mload(0x40)\n      returndatasize\n      not(0x1f)\n      0x1f\n      dup3\n      add\n      and\n      dup3\n      add\n      dup1\n      0x40\n      mstore\n      pop\n      dup2\n      add\n      swap1\n      tag_167\n      swap2\n      swap1\n      tag_168\n      jump\t// in\n    tag_167:\n        /* \"contracts/TreasuryContract/treasurycontract.sol\":5385:5470  address lpTokenAddress = uniswapV2factory.getPair(usdcTokenAddress, usdtTokenAddress) */\n      swap1\n      pop\n        /* \"contracts/TreasuryContract/treasurycontract.sol\":5481:5500  uint256 totalSupply */\n      0x00\n        /* \"contracts/TreasuryContract/treasurycontract.sol\":5511:5525  lpTokenAddress */\n      dup2\n        /* \"contracts/TreasuryContract/treasurycontract.sol\":5504:5538  IERC20(lpTokenAddress).totalSupply */\n      0xffffffffffffffffffffffffffffffffffffffff\n      and\n      0x18160ddd\n        /* \"contracts/TreasuryContract/treasurycontract.sol\":5504:5540  IERC20(lpTokenAddress).totalSupply() */\n      mload(0x40)\n      dup2\n      0xffffffff\n      and\n      0xe0\n      shl\n      dup2\n      mstore\n      0x04\n      add\n      0x20\n      mload(0x40)\n      dup1\n      dup4\n      sub\n      dup2\n      dup7\n      gas\n      staticcall\n      iszero\n      dup1\n      iszero\n      tag_170\n      jumpi\n      returndatasize\n      0x00\n      dup1\n      returndatacopy\n      revert(0x00, returndatasize)\n    tag_170:\n      pop\n      pop\n      pop\n      pop\n      mload(0x40)\n      returndatasize\n      not(0x1f)\n      0x1f\n      dup3\n      add\n      and\n      dup3\n      add\n      dup1\n      0x40\n      mstore\n      pop\n      dup2\n      add\n      swap1\n      tag_171\n      swap2\n      swap1\n      tag_138\n      jump\t// in\n    tag_171:\n        /* \"contracts/TreasuryContract/treasurycontract.sol\":5481:5540  uint256 totalSupply =  IERC20(lpTokenAddress).totalSupply() */\n      swap1\n      pop\n        /* \"contracts/TreasuryContract/treasurycontract.sol\":5551:5568  uint256 liquidity */\n      0x00\n        /* \"contracts/TreasuryContract/treasurycontract.sol\":5579:5593  lpTokenAddress */\n      dup3\n        /* \"contracts/TreasuryContract/treasurycontract.sol\":5572:5604  IERC20(lpTokenAddress).balanceOf */\n      0xffffffffffffffffffffffffffffffffffffffff\n      and\n      0x70a08231\n        /* \"contracts/TreasuryContract/treasurycontract.sol\":5613:5617  this */\n      address\n        /* \"contracts/TreasuryContract/treasurycontract.sol\":5572:5619  IERC20(lpTokenAddress).balanceOf(address(this)) */\n      mload(0x40)\n      dup3\n      0xffffffff\n      and\n      0xe0\n      shl\n      dup2\n      mstore\n      0x04\n      add\n      tag_172\n      swap2\n      swap1\n      tag_62\n      jump\t// in\n    tag_172:\n      0x20\n      mload(0x40)\n      dup1\n      dup4\n      sub\n      dup2\n      dup7\n      gas\n      staticcall\n      iszero\n      dup1\n      iszero\n      tag_174\n      jumpi\n      returndatasize\n      0x00\n      dup1\n      returndatacopy\n      revert(0x00, returndatasize)\n    tag_174:\n      pop\n      pop\n      pop\n      pop\n      mload(0x40)\n      returndatasize\n      not(0x1f)\n      0x1f\n      dup3\n      add\n      and\n      dup3\n      add\n      dup1\n      0x40\n      mstore\n      pop\n      dup2\n      add\n      swap1\n      tag_175\n      swap2\n      swap1\n      tag_138\n      jump\t// in\n    tag_175:\n        /* \"contracts/TreasuryContract/treasurycontract.sol\":5551:5619  uint256 liquidity =  IERC20(lpTokenAddress).balanceOf(address(this)) */\n      swap1\n      pop\n        /* \"contracts/TreasuryContract/treasurycontract.sol\":5630:5651  address[] memory path */\n      0x00\n        /* \"contracts/TreasuryContract/treasurycontract.sol\":5668:5669  2 */\n      0x02\n        /* \"contracts/TreasuryContract/treasurycontract.sol\":5654:5670  new address[](2) */\n      0xffffffffffffffff\n      dup2\n      gt\n      iszero\n      tag_176\n      jumpi\n      tag_177\n      tag_178\n      jump\t// in\n    tag_177:\n    tag_176:\n      mload(0x40)\n      swap1\n      dup1\n      dup3\n      mstore\n      dup1\n      0x20\n      mul\n      0x20\n      add\n      dup3\n      add\n      0x40\n      mstore\n      dup1\n      iszero\n      tag_179\n      jumpi\n      dup2\n      0x20\n      add\n      0x20\n      dup3\n      mul\n      dup1\n      calldatasize\n      dup4\n      calldatacopy\n      dup1\n      dup3\n      add\n      swap2\n      pop\n      pop\n      swap1\n      pop\n    tag_179:\n      pop\n        /* \"contracts/TreasuryContract/treasurycontract.sol\":5630:5670  address[] memory path = new address[](2) */\n      swap1\n      pop\n        /* \"contracts/TreasuryContract/treasurycontract.sol\":5695:5711  usdcTokenAddress */\n      0x05\n      0x00\n      swap1\n      sload\n      swap1\n      0x0100\n      exp\n      swap1\n      div\n      0xffffffffffffffffffffffffffffffffffffffff\n      and\n        /* \"contracts/TreasuryContract/treasurycontract.sol\":5685:5689  path */\n      dup2\n        /* \"contracts/TreasuryContract/treasurycontract.sol\":5690:5691  0 */\n      0x00\n        /* \"contracts/TreasuryContract/treasurycontract.sol\":5685:5692  path[0] */\n      dup2\n      mload\n      dup2\n      lt\n      tag_180\n      jumpi\n      tag_181\n      tag_182\n      jump\t// in\n    tag_181:\n    tag_180:\n      0x20\n      mul\n      0x20\n      add\n      add\n        /* \"contracts/TreasuryContract/treasurycontract.sol\":5685:5711  path[0] = usdcTokenAddress */\n      swap1\n      0xffffffffffffffffffffffffffffffffffffffff\n      and\n      swap1\n      dup2\n      0xffffffffffffffffffffffffffffffffffffffff\n      and\n      dup2\n      mstore\n      pop\n      pop\n        /* \"contracts/TreasuryContract/treasurycontract.sol\":5736:5752  usdtTokenAddress */\n      0x06\n      0x00\n      swap1\n      sload\n      swap1\n      0x0100\n      exp\n      swap1\n      div\n      0xffffffffffffffffffffffffffffffffffffffff\n      and\n        /* \"contracts/TreasuryContract/treasurycontract.sol\":5726:5730  path */\n      dup2\n        /* \"contracts/TreasuryContract/treasurycontract.sol\":5731:5732  1 */\n      0x01\n        /* \"contracts/TreasuryContract/treasurycontract.sol\":5726:5733  path[1] */\n      dup2\n      mload\n      dup2\n      lt\n      tag_183\n      jumpi\n      tag_184\n      tag_182\n      jump\t// in\n    tag_184:\n    tag_183:\n      0x20\n      mul\n      0x20\n      add\n      add\n        /* \"contracts/TreasuryContract/treasurycontract.sol\":5726:5752  path[1] = usdtTokenAddress */\n      swap1\n      0xffffffffffffffffffffffffffffffffffffffff\n      and\n      swap1\n      dup2\n      0xffffffffffffffffffffffffffffffffffffffff\n      and\n      dup2\n      mstore\n      pop\n      pop\n        /* \"contracts/TreasuryContract/treasurycontract.sol\":5763:5784  uint256 tradingVolume */\n      0x00\n        /* \"contracts/TreasuryContract/treasurycontract.sol\":5787:5805  iuniswapv2router02 */\n      0x02\n      0x00\n      swap1\n      sload\n      swap1\n      0x0100\n      exp\n      swap1\n      div\n      0xffffffffffffffffffffffffffffffffffffffff\n      and\n        /* \"contracts/TreasuryContract/treasurycontract.sol\":5787:5819  iuniswapv2router02.getAmountsOut */\n      0xffffffffffffffffffffffffffffffffffffffff\n      and\n      0xd06ca61f\n        /* \"contracts/TreasuryContract/treasurycontract.sol\":5820:5821  1 */\n      0x01\n        /* \"contracts/TreasuryContract/treasurycontract.sol\":5823:5827  path */\n      dup5\n        /* \"contracts/TreasuryContract/treasurycontract.sol\":5787:5828  iuniswapv2router02.getAmountsOut(1, path) */\n      mload(0x40)\n      dup4\n      0xffffffff\n      and\n      0xe0\n      shl\n      dup2\n      mstore\n      0x04\n      add\n      tag_185\n      swap3\n      swap2\n      swap1\n      tag_186\n      jump\t// in\n    tag_185:\n      0x00\n      mload(0x40)\n      dup1\n      dup4\n      sub\n      dup2\n      dup7\n      gas\n      staticcall\n      iszero\n      dup1\n      iszero\n      tag_188\n      jumpi\n      returndatasize\n      0x00\n      dup1\n      returndatacopy\n      revert(0x00, returndatasize)\n    tag_188:\n      pop\n      pop\n      pop\n      pop\n      mload(0x40)\n      returndatasize\n      0x00\n      dup3\n      returndatacopy\n      returndatasize\n      not(0x1f)\n      0x1f\n      dup3\n      add\n      and\n      dup3\n      add\n      dup1\n      0x40\n      mstore\n      pop\n      dup2\n      add\n      swap1\n      tag_189\n      swap2\n      swap1\n      tag_190\n      jump\t// in\n    tag_189:\n        /* \"contracts/TreasuryContract/treasurycontract.sol\":5829:5830  1 */\n      0x01\n        /* \"contracts/TreasuryContract/treasurycontract.sol\":5787:5831  iuniswapv2router02.getAmountsOut(1, path)[1] */\n      dup2\n      mload\n      dup2\n      lt\n      tag_191\n      jumpi\n      tag_192\n      tag_182\n      jump\t// in\n    tag_192:\n    tag_191:\n      0x20\n      mul\n      0x20\n      add\n      add\n      mload\n        /* \"contracts/TreasuryContract/treasurycontract.sol\":5763:5831  uint256 tradingVolume = iuniswapv2router02.getAmountsOut(1, path)[1] */\n      swap1\n      pop\n        /* \"contracts/TreasuryContract/treasurycontract.sol\":5842:5860  uint256 feesEarned */\n      0x00\n        /* \"contracts/TreasuryContract/treasurycontract.sol\":5909:5913  1000 */\n      0x03e8\n        /* \"contracts/TreasuryContract/treasurycontract.sol\":5905:5906  3 */\n      0x03\n        /* \"contracts/TreasuryContract/treasurycontract.sol\":5891:5902  totalSupply */\n      dup7\n        /* \"contracts/TreasuryContract/treasurycontract.sol\":5879:5888  liquidity */\n      dup7\n        /* \"contracts/TreasuryContract/treasurycontract.sol\":5863:5876  tradingVolume */\n      dup6\n        /* \"contracts/TreasuryContract/treasurycontract.sol\":5863:5888  tradingVolume * liquidity */\n      tag_193\n      swap2\n      swap1\n      tag_157\n      jump\t// in\n    tag_193:\n        /* \"contracts/TreasuryContract/treasurycontract.sol\":5863:5902  tradingVolume * liquidity / totalSupply */\n      tag_194\n      swap2\n      swap1\n      tag_155\n      jump\t// in\n    tag_194:\n        /* \"contracts/TreasuryContract/treasurycontract.sol\":5863:5906  tradingVolume * liquidity / totalSupply * 3 */\n      tag_195\n      swap2\n      swap1\n      tag_157\n      jump\t// in\n    tag_195:\n        /* \"contracts/TreasuryContract/treasurycontract.sol\":5863:5913  tradingVolume * liquidity / totalSupply * 3 / 1000 */\n      tag_196\n      swap2\n      swap1\n      tag_155\n      jump\t// in\n    tag_196:\n        /* \"contracts/TreasuryContract/treasurycontract.sol\":5842:5913  uint256 feesEarned = tradingVolume * liquidity / totalSupply * 3 / 1000 */\n      swap1\n      pop\n        /* \"contracts/TreasuryContract/treasurycontract.sol\":5945:5965  uint256 uniswapYeild */\n      0x00\n        /* \"contracts/TreasuryContract/treasurycontract.sol\":6002:6009  2592000 */\n      0x278d00\n        /* \"contracts/TreasuryContract/treasurycontract.sol\":5982:5998  SECONDS_PER_YEAR */\n      immutable(\"0xa98a2f5aeb9ac9608e39eb3f8b40f1c25875f48fb0abb123ad85a5ab2ba25315\")\n        /* \"contracts/TreasuryContract/treasurycontract.sol\":5969:5979  feesEarned */\n      dup4\n        /* \"contracts/TreasuryContract/treasurycontract.sol\":5969:5998  feesEarned * SECONDS_PER_YEAR */\n      tag_197\n      swap2\n      swap1\n      tag_157\n      jump\t// in\n    tag_197:\n        /* \"contracts/TreasuryContract/treasurycontract.sol\":5968:6009  (feesEarned * SECONDS_PER_YEAR) / 2592000 */\n      tag_198\n      swap2\n      swap1\n      tag_155\n      jump\t// in\n    tag_198:\n        /* \"contracts/TreasuryContract/treasurycontract.sol\":5945:6009  uint256 uniswapYeild = (feesEarned * SECONDS_PER_YEAR) / 2592000 */\n      swap1\n      pop\n        /* \"contracts/TreasuryContract/treasurycontract.sol\":6029:6041  uniswapYeild */\n      dup1\n        /* \"contracts/TreasuryContract/treasurycontract.sol\":6022:6041  return uniswapYeild */\n      swap8\n      pop\n      pop\n      pop\n      pop\n      pop\n      pop\n      pop\n      pop\n        /* \"contracts/TreasuryContract/treasurycontract.sol\":5311:6049  function calculateUniswapYeild() public view returns (uint256) {... */\n      swap1\n      jump\t// out\n        /* \"contracts/TreasuryContract/treasurycontract.sol\":872:904  ILendingPool public ilendingpool */\n    tag_77:\n      0x03\n      0x00\n      swap1\n      sload\n      swap1\n      0x0100\n      exp\n      swap1\n      div\n      0xffffffffffffffffffffffffffffffffffffffff\n      and\n      dup2\n      jump\t// out\n        /* \"contracts/TreasuryContract/treasurycontract.sol\":6606:7136  function withdrawAllToWallet() public returns (bool){... */\n    tag_81:\n        /* \"contracts/TreasuryContract/treasurycontract.sol\":6653:6657  bool */\n      0x00\n        /* \"contracts/TreasuryContract/treasurycontract.sol\":6669:6688  uint256 usdtBalance */\n      dup1\n        /* \"contracts/TreasuryContract/treasurycontract.sol\":6698:6714  usdtTokenAddress */\n      0x06\n      0x00\n      swap1\n      sload\n      swap1\n      0x0100\n      exp\n      swap1\n      div\n      0xffffffffffffffffffffffffffffffffffffffff\n      and\n        /* \"contracts/TreasuryContract/treasurycontract.sol\":6691:6725  IERC20(usdtTokenAddress).balanceOf */\n      0xffffffffffffffffffffffffffffffffffffffff\n      and\n      0x70a08231\n        /* \"contracts/TreasuryContract/treasurycontract.sol\":6734:6738  this */\n      address\n        /* \"contracts/TreasuryContract/treasurycontract.sol\":6691:6740  IERC20(usdtTokenAddress).balanceOf(address(this)) */\n      mload(0x40)\n      dup3\n      0xffffffff\n      and\n      0xe0\n      shl\n      dup2\n      mstore\n      0x04\n      add\n      tag_200\n      swap2\n      swap1\n      tag_62\n      jump\t// in\n    tag_200:\n      0x20\n      mload(0x40)\n      dup1\n      dup4\n      sub\n      dup2\n      dup7\n      gas\n      staticcall\n      iszero\n      dup1\n      iszero\n      tag_202\n      jumpi\n      returndatasize\n      0x00\n      dup1\n      returndatacopy\n      revert(0x00, returndatasize)\n    tag_202:\n      pop\n      pop\n      pop\n      pop\n      mload(0x40)\n      returndatasize\n      not(0x1f)\n      0x1f\n      dup3\n      add\n      and\n      dup3\n      add\n      dup1\n      0x40\n      mstore\n      pop\n      dup2\n      add\n      swap1\n      tag_203\n      swap2\n      swap1\n      tag_138\n      jump\t// in\n    tag_203:\n        /* \"contracts/TreasuryContract/treasurycontract.sol\":6669:6740  uint256 usdtBalance = IERC20(usdtTokenAddress).balanceOf(address(this)) */\n      swap1\n      pop\n        /* \"contracts/TreasuryContract/treasurycontract.sol\":6751:6770  uint256 usdcBalance */\n      0x00\n        /* \"contracts/TreasuryContract/treasurycontract.sol\":6780:6796  usdcTokenAddress */\n      0x05\n      0x00\n      swap1\n      sload\n      swap1\n      0x0100\n      exp\n      swap1\n      div\n      0xffffffffffffffffffffffffffffffffffffffff\n      and\n        /* \"contracts/TreasuryContract/treasurycontract.sol\":6773:6807  IERC20(usdcTokenAddress).balanceOf */\n      0xffffffffffffffffffffffffffffffffffffffff\n      and\n      0x70a08231\n        /* \"contracts/TreasuryContract/treasurycontract.sol\":6816:6820  this */\n      address\n        /* \"contracts/TreasuryContract/treasurycontract.sol\":6773:6822  IERC20(usdcTokenAddress).balanceOf(address(this)) */\n      mload(0x40)\n      dup3\n      0xffffffff\n      and\n      0xe0\n      shl\n      dup2\n      mstore\n      0x04\n      add\n      tag_204\n      swap2\n      swap1\n      tag_62\n      jump\t// in\n    tag_204:\n      0x20\n      mload(0x40)\n      dup1\n      dup4\n      sub\n      dup2\n      dup7\n      gas\n      staticcall\n      iszero\n      dup1\n      iszero\n      tag_206\n      jumpi\n      returndatasize\n      0x00\n      dup1\n      returndatacopy\n      revert(0x00, returndatasize)\n    tag_206:\n      pop\n      pop\n      pop\n      pop\n      mload(0x40)\n      returndatasize\n      not(0x1f)\n      0x1f\n      dup3\n      add\n      and\n      dup3\n      add\n      dup1\n      0x40\n      mstore\n      pop\n      dup2\n      add\n      swap1\n      tag_207\n      swap2\n      swap1\n      tag_138\n      jump\t// in\n    tag_207:\n        /* \"contracts/TreasuryContract/treasurycontract.sol\":6751:6822  uint256 usdcBalance = IERC20(usdcTokenAddress).balanceOf(address(this)) */\n      swap1\n      pop\n        /* \"contracts/TreasuryContract/treasurycontract.sol\":6848:6849  0 */\n      0x00\n        /* \"contracts/TreasuryContract/treasurycontract.sol\":6836:6847  usdtBalance */\n      dup3\n        /* \"contracts/TreasuryContract/treasurycontract.sol\":6836:6849  usdtBalance>0 */\n      gt\n        /* \"contracts/TreasuryContract/treasurycontract.sol\":6833:6931  if(usdtBalance>0){... */\n      iszero\n      tag_208\n      jumpi\n        /* \"contracts/TreasuryContract/treasurycontract.sol\":6868:6884  usdtTokenAddress */\n      0x06\n      0x00\n      swap1\n      sload\n      swap1\n      0x0100\n      exp\n      swap1\n      div\n      0xffffffffffffffffffffffffffffffffffffffff\n      and\n        /* \"contracts/TreasuryContract/treasurycontract.sol\":6861:6894  IERC20(usdtTokenAddress).transfer */\n      0xffffffffffffffffffffffffffffffffffffffff\n      and\n      0xa9059cbb\n        /* \"contracts/TreasuryContract/treasurycontract.sol\":6895:6905  msg.sender */\n      caller\n        /* \"contracts/TreasuryContract/treasurycontract.sol\":6907:6918  usdtBalance */\n      dup5\n        /* \"contracts/TreasuryContract/treasurycontract.sol\":6861:6919  IERC20(usdtTokenAddress).transfer(msg.sender, usdtBalance) */\n      mload(0x40)\n      dup4\n      0xffffffff\n      and\n      0xe0\n      shl\n      dup2\n      mstore\n      0x04\n      add\n      tag_209\n      swap3\n      swap2\n      swap1\n      tag_143\n      jump\t// in\n    tag_209:\n      0x20\n      mload(0x40)\n      dup1\n      dup4\n      sub\n      dup2\n      0x00\n      dup8\n      gas\n      call\n      iszero\n      dup1\n      iszero\n      tag_211\n      jumpi\n      returndatasize\n      0x00\n      dup1\n      returndatacopy\n      revert(0x00, returndatasize)\n    tag_211:\n      pop\n      pop\n      pop\n      pop\n      mload(0x40)\n      returndatasize\n      not(0x1f)\n      0x1f\n      dup3\n      add\n      and\n      dup3\n      add\n      dup1\n      0x40\n      mstore\n      pop\n      dup2\n      add\n      swap1\n      tag_212\n      swap2\n      swap1\n      tag_127\n      jump\t// in\n    tag_212:\n      pop\n        /* \"contracts/TreasuryContract/treasurycontract.sol\":6833:6931  if(usdtBalance>0){... */\n    tag_208:\n        /* \"contracts/TreasuryContract/treasurycontract.sol\":6956:6957  0 */\n      0x00\n        /* \"contracts/TreasuryContract/treasurycontract.sol\":6944:6955  usdcBalance */\n      dup2\n        /* \"contracts/TreasuryContract/treasurycontract.sol\":6944:6957  usdcBalance>0 */\n      gt\n        /* \"contracts/TreasuryContract/treasurycontract.sol\":6941:7039  if(usdcBalance>0){... */\n      iszero\n      tag_213\n      jumpi\n        /* \"contracts/TreasuryContract/treasurycontract.sol\":6976:6992  usdcTokenAddress */\n      0x05\n      0x00\n      swap1\n      sload\n      swap1\n      0x0100\n      exp\n      swap1\n      div\n      0xffffffffffffffffffffffffffffffffffffffff\n      and\n        /* \"contracts/TreasuryContract/treasurycontract.sol\":6969:7002  IERC20(usdcTokenAddress).transfer */\n      0xffffffffffffffffffffffffffffffffffffffff\n      and\n      0xa9059cbb\n        /* \"contracts/TreasuryContract/treasurycontract.sol\":7003:7013  msg.sender */\n      caller\n        /* \"contracts/TreasuryContract/treasurycontract.sol\":7015:7026  usdcBalance */\n      dup4\n        /* \"contracts/TreasuryContract/treasurycontract.sol\":6969:7027  IERC20(usdcTokenAddress).transfer(msg.sender, usdcBalance) */\n      mload(0x40)\n      dup4\n      0xffffffff\n      and\n      0xe0\n      shl\n      dup2\n      mstore\n      0x04\n      add\n      tag_214\n      swap3\n      swap2\n      swap1\n      tag_143\n      jump\t// in\n    tag_214:\n      0x20\n      mload(0x40)\n      dup1\n      dup4\n      sub\n      dup2\n      0x00\n      dup8\n      gas\n      call\n      iszero\n      dup1\n      iszero\n      tag_216\n      jumpi\n      returndatasize\n      0x00\n      dup1\n      returndatacopy\n      revert(0x00, returndatasize)\n    tag_216:\n      pop\n      pop\n      pop\n      pop\n      mload(0x40)\n      returndatasize\n      not(0x1f)\n      0x1f\n      dup3\n      add\n      and\n      dup3\n      add\n      dup1\n      0x40\n      mstore\n      pop\n      dup2\n      add\n      swap1\n      tag_217\n      swap2\n      swap1\n      tag_127\n      jump\t// in\n    tag_217:\n      pop\n        /* \"contracts/TreasuryContract/treasurycontract.sol\":6941:7039  if(usdcBalance>0){... */\n    tag_213:\n        /* \"contracts/TreasuryContract/treasurycontract.sol\":7056:7104  FundsWithdrawnToWallet(usdcBalance, usdtBalance) */\n      0x1cf458cfc40a8e6a6fffcd0094e5551264fd5e735f80a31e7195412023d12a5a\n        /* \"contracts/TreasuryContract/treasurycontract.sol\":7079:7090  usdcBalance */\n      dup2\n        /* \"contracts/TreasuryContract/treasurycontract.sol\":7092:7103  usdtBalance */\n      dup4\n        /* \"contracts/TreasuryContract/treasurycontract.sol\":7056:7104  FundsWithdrawnToWallet(usdcBalance, usdtBalance) */\n      mload(0x40)\n      tag_218\n      swap3\n      swap2\n      swap1\n      tag_219\n      jump\t// in\n    tag_218:\n      mload(0x40)\n      dup1\n      swap2\n      sub\n      swap1\n      log1\n        /* \"contracts/TreasuryContract/treasurycontract.sol\":7124:7128  true */\n      0x01\n        /* \"contracts/TreasuryContract/treasurycontract.sol\":7117:7128  return true */\n      swap3\n      pop\n      pop\n      pop\n        /* \"contracts/TreasuryContract/treasurycontract.sol\":6606:7136  function withdrawAllToWallet() public returns (bool){... */\n      swap1\n      jump\t// out\n        /* \"contracts/TreasuryContract/treasurycontract.sol\":3177:4177  function addLiquidityToUniswap(uint256 _amount) public returns (bool){... */\n    tag_85:\n        /* \"contracts/TreasuryContract/treasurycontract.sol\":3241:3245  bool */\n      0x00\n        /* \"contracts/TreasuryContract/treasurycontract.sol\":3273:3274  0 */\n      dup1\n        /* \"contracts/TreasuryContract/treasurycontract.sol\":3265:3272  _amount */\n      dup3\n        /* \"contracts/TreasuryContract/treasurycontract.sol\":3265:3274  _amount>0 */\n      gt\n        /* \"contracts/TreasuryContract/treasurycontract.sol\":3257:3295  require(_amount>0,\"amount can't be 0\") */\n      tag_221\n      jumpi\n      mload(0x40)\n      0x08c379a000000000000000000000000000000000000000000000000000000000\n      dup2\n      mstore\n      0x04\n      add\n      tag_222\n      swap1\n      tag_121\n      jump\t// in\n    tag_222:\n      mload(0x40)\n      dup1\n      swap2\n      sub\n      swap1\n      revert\n    tag_221:\n        /* \"contracts/TreasuryContract/treasurycontract.sol\":3365:3372  _amount */\n      dup2\n        /* \"contracts/TreasuryContract/treasurycontract.sol\":3321:3337  usdcTokenAddress */\n      0x05\n      0x00\n      swap1\n      sload\n      swap1\n      0x0100\n      exp\n      swap1\n      div\n      0xffffffffffffffffffffffffffffffffffffffff\n      and\n        /* \"contracts/TreasuryContract/treasurycontract.sol\":3314:3348  IERC20(usdcTokenAddress).balanceOf */\n      0xffffffffffffffffffffffffffffffffffffffff\n      and\n      0x70a08231\n        /* \"contracts/TreasuryContract/treasurycontract.sol\":3357:3361  this */\n      address\n        /* \"contracts/TreasuryContract/treasurycontract.sol\":3314:3363  IERC20(usdcTokenAddress).balanceOf(address(this)) */\n      mload(0x40)\n      dup3\n      0xffffffff\n      and\n      0xe0\n      shl\n      dup2\n      mstore\n      0x04\n      add\n      tag_223\n      swap2\n      swap1\n      tag_62\n      jump\t// in\n    tag_223:\n      0x20\n      mload(0x40)\n      dup1\n      dup4\n      sub\n      dup2\n      dup7\n      gas\n      staticcall\n      iszero\n      dup1\n      iszero\n      tag_225\n      jumpi\n      returndatasize\n      0x00\n      dup1\n      returndatacopy\n      revert(0x00, returndatasize)\n    tag_225:\n      pop\n      pop\n      pop\n      pop\n      mload(0x40)\n      returndatasize\n      not(0x1f)\n      0x1f\n      dup3\n      add\n      and\n      dup3\n      add\n      dup1\n      0x40\n      mstore\n      pop\n      dup2\n      add\n      swap1\n      tag_226\n      swap2\n      swap1\n      tag_138\n      jump\t// in\n    tag_226:\n        /* \"contracts/TreasuryContract/treasurycontract.sol\":3314:3372  IERC20(usdcTokenAddress).balanceOf(address(this))>=_amount */\n      lt\n      iszero\n        /* \"contracts/TreasuryContract/treasurycontract.sol\":3306:3392  require(IERC20(usdcTokenAddress).balanceOf(address(this))>=_amount,\"not enough funds\") */\n      tag_227\n      jumpi\n      mload(0x40)\n      0x08c379a000000000000000000000000000000000000000000000000000000000\n      dup2\n      mstore\n      0x04\n      add\n      tag_228\n      swap1\n      tag_141\n      jump\t// in\n    tag_228:\n      mload(0x40)\n      dup1\n      swap2\n      sub\n      swap1\n      revert\n    tag_227:\n        /* \"contracts/TreasuryContract/treasurycontract.sol\":3405:3422  uint256 token1bal */\n      0x00\n        /* \"contracts/TreasuryContract/treasurycontract.sol\":3433:3434  2 */\n      0x02\n        /* \"contracts/TreasuryContract/treasurycontract.sol\":3425:3432  _amount */\n      dup4\n        /* \"contracts/TreasuryContract/treasurycontract.sol\":3425:3434  _amount/2 */\n      tag_229\n      swap2\n      swap1\n      tag_155\n      jump\t// in\n    tag_229:\n        /* \"contracts/TreasuryContract/treasurycontract.sol\":3405:3434  uint256 token1bal = _amount/2 */\n      swap1\n      pop\n        /* \"contracts/TreasuryContract/treasurycontract.sol\":3452:3468  usdcTokenAddress */\n      0x05\n      0x00\n      swap1\n      sload\n      swap1\n      0x0100\n      exp\n      swap1\n      div\n      0xffffffffffffffffffffffffffffffffffffffff\n      and\n        /* \"contracts/TreasuryContract/treasurycontract.sol\":3445:3477  IERC20(usdcTokenAddress).approve */\n      0xffffffffffffffffffffffffffffffffffffffff\n      and\n      0x095ea7b3\n        /* \"contracts/TreasuryContract/treasurycontract.sol\":3486:3504  iuniswapv2router02 */\n      0x02\n      0x00\n      swap1\n      sload\n      swap1\n      0x0100\n      exp\n      swap1\n      div\n      0xffffffffffffffffffffffffffffffffffffffff\n      and\n        /* \"contracts/TreasuryContract/treasurycontract.sol\":3507:3514  _amount */\n      dup6\n        /* \"contracts/TreasuryContract/treasurycontract.sol\":3445:3515  IERC20(usdcTokenAddress).approve(address(iuniswapv2router02), _amount) */\n      mload(0x40)\n      dup4\n      0xffffffff\n      and\n      0xe0\n      shl\n      dup2\n      mstore\n      0x04\n      add\n      tag_230\n      swap3\n      swap2\n      swap1\n      tag_143\n      jump\t// in\n    tag_230:\n      0x20\n      mload(0x40)\n      dup1\n      dup4\n      sub\n      dup2\n      0x00\n      dup8\n      gas\n      call\n      iszero\n      dup1\n      iszero\n      tag_232\n      jumpi\n      returndatasize\n      0x00\n      dup1\n      returndatacopy\n      revert(0x00, returndatasize)\n    tag_232:\n      pop\n      pop\n      pop\n      pop\n      mload(0x40)\n      returndatasize\n      not(0x1f)\n      0x1f\n      dup3\n      add\n      and\n      dup3\n      add\n      dup1\n      0x40\n      mstore\n      pop\n      dup2\n      add\n      swap1\n      tag_233\n      swap2\n      swap1\n      tag_127\n      jump\t// in\n    tag_233:\n      pop\n        /* \"contracts/TreasuryContract/treasurycontract.sol\":3536:3557  address[] memory path */\n      0x00\n        /* \"contracts/TreasuryContract/treasurycontract.sol\":3574:3575  2 */\n      0x02\n        /* \"contracts/TreasuryContract/treasurycontract.sol\":3560:3576  new address[](2) */\n      0xffffffffffffffff\n      dup2\n      gt\n      iszero\n      tag_234\n      jumpi\n      tag_235\n      tag_178\n      jump\t// in\n    tag_235:\n    tag_234:\n      mload(0x40)\n      swap1\n      dup1\n      dup3\n      mstore\n      dup1\n      0x20\n      mul\n      0x20\n      add\n      dup3\n      add\n      0x40\n      mstore\n      dup1\n      iszero\n      tag_236\n      jumpi\n      dup2\n      0x20\n      add\n      0x20\n      dup3\n      mul\n      dup1\n      calldatasize\n      dup4\n      calldatacopy\n      dup1\n      dup3\n      add\n      swap2\n      pop\n      pop\n      swap1\n      pop\n    tag_236:\n      pop\n        /* \"contracts/TreasuryContract/treasurycontract.sol\":3536:3576  address[] memory path = new address[](2) */\n      swap1\n      pop\n        /* \"contracts/TreasuryContract/treasurycontract.sol\":3597:3613  usdcTokenAddress */\n      0x05\n      0x00\n      swap1\n      sload\n      swap1\n      0x0100\n      exp\n      swap1\n      div\n      0xffffffffffffffffffffffffffffffffffffffff\n      and\n        /* \"contracts/TreasuryContract/treasurycontract.sol\":3587:3591  path */\n      dup2\n        /* \"contracts/TreasuryContract/treasurycontract.sol\":3592:3593  0 */\n      0x00\n        /* \"contracts/TreasuryContract/treasurycontract.sol\":3587:3594  path[0] */\n      dup2\n      mload\n      dup2\n      lt\n      tag_237\n      jumpi\n      tag_238\n      tag_182\n      jump\t// in\n    tag_238:\n    tag_237:\n      0x20\n      mul\n      0x20\n      add\n      add\n        /* \"contracts/TreasuryContract/treasurycontract.sol\":3587:3613  path[0] = usdcTokenAddress */\n      swap1\n      0xffffffffffffffffffffffffffffffffffffffff\n      and\n      swap1\n      dup2\n      0xffffffffffffffffffffffffffffffffffffffff\n      and\n      dup2\n      mstore\n      pop\n      pop\n        /* \"contracts/TreasuryContract/treasurycontract.sol\":3634:3650  usdtTokenAddress */\n      0x06\n      0x00\n      swap1\n      sload\n      swap1\n      0x0100\n      exp\n      swap1\n      div\n      0xffffffffffffffffffffffffffffffffffffffff\n      and\n        /* \"contracts/TreasuryContract/treasurycontract.sol\":3624:3628  path */\n      dup2\n        /* \"contracts/TreasuryContract/treasurycontract.sol\":3629:3630  1 */\n      0x01\n        /* \"contracts/TreasuryContract/treasurycontract.sol\":3624:3631  path[1] */\n      dup2\n      mload\n      dup2\n      lt\n      tag_239\n      jumpi\n      tag_240\n      tag_182\n      jump\t// in\n    tag_240:\n    tag_239:\n      0x20\n      mul\n      0x20\n      add\n      add\n        /* \"contracts/TreasuryContract/treasurycontract.sol\":3624:3650  path[1] = usdtTokenAddress */\n      swap1\n      0xffffffffffffffffffffffffffffffffffffffff\n      and\n      swap1\n      dup2\n      0xffffffffffffffffffffffffffffffffffffffff\n      and\n      dup2\n      mstore\n      pop\n      pop\n        /* \"contracts/TreasuryContract/treasurycontract.sol\":3663:3681  iuniswapv2router02 */\n      0x02\n      0x00\n      swap1\n      sload\n      swap1\n      0x0100\n      exp\n      swap1\n      div\n      0xffffffffffffffffffffffffffffffffffffffff\n      and\n        /* \"contracts/TreasuryContract/treasurycontract.sol\":3663:3706  iuniswapv2router02.swapExactTokensForTokens */\n      0xffffffffffffffffffffffffffffffffffffffff\n      and\n      0x38ed1739\n        /* \"contracts/TreasuryContract/treasurycontract.sol\":3721:3730  token1bal */\n      dup4\n        /* \"contracts/TreasuryContract/treasurycontract.sol\":3745:3746  0 */\n      0x00\n        /* \"contracts/TreasuryContract/treasurycontract.sol\":3761:3765  path */\n      dup5\n        /* \"contracts/TreasuryContract/treasurycontract.sol\":3788:3792  this */\n      address\n        /* \"contracts/TreasuryContract/treasurycontract.sol\":3826:3829  600 */\n      0x0258\n        /* \"contracts/TreasuryContract/treasurycontract.sol\":3808:3823  block.timestamp */\n      timestamp\n        /* \"contracts/TreasuryContract/treasurycontract.sol\":3808:3829  block.timestamp + 600 */\n      tag_241\n      swap2\n      swap1\n      tag_117\n      jump\t// in\n    tag_241:\n        /* \"contracts/TreasuryContract/treasurycontract.sol\":3663:3840  iuniswapv2router02.swapExactTokensForTokens(... */\n      mload(0x40)\n      dup7\n      0xffffffff\n      and\n      0xe0\n      shl\n      dup2\n      mstore\n      0x04\n      add\n      tag_242\n      swap6\n      swap5\n      swap4\n      swap3\n      swap2\n      swap1\n      tag_243\n      jump\t// in\n    tag_242:\n      0x00\n      mload(0x40)\n      dup1\n      dup4\n      sub\n      dup2\n      0x00\n      dup8\n      gas\n      call\n      iszero\n      dup1\n      iszero\n      tag_245\n      jumpi\n      returndatasize\n      0x00\n      dup1\n      returndatacopy\n      revert(0x00, returndatasize)\n    tag_245:\n      pop\n      pop\n      pop\n      pop\n      mload(0x40)\n      returndatasize\n      0x00\n      dup3\n      returndatacopy\n      returndatasize\n      not(0x1f)\n      0x1f\n      dup3\n      add\n      and\n      dup3\n      add\n      dup1\n      0x40\n      mstore\n      pop\n      dup2\n      add\n      swap1\n      tag_246\n      swap2\n      swap1\n      tag_190\n      jump\t// in\n    tag_246:\n      pop\n        /* \"contracts/TreasuryContract/treasurycontract.sol\":3853:3870  uint256 token2bal */\n      0x00\n        /* \"contracts/TreasuryContract/treasurycontract.sol\":3880:3896  usdtTokenAddress */\n      0x06\n      0x00\n      swap1\n      sload\n      swap1\n      0x0100\n      exp\n      swap1\n      div\n      0xffffffffffffffffffffffffffffffffffffffff\n      and\n        /* \"contracts/TreasuryContract/treasurycontract.sol\":3873:3907  IERC20(usdtTokenAddress).balanceOf */\n      0xffffffffffffffffffffffffffffffffffffffff\n      and\n      0x70a08231\n        /* \"contracts/TreasuryContract/treasurycontract.sol\":3916:3920  this */\n      address\n        /* \"contracts/TreasuryContract/treasurycontract.sol\":3873:3922  IERC20(usdtTokenAddress).balanceOf(address(this)) */\n      mload(0x40)\n      dup3\n      0xffffffff\n      and\n      0xe0\n      shl\n      dup2\n      mstore\n      0x04\n      add\n      tag_247\n      swap2\n      swap1\n      tag_62\n      jump\t// in\n    tag_247:\n      0x20\n      mload(0x40)\n      dup1\n      dup4\n      sub\n      dup2\n      dup7\n      gas\n      staticcall\n      iszero\n      dup1\n      iszero\n      tag_249\n      jumpi\n      returndatasize\n      0x00\n      dup1\n      returndatacopy\n      revert(0x00, returndatasize)\n    tag_249:\n      pop\n      pop\n      pop\n      pop\n      mload(0x40)\n      returndatasize\n      not(0x1f)\n      0x1f\n      dup3\n      add\n      and\n      dup3\n      add\n      dup1\n      0x40\n      mstore\n      pop\n      dup2\n      add\n      swap1\n      tag_250\n      swap2\n      swap1\n      tag_138\n      jump\t// in\n    tag_250:\n        /* \"contracts/TreasuryContract/treasurycontract.sol\":3853:3922  uint256 token2bal = IERC20(usdtTokenAddress).balanceOf(address(this)) */\n      swap1\n      pop\n        /* \"contracts/TreasuryContract/treasurycontract.sol\":3940:3956  usdtTokenAddress */\n      0x06\n      0x00\n      swap1\n      sload\n      swap1\n      0x0100\n      exp\n      swap1\n      div\n      0xffffffffffffffffffffffffffffffffffffffff\n      and\n        /* \"contracts/TreasuryContract/treasurycontract.sol\":3933:3965  IERC20(usdtTokenAddress).approve */\n      0xffffffffffffffffffffffffffffffffffffffff\n      and\n      0x095ea7b3\n        /* \"contracts/TreasuryContract/treasurycontract.sol\":3974:3992  iuniswapv2router02 */\n      0x02\n      0x00\n      swap1\n      sload\n      swap1\n      0x0100\n      exp\n      swap1\n      div\n      0xffffffffffffffffffffffffffffffffffffffff\n      and\n        /* \"contracts/TreasuryContract/treasurycontract.sol\":3995:4004  token2bal */\n      dup4\n        /* \"contracts/TreasuryContract/treasurycontract.sol\":3933:4005  IERC20(usdtTokenAddress).approve(address(iuniswapv2router02), token2bal) */\n      mload(0x40)\n      dup4\n      0xffffffff\n      and\n      0xe0\n      shl\n      dup2\n      mstore\n      0x04\n      add\n      tag_251\n      swap3\n      swap2\n      swap1\n      tag_143\n      jump\t// in\n    tag_251:\n      0x20\n      mload(0x40)\n      dup1\n      dup4\n      sub\n      dup2\n      0x00\n      dup8\n      gas\n      call\n      iszero\n      dup1\n      iszero\n      tag_253\n      jumpi\n      returndatasize\n      0x00\n      dup1\n      returndatacopy\n      revert(0x00, returndatasize)\n    tag_253:\n      pop\n      pop\n      pop\n      pop\n      mload(0x40)\n      returndatasize\n      not(0x1f)\n      0x1f\n      dup3\n      add\n      and\n      dup3\n      add\n      dup1\n      0x40\n      mstore\n      pop\n      dup2\n      add\n      swap1\n      tag_254\n      swap2\n      swap1\n      tag_127\n      jump\t// in\n    tag_254:\n      pop\n        /* \"contracts/TreasuryContract/treasurycontract.sol\":4018:4036  iuniswapv2router02 */\n      0x02\n      0x00\n      swap1\n      sload\n      swap1\n      0x0100\n      exp\n      swap1\n      div\n      0xffffffffffffffffffffffffffffffffffffffff\n      and\n        /* \"contracts/TreasuryContract/treasurycontract.sol\":4018:4049  iuniswapv2router02.addLiquidity */\n      0xffffffffffffffffffffffffffffffffffffffff\n      and\n      0xe8e33700\n        /* \"contracts/TreasuryContract/treasurycontract.sol\":4050:4066  usdcTokenAddress */\n      0x05\n      0x00\n      swap1\n      sload\n      swap1\n      0x0100\n      exp\n      swap1\n      div\n      0xffffffffffffffffffffffffffffffffffffffff\n      and\n        /* \"contracts/TreasuryContract/treasurycontract.sol\":4068:4084  usdtTokenAddress */\n      0x06\n      0x00\n      swap1\n      sload\n      swap1\n      0x0100\n      exp\n      swap1\n      div\n      0xffffffffffffffffffffffffffffffffffffffff\n      and\n        /* \"contracts/TreasuryContract/treasurycontract.sol\":4086:4095  token1bal */\n      dup7\n        /* \"contracts/TreasuryContract/treasurycontract.sol\":4097:4106  token2bal */\n      dup6\n        /* \"contracts/TreasuryContract/treasurycontract.sol\":4108:4109  1 */\n      0x01\n        /* \"contracts/TreasuryContract/treasurycontract.sol\":4111:4112  1 */\n      dup1\n        /* \"contracts/TreasuryContract/treasurycontract.sol\":4122:4126  this */\n      address\n        /* \"contracts/TreasuryContract/treasurycontract.sol\":4129:4144  block.timestamp */\n      timestamp\n        /* \"contracts/TreasuryContract/treasurycontract.sol\":4018:4145  iuniswapv2router02.addLiquidity(usdcTokenAddress, usdtTokenAddress, token1bal, token2bal, 1, 1, address(this), block.timestamp) */\n      mload(0x40)\n      dup10\n      0xffffffff\n      and\n      0xe0\n      shl\n      dup2\n      mstore\n      0x04\n      add\n      tag_255\n      swap9\n      swap8\n      swap7\n      swap6\n      swap5\n      swap4\n      swap3\n      swap2\n      swap1\n      tag_256\n      jump\t// in\n    tag_255:\n      0x60\n      mload(0x40)\n      dup1\n      dup4\n      sub\n      dup2\n      0x00\n      dup8\n      gas\n      call\n      iszero\n      dup1\n      iszero\n      tag_258\n      jumpi\n      returndatasize\n      0x00\n      dup1\n      returndatacopy\n      revert(0x00, returndatasize)\n    tag_258:\n      pop\n      pop\n      pop\n      pop\n      mload(0x40)\n      returndatasize\n      not(0x1f)\n      0x1f\n      dup3\n      add\n      and\n      dup3\n      add\n      dup1\n      0x40\n      mstore\n      pop\n      dup2\n      add\n      swap1\n      tag_259\n      swap2\n      swap1\n      tag_260\n      jump\t// in\n    tag_259:\n      pop\n      pop\n      pop\n        /* \"contracts/TreasuryContract/treasurycontract.sol\":4165:4169  true */\n      0x01\n        /* \"contracts/TreasuryContract/treasurycontract.sol\":4158:4169  return true */\n      swap4\n      pop\n      pop\n      pop\n      pop\n        /* \"contracts/TreasuryContract/treasurycontract.sol\":3177:4177  function addLiquidityToUniswap(uint256 _amount) public returns (bool){... */\n      swap2\n      swap1\n      pop\n      jump\t// out\n        /* \"contracts/TreasuryContract/lib/Ownable.sol\":629:660  address payable public newOwner */\n    tag_88:\n      0x01\n      0x00\n      swap1\n      sload\n      swap1\n      0x0100\n      exp\n      swap1\n      div\n      0xffffffffffffffffffffffffffffffffffffffff\n      and\n      dup2\n      jump\t// out\n        /* \"contracts/TreasuryContract/treasurycontract.sol\":4187:4621  function depositAndDistributeFunds(uint256 _amount) public returns(bool)  {... */\n    tag_92:\n        /* \"contracts/TreasuryContract/treasurycontract.sol\":4254:4258  bool */\n      0x00\n        /* \"contracts/TreasuryContract/treasurycontract.sol\":4280:4300  onlyDeposit(_amount) */\n      tag_262\n        /* \"contracts/TreasuryContract/treasurycontract.sol\":4292:4299  _amount */\n      dup3\n        /* \"contracts/TreasuryContract/treasurycontract.sol\":4280:4291  onlyDeposit */\n      tag_35\n        /* \"contracts/TreasuryContract/treasurycontract.sol\":4280:4300  onlyDeposit(_amount) */\n      jump\t// in\n    tag_262:\n        /* \"contracts/TreasuryContract/treasurycontract.sol\":4272:4323  require(onlyDeposit(_amount),\"fund deposit failed\") */\n      tag_263\n      jumpi\n      mload(0x40)\n      0x08c379a000000000000000000000000000000000000000000000000000000000\n      dup2\n      mstore\n      0x04\n      add\n      tag_264\n      swap1\n      tag_265\n      jump\t// in\n    tag_264:\n      mload(0x40)\n      dup1\n      swap2\n      sub\n      swap1\n      revert\n    tag_263:\n        /* \"contracts/TreasuryContract/treasurycontract.sol\":4336:4357  uint256 uniswapAmount */\n      0x00\n        /* \"contracts/TreasuryContract/treasurycontract.sol\":4387:4390  100 */\n      0x64\n        /* \"contracts/TreasuryContract/treasurycontract.sol\":4371:4383  uniswapRatio */\n      sload(0x07)\n        /* \"contracts/TreasuryContract/treasurycontract.sol\":4361:4368  _amount */\n      dup5\n        /* \"contracts/TreasuryContract/treasurycontract.sol\":4361:4383  _amount * uniswapRatio */\n      tag_266\n      swap2\n      swap1\n      tag_157\n      jump\t// in\n    tag_266:\n        /* \"contracts/TreasuryContract/treasurycontract.sol\":4360:4390  (_amount * uniswapRatio) / 100 */\n      tag_267\n      swap2\n      swap1\n      tag_155\n      jump\t// in\n    tag_267:\n        /* \"contracts/TreasuryContract/treasurycontract.sol\":4336:4390  uint256 uniswapAmount = (_amount * uniswapRatio) / 100 */\n      swap1\n      pop\n        /* \"contracts/TreasuryContract/treasurycontract.sol\":4401:4419  uint256 aaveAmount */\n      0x00\n        /* \"contracts/TreasuryContract/treasurycontract.sol\":4446:4449  100 */\n      0x64\n        /* \"contracts/TreasuryContract/treasurycontract.sol\":4433:4442  aaveRatio */\n      sload(0x08)\n        /* \"contracts/TreasuryContract/treasurycontract.sol\":4423:4430  _amount */\n      dup6\n        /* \"contracts/TreasuryContract/treasurycontract.sol\":4423:4442  _amount * aaveRatio */\n      tag_268\n      swap2\n      swap1\n      tag_157\n      jump\t// in\n    tag_268:\n        /* \"contracts/TreasuryContract/treasurycontract.sol\":4422:4449  (_amount * aaveRatio) / 100 */\n      tag_269\n      swap2\n      swap1\n      tag_155\n      jump\t// in\n    tag_269:\n        /* \"contracts/TreasuryContract/treasurycontract.sol\":4401:4449  uint256 aaveAmount = (_amount * aaveRatio) / 100 */\n      swap1\n      pop\n        /* \"contracts/TreasuryContract/treasurycontract.sol\":4470:4496  addFundsToAave(aaveAmount) */\n      tag_270\n        /* \"contracts/TreasuryContract/treasurycontract.sol\":4485:4495  aaveAmount */\n      dup2\n        /* \"contracts/TreasuryContract/treasurycontract.sol\":4470:4484  addFundsToAave */\n      tag_40\n        /* \"contracts/TreasuryContract/treasurycontract.sol\":4470:4496  addFundsToAave(aaveAmount) */\n      jump\t// in\n    tag_270:\n      pop\n        /* \"contracts/TreasuryContract/treasurycontract.sol\":4507:4543  addLiquidityToUniswap(uniswapAmount) */\n      tag_271\n        /* \"contracts/TreasuryContract/treasurycontract.sol\":4529:4542  uniswapAmount */\n      dup3\n        /* \"contracts/TreasuryContract/treasurycontract.sol\":4507:4528  addLiquidityToUniswap */\n      tag_85\n        /* \"contracts/TreasuryContract/treasurycontract.sol\":4507:4543  addLiquidityToUniswap(uniswapAmount) */\n      jump\t// in\n    tag_271:\n      pop\n        /* \"contracts/TreasuryContract/treasurycontract.sol\":4570:4589  FundsAdded(_amount) */\n      0xd30fc8a1b5907be76206421a3040262f1f6aed0d418c05312ef5ff8de0c9ae4c\n        /* \"contracts/TreasuryContract/treasurycontract.sol\":4581:4588  _amount */\n      dup5\n        /* \"contracts/TreasuryContract/treasurycontract.sol\":4570:4589  FundsAdded(_amount) */\n      mload(0x40)\n      tag_272\n      swap2\n      swap1\n      tag_31\n      jump\t// in\n    tag_272:\n      mload(0x40)\n      dup1\n      swap2\n      sub\n      swap1\n      log1\n        /* \"contracts/TreasuryContract/treasurycontract.sol\":4609:4613  true */\n      0x01\n        /* \"contracts/TreasuryContract/treasurycontract.sol\":4602:4613  return true */\n      swap3\n      pop\n      pop\n      pop\n        /* \"contracts/TreasuryContract/treasurycontract.sol\":4187:4621  function depositAndDistributeFunds(uint256 _amount) public returns(bool)  {... */\n      swap2\n      swap1\n      pop\n      jump\t// out\n        /* \"contracts/TreasuryContract/treasurycontract.sol\":4629:5303  function withdrawFromPool(uint256 _amount, uint256 key ) external onlyOwner() returns(bool) {... */\n    tag_97:\n        /* \"contracts/TreasuryContract/treasurycontract.sol\":4715:4719  bool */\n      0x00\n        /* \"contracts/TreasuryContract/lib/Ownable.sol\":1224:1234  msg.sender */\n      caller\n        /* \"contracts/TreasuryContract/lib/Ownable.sol\":1215:1234  owner == msg.sender */\n      0xffffffffffffffffffffffffffffffffffffffff\n      and\n        /* \"contracts/TreasuryContract/lib/Ownable.sol\":1215:1220  owner */\n      0x00\n      dup1\n      sload\n      swap1\n      0x0100\n      exp\n      swap1\n      div\n      0xffffffffffffffffffffffffffffffffffffffff\n      and\n        /* \"contracts/TreasuryContract/lib/Ownable.sol\":1215:1234  owner == msg.sender */\n      0xffffffffffffffffffffffffffffffffffffffff\n      and\n      eq\n        /* \"contracts/TreasuryContract/lib/Ownable.sol\":1207:1266  require(owner == msg.sender, \"ERR_AUTHORIZED_ADDRESS_ONLY\") */\n      tag_274\n      jumpi\n      mload(0x40)\n      0x08c379a000000000000000000000000000000000000000000000000000000000\n      dup2\n      mstore\n      0x04\n      add\n      tag_275\n      swap1\n      tag_276\n      jump\t// in\n    tag_275:\n      mload(0x40)\n      dup1\n      swap2\n      sub\n      swap1\n      revert\n    tag_274:\n        /* \"contracts/TreasuryContract/treasurycontract.sol\":4748:4749  0 */\n      0x00\n        /* \"contracts/TreasuryContract/treasurycontract.sol\":4740:4747  _amount */\n      dup4\n        /* \"contracts/TreasuryContract/treasurycontract.sol\":4740:4749  _amount>0 */\n      gt\n        /* \"contracts/TreasuryContract/treasurycontract.sol\":4732:4770  require(_amount>0,\"amount can't be 0\") */\n      tag_278\n      jumpi\n      mload(0x40)\n      0x08c379a000000000000000000000000000000000000000000000000000000000\n      dup2\n      mstore\n      0x04\n      add\n      tag_279\n      swap1\n      tag_121\n      jump\t// in\n    tag_279:\n      mload(0x40)\n      dup1\n      swap2\n      sub\n      swap1\n      revert\n    tag_278:\n        /* \"contracts/TreasuryContract/treasurycontract.sol\":4793:4794  1 */\n      0x01\n        /* \"contracts/TreasuryContract/treasurycontract.sol\":4786:4789  key */\n      dup3\n        /* \"contracts/TreasuryContract/treasurycontract.sol\":4786:4794  key == 1 */\n      sub\n        /* \"contracts/TreasuryContract/treasurycontract.sol\":4783:5219  if(key == 1){... */\n      tag_280\n      jumpi\n        /* \"contracts/TreasuryContract/treasurycontract.sol\":4810:4832  address lpTokenAddress */\n      0x00\n        /* \"contracts/TreasuryContract/treasurycontract.sol\":4835:4851  uniswapV2factory */\n      0x04\n      0x00\n      swap1\n      sload\n      swap1\n      0x0100\n      exp\n      swap1\n      div\n      0xffffffffffffffffffffffffffffffffffffffff\n      and\n        /* \"contracts/TreasuryContract/treasurycontract.sol\":4835:4859  uniswapV2factory.getPair */\n      0xffffffffffffffffffffffffffffffffffffffff\n      and\n      0xe6a43905\n        /* \"contracts/TreasuryContract/treasurycontract.sol\":4860:4876  usdcTokenAddress */\n      0x05\n      0x00\n      swap1\n      sload\n      swap1\n      0x0100\n      exp\n      swap1\n      div\n      0xffffffffffffffffffffffffffffffffffffffff\n      and\n        /* \"contracts/TreasuryContract/treasurycontract.sol\":4878:4894  usdtTokenAddress */\n      0x06\n      0x00\n      swap1\n      sload\n      swap1\n      0x0100\n      exp\n      swap1\n      div\n      0xffffffffffffffffffffffffffffffffffffffff\n      and\n        /* \"contracts/TreasuryContract/treasurycontract.sol\":4835:4895  uniswapV2factory.getPair(usdcTokenAddress, usdtTokenAddress) */\n      mload(0x40)\n      dup4\n      0xffffffff\n      and\n      0xe0\n      shl\n      dup2\n      mstore\n      0x04\n      add\n      tag_281\n      swap3\n      swap2\n      swap1\n      tag_164\n      jump\t// in\n    tag_281:\n      0x20\n      mload(0x40)\n      dup1\n      dup4\n      sub\n      dup2\n      dup7\n      gas\n      staticcall\n      iszero\n      dup1\n      iszero\n      tag_283\n      jumpi\n      returndatasize\n      0x00\n      dup1\n      returndatacopy\n      revert(0x00, returndatasize)\n    tag_283:\n      pop\n      pop\n      pop\n      pop\n      mload(0x40)\n      returndatasize\n      not(0x1f)\n      0x1f\n      dup3\n      add\n      and\n      dup3\n      add\n      dup1\n      0x40\n      mstore\n      pop\n      dup2\n      add\n      swap1\n      tag_284\n      swap2\n      swap1\n      tag_168\n      jump\t// in\n    tag_284:\n        /* \"contracts/TreasuryContract/treasurycontract.sol\":4810:4895  address lpTokenAddress = uniswapV2factory.getPair(usdcTokenAddress, usdtTokenAddress) */\n      swap1\n      pop\n        /* \"contracts/TreasuryContract/treasurycontract.sol\":4917:4931  lpTokenAddress */\n      dup1\n        /* \"contracts/TreasuryContract/treasurycontract.sol\":4910:4940  IERC20(lpTokenAddress).approve */\n      0xffffffffffffffffffffffffffffffffffffffff\n      and\n      0x095ea7b3\n        /* \"contracts/TreasuryContract/treasurycontract.sol\":4949:4967  iuniswapv2router02 */\n      0x02\n      0x00\n      swap1\n      sload\n      swap1\n      0x0100\n      exp\n      swap1\n      div\n      0xffffffffffffffffffffffffffffffffffffffff\n      and\n        /* \"contracts/TreasuryContract/treasurycontract.sol\":4970:4977  _amount */\n      dup7\n        /* \"contracts/TreasuryContract/treasurycontract.sol\":4910:4978  IERC20(lpTokenAddress).approve(address(iuniswapv2router02), _amount) */\n      mload(0x40)\n      dup4\n      0xffffffff\n      and\n      0xe0\n      shl\n      dup2\n      mstore\n      0x04\n      add\n      tag_285\n      swap3\n      swap2\n      swap1\n      tag_143\n      jump\t// in\n    tag_285:\n      0x20\n      mload(0x40)\n      dup1\n      dup4\n      sub\n      dup2\n      0x00\n      dup8\n      gas\n      call\n      iszero\n      dup1\n      iszero\n      tag_287\n      jumpi\n      returndatasize\n      0x00\n      dup1\n      returndatacopy\n      revert(0x00, returndatasize)\n    tag_287:\n      pop\n      pop\n      pop\n      pop\n      mload(0x40)\n      returndatasize\n      not(0x1f)\n      0x1f\n      dup3\n      add\n      and\n      dup3\n      add\n      dup1\n      0x40\n      mstore\n      pop\n      dup2\n      add\n      swap1\n      tag_288\n      swap2\n      swap1\n      tag_127\n      jump\t// in\n    tag_288:\n      pop\n        /* \"contracts/TreasuryContract/treasurycontract.sol\":4993:5011  iuniswapv2router02 */\n      0x02\n      0x00\n      swap1\n      sload\n      swap1\n      0x0100\n      exp\n      swap1\n      div\n      0xffffffffffffffffffffffffffffffffffffffff\n      and\n        /* \"contracts/TreasuryContract/treasurycontract.sol\":4993:5027  iuniswapv2router02.removeLiquidity */\n      0xffffffffffffffffffffffffffffffffffffffff\n      and\n      0xbaa2abde\n        /* \"contracts/TreasuryContract/treasurycontract.sol\":5028:5044  usdcTokenAddress */\n      0x05\n      0x00\n      swap1\n      sload\n      swap1\n      0x0100\n      exp\n      swap1\n      div\n      0xffffffffffffffffffffffffffffffffffffffff\n      and\n        /* \"contracts/TreasuryContract/treasurycontract.sol\":5046:5062  usdtTokenAddress */\n      0x06\n      0x00\n      swap1\n      sload\n      swap1\n      0x0100\n      exp\n      swap1\n      div\n      0xffffffffffffffffffffffffffffffffffffffff\n      and\n        /* \"contracts/TreasuryContract/treasurycontract.sol\":5064:5071  _amount */\n      dup8\n        /* \"contracts/TreasuryContract/treasurycontract.sol\":5074:5075  1 */\n      0x01\n        /* \"contracts/TreasuryContract/treasurycontract.sol\":5077:5078  1 */\n      dup1\n        /* \"contracts/TreasuryContract/treasurycontract.sol\":5088:5092  this */\n      address\n        /* \"contracts/TreasuryContract/treasurycontract.sol\":5095:5110  block.timestamp */\n      timestamp\n        /* \"contracts/TreasuryContract/treasurycontract.sol\":4993:5111  iuniswapv2router02.removeLiquidity(usdcTokenAddress, usdtTokenAddress, _amount , 1, 1, address(this), block.timestamp) */\n      mload(0x40)\n      dup9\n      0xffffffff\n      and\n      0xe0\n      shl\n      dup2\n      mstore\n      0x04\n      add\n      tag_289\n      swap8\n      swap7\n      swap6\n      swap5\n      swap4\n      swap3\n      swap2\n      swap1\n      tag_290\n      jump\t// in\n    tag_289:\n      0x40\n      dup1\n      mload\n      dup1\n      dup4\n      sub\n      dup2\n      0x00\n      dup8\n      gas\n      call\n      iszero\n      dup1\n      iszero\n      tag_292\n      jumpi\n      returndatasize\n      0x00\n      dup1\n      returndatacopy\n      revert(0x00, returndatasize)\n    tag_292:\n      pop\n      pop\n      pop\n      pop\n      mload(0x40)\n      returndatasize\n      not(0x1f)\n      0x1f\n      dup3\n      add\n      and\n      dup3\n      add\n      dup1\n      0x40\n      mstore\n      pop\n      dup2\n      add\n      swap1\n      tag_293\n      swap2\n      swap1\n      tag_294\n      jump\t// in\n    tag_293:\n      pop\n      pop\n        /* \"contracts/TreasuryContract/treasurycontract.sol\":4795:5123  {... */\n      pop\n        /* \"contracts/TreasuryContract/treasurycontract.sol\":4783:5219  if(key == 1){... */\n      jump(tag_295)\n    tag_280:\n        /* \"contracts/TreasuryContract/treasurycontract.sol\":5143:5155  ilendingpool */\n      0x03\n      0x00\n      swap1\n      sload\n      swap1\n      0x0100\n      exp\n      swap1\n      div\n      0xffffffffffffffffffffffffffffffffffffffff\n      and\n        /* \"contracts/TreasuryContract/treasurycontract.sol\":5143:5164  ilendingpool.withdraw */\n      0xffffffffffffffffffffffffffffffffffffffff\n      and\n      0x69328dec\n        /* \"contracts/TreasuryContract/treasurycontract.sol\":5165:5181  usdcTokenAddress */\n      0x05\n      0x00\n      swap1\n      sload\n      swap1\n      0x0100\n      exp\n      swap1\n      div\n      0xffffffffffffffffffffffffffffffffffffffff\n      and\n        /* \"contracts/TreasuryContract/treasurycontract.sol\":5184:5191  _amount */\n      dup6\n        /* \"contracts/TreasuryContract/treasurycontract.sol\":5201:5205  this */\n      address\n        /* \"contracts/TreasuryContract/treasurycontract.sol\":5143:5207  ilendingpool.withdraw(usdcTokenAddress , _amount, address(this)) */\n      mload(0x40)\n      dup5\n      0xffffffff\n      and\n      0xe0\n      shl\n      dup2\n      mstore\n      0x04\n      add\n      tag_296\n      swap4\n      swap3\n      swap2\n      swap1\n      tag_297\n      jump\t// in\n    tag_296:\n      0x00\n      mload(0x40)\n      dup1\n      dup4\n      sub\n      dup2\n      0x00\n      dup8\n      dup1\n      extcodesize\n      iszero\n      dup1\n      iszero\n      tag_298\n      jumpi\n      0x00\n      dup1\n      revert\n    tag_298:\n      pop\n      gas\n      call\n      iszero\n      dup1\n      iszero\n      tag_300\n      jumpi\n      returndatasize\n      0x00\n      dup1\n      returndatacopy\n      revert(0x00, returndatasize)\n    tag_300:\n      pop\n      pop\n      pop\n      pop\n        /* \"contracts/TreasuryContract/treasurycontract.sol\":4783:5219  if(key == 1){... */\n    tag_295:\n        /* \"contracts/TreasuryContract/treasurycontract.sol\":5236:5271  FundsWithdrawFromPool(_amount, key) */\n      0xa9c4e7142b50777bc004c81693bd532cbdaf27fffc387d8f20d1e5a605cdfbe7\n        /* \"contracts/TreasuryContract/treasurycontract.sol\":5258:5265  _amount */\n      dup4\n        /* \"contracts/TreasuryContract/treasurycontract.sol\":5267:5270  key */\n      dup4\n        /* \"contracts/TreasuryContract/treasurycontract.sol\":5236:5271  FundsWithdrawFromPool(_amount, key) */\n      mload(0x40)\n      tag_301\n      swap3\n      swap2\n      swap1\n      tag_219\n      jump\t// in\n    tag_301:\n      mload(0x40)\n      dup1\n      swap2\n      sub\n      swap1\n      log1\n        /* \"contracts/TreasuryContract/treasurycontract.sol\":5291:5295  true */\n      0x01\n        /* \"contracts/TreasuryContract/treasurycontract.sol\":5284:5295  return true */\n      swap1\n      pop\n        /* \"contracts/TreasuryContract/treasurycontract.sol\":4629:5303  function withdrawFromPool(uint256 _amount, uint256 key ) external onlyOwner() returns(bool) {... */\n      swap3\n      swap2\n      pop\n      pop\n      jump\t// out\n        /* \"contracts/TreasuryContract/lib/Ownable.sol\":1441:1553  function transferOwnership(address payable _newOwner) external onlyOwner {... */\n    tag_102:\n        /* \"contracts/TreasuryContract/lib/Ownable.sol\":1224:1234  msg.sender */\n      caller\n        /* \"contracts/TreasuryContract/lib/Ownable.sol\":1215:1234  owner == msg.sender */\n      0xffffffffffffffffffffffffffffffffffffffff\n      and\n        /* \"contracts/TreasuryContract/lib/Ownable.sol\":1215:1220  owner */\n      0x00\n      dup1\n      sload\n      swap1\n      0x0100\n      exp\n      swap1\n      div\n      0xffffffffffffffffffffffffffffffffffffffff\n      and\n        /* \"contracts/TreasuryContract/lib/Ownable.sol\":1215:1234  owner == msg.sender */\n      0xffffffffffffffffffffffffffffffffffffffff\n      and\n      eq\n        /* \"contracts/TreasuryContract/lib/Ownable.sol\":1207:1266  require(owner == msg.sender, \"ERR_AUTHORIZED_ADDRESS_ONLY\") */\n      tag_303\n      jumpi\n      mload(0x40)\n      0x08c379a000000000000000000000000000000000000000000000000000000000\n      dup2\n      mstore\n      0x04\n      add\n      tag_304\n      swap1\n      tag_276\n      jump\t// in\n    tag_304:\n      mload(0x40)\n      dup1\n      swap2\n      sub\n      swap1\n      revert\n    tag_303:\n        /* \"contracts/TreasuryContract/lib/Ownable.sol\":1536:1545  _newOwner */\n      dup1\n        /* \"contracts/TreasuryContract/lib/Ownable.sol\":1525:1533  newOwner */\n      0x01\n      0x00\n        /* \"contracts/TreasuryContract/lib/Ownable.sol\":1525:1545  newOwner = _newOwner */\n      0x0100\n      exp\n      dup2\n      sload\n      dup2\n      0xffffffffffffffffffffffffffffffffffffffff\n      mul\n      not\n      and\n      swap1\n      dup4\n      0xffffffffffffffffffffffffffffffffffffffff\n      and\n      mul\n      or\n      swap1\n      sstore\n      pop\n        /* \"contracts/TreasuryContract/lib/Ownable.sol\":1441:1553  function transferOwnership(address payable _newOwner) external onlyOwner {... */\n      pop\n      jump\t// out\n        /* \"contracts/TreasuryContract/treasurycontract.sol\":2503:2765  function setRatio(uint256 _uniRatio, uint256 _aaveRatio)public onlyOwner() returns(bool){... */\n    tag_105:\n        /* \"contracts/TreasuryContract/treasurycontract.sol\":2586:2590  bool */\n      0x00\n        /* \"contracts/TreasuryContract/lib/Ownable.sol\":1224:1234  msg.sender */\n      caller\n        /* \"contracts/TreasuryContract/lib/Ownable.sol\":1215:1234  owner == msg.sender */\n      0xffffffffffffffffffffffffffffffffffffffff\n      and\n        /* \"contracts/TreasuryContract/lib/Ownable.sol\":1215:1220  owner */\n      0x00\n      dup1\n      sload\n      swap1\n      0x0100\n      exp\n      swap1\n      div\n      0xffffffffffffffffffffffffffffffffffffffff\n      and\n        /* \"contracts/TreasuryContract/lib/Ownable.sol\":1215:1234  owner == msg.sender */\n      0xffffffffffffffffffffffffffffffffffffffff\n      and\n      eq\n        /* \"contracts/TreasuryContract/lib/Ownable.sol\":1207:1266  require(owner == msg.sender, \"ERR_AUTHORIZED_ADDRESS_ONLY\") */\n      tag_307\n      jumpi\n      mload(0x40)\n      0x08c379a000000000000000000000000000000000000000000000000000000000\n      dup2\n      mstore\n      0x04\n      add\n      tag_308\n      swap1\n      tag_276\n      jump\t// in\n    tag_308:\n      mload(0x40)\n      dup1\n      swap2\n      sub\n      swap1\n      revert\n    tag_307:\n        /* \"contracts/TreasuryContract/treasurycontract.sol\":2634:2637  100 */\n      0x64\n        /* \"contracts/TreasuryContract/treasurycontract.sol\":2620:2630  _aaveRatio */\n      dup3\n        /* \"contracts/TreasuryContract/treasurycontract.sol\":2610:2619  _uniRatio */\n      dup5\n        /* \"contracts/TreasuryContract/treasurycontract.sol\":2610:2630  _uniRatio+_aaveRatio */\n      tag_310\n      swap2\n      swap1\n      tag_117\n      jump\t// in\n    tag_310:\n        /* \"contracts/TreasuryContract/treasurycontract.sol\":2610:2637  _uniRatio+_aaveRatio == 100 */\n      eq\n        /* \"contracts/TreasuryContract/treasurycontract.sol\":2602:2662  require(_uniRatio+_aaveRatio == 100 , \"total should be 100\") */\n      tag_311\n      jumpi\n      mload(0x40)\n      0x08c379a000000000000000000000000000000000000000000000000000000000\n      dup2\n      mstore\n      0x04\n      add\n      tag_312\n      swap1\n      tag_313\n      jump\t// in\n    tag_312:\n      mload(0x40)\n      dup1\n      swap2\n      sub\n      swap1\n      revert\n    tag_311:\n        /* \"contracts/TreasuryContract/treasurycontract.sol\":2690:2699  _uniRatio */\n      dup3\n        /* \"contracts/TreasuryContract/treasurycontract.sol\":2675:2687  uniswapRatio */\n      0x07\n        /* \"contracts/TreasuryContract/treasurycontract.sol\":2675:2699  uniswapRatio = _uniRatio */\n      dup2\n      swap1\n      sstore\n      pop\n        /* \"contracts/TreasuryContract/treasurycontract.sol\":2722:2732  _aaveRatio */\n      dup2\n        /* \"contracts/TreasuryContract/treasurycontract.sol\":2710:2719  aaveRatio */\n      0x08\n        /* \"contracts/TreasuryContract/treasurycontract.sol\":2710:2732  aaveRatio = _aaveRatio */\n      dup2\n      swap1\n      sstore\n      pop\n        /* \"contracts/TreasuryContract/treasurycontract.sol\":2752:2756  true */\n      0x01\n        /* \"contracts/TreasuryContract/treasurycontract.sol\":2745:2756  return true */\n      swap1\n      pop\n        /* \"contracts/TreasuryContract/treasurycontract.sol\":2503:2765  function setRatio(uint256 _uniRatio, uint256 _aaveRatio)public onlyOwner() returns(bool){... */\n      swap3\n      swap2\n      pop\n      pop\n      jump\t// out\n        /* \"contracts/TreasuryContract/treasurycontract.sol\":1926:2153  function getCurrentLiquidityRate(address asset) public view returns (uint128) {... */\n    tag_110:\n        /* \"contracts/TreasuryContract/treasurycontract.sol\":1995:2002  uint128 */\n      0x00\n        /* \"contracts/TreasuryContract/treasurycontract.sol\":2015:2058  ILendingPool.ReserveData memory reserveData */\n      dup1\n        /* \"contracts/TreasuryContract/treasurycontract.sol\":2061:2073  ilendingpool */\n      0x03\n      0x00\n      swap1\n      sload\n      swap1\n      0x0100\n      exp\n      swap1\n      div\n      0xffffffffffffffffffffffffffffffffffffffff\n      and\n        /* \"contracts/TreasuryContract/treasurycontract.sol\":2061:2088  ilendingpool.getReserveData */\n      0xffffffffffffffffffffffffffffffffffffffff\n      and\n      0x35ea6a75\n        /* \"contracts/TreasuryContract/treasurycontract.sol\":2089:2094  asset */\n      dup5\n        /* \"contracts/TreasuryContract/treasurycontract.sol\":2061:2095  ilendingpool.getReserveData(asset) */\n      mload(0x40)\n      dup3\n      0xffffffff\n      and\n      0xe0\n      shl\n      dup2\n      mstore\n      0x04\n      add\n      tag_315\n      swap2\n      swap1\n      tag_62\n      jump\t// in\n    tag_315:\n      0x0180\n      mload(0x40)\n      dup1\n      dup4\n      sub\n      dup2\n      dup7\n      gas\n      staticcall\n      iszero\n      dup1\n      iszero\n      tag_317\n      jumpi\n      returndatasize\n      0x00\n      dup1\n      returndatacopy\n      revert(0x00, returndatasize)\n    tag_317:\n      pop\n      pop\n      pop\n      pop\n      mload(0x40)\n      returndatasize\n      not(0x1f)\n      0x1f\n      dup3\n      add\n      and\n      dup3\n      add\n      dup1\n      0x40\n      mstore\n      pop\n      dup2\n      add\n      swap1\n      tag_318\n      swap2\n      swap1\n      tag_319\n      jump\t// in\n    tag_318:\n        /* \"contracts/TreasuryContract/treasurycontract.sol\":2015:2095  ILendingPool.ReserveData memory reserveData = ilendingpool.getReserveData(asset) */\n      swap1\n      pop\n        /* \"contracts/TreasuryContract/treasurycontract.sol\":2113:2124  reserveData */\n      dup1\n        /* \"contracts/TreasuryContract/treasurycontract.sol\":2113:2145  reserveData.currentLiquidityRate */\n      0x60\n      add\n      mload\n        /* \"contracts/TreasuryContract/treasurycontract.sol\":2106:2145  return reserveData.currentLiquidityRate */\n      swap2\n      pop\n      pop\n        /* \"contracts/TreasuryContract/treasurycontract.sol\":1926:2153  function getCurrentLiquidityRate(address asset) public view returns (uint128) {... */\n      swap2\n      swap1\n      pop\n      jump\t// out\n        /* \"#utility.yul\":7:84   */\n    tag_320:\n        /* \"#utility.yul\":44:51   */\n      0x00\n        /* \"#utility.yul\":73:78   */\n      dup2\n        /* \"#utility.yul\":62:78   */\n      swap1\n      pop\n        /* \"#utility.yul\":7:84   */\n      swap2\n      swap1\n      pop\n      jump\t// out\n        /* \"#utility.yul\":90:208   */\n    tag_321:\n        /* \"#utility.yul\":177:201   */\n      tag_409\n        /* \"#utility.yul\":195:200   */\n      dup2\n        /* \"#utility.yul\":177:201   */\n      tag_320\n      jump\t// in\n    tag_409:\n        /* \"#utility.yul\":172:175   */\n      dup3\n        /* \"#utility.yul\":165:202   */\n      mstore\n        /* \"#utility.yul\":90:208   */\n      pop\n      pop\n      jump\t// out\n        /* \"#utility.yul\":214:436   */\n    tag_31:\n        /* \"#utility.yul\":307:311   */\n      0x00\n        /* \"#utility.yul\":345:347   */\n      0x20\n        /* \"#utility.yul\":334:343   */\n      dup3\n        /* \"#utility.yul\":330:348   */\n      add\n        /* \"#utility.yul\":322:348   */\n      swap1\n      pop\n        /* \"#utility.yul\":358:429   */\n      tag_411\n        /* \"#utility.yul\":426:427   */\n      0x00\n        /* \"#utility.yul\":415:424   */\n      dup4\n        /* \"#utility.yul\":411:428   */\n      add\n        /* \"#utility.yul\":402:408   */\n      dup5\n        /* \"#utility.yul\":358:429   */\n      tag_321\n      jump\t// in\n    tag_411:\n        /* \"#utility.yul\":214:436   */\n      swap3\n      swap2\n      pop\n      pop\n      jump\t// out\n        /* \"#utility.yul\":442:517   */\n    tag_322:\n        /* \"#utility.yul\":475:481   */\n      0x00\n        /* \"#utility.yul\":508:510   */\n      0x40\n        /* \"#utility.yul\":502:511   */\n      mload\n        /* \"#utility.yul\":492:511   */\n      swap1\n      pop\n        /* \"#utility.yul\":442:517   */\n      swap1\n      jump\t// out\n        /* \"#utility.yul\":523:640   */\n    tag_323:\n        /* \"#utility.yul\":632:633   */\n      0x00\n        /* \"#utility.yul\":629:630   */\n      dup1\n        /* \"#utility.yul\":622:634   */\n      revert\n        /* \"#utility.yul\":646:763   */\n    tag_324:\n        /* \"#utility.yul\":755:756   */\n      0x00\n        /* \"#utility.yul\":752:753   */\n      dup1\n        /* \"#utility.yul\":745:757   */\n      revert\n        /* \"#utility.yul\":769:891   */\n    tag_325:\n        /* \"#utility.yul\":842:866   */\n      tag_416\n        /* \"#utility.yul\":860:865   */\n      dup2\n        /* \"#utility.yul\":842:866   */\n      tag_320\n      jump\t// in\n    tag_416:\n        /* \"#utility.yul\":835:840   */\n      dup2\n        /* \"#utility.yul\":832:867   */\n      eq\n        /* \"#utility.yul\":822:885   */\n      tag_417\n      jumpi\n        /* \"#utility.yul\":881:882   */\n      0x00\n        /* \"#utility.yul\":878:879   */\n      dup1\n        /* \"#utility.yul\":871:883   */\n      revert\n        /* \"#utility.yul\":822:885   */\n    tag_417:\n        /* \"#utility.yul\":769:891   */\n      pop\n      jump\t// out\n        /* \"#utility.yul\":897:1036   */\n    tag_326:\n        /* \"#utility.yul\":943:948   */\n      0x00\n        /* \"#utility.yul\":981:987   */\n      dup2\n        /* \"#utility.yul\":968:988   */\n      calldataload\n        /* \"#utility.yul\":959:988   */\n      swap1\n      pop\n        /* \"#utility.yul\":997:1030   */\n      tag_419\n        /* \"#utility.yul\":1024:1029   */\n      dup2\n        /* \"#utility.yul\":997:1030   */\n      tag_325\n      jump\t// in\n    tag_419:\n        /* \"#utility.yul\":897:1036   */\n      swap3\n      swap2\n      pop\n      pop\n      jump\t// out\n        /* \"#utility.yul\":1042:1371   */\n    tag_34:\n        /* \"#utility.yul\":1101:1107   */\n      0x00\n        /* \"#utility.yul\":1150:1152   */\n      0x20\n        /* \"#utility.yul\":1138:1147   */\n      dup3\n        /* \"#utility.yul\":1129:1136   */\n      dup5\n        /* \"#utility.yul\":1125:1148   */\n      sub\n        /* \"#utility.yul\":1121:1153   */\n      slt\n        /* \"#utility.yul\":1118:1237   */\n      iszero\n      tag_421\n      jumpi\n        /* \"#utility.yul\":1156:1235   */\n      tag_422\n      tag_323\n      jump\t// in\n    tag_422:\n        /* \"#utility.yul\":1118:1237   */\n    tag_421:\n        /* \"#utility.yul\":1276:1277   */\n      0x00\n        /* \"#utility.yul\":1301:1354   */\n      tag_423\n        /* \"#utility.yul\":1346:1353   */\n      dup5\n        /* \"#utility.yul\":1337:1343   */\n      dup3\n        /* \"#utility.yul\":1326:1335   */\n      dup6\n        /* \"#utility.yul\":1322:1344   */\n      add\n        /* \"#utility.yul\":1301:1354   */\n      tag_326\n      jump\t// in\n    tag_423:\n        /* \"#utility.yul\":1291:1354   */\n      swap2\n      pop\n        /* \"#utility.yul\":1247:1364   */\n      pop\n        /* \"#utility.yul\":1042:1371   */\n      swap3\n      swap2\n      pop\n      pop\n      jump\t// out\n        /* \"#utility.yul\":1377:1467   */\n    tag_327:\n        /* \"#utility.yul\":1411:1418   */\n      0x00\n        /* \"#utility.yul\":1454:1459   */\n      dup2\n        /* \"#utility.yul\":1447:1460   */\n      iszero\n        /* \"#utility.yul\":1440:1461   */\n      iszero\n        /* \"#utility.yul\":1429:1461   */\n      swap1\n      pop\n        /* \"#utility.yul\":1377:1467   */\n      swap2\n      swap1\n      pop\n      jump\t// out\n        /* \"#utility.yul\":1473:1582   */\n    tag_328:\n        /* \"#utility.yul\":1554:1575   */\n      tag_426\n        /* \"#utility.yul\":1569:1574   */\n      dup2\n        /* \"#utility.yul\":1554:1575   */\n      tag_327\n      jump\t// in\n    tag_426:\n        /* \"#utility.yul\":1549:1552   */\n      dup3\n        /* \"#utility.yul\":1542:1576   */\n      mstore\n        /* \"#utility.yul\":1473:1582   */\n      pop\n      pop\n      jump\t// out\n        /* \"#utility.yul\":1588:1798   */\n    tag_37:\n        /* \"#utility.yul\":1675:1679   */\n      0x00\n        /* \"#utility.yul\":1713:1715   */\n      0x20\n        /* \"#utility.yul\":1702:1711   */\n      dup3\n        /* \"#utility.yul\":1698:1716   */\n      add\n        /* \"#utility.yul\":1690:1716   */\n      swap1\n      pop\n        /* \"#utility.yul\":1726:1791   */\n      tag_428\n        /* \"#utility.yul\":1788:1789   */\n      0x00\n        /* \"#utility.yul\":1777:1786   */\n      dup4\n        /* \"#utility.yul\":1773:1790   */\n      add\n        /* \"#utility.yul\":1764:1770   */\n      dup5\n        /* \"#utility.yul\":1726:1791   */\n      tag_328\n      jump\t// in\n    tag_428:\n        /* \"#utility.yul\":1588:1798   */\n      swap3\n      swap2\n      pop\n      pop\n      jump\t// out\n        /* \"#utility.yul\":1804:1930   */\n    tag_329:\n        /* \"#utility.yul\":1841:1848   */\n      0x00\n        /* \"#utility.yul\":1881:1923   */\n      0xffffffffffffffffffffffffffffffffffffffff\n        /* \"#utility.yul\":1874:1879   */\n      dup3\n        /* \"#utility.yul\":1870:1924   */\n      and\n        /* \"#utility.yul\":1859:1924   */\n      swap1\n      pop\n        /* \"#utility.yul\":1804:1930   */\n      swap2\n      swap1\n      pop\n      jump\t// out\n        /* \"#utility.yul\":1936:1996   */\n    tag_330:\n        /* \"#utility.yul\":1964:1967   */\n      0x00\n        /* \"#utility.yul\":1985:1990   */\n      dup2\n        /* \"#utility.yul\":1978:1990   */\n      swap1\n      pop\n        /* \"#utility.yul\":1936:1996   */\n      swap2\n      swap1\n      pop\n      jump\t// out\n        /* \"#utility.yul\":2002:2144   */\n    tag_331:\n        /* \"#utility.yul\":2052:2061   */\n      0x00\n        /* \"#utility.yul\":2085:2138   */\n      tag_432\n        /* \"#utility.yul\":2103:2137   */\n      tag_433\n        /* \"#utility.yul\":2112:2136   */\n      tag_434\n        /* \"#utility.yul\":2130:2135   */\n      dup5\n        /* \"#utility.yul\":2112:2136   */\n      tag_329\n      jump\t// in\n    tag_434:\n        /* \"#utility.yul\":2103:2137   */\n      tag_330\n      jump\t// in\n    tag_433:\n        /* \"#utility.yul\":2085:2138   */\n      tag_329\n      jump\t// in\n    tag_432:\n        /* \"#utility.yul\":2072:2138   */\n      swap1\n      pop\n        /* \"#utility.yul\":2002:2144   */\n      swap2\n      swap1\n      pop\n      jump\t// out\n        /* \"#utility.yul\":2150:2276   */\n    tag_332:\n        /* \"#utility.yul\":2200:2209   */\n      0x00\n        /* \"#utility.yul\":2233:2270   */\n      tag_436\n        /* \"#utility.yul\":2264:2269   */\n      dup3\n        /* \"#utility.yul\":2233:2270   */\n      tag_331\n      jump\t// in\n    tag_436:\n        /* \"#utility.yul\":2220:2270   */\n      swap1\n      pop\n        /* \"#utility.yul\":2150:2276   */\n      swap2\n      swap1\n      pop\n      jump\t// out\n        /* \"#utility.yul\":2282:2434   */\n    tag_333:\n        /* \"#utility.yul\":2358:2367   */\n      0x00\n        /* \"#utility.yul\":2391:2428   */\n      tag_438\n        /* \"#utility.yul\":2422:2427   */\n      dup3\n        /* \"#utility.yul\":2391:2428   */\n      tag_332\n      jump\t// in\n    tag_438:\n        /* \"#utility.yul\":2378:2428   */\n      swap1\n      pop\n        /* \"#utility.yul\":2282:2434   */\n      swap2\n      swap1\n      pop\n      jump\t// out\n        /* \"#utility.yul\":2440:2623   */\n    tag_334:\n        /* \"#utility.yul\":2553:2616   */\n      tag_440\n        /* \"#utility.yul\":2610:2615   */\n      dup2\n        /* \"#utility.yul\":2553:2616   */\n      tag_333\n      jump\t// in\n    tag_440:\n        /* \"#utility.yul\":2548:2551   */\n      dup3\n        /* \"#utility.yul\":2541:2617   */\n      mstore\n        /* \"#utility.yul\":2440:2623   */\n      pop\n      pop\n      jump\t// out\n        /* \"#utility.yul\":2629:2903   */\n    tag_48:\n        /* \"#utility.yul\":2748:2752   */\n      0x00\n        /* \"#utility.yul\":2786:2788   */\n      0x20\n        /* \"#utility.yul\":2775:2784   */\n      dup3\n        /* \"#utility.yul\":2771:2789   */\n      add\n        /* \"#utility.yul\":2763:2789   */\n      swap1\n      pop\n        /* \"#utility.yul\":2799:2896   */\n      tag_442\n        /* \"#utility.yul\":2893:2894   */\n      0x00\n        /* \"#utility.yul\":2882:2891   */\n      dup4\n        /* \"#utility.yul\":2878:2895   */\n      add\n        /* \"#utility.yul\":2869:2875   */\n      dup5\n        /* \"#utility.yul\":2799:2896   */\n      tag_334\n      jump\t// in\n    tag_442:\n        /* \"#utility.yul\":2629:2903   */\n      swap3\n      swap2\n      pop\n      pop\n      jump\t// out\n        /* \"#utility.yul\":2909:3060   */\n    tag_335:\n        /* \"#utility.yul\":2984:2993   */\n      0x00\n        /* \"#utility.yul\":3017:3054   */\n      tag_444\n        /* \"#utility.yul\":3048:3053   */\n      dup3\n        /* \"#utility.yul\":3017:3054   */\n      tag_332\n      jump\t// in\n    tag_444:\n        /* \"#utility.yul\":3004:3054   */\n      swap1\n      pop\n        /* \"#utility.yul\":2909:3060   */\n      swap2\n      swap1\n      pop\n      jump\t// out\n        /* \"#utility.yul\":3066:3247   */\n    tag_336:\n        /* \"#utility.yul\":3178:3240   */\n      tag_446\n        /* \"#utility.yul\":3234:3239   */\n      dup2\n        /* \"#utility.yul\":3178:3240   */\n      tag_335\n      jump\t// in\n    tag_446:\n        /* \"#utility.yul\":3173:3176   */\n      dup3\n        /* \"#utility.yul\":3166:3241   */\n      mstore\n        /* \"#utility.yul\":3066:3247   */\n      pop\n      pop\n      jump\t// out\n        /* \"#utility.yul\":3253:3525   */\n    tag_55:\n        /* \"#utility.yul\":3371:3375   */\n      0x00\n        /* \"#utility.yul\":3409:3411   */\n      0x20\n        /* \"#utility.yul\":3398:3407   */\n      dup3\n        /* \"#utility.yul\":3394:3412   */\n      add\n        /* \"#utility.yul\":3386:3412   */\n      swap1\n      pop\n        /* \"#utility.yul\":3422:3518   */\n      tag_448\n        /* \"#utility.yul\":3515:3516   */\n      0x00\n        /* \"#utility.yul\":3504:3513   */\n      dup4\n        /* \"#utility.yul\":3500:3517   */\n      add\n        /* \"#utility.yul\":3491:3497   */\n      dup5\n        /* \"#utility.yul\":3422:3518   */\n      tag_336\n      jump\t// in\n    tag_448:\n        /* \"#utility.yul\":3253:3525   */\n      swap3\n      swap2\n      pop\n      pop\n      jump\t// out\n        /* \"#utility.yul\":3531:3627   */\n    tag_337:\n        /* \"#utility.yul\":3568:3575   */\n      0x00\n        /* \"#utility.yul\":3597:3621   */\n      tag_450\n        /* \"#utility.yul\":3615:3620   */\n      dup3\n        /* \"#utility.yul\":3597:3621   */\n      tag_329\n      jump\t// in\n    tag_450:\n        /* \"#utility.yul\":3586:3621   */\n      swap1\n      pop\n        /* \"#utility.yul\":3531:3627   */\n      swap2\n      swap1\n      pop\n      jump\t// out\n        /* \"#utility.yul\":3633:3751   */\n    tag_338:\n        /* \"#utility.yul\":3720:3744   */\n      tag_452\n        /* \"#utility.yul\":3738:3743   */\n      dup2\n        /* \"#utility.yul\":3720:3744   */\n      tag_337\n      jump\t// in\n    tag_452:\n        /* \"#utility.yul\":3715:3718   */\n      dup3\n        /* \"#utility.yul\":3708:3745   */\n      mstore\n        /* \"#utility.yul\":3633:3751   */\n      pop\n      pop\n      jump\t// out\n        /* \"#utility.yul\":3757:3979   */\n    tag_62:\n        /* \"#utility.yul\":3850:3854   */\n      0x00\n        /* \"#utility.yul\":3888:3890   */\n      0x20\n        /* \"#utility.yul\":3877:3886   */\n      dup3\n        /* \"#utility.yul\":3873:3891   */\n      add\n        /* \"#utility.yul\":3865:3891   */\n      swap1\n      pop\n        /* \"#utility.yul\":3901:3972   */\n      tag_454\n        /* \"#utility.yul\":3969:3970   */\n      0x00\n        /* \"#utility.yul\":3958:3967   */\n      dup4\n        /* \"#utility.yul\":3954:3971   */\n      add\n        /* \"#utility.yul\":3945:3951   */\n      dup5\n        /* \"#utility.yul\":3901:3972   */\n      tag_338\n      jump\t// in\n    tag_454:\n        /* \"#utility.yul\":3757:3979   */\n      swap3\n      swap2\n      pop\n      pop\n      jump\t// out\n        /* \"#utility.yul\":3985:4089   */\n    tag_339:\n        /* \"#utility.yul\":4030:4037   */\n      0x00\n        /* \"#utility.yul\":4059:4083   */\n      tag_456\n        /* \"#utility.yul\":4077:4082   */\n      dup3\n        /* \"#utility.yul\":4059:4083   */\n      tag_329\n      jump\t// in\n    tag_456:\n        /* \"#utility.yul\":4048:4083   */\n      swap1\n      pop\n        /* \"#utility.yul\":3985:4089   */\n      swap2\n      swap1\n      pop\n      jump\t// out\n        /* \"#utility.yul\":4095:4237   */\n    tag_340:\n        /* \"#utility.yul\":4198:4230   */\n      tag_458\n        /* \"#utility.yul\":4224:4229   */\n      dup2\n        /* \"#utility.yul\":4198:4230   */\n      tag_339\n      jump\t// in\n    tag_458:\n        /* \"#utility.yul\":4193:4196   */\n      dup3\n        /* \"#utility.yul\":4186:4231   */\n      mstore\n        /* \"#utility.yul\":4095:4237   */\n      pop\n      pop\n      jump\t// out\n        /* \"#utility.yul\":4243:4497   */\n    tag_69:\n        /* \"#utility.yul\":4352:4356   */\n      0x00\n        /* \"#utility.yul\":4390:4392   */\n      0x20\n        /* \"#utility.yul\":4379:4388   */\n      dup3\n        /* \"#utility.yul\":4375:4393   */\n      add\n        /* \"#utility.yul\":4367:4393   */\n      swap1\n      pop\n        /* \"#utility.yul\":4403:4490   */\n      tag_460\n        /* \"#utility.yul\":4487:4488   */\n      0x00\n        /* \"#utility.yul\":4476:4485   */\n      dup4\n        /* \"#utility.yul\":4472:4489   */\n      add\n        /* \"#utility.yul\":4463:4469   */\n      dup5\n        /* \"#utility.yul\":4403:4490   */\n      tag_340\n      jump\t// in\n    tag_460:\n        /* \"#utility.yul\":4243:4497   */\n      swap3\n      swap2\n      pop\n      pop\n      jump\t// out\n        /* \"#utility.yul\":4503:4649   */\n    tag_341:\n        /* \"#utility.yul\":4573:4582   */\n      0x00\n        /* \"#utility.yul\":4606:4643   */\n      tag_462\n        /* \"#utility.yul\":4637:4642   */\n      dup3\n        /* \"#utility.yul\":4606:4643   */\n      tag_332\n      jump\t// in\n    tag_462:\n        /* \"#utility.yul\":4593:4643   */\n      swap1\n      pop\n        /* \"#utility.yul\":4503:4649   */\n      swap2\n      swap1\n      pop\n      jump\t// out\n        /* \"#utility.yul\":4655:4826   */\n    tag_342:\n        /* \"#utility.yul\":4762:4819   */\n      tag_464\n        /* \"#utility.yul\":4813:4818   */\n      dup2\n        /* \"#utility.yul\":4762:4819   */\n      tag_341\n      jump\t// in\n    tag_464:\n        /* \"#utility.yul\":4757:4760   */\n      dup3\n        /* \"#utility.yul\":4750:4820   */\n      mstore\n        /* \"#utility.yul\":4655:4826   */\n      pop\n      pop\n      jump\t// out\n        /* \"#utility.yul\":4832:5094   */\n    tag_79:\n        /* \"#utility.yul\":4945:4949   */\n      0x00\n        /* \"#utility.yul\":4983:4985   */\n      0x20\n        /* \"#utility.yul\":4972:4981   */\n      dup3\n        /* \"#utility.yul\":4968:4986   */\n      add\n        /* \"#utility.yul\":4960:4986   */\n      swap1\n      pop\n        /* \"#utility.yul\":4996:5087   */\n      tag_466\n        /* \"#utility.yul\":5084:5085   */\n      0x00\n        /* \"#utility.yul\":5073:5082   */\n      dup4\n        /* \"#utility.yul\":5069:5086   */\n      add\n        /* \"#utility.yul\":5060:5066   */\n      dup5\n        /* \"#utility.yul\":4996:5087   */\n      tag_342\n      jump\t// in\n    tag_466:\n        /* \"#utility.yul\":4832:5094   */\n      swap3\n      swap2\n      pop\n      pop\n      jump\t// out\n        /* \"#utility.yul\":5100:5574   */\n    tag_96:\n        /* \"#utility.yul\":5168:5174   */\n      0x00\n        /* \"#utility.yul\":5176:5182   */\n      dup1\n        /* \"#utility.yul\":5225:5227   */\n      0x40\n        /* \"#utility.yul\":5213:5222   */\n      dup4\n        /* \"#utility.yul\":5204:5211   */\n      dup6\n        /* \"#utility.yul\":5200:5223   */\n      sub\n        /* \"#utility.yul\":5196:5228   */\n      slt\n        /* \"#utility.yul\":5193:5312   */\n      iszero\n      tag_468\n      jumpi\n        /* \"#utility.yul\":5231:5310   */\n      tag_469\n      tag_323\n      jump\t// in\n    tag_469:\n        /* \"#utility.yul\":5193:5312   */\n    tag_468:\n        /* \"#utility.yul\":5351:5352   */\n      0x00\n        /* \"#utility.yul\":5376:5429   */\n      tag_470\n        /* \"#utility.yul\":5421:5428   */\n      dup6\n        /* \"#utility.yul\":5412:5418   */\n      dup3\n        /* \"#utility.yul\":5401:5410   */\n      dup7\n        /* \"#utility.yul\":5397:5419   */\n      add\n        /* \"#utility.yul\":5376:5429   */\n      tag_326\n      jump\t// in\n    tag_470:\n        /* \"#utility.yul\":5366:5429   */\n      swap3\n      pop\n        /* \"#utility.yul\":5322:5439   */\n      pop\n        /* \"#utility.yul\":5478:5480   */\n      0x20\n        /* \"#utility.yul\":5504:5557   */\n      tag_471\n        /* \"#utility.yul\":5549:5556   */\n      dup6\n        /* \"#utility.yul\":5540:5546   */\n      dup3\n        /* \"#utility.yul\":5529:5538   */\n      dup7\n        /* \"#utility.yul\":5525:5547   */\n      add\n        /* \"#utility.yul\":5504:5557   */\n      tag_326\n      jump\t// in\n    tag_471:\n        /* \"#utility.yul\":5494:5557   */\n      swap2\n      pop\n        /* \"#utility.yul\":5449:5567   */\n      pop\n        /* \"#utility.yul\":5100:5574   */\n      swap3\n      pop\n      swap3\n      swap1\n      pop\n      jump\t// out\n        /* \"#utility.yul\":5580:5718   */\n    tag_343:\n        /* \"#utility.yul\":5661:5693   */\n      tag_473\n        /* \"#utility.yul\":5687:5692   */\n      dup2\n        /* \"#utility.yul\":5661:5693   */\n      tag_339\n      jump\t// in\n    tag_473:\n        /* \"#utility.yul\":5654:5659   */\n      dup2\n        /* \"#utility.yul\":5651:5694   */\n      eq\n        /* \"#utility.yul\":5641:5712   */\n      tag_474\n      jumpi\n        /* \"#utility.yul\":5708:5709   */\n      0x00\n        /* \"#utility.yul\":5705:5706   */\n      dup1\n        /* \"#utility.yul\":5698:5710   */\n      revert\n        /* \"#utility.yul\":5641:5712   */\n    tag_474:\n        /* \"#utility.yul\":5580:5718   */\n      pop\n      jump\t// out\n        /* \"#utility.yul\":5724:5879   */\n    tag_344:\n        /* \"#utility.yul\":5778:5783   */\n      0x00\n        /* \"#utility.yul\":5816:5822   */\n      dup2\n        /* \"#utility.yul\":5803:5823   */\n      calldataload\n        /* \"#utility.yul\":5794:5823   */\n      swap1\n      pop\n        /* \"#utility.yul\":5832:5873   */\n      tag_476\n        /* \"#utility.yul\":5867:5872   */\n      dup2\n        /* \"#utility.yul\":5832:5873   */\n      tag_343\n      jump\t// in\n    tag_476:\n        /* \"#utility.yul\":5724:5879   */\n      swap3\n      swap2\n      pop\n      pop\n      jump\t// out\n        /* \"#utility.yul\":5885:6230   */\n    tag_101:\n        /* \"#utility.yul\":5952:5958   */\n      0x00\n        /* \"#utility.yul\":6001:6003   */\n      0x20\n        /* \"#utility.yul\":5989:5998   */\n      dup3\n        /* \"#utility.yul\":5980:5987   */\n      dup5\n        /* \"#utility.yul\":5976:5999   */\n      sub\n        /* \"#utility.yul\":5972:6004   */\n      slt\n        /* \"#utility.yul\":5969:6088   */\n      iszero\n      tag_478\n      jumpi\n        /* \"#utility.yul\":6007:6086   */\n      tag_479\n      tag_323\n      jump\t// in\n    tag_479:\n        /* \"#utility.yul\":5969:6088   */\n    tag_478:\n        /* \"#utility.yul\":6127:6128   */\n      0x00\n        /* \"#utility.yul\":6152:6213   */\n      tag_480\n        /* \"#utility.yul\":6205:6212   */\n      dup5\n        /* \"#utility.yul\":6196:6202   */\n      dup3\n        /* \"#utility.yul\":6185:6194   */\n      dup6\n        /* \"#utility.yul\":6181:6203   */\n      add\n        /* \"#utility.yul\":6152:6213   */\n      tag_344\n      jump\t// in\n    tag_480:\n        /* \"#utility.yul\":6142:6213   */\n      swap2\n      pop\n        /* \"#utility.yul\":6098:6223   */\n      pop\n        /* \"#utility.yul\":5885:6230   */\n      swap3\n      swap2\n      pop\n      pop\n      jump\t// out\n        /* \"#utility.yul\":6236:6358   */\n    tag_345:\n        /* \"#utility.yul\":6309:6333   */\n      tag_482\n        /* \"#utility.yul\":6327:6332   */\n      dup2\n        /* \"#utility.yul\":6309:6333   */\n      tag_337\n      jump\t// in\n    tag_482:\n        /* \"#utility.yul\":6302:6307   */\n      dup2\n        /* \"#utility.yul\":6299:6334   */\n      eq\n        /* \"#utility.yul\":6289:6352   */\n      tag_483\n      jumpi\n        /* \"#utility.yul\":6348:6349   */\n      0x00\n        /* \"#utility.yul\":6345:6346   */\n      dup1\n        /* \"#utility.yul\":6338:6350   */\n      revert\n        /* \"#utility.yul\":6289:6352   */\n    tag_483:\n        /* \"#utility.yul\":6236:6358   */\n      pop\n      jump\t// out\n        /* \"#utility.yul\":6364:6503   */\n    tag_346:\n        /* \"#utility.yul\":6410:6415   */\n      0x00\n        /* \"#utility.yul\":6448:6454   */\n      dup2\n        /* \"#utility.yul\":6435:6455   */\n      calldataload\n        /* \"#utility.yul\":6426:6455   */\n      swap1\n      pop\n        /* \"#utility.yul\":6464:6497   */\n      tag_485\n        /* \"#utility.yul\":6491:6496   */\n      dup2\n        /* \"#utility.yul\":6464:6497   */\n      tag_345\n      jump\t// in\n    tag_485:\n        /* \"#utility.yul\":6364:6503   */\n      swap3\n      swap2\n      pop\n      pop\n      jump\t// out\n        /* \"#utility.yul\":6509:6838   */\n    tag_109:\n        /* \"#utility.yul\":6568:6574   */\n      0x00\n        /* \"#utility.yul\":6617:6619   */\n      0x20\n        /* \"#utility.yul\":6605:6614   */\n      dup3\n        /* \"#utility.yul\":6596:6603   */\n      dup5\n        /* \"#utility.yul\":6592:6615   */\n      sub\n        /* \"#utility.yul\":6588:6620   */\n      slt\n        /* \"#utility.yul\":6585:6704   */\n      iszero\n      tag_487\n      jumpi\n        /* \"#utility.yul\":6623:6702   */\n      tag_488\n      tag_323\n      jump\t// in\n    tag_488:\n        /* \"#utility.yul\":6585:6704   */\n    tag_487:\n        /* \"#utility.yul\":6743:6744   */\n      0x00\n        /* \"#utility.yul\":6768:6821   */\n      tag_489\n        /* \"#utility.yul\":6813:6820   */\n      dup5\n        /* \"#utility.yul\":6804:6810   */\n      dup3\n        /* \"#utility.yul\":6793:6802   */\n      dup6\n        /* \"#utility.yul\":6789:6811   */\n      add\n        /* \"#utility.yul\":6768:6821   */\n      tag_346\n      jump\t// in\n    tag_489:\n        /* \"#utility.yul\":6758:6821   */\n      swap2\n      pop\n        /* \"#utility.yul\":6714:6831   */\n      pop\n        /* \"#utility.yul\":6509:6838   */\n      swap3\n      swap2\n      pop\n      pop\n      jump\t// out\n        /* \"#utility.yul\":6844:6962   */\n    tag_347:\n        /* \"#utility.yul\":6881:6888   */\n      0x00\n        /* \"#utility.yul\":6921:6955   */\n      0xffffffffffffffffffffffffffffffff\n        /* \"#utility.yul\":6914:6919   */\n      dup3\n        /* \"#utility.yul\":6910:6956   */\n      and\n        /* \"#utility.yul\":6899:6956   */\n      swap1\n      pop\n        /* \"#utility.yul\":6844:6962   */\n      swap2\n      swap1\n      pop\n      jump\t// out\n        /* \"#utility.yul\":6968:7086   */\n    tag_348:\n        /* \"#utility.yul\":7055:7079   */\n      tag_492\n        /* \"#utility.yul\":7073:7078   */\n      dup2\n        /* \"#utility.yul\":7055:7079   */\n      tag_347\n      jump\t// in\n    tag_492:\n        /* \"#utility.yul\":7050:7053   */\n      dup3\n        /* \"#utility.yul\":7043:7080   */\n      mstore\n        /* \"#utility.yul\":6968:7086   */\n      pop\n      pop\n      jump\t// out\n        /* \"#utility.yul\":7092:7314   */\n    tag_112:\n        /* \"#utility.yul\":7185:7189   */\n      0x00\n        /* \"#utility.yul\":7223:7225   */\n      0x20\n        /* \"#utility.yul\":7212:7221   */\n      dup3\n        /* \"#utility.yul\":7208:7226   */\n      add\n        /* \"#utility.yul\":7200:7226   */\n      swap1\n      pop\n        /* \"#utility.yul\":7236:7307   */\n      tag_494\n        /* \"#utility.yul\":7304:7305   */\n      0x00\n        /* \"#utility.yul\":7293:7302   */\n      dup4\n        /* \"#utility.yul\":7289:7306   */\n      add\n        /* \"#utility.yul\":7280:7286   */\n      dup5\n        /* \"#utility.yul\":7236:7307   */\n      tag_348\n      jump\t// in\n    tag_494:\n        /* \"#utility.yul\":7092:7314   */\n      swap3\n      swap2\n      pop\n      pop\n      jump\t// out\n        /* \"#utility.yul\":7320:7500   */\n    tag_349:\n        /* \"#utility.yul\":7368:7445   */\n      0x4e487b7100000000000000000000000000000000000000000000000000000000\n        /* \"#utility.yul\":7365:7366   */\n      0x00\n        /* \"#utility.yul\":7358:7446   */\n      mstore\n        /* \"#utility.yul\":7465:7469   */\n      0x11\n        /* \"#utility.yul\":7462:7463   */\n      0x04\n        /* \"#utility.yul\":7455:7470   */\n      mstore\n        /* \"#utility.yul\":7489:7493   */\n      0x24\n        /* \"#utility.yul\":7486:7487   */\n      0x00\n        /* \"#utility.yul\":7479:7494   */\n      revert\n        /* \"#utility.yul\":7506:7697   */\n    tag_117:\n        /* \"#utility.yul\":7546:7549   */\n      0x00\n        /* \"#utility.yul\":7565:7585   */\n      tag_497\n        /* \"#utility.yul\":7583:7584   */\n      dup3\n        /* \"#utility.yul\":7565:7585   */\n      tag_320\n      jump\t// in\n    tag_497:\n        /* \"#utility.yul\":7560:7585   */\n      swap2\n      pop\n        /* \"#utility.yul\":7599:7619   */\n      tag_498\n        /* \"#utility.yul\":7617:7618   */\n      dup4\n        /* \"#utility.yul\":7599:7619   */\n      tag_320\n      jump\t// in\n    tag_498:\n        /* \"#utility.yul\":7594:7619   */\n      swap3\n      pop\n        /* \"#utility.yul\":7642:7643   */\n      dup3\n        /* \"#utility.yul\":7639:7640   */\n      dup3\n        /* \"#utility.yul\":7635:7644   */\n      add\n        /* \"#utility.yul\":7628:7644   */\n      swap1\n      pop\n        /* \"#utility.yul\":7663:7666   */\n      dup1\n        /* \"#utility.yul\":7660:7661   */\n      dup3\n        /* \"#utility.yul\":7657:7667   */\n      gt\n        /* \"#utility.yul\":7654:7690   */\n      iszero\n      tag_499\n      jumpi\n        /* \"#utility.yul\":7670:7688   */\n      tag_500\n      tag_349\n      jump\t// in\n    tag_500:\n        /* \"#utility.yul\":7654:7690   */\n    tag_499:\n        /* \"#utility.yul\":7506:7697   */\n      swap3\n      swap2\n      pop\n      pop\n      jump\t// out\n        /* \"#utility.yul\":7703:7872   */\n    tag_350:\n        /* \"#utility.yul\":7787:7798   */\n      0x00\n        /* \"#utility.yul\":7821:7827   */\n      dup3\n        /* \"#utility.yul\":7816:7819   */\n      dup3\n        /* \"#utility.yul\":7809:7828   */\n      mstore\n        /* \"#utility.yul\":7861:7865   */\n      0x20\n        /* \"#utility.yul\":7856:7859   */\n      dup3\n        /* \"#utility.yul\":7852:7866   */\n      add\n        /* \"#utility.yul\":7837:7866   */\n      swap1\n      pop\n        /* \"#utility.yul\":7703:7872   */\n      swap3\n      swap2\n      pop\n      pop\n      jump\t// out\n        /* \"#utility.yul\":7878:8045   */\n    tag_351:\n        /* \"#utility.yul\":8018:8037   */\n      0x616d6f756e742063616e27742062652030000000000000000000000000000000\n        /* \"#utility.yul\":8014:8015   */\n      0x00\n        /* \"#utility.yul\":8006:8012   */\n      dup3\n        /* \"#utility.yul\":8002:8016   */\n      add\n        /* \"#utility.yul\":7995:8038   */\n      mstore\n        /* \"#utility.yul\":7878:8045   */\n      pop\n      jump\t// out\n        /* \"#utility.yul\":8051:8417   */\n    tag_352:\n        /* \"#utility.yul\":8193:8196   */\n      0x00\n        /* \"#utility.yul\":8214:8281   */\n      tag_504\n        /* \"#utility.yul\":8278:8280   */\n      0x11\n        /* \"#utility.yul\":8273:8276   */\n      dup4\n        /* \"#utility.yul\":8214:8281   */\n      tag_350\n      jump\t// in\n    tag_504:\n        /* \"#utility.yul\":8207:8281   */\n      swap2\n      pop\n        /* \"#utility.yul\":8290:8383   */\n      tag_505\n        /* \"#utility.yul\":8379:8382   */\n      dup3\n        /* \"#utility.yul\":8290:8383   */\n      tag_351\n      jump\t// in\n    tag_505:\n        /* \"#utility.yul\":8408:8410   */\n      0x20\n        /* \"#utility.yul\":8403:8406   */\n      dup3\n        /* \"#utility.yul\":8399:8411   */\n      add\n        /* \"#utility.yul\":8392:8411   */\n      swap1\n      pop\n        /* \"#utility.yul\":8051:8417   */\n      swap2\n      swap1\n      pop\n      jump\t// out\n        /* \"#utility.yul\":8423:8842   */\n    tag_121:\n        /* \"#utility.yul\":8589:8593   */\n      0x00\n        /* \"#utility.yul\":8627:8629   */\n      0x20\n        /* \"#utility.yul\":8616:8625   */\n      dup3\n        /* \"#utility.yul\":8612:8630   */\n      add\n        /* \"#utility.yul\":8604:8630   */\n      swap1\n      pop\n        /* \"#utility.yul\":8676:8685   */\n      dup2\n        /* \"#utility.yul\":8670:8674   */\n      dup2\n        /* \"#utility.yul\":8666:8686   */\n      sub\n        /* \"#utility.yul\":8662:8663   */\n      0x00\n        /* \"#utility.yul\":8651:8660   */\n      dup4\n        /* \"#utility.yul\":8647:8664   */\n      add\n        /* \"#utility.yul\":8640:8687   */\n      mstore\n        /* \"#utility.yul\":8704:8835   */\n      tag_507\n        /* \"#utility.yul\":8830:8834   */\n      dup2\n        /* \"#utility.yul\":8704:8835   */\n      tag_352\n      jump\t// in\n    tag_507:\n        /* \"#utility.yul\":8696:8835   */\n      swap1\n      pop\n        /* \"#utility.yul\":8423:8842   */\n      swap2\n      swap1\n      pop\n      jump\t// out\n        /* \"#utility.yul\":8848:9290   */\n    tag_123:\n        /* \"#utility.yul\":8997:9001   */\n      0x00\n        /* \"#utility.yul\":9035:9037   */\n      0x60\n        /* \"#utility.yul\":9024:9033   */\n      dup3\n        /* \"#utility.yul\":9020:9038   */\n      add\n        /* \"#utility.yul\":9012:9038   */\n      swap1\n      pop\n        /* \"#utility.yul\":9048:9119   */\n      tag_509\n        /* \"#utility.yul\":9116:9117   */\n      0x00\n        /* \"#utility.yul\":9105:9114   */\n      dup4\n        /* \"#utility.yul\":9101:9118   */\n      add\n        /* \"#utility.yul\":9092:9098   */\n      dup7\n        /* \"#utility.yul\":9048:9119   */\n      tag_338\n      jump\t// in\n    tag_509:\n        /* \"#utility.yul\":9129:9201   */\n      tag_510\n        /* \"#utility.yul\":9197:9199   */\n      0x20\n        /* \"#utility.yul\":9186:9195   */\n      dup4\n        /* \"#utility.yul\":9182:9200   */\n      add\n        /* \"#utility.yul\":9173:9179   */\n      dup6\n        /* \"#utility.yul\":9129:9201   */\n      tag_338\n      jump\t// in\n    tag_510:\n        /* \"#utility.yul\":9211:9283   */\n      tag_511\n        /* \"#utility.yul\":9279:9281   */\n      0x40\n        /* \"#utility.yul\":9268:9277   */\n      dup4\n        /* \"#utility.yul\":9264:9282   */\n      add\n        /* \"#utility.yul\":9255:9261   */\n      dup5\n        /* \"#utility.yul\":9211:9283   */\n      tag_321\n      jump\t// in\n    tag_511:\n        /* \"#utility.yul\":8848:9290   */\n      swap5\n      swap4\n      pop\n      pop\n      pop\n      pop\n      jump\t// out\n        /* \"#utility.yul\":9296:9412   */\n    tag_353:\n        /* \"#utility.yul\":9366:9387   */\n      tag_513\n        /* \"#utility.yul\":9381:9386   */\n      dup2\n        /* \"#utility.yul\":9366:9387   */\n      tag_327\n      jump\t// in\n    tag_513:\n        /* \"#utility.yul\":9359:9364   */\n      dup2\n        /* \"#utility.yul\":9356:9388   */\n      eq\n        /* \"#utility.yul\":9346:9406   */\n      tag_514\n      jumpi\n        /* \"#utility.yul\":9402:9403   */\n      0x00\n        /* \"#utility.yul\":9399:9400   */\n      dup1\n        /* \"#utility.yul\":9392:9404   */\n      revert\n        /* \"#utility.yul\":9346:9406   */\n    tag_514:\n        /* \"#utility.yul\":9296:9412   */\n      pop\n      jump\t// out\n        /* \"#utility.yul\":9418:9555   */\n    tag_354:\n        /* \"#utility.yul\":9472:9477   */\n      0x00\n        /* \"#utility.yul\":9503:9509   */\n      dup2\n        /* \"#utility.yul\":9497:9510   */\n      mload\n        /* \"#utility.yul\":9488:9510   */\n      swap1\n      pop\n        /* \"#utility.yul\":9519:9549   */\n      tag_516\n        /* \"#utility.yul\":9543:9548   */\n      dup2\n        /* \"#utility.yul\":9519:9549   */\n      tag_353\n      jump\t// in\n    tag_516:\n        /* \"#utility.yul\":9418:9555   */\n      swap3\n      swap2\n      pop\n      pop\n      jump\t// out\n        /* \"#utility.yul\":9561:9906   */\n    tag_127:\n        /* \"#utility.yul\":9628:9634   */\n      0x00\n        /* \"#utility.yul\":9677:9679   */\n      0x20\n        /* \"#utility.yul\":9665:9674   */\n      dup3\n        /* \"#utility.yul\":9656:9663   */\n      dup5\n        /* \"#utility.yul\":9652:9675   */\n      sub\n        /* \"#utility.yul\":9648:9680   */\n      slt\n        /* \"#utility.yul\":9645:9764   */\n      iszero\n      tag_518\n      jumpi\n        /* \"#utility.yul\":9683:9762   */\n      tag_519\n      tag_323\n      jump\t// in\n    tag_519:\n        /* \"#utility.yul\":9645:9764   */\n    tag_518:\n        /* \"#utility.yul\":9803:9804   */\n      0x00\n        /* \"#utility.yul\":9828:9889   */\n      tag_520\n        /* \"#utility.yul\":9881:9888   */\n      dup5\n        /* \"#utility.yul\":9872:9878   */\n      dup3\n        /* \"#utility.yul\":9861:9870   */\n      dup6\n        /* \"#utility.yul\":9857:9879   */\n      add\n        /* \"#utility.yul\":9828:9889   */\n      tag_354\n      jump\t// in\n    tag_520:\n        /* \"#utility.yul\":9818:9889   */\n      swap2\n      pop\n        /* \"#utility.yul\":9774:9899   */\n      pop\n        /* \"#utility.yul\":9561:9906   */\n      swap3\n      swap2\n      pop\n      pop\n      jump\t// out\n        /* \"#utility.yul\":9912:10085   */\n    tag_355:\n        /* \"#utility.yul\":10052:10077   */\n      0x4661696c656420746f207472616e736665722055534443000000000000000000\n        /* \"#utility.yul\":10048:10049   */\n      0x00\n        /* \"#utility.yul\":10040:10046   */\n      dup3\n        /* \"#utility.yul\":10036:10050   */\n      add\n        /* \"#utility.yul\":10029:10078   */\n      mstore\n        /* \"#utility.yul\":9912:10085   */\n      pop\n      jump\t// out\n        /* \"#utility.yul\":10091:10457   */\n    tag_356:\n        /* \"#utility.yul\":10233:10236   */\n      0x00\n        /* \"#utility.yul\":10254:10321   */\n      tag_523\n        /* \"#utility.yul\":10318:10320   */\n      0x17\n        /* \"#utility.yul\":10313:10316   */\n      dup4\n        /* \"#utility.yul\":10254:10321   */\n      tag_350\n      jump\t// in\n    tag_523:\n        /* \"#utility.yul\":10247:10321   */\n      swap2\n      pop\n        /* \"#utility.yul\":10330:10423   */\n      tag_524\n        /* \"#utility.yul\":10419:10422   */\n      dup3\n        /* \"#utility.yul\":10330:10423   */\n      tag_355\n      jump\t// in\n    tag_524:\n        /* \"#utility.yul\":10448:10450   */\n      0x20\n        /* \"#utility.yul\":10443:10446   */\n      dup3\n        /* \"#utility.yul\":10439:10451   */\n      add\n        /* \"#utility.yul\":10432:10451   */\n      swap1\n      pop\n        /* \"#utility.yul\":10091:10457   */\n      swap2\n      swap1\n      pop\n      jump\t// out\n        /* \"#utility.yul\":10463:10882   */\n    tag_130:\n        /* \"#utility.yul\":10629:10633   */\n      0x00\n        /* \"#utility.yul\":10667:10669   */\n      0x20\n        /* \"#utility.yul\":10656:10665   */\n      dup3\n        /* \"#utility.yul\":10652:10670   */\n      add\n        /* \"#utility.yul\":10644:10670   */\n      swap1\n      pop\n        /* \"#utility.yul\":10716:10725   */\n      dup2\n        /* \"#utility.yul\":10710:10714   */\n      dup2\n        /* \"#utility.yul\":10706:10726   */\n      sub\n        /* \"#utility.yul\":10702:10703   */\n      0x00\n        /* \"#utility.yul\":10691:10700   */\n      dup4\n        /* \"#utility.yul\":10687:10704   */\n      add\n        /* \"#utility.yul\":10680:10727   */\n      mstore\n        /* \"#utility.yul\":10744:10875   */\n      tag_526\n        /* \"#utility.yul\":10870:10874   */\n      dup2\n        /* \"#utility.yul\":10744:10875   */\n      tag_356\n      jump\t// in\n    tag_526:\n        /* \"#utility.yul\":10736:10875   */\n      swap1\n      pop\n        /* \"#utility.yul\":10463:10882   */\n      swap2\n      swap1\n      pop\n      jump\t// out\n        /* \"#utility.yul\":10888:11031   */\n    tag_357:\n        /* \"#utility.yul\":10945:10950   */\n      0x00\n        /* \"#utility.yul\":10976:10982   */\n      dup2\n        /* \"#utility.yul\":10970:10983   */\n      mload\n        /* \"#utility.yul\":10961:10983   */\n      swap1\n      pop\n        /* \"#utility.yul\":10992:11025   */\n      tag_528\n        /* \"#utility.yul\":11019:11024   */\n      dup2\n        /* \"#utility.yul\":10992:11025   */\n      tag_325\n      jump\t// in\n    tag_528:\n        /* \"#utility.yul\":10888:11031   */\n      swap3\n      swap2\n      pop\n      pop\n      jump\t// out\n        /* \"#utility.yul\":11037:11388   */\n    tag_138:\n        /* \"#utility.yul\":11107:11113   */\n      0x00\n        /* \"#utility.yul\":11156:11158   */\n      0x20\n        /* \"#utility.yul\":11144:11153   */\n      dup3\n        /* \"#utility.yul\":11135:11142   */\n      dup5\n        /* \"#utility.yul\":11131:11154   */\n      sub\n        /* \"#utility.yul\":11127:11159   */\n      slt\n        /* \"#utility.yul\":11124:11243   */\n      iszero\n      tag_530\n      jumpi\n        /* \"#utility.yul\":11162:11241   */\n      tag_531\n      tag_323\n      jump\t// in\n    tag_531:\n        /* \"#utility.yul\":11124:11243   */\n    tag_530:\n        /* \"#utility.yul\":11282:11283   */\n      0x00\n        /* \"#utility.yul\":11307:11371   */\n      tag_532\n        /* \"#utility.yul\":11363:11370   */\n      dup5\n        /* \"#utility.yul\":11354:11360   */\n      dup3\n        /* \"#utility.yul\":11343:11352   */\n      dup6\n        /* \"#utility.yul\":11339:11361   */\n      add\n        /* \"#utility.yul\":11307:11371   */\n      tag_357\n      jump\t// in\n    tag_532:\n        /* \"#utility.yul\":11297:11371   */\n      swap2\n      pop\n        /* \"#utility.yul\":11253:11381   */\n      pop\n        /* \"#utility.yul\":11037:11388   */\n      swap3\n      swap2\n      pop\n      pop\n      jump\t// out\n        /* \"#utility.yul\":11394:11560   */\n    tag_358:\n        /* \"#utility.yul\":11534:11552   */\n      0x6e6f7420656e6f7567682066756e647300000000000000000000000000000000\n        /* \"#utility.yul\":11530:11531   */\n      0x00\n        /* \"#utility.yul\":11522:11528   */\n      dup3\n        /* \"#utility.yul\":11518:11532   */\n      add\n        /* \"#utility.yul\":11511:11553   */\n      mstore\n        /* \"#utility.yul\":11394:11560   */\n      pop\n      jump\t// out\n        /* \"#utility.yul\":11566:11932   */\n    tag_359:\n        /* \"#utility.yul\":11708:11711   */\n      0x00\n        /* \"#utility.yul\":11729:11796   */\n      tag_535\n        /* \"#utility.yul\":11793:11795   */\n      0x10\n        /* \"#utility.yul\":11788:11791   */\n      dup4\n        /* \"#utility.yul\":11729:11796   */\n      tag_350\n      jump\t// in\n    tag_535:\n        /* \"#utility.yul\":11722:11796   */\n      swap2\n      pop\n        /* \"#utility.yul\":11805:11898   */\n      tag_536\n        /* \"#utility.yul\":11894:11897   */\n      dup3\n        /* \"#utility.yul\":11805:11898   */\n      tag_358\n      jump\t// in\n    tag_536:\n        /* \"#utility.yul\":11923:11925   */\n      0x20\n        /* \"#utility.yul\":11918:11921   */\n      dup3\n        /* \"#utility.yul\":11914:11926   */\n      add\n        /* \"#utility.yul\":11907:11926   */\n      swap1\n      pop\n        /* \"#utility.yul\":11566:11932   */\n      swap2\n      swap1\n      pop\n      jump\t// out\n        /* \"#utility.yul\":11938:12357   */\n    tag_141:\n        /* \"#utility.yul\":12104:12108   */\n      0x00\n        /* \"#utility.yul\":12142:12144   */\n      0x20\n        /* \"#utility.yul\":12131:12140   */\n      dup3\n        /* \"#utility.yul\":12127:12145   */\n      add\n        /* \"#utility.yul\":12119:12145   */\n      swap1\n      pop\n        /* \"#utility.yul\":12191:12200   */\n      dup2\n        /* \"#utility.yul\":12185:12189   */\n      dup2\n        /* \"#utility.yul\":12181:12201   */\n      sub\n        /* \"#utility.yul\":12177:12178   */\n      0x00\n        /* \"#utility.yul\":12166:12175   */\n      dup4\n        /* \"#utility.yul\":12162:12179   */\n      add\n        /* \"#utility.yul\":12155:12202   */\n      mstore\n        /* \"#utility.yul\":12219:12350   */\n      tag_538\n        /* \"#utility.yul\":12345:12349   */\n      dup2\n        /* \"#utility.yul\":12219:12350   */\n      tag_359\n      jump\t// in\n    tag_538:\n        /* \"#utility.yul\":12211:12350   */\n      swap1\n      pop\n        /* \"#utility.yul\":11938:12357   */\n      swap2\n      swap1\n      pop\n      jump\t// out\n        /* \"#utility.yul\":12363:12695   */\n    tag_143:\n        /* \"#utility.yul\":12484:12488   */\n      0x00\n        /* \"#utility.yul\":12522:12524   */\n      0x40\n        /* \"#utility.yul\":12511:12520   */\n      dup3\n        /* \"#utility.yul\":12507:12525   */\n      add\n        /* \"#utility.yul\":12499:12525   */\n      swap1\n      pop\n        /* \"#utility.yul\":12535:12606   */\n      tag_540\n        /* \"#utility.yul\":12603:12604   */\n      0x00\n        /* \"#utility.yul\":12592:12601   */\n      dup4\n        /* \"#utility.yul\":12588:12605   */\n      add\n        /* \"#utility.yul\":12579:12585   */\n      dup6\n        /* \"#utility.yul\":12535:12606   */\n      tag_338\n      jump\t// in\n    tag_540:\n        /* \"#utility.yul\":12616:12688   */\n      tag_541\n        /* \"#utility.yul\":12684:12686   */\n      0x20\n        /* \"#utility.yul\":12673:12682   */\n      dup4\n        /* \"#utility.yul\":12669:12687   */\n      add\n        /* \"#utility.yul\":12660:12666   */\n      dup5\n        /* \"#utility.yul\":12616:12688   */\n      tag_321\n      jump\t// in\n    tag_541:\n        /* \"#utility.yul\":12363:12695   */\n      swap4\n      swap3\n      pop\n      pop\n      pop\n      jump\t// out\n        /* \"#utility.yul\":12701:12786   */\n    tag_360:\n        /* \"#utility.yul\":12746:12753   */\n      0x00\n        /* \"#utility.yul\":12775:12780   */\n      dup2\n        /* \"#utility.yul\":12764:12780   */\n      swap1\n      pop\n        /* \"#utility.yul\":12701:12786   */\n      swap2\n      swap1\n      pop\n      jump\t// out\n        /* \"#utility.yul\":12792:12881   */\n    tag_361:\n        /* \"#utility.yul\":12828:12835   */\n      0x00\n        /* \"#utility.yul\":12868:12874   */\n      0xffff\n        /* \"#utility.yul\":12861:12866   */\n      dup3\n        /* \"#utility.yul\":12857:12875   */\n      and\n        /* \"#utility.yul\":12846:12875   */\n      swap1\n      pop\n        /* \"#utility.yul\":12792:12881   */\n      swap2\n      swap1\n      pop\n      jump\t// out\n        /* \"#utility.yul\":12887:13043   */\n    tag_362:\n        /* \"#utility.yul\":12944:12953   */\n      0x00\n        /* \"#utility.yul\":12977:13037   */\n      tag_545\n        /* \"#utility.yul\":12994:13036   */\n      tag_546\n        /* \"#utility.yul\":13003:13035   */\n      tag_547\n        /* \"#utility.yul\":13029:13034   */\n      dup5\n        /* \"#utility.yul\":13003:13035   */\n      tag_360\n      jump\t// in\n    tag_547:\n        /* \"#utility.yul\":12994:13036   */\n      tag_330\n      jump\t// in\n    tag_546:\n        /* \"#utility.yul\":12977:13037   */\n      tag_361\n      jump\t// in\n    tag_545:\n        /* \"#utility.yul\":12964:13037   */\n      swap1\n      pop\n        /* \"#utility.yul\":12887:13043   */\n      swap2\n      swap1\n      pop\n      jump\t// out\n        /* \"#utility.yul\":13049:13194   */\n    tag_363:\n        /* \"#utility.yul\":13143:13187   */\n      tag_549\n        /* \"#utility.yul\":13181:13186   */\n      dup2\n        /* \"#utility.yul\":13143:13187   */\n      tag_362\n      jump\t// in\n    tag_549:\n        /* \"#utility.yul\":13138:13141   */\n      dup3\n        /* \"#utility.yul\":13131:13188   */\n      mstore\n        /* \"#utility.yul\":13049:13194   */\n      pop\n      pop\n      jump\t// out\n        /* \"#utility.yul\":13200:13767   */\n    tag_148:\n        /* \"#utility.yul\":13384:13388   */\n      0x00\n        /* \"#utility.yul\":13422:13425   */\n      0x80\n        /* \"#utility.yul\":13411:13420   */\n      dup3\n        /* \"#utility.yul\":13407:13426   */\n      add\n        /* \"#utility.yul\":13399:13426   */\n      swap1\n      pop\n        /* \"#utility.yul\":13436:13507   */\n      tag_551\n        /* \"#utility.yul\":13504:13505   */\n      0x00\n        /* \"#utility.yul\":13493:13502   */\n      dup4\n        /* \"#utility.yul\":13489:13506   */\n      add\n        /* \"#utility.yul\":13480:13486   */\n      dup8\n        /* \"#utility.yul\":13436:13507   */\n      tag_338\n      jump\t// in\n    tag_551:\n        /* \"#utility.yul\":13517:13589   */\n      tag_552\n        /* \"#utility.yul\":13585:13587   */\n      0x20\n        /* \"#utility.yul\":13574:13583   */\n      dup4\n        /* \"#utility.yul\":13570:13588   */\n      add\n        /* \"#utility.yul\":13561:13567   */\n      dup7\n        /* \"#utility.yul\":13517:13589   */\n      tag_321\n      jump\t// in\n    tag_552:\n        /* \"#utility.yul\":13599:13671   */\n      tag_553\n        /* \"#utility.yul\":13667:13669   */\n      0x40\n        /* \"#utility.yul\":13656:13665   */\n      dup4\n        /* \"#utility.yul\":13652:13670   */\n      add\n        /* \"#utility.yul\":13643:13649   */\n      dup6\n        /* \"#utility.yul\":13599:13671   */\n      tag_338\n      jump\t// in\n    tag_553:\n        /* \"#utility.yul\":13681:13760   */\n      tag_554\n        /* \"#utility.yul\":13756:13758   */\n      0x60\n        /* \"#utility.yul\":13745:13754   */\n      dup4\n        /* \"#utility.yul\":13741:13759   */\n      add\n        /* \"#utility.yul\":13732:13738   */\n      dup5\n        /* \"#utility.yul\":13681:13760   */\n      tag_363\n      jump\t// in\n    tag_554:\n        /* \"#utility.yul\":13200:13767   */\n      swap6\n      swap5\n      pop\n      pop\n      pop\n      pop\n      pop\n      jump\t// out\n        /* \"#utility.yul\":13773:13953   */\n    tag_364:\n        /* \"#utility.yul\":13821:13898   */\n      0x4e487b7100000000000000000000000000000000000000000000000000000000\n        /* \"#utility.yul\":13818:13819   */\n      0x00\n        /* \"#utility.yul\":13811:13899   */\n      mstore\n        /* \"#utility.yul\":13918:13922   */\n      0x12\n        /* \"#utility.yul\":13915:13916   */\n      0x04\n        /* \"#utility.yul\":13908:13923   */\n      mstore\n        /* \"#utility.yul\":13942:13946   */\n      0x24\n        /* \"#utility.yul\":13939:13940   */\n      0x00\n        /* \"#utility.yul\":13932:13947   */\n      revert\n        /* \"#utility.yul\":13959:14144   */\n    tag_155:\n        /* \"#utility.yul\":13999:14000   */\n      0x00\n        /* \"#utility.yul\":14016:14036   */\n      tag_557\n        /* \"#utility.yul\":14034:14035   */\n      dup3\n        /* \"#utility.yul\":14016:14036   */\n      tag_320\n      jump\t// in\n    tag_557:\n        /* \"#utility.yul\":14011:14036   */\n      swap2\n      pop\n        /* \"#utility.yul\":14050:14070   */\n      tag_558\n        /* \"#utility.yul\":14068:14069   */\n      dup4\n        /* \"#utility.yul\":14050:14070   */\n      tag_320\n      jump\t// in\n    tag_558:\n        /* \"#utility.yul\":14045:14070   */\n      swap3\n      pop\n        /* \"#utility.yul\":14089:14090   */\n      dup3\n        /* \"#utility.yul\":14079:14114   */\n      tag_559\n      jumpi\n        /* \"#utility.yul\":14094:14112   */\n      tag_560\n      tag_364\n      jump\t// in\n    tag_560:\n        /* \"#utility.yul\":14079:14114   */\n    tag_559:\n        /* \"#utility.yul\":14136:14137   */\n      dup3\n        /* \"#utility.yul\":14133:14134   */\n      dup3\n        /* \"#utility.yul\":14129:14138   */\n      div\n        /* \"#utility.yul\":14124:14138   */\n      swap1\n      pop\n        /* \"#utility.yul\":13959:14144   */\n      swap3\n      swap2\n      pop\n      pop\n      jump\t// out\n        /* \"#utility.yul\":14150:14560   */\n    tag_157:\n        /* \"#utility.yul\":14190:14197   */\n      0x00\n        /* \"#utility.yul\":14213:14233   */\n      tag_562\n        /* \"#utility.yul\":14231:14232   */\n      dup3\n        /* \"#utility.yul\":14213:14233   */\n      tag_320\n      jump\t// in\n    tag_562:\n        /* \"#utility.yul\":14208:14233   */\n      swap2\n      pop\n        /* \"#utility.yul\":14247:14267   */\n      tag_563\n        /* \"#utility.yul\":14265:14266   */\n      dup4\n        /* \"#utility.yul\":14247:14267   */\n      tag_320\n      jump\t// in\n    tag_563:\n        /* \"#utility.yul\":14242:14267   */\n      swap3\n      pop\n        /* \"#utility.yul\":14302:14303   */\n      dup3\n        /* \"#utility.yul\":14299:14300   */\n      dup3\n        /* \"#utility.yul\":14295:14304   */\n      mul\n        /* \"#utility.yul\":14324:14354   */\n      tag_564\n        /* \"#utility.yul\":14342:14353   */\n      dup2\n        /* \"#utility.yul\":14324:14354   */\n      tag_320\n      jump\t// in\n    tag_564:\n        /* \"#utility.yul\":14313:14354   */\n      swap2\n      pop\n        /* \"#utility.yul\":14503:14504   */\n      dup3\n        /* \"#utility.yul\":14494:14501   */\n      dup3\n        /* \"#utility.yul\":14490:14505   */\n      div\n        /* \"#utility.yul\":14487:14488   */\n      dup5\n        /* \"#utility.yul\":14484:14506   */\n      eq\n        /* \"#utility.yul\":14464:14465   */\n      dup4\n        /* \"#utility.yul\":14457:14466   */\n      iszero\n        /* \"#utility.yul\":14437:14520   */\n      or\n        /* \"#utility.yul\":14414:14553   */\n      tag_565\n      jumpi\n        /* \"#utility.yul\":14533:14551   */\n      tag_566\n      tag_349\n      jump\t// in\n    tag_566:\n        /* \"#utility.yul\":14414:14553   */\n    tag_565:\n        /* \"#utility.yul\":14198:14560   */\n      pop\n        /* \"#utility.yul\":14150:14560   */\n      swap3\n      swap2\n      pop\n      pop\n      jump\t// out\n        /* \"#utility.yul\":14566:14734   */\n    tag_365:\n        /* \"#utility.yul\":14706:14726   */\n      0x4552525f4f4e4c595f4e45575f4f574e45520000000000000000000000000000\n        /* \"#utility.yul\":14702:14703   */\n      0x00\n        /* \"#utility.yul\":14694:14700   */\n      dup3\n        /* \"#utility.yul\":14690:14704   */\n      add\n        /* \"#utility.yul\":14683:14727   */\n      mstore\n        /* \"#utility.yul\":14566:14734   */\n      pop\n      jump\t// out\n        /* \"#utility.yul\":14740:15106   */\n    tag_366:\n        /* \"#utility.yul\":14882:14885   */\n      0x00\n        /* \"#utility.yul\":14903:14970   */\n      tag_569\n        /* \"#utility.yul\":14967:14969   */\n      0x12\n        /* \"#utility.yul\":14962:14965   */\n      dup4\n        /* \"#utility.yul\":14903:14970   */\n      tag_350\n      jump\t// in\n    tag_569:\n        /* \"#utility.yul\":14896:14970   */\n      swap2\n      pop\n        /* \"#utility.yul\":14979:15072   */\n      tag_570\n        /* \"#utility.yul\":15068:15071   */\n      dup3\n        /* \"#utility.yul\":14979:15072   */\n      tag_365\n      jump\t// in\n    tag_570:\n        /* \"#utility.yul\":15097:15099   */\n      0x20\n        /* \"#utility.yul\":15092:15095   */\n      dup3\n        /* \"#utility.yul\":15088:15100   */\n      add\n        /* \"#utility.yul\":15081:15100   */\n      swap1\n      pop\n        /* \"#utility.yul\":14740:15106   */\n      swap2\n      swap1\n      pop\n      jump\t// out\n        /* \"#utility.yul\":15112:15531   */\n    tag_161:\n        /* \"#utility.yul\":15278:15282   */\n      0x00\n        /* \"#utility.yul\":15316:15318   */\n      0x20\n        /* \"#utility.yul\":15305:15314   */\n      dup3\n        /* \"#utility.yul\":15301:15319   */\n      add\n        /* \"#utility.yul\":15293:15319   */\n      swap1\n      pop\n        /* \"#utility.yul\":15365:15374   */\n      dup2\n        /* \"#utility.yul\":15359:15363   */\n      dup2\n        /* \"#utility.yul\":15355:15375   */\n      sub\n        /* \"#utility.yul\":15351:15352   */\n      0x00\n        /* \"#utility.yul\":15340:15349   */\n      dup4\n        /* \"#utility.yul\":15336:15353   */\n      add\n        /* \"#utility.yul\":15329:15376   */\n      mstore\n        /* \"#utility.yul\":15393:15524   */\n      tag_572\n        /* \"#utility.yul\":15519:15523   */\n      dup2\n        /* \"#utility.yul\":15393:15524   */\n      tag_366\n      jump\t// in\n    tag_572:\n        /* \"#utility.yul\":15385:15524   */\n      swap1\n      pop\n        /* \"#utility.yul\":15112:15531   */\n      swap2\n      swap1\n      pop\n      jump\t// out\n        /* \"#utility.yul\":15537:15869   */\n    tag_164:\n        /* \"#utility.yul\":15658:15662   */\n      0x00\n        /* \"#utility.yul\":15696:15698   */\n      0x40\n        /* \"#utility.yul\":15685:15694   */\n      dup3\n        /* \"#utility.yul\":15681:15699   */\n      add\n        /* \"#utility.yul\":15673:15699   */\n      swap1\n      pop\n        /* \"#utility.yul\":15709:15780   */\n      tag_574\n        /* \"#utility.yul\":15777:15778   */\n      0x00\n        /* \"#utility.yul\":15766:15775   */\n      dup4\n        /* \"#utility.yul\":15762:15779   */\n      add\n        /* \"#utility.yul\":15753:15759   */\n      dup6\n        /* \"#utility.yul\":15709:15780   */\n      tag_338\n      jump\t// in\n    tag_574:\n        /* \"#utility.yul\":15790:15862   */\n      tag_575\n        /* \"#utility.yul\":15858:15860   */\n      0x20\n        /* \"#utility.yul\":15847:15856   */\n      dup4\n        /* \"#utility.yul\":15843:15861   */\n      add\n        /* \"#utility.yul\":15834:15840   */\n      dup5\n        /* \"#utility.yul\":15790:15862   */\n      tag_338\n      jump\t// in\n    tag_575:\n        /* \"#utility.yul\":15537:15869   */\n      swap4\n      swap3\n      pop\n      pop\n      pop\n      jump\t// out\n        /* \"#utility.yul\":15875:16018   */\n    tag_367:\n        /* \"#utility.yul\":15932:15937   */\n      0x00\n        /* \"#utility.yul\":15963:15969   */\n      dup2\n        /* \"#utility.yul\":15957:15970   */\n      mload\n        /* \"#utility.yul\":15948:15970   */\n      swap1\n      pop\n        /* \"#utility.yul\":15979:16012   */\n      tag_577\n        /* \"#utility.yul\":16006:16011   */\n      dup2\n        /* \"#utility.yul\":15979:16012   */\n      tag_345\n      jump\t// in\n    tag_577:\n        /* \"#utility.yul\":15875:16018   */\n      swap3\n      swap2\n      pop\n      pop\n      jump\t// out\n        /* \"#utility.yul\":16024:16375   */\n    tag_168:\n        /* \"#utility.yul\":16094:16100   */\n      0x00\n        /* \"#utility.yul\":16143:16145   */\n      0x20\n        /* \"#utility.yul\":16131:16140   */\n      dup3\n        /* \"#utility.yul\":16122:16129   */\n      dup5\n        /* \"#utility.yul\":16118:16141   */\n      sub\n        /* \"#utility.yul\":16114:16146   */\n      slt\n        /* \"#utility.yul\":16111:16230   */\n      iszero\n      tag_579\n      jumpi\n        /* \"#utility.yul\":16149:16228   */\n      tag_580\n      tag_323\n      jump\t// in\n    tag_580:\n        /* \"#utility.yul\":16111:16230   */\n    tag_579:\n        /* \"#utility.yul\":16269:16270   */\n      0x00\n        /* \"#utility.yul\":16294:16358   */\n      tag_581\n        /* \"#utility.yul\":16350:16357   */\n      dup5\n        /* \"#utility.yul\":16341:16347   */\n      dup3\n        /* \"#utility.yul\":16330:16339   */\n      dup6\n        /* \"#utility.yul\":16326:16348   */\n      add\n        /* \"#utility.yul\":16294:16358   */\n      tag_367\n      jump\t// in\n    tag_581:\n        /* \"#utility.yul\":16284:16358   */\n      swap2\n      pop\n        /* \"#utility.yul\":16240:16368   */\n      pop\n        /* \"#utility.yul\":16024:16375   */\n      swap3\n      swap2\n      pop\n      pop\n      jump\t// out\n        /* \"#utility.yul\":16381:16561   */\n    tag_178:\n        /* \"#utility.yul\":16429:16506   */\n      0x4e487b7100000000000000000000000000000000000000000000000000000000\n        /* \"#utility.yul\":16426:16427   */\n      0x00\n        /* \"#utility.yul\":16419:16507   */\n      mstore\n        /* \"#utility.yul\":16526:16530   */\n      0x41\n        /* \"#utility.yul\":16523:16524   */\n      0x04\n        /* \"#utility.yul\":16516:16531   */\n      mstore\n        /* \"#utility.yul\":16550:16554   */\n      0x24\n        /* \"#utility.yul\":16547:16548   */\n      0x00\n        /* \"#utility.yul\":16540:16555   */\n      revert\n        /* \"#utility.yul\":16567:16747   */\n    tag_182:\n        /* \"#utility.yul\":16615:16692   */\n      0x4e487b7100000000000000000000000000000000000000000000000000000000\n        /* \"#utility.yul\":16612:16613   */\n      0x00\n        /* \"#utility.yul\":16605:16693   */\n      mstore\n        /* \"#utility.yul\":16712:16716   */\n      0x32\n        /* \"#utility.yul\":16709:16710   */\n      0x04\n        /* \"#utility.yul\":16702:16717   */\n      mstore\n        /* \"#utility.yul\":16736:16740   */\n      0x24\n        /* \"#utility.yul\":16733:16734   */\n      0x00\n        /* \"#utility.yul\":16726:16741   */\n      revert\n        /* \"#utility.yul\":16753:16838   */\n    tag_368:\n        /* \"#utility.yul\":16798:16805   */\n      0x00\n        /* \"#utility.yul\":16827:16832   */\n      dup2\n        /* \"#utility.yul\":16816:16832   */\n      swap1\n      pop\n        /* \"#utility.yul\":16753:16838   */\n      swap2\n      swap1\n      pop\n      jump\t// out\n        /* \"#utility.yul\":16844:17002   */\n    tag_369:\n        /* \"#utility.yul\":16902:16911   */\n      0x00\n        /* \"#utility.yul\":16935:16996   */\n      tag_586\n        /* \"#utility.yul\":16953:16995   */\n      tag_587\n        /* \"#utility.yul\":16962:16994   */\n      tag_588\n        /* \"#utility.yul\":16988:16993   */\n      dup5\n        /* \"#utility.yul\":16962:16994   */\n      tag_368\n      jump\t// in\n    tag_588:\n        /* \"#utility.yul\":16953:16995   */\n      tag_330\n      jump\t// in\n    tag_587:\n        /* \"#utility.yul\":16935:16996   */\n      tag_320\n      jump\t// in\n    tag_586:\n        /* \"#utility.yul\":16922:16996   */\n      swap1\n      pop\n        /* \"#utility.yul\":16844:17002   */\n      swap2\n      swap1\n      pop\n      jump\t// out\n        /* \"#utility.yul\":17008:17155   */\n    tag_370:\n        /* \"#utility.yul\":17103:17148   */\n      tag_590\n        /* \"#utility.yul\":17142:17147   */\n      dup2\n        /* \"#utility.yul\":17103:17148   */\n      tag_369\n      jump\t// in\n    tag_590:\n        /* \"#utility.yul\":17098:17101   */\n      dup3\n        /* \"#utility.yul\":17091:17149   */\n      mstore\n        /* \"#utility.yul\":17008:17155   */\n      pop\n      pop\n      jump\t// out\n        /* \"#utility.yul\":17161:17275   */\n    tag_371:\n        /* \"#utility.yul\":17228:17234   */\n      0x00\n        /* \"#utility.yul\":17262:17267   */\n      dup2\n        /* \"#utility.yul\":17256:17268   */\n      mload\n        /* \"#utility.yul\":17246:17268   */\n      swap1\n      pop\n        /* \"#utility.yul\":17161:17275   */\n      swap2\n      swap1\n      pop\n      jump\t// out\n        /* \"#utility.yul\":17281:17465   */\n    tag_372:\n        /* \"#utility.yul\":17380:17391   */\n      0x00\n        /* \"#utility.yul\":17414:17420   */\n      dup3\n        /* \"#utility.yul\":17409:17412   */\n      dup3\n        /* \"#utility.yul\":17402:17421   */\n      mstore\n        /* \"#utility.yul\":17454:17458   */\n      0x20\n        /* \"#utility.yul\":17449:17452   */\n      dup3\n        /* \"#utility.yul\":17445:17459   */\n      add\n        /* \"#utility.yul\":17430:17459   */\n      swap1\n      pop\n        /* \"#utility.yul\":17281:17465   */\n      swap3\n      swap2\n      pop\n      pop\n      jump\t// out\n        /* \"#utility.yul\":17471:17603   */\n    tag_373:\n        /* \"#utility.yul\":17538:17542   */\n      0x00\n        /* \"#utility.yul\":17561:17564   */\n      dup2\n        /* \"#utility.yul\":17553:17564   */\n      swap1\n      pop\n        /* \"#utility.yul\":17591:17595   */\n      0x20\n        /* \"#utility.yul\":17586:17589   */\n      dup3\n        /* \"#utility.yul\":17582:17596   */\n      add\n        /* \"#utility.yul\":17574:17596   */\n      swap1\n      pop\n        /* \"#utility.yul\":17471:17603   */\n      swap2\n      swap1\n      pop\n      jump\t// out\n        /* \"#utility.yul\":17609:17717   */\n    tag_374:\n        /* \"#utility.yul\":17686:17710   */\n      tag_595\n        /* \"#utility.yul\":17704:17709   */\n      dup2\n        /* \"#utility.yul\":17686:17710   */\n      tag_337\n      jump\t// in\n    tag_595:\n        /* \"#utility.yul\":17681:17684   */\n      dup3\n        /* \"#utility.yul\":17674:17711   */\n      mstore\n        /* \"#utility.yul\":17609:17717   */\n      pop\n      pop\n      jump\t// out\n        /* \"#utility.yul\":17723:17902   */\n    tag_375:\n        /* \"#utility.yul\":17792:17802   */\n      0x00\n        /* \"#utility.yul\":17813:17859   */\n      tag_597\n        /* \"#utility.yul\":17855:17858   */\n      dup4\n        /* \"#utility.yul\":17847:17853   */\n      dup4\n        /* \"#utility.yul\":17813:17859   */\n      tag_374\n      jump\t// in\n    tag_597:\n        /* \"#utility.yul\":17891:17895   */\n      0x20\n        /* \"#utility.yul\":17886:17889   */\n      dup4\n        /* \"#utility.yul\":17882:17896   */\n      add\n        /* \"#utility.yul\":17868:17896   */\n      swap1\n      pop\n        /* \"#utility.yul\":17723:17902   */\n      swap3\n      swap2\n      pop\n      pop\n      jump\t// out\n        /* \"#utility.yul\":17908:18021   */\n    tag_376:\n        /* \"#utility.yul\":17978:17982   */\n      0x00\n        /* \"#utility.yul\":18010:18014   */\n      0x20\n        /* \"#utility.yul\":18005:18008   */\n      dup3\n        /* \"#utility.yul\":18001:18015   */\n      add\n        /* \"#utility.yul\":17993:18015   */\n      swap1\n      pop\n        /* \"#utility.yul\":17908:18021   */\n      swap2\n      swap1\n      pop\n      jump\t// out\n        /* \"#utility.yul\":18057:18789   */\n    tag_377:\n        /* \"#utility.yul\":18176:18179   */\n      0x00\n        /* \"#utility.yul\":18205:18259   */\n      tag_600\n        /* \"#utility.yul\":18253:18258   */\n      dup3\n        /* \"#utility.yul\":18205:18259   */\n      tag_371\n      jump\t// in\n    tag_600:\n        /* \"#utility.yul\":18275:18361   */\n      tag_601\n        /* \"#utility.yul\":18354:18360   */\n      dup2\n        /* \"#utility.yul\":18349:18352   */\n      dup6\n        /* \"#utility.yul\":18275:18361   */\n      tag_372\n      jump\t// in\n    tag_601:\n        /* \"#utility.yul\":18268:18361   */\n      swap4\n      pop\n        /* \"#utility.yul\":18385:18441   */\n      tag_602\n        /* \"#utility.yul\":18435:18440   */\n      dup4\n        /* \"#utility.yul\":18385:18441   */\n      tag_373\n      jump\t// in\n    tag_602:\n        /* \"#utility.yul\":18464:18471   */\n      dup1\n        /* \"#utility.yul\":18495:18496   */\n      0x00\n        /* \"#utility.yul\":18480:18764   */\n    tag_603:\n        /* \"#utility.yul\":18505:18511   */\n      dup4\n        /* \"#utility.yul\":18502:18503   */\n      dup2\n        /* \"#utility.yul\":18499:18512   */\n      lt\n        /* \"#utility.yul\":18480:18764   */\n      iszero\n      tag_605\n      jumpi\n        /* \"#utility.yul\":18581:18587   */\n      dup2\n        /* \"#utility.yul\":18575:18588   */\n      mload\n        /* \"#utility.yul\":18608:18671   */\n      tag_606\n        /* \"#utility.yul\":18667:18670   */\n      dup9\n        /* \"#utility.yul\":18652:18665   */\n      dup3\n        /* \"#utility.yul\":18608:18671   */\n      tag_375\n      jump\t// in\n    tag_606:\n        /* \"#utility.yul\":18601:18671   */\n      swap8\n      pop\n        /* \"#utility.yul\":18694:18754   */\n      tag_607\n        /* \"#utility.yul\":18747:18753   */\n      dup4\n        /* \"#utility.yul\":18694:18754   */\n      tag_376\n      jump\t// in\n    tag_607:\n        /* \"#utility.yul\":18684:18754   */\n      swap3\n      pop\n        /* \"#utility.yul\":18540:18764   */\n      pop\n        /* \"#utility.yul\":18527:18528   */\n      0x01\n        /* \"#utility.yul\":18524:18525   */\n      dup2\n        /* \"#utility.yul\":18520:18529   */\n      add\n        /* \"#utility.yul\":18515:18529   */\n      swap1\n      pop\n        /* \"#utility.yul\":18480:18764   */\n      jump(tag_603)\n    tag_605:\n        /* \"#utility.yul\":18484:18498   */\n      pop\n        /* \"#utility.yul\":18780:18783   */\n      dup6\n        /* \"#utility.yul\":18773:18783   */\n      swap4\n      pop\n        /* \"#utility.yul\":18181:18789   */\n      pop\n      pop\n      pop\n        /* \"#utility.yul\":18057:18789   */\n      swap3\n      swap2\n      pop\n      pop\n      jump\t// out\n        /* \"#utility.yul\":18795:19294   */\n    tag_186:\n        /* \"#utility.yul\":18974:18978   */\n      0x00\n        /* \"#utility.yul\":19012:19014   */\n      0x40\n        /* \"#utility.yul\":19001:19010   */\n      dup3\n        /* \"#utility.yul\":18997:19015   */\n      add\n        /* \"#utility.yul\":18989:19015   */\n      swap1\n      pop\n        /* \"#utility.yul\":19025:19104   */\n      tag_609\n        /* \"#utility.yul\":19101:19102   */\n      0x00\n        /* \"#utility.yul\":19090:19099   */\n      dup4\n        /* \"#utility.yul\":19086:19103   */\n      add\n        /* \"#utility.yul\":19077:19083   */\n      dup6\n        /* \"#utility.yul\":19025:19104   */\n      tag_370\n      jump\t// in\n    tag_609:\n        /* \"#utility.yul\":19151:19160   */\n      dup2\n        /* \"#utility.yul\":19145:19149   */\n      dup2\n        /* \"#utility.yul\":19141:19161   */\n      sub\n        /* \"#utility.yul\":19136:19138   */\n      0x20\n        /* \"#utility.yul\":19125:19134   */\n      dup4\n        /* \"#utility.yul\":19121:19139   */\n      add\n        /* \"#utility.yul\":19114:19162   */\n      mstore\n        /* \"#utility.yul\":19179:19287   */\n      tag_610\n        /* \"#utility.yul\":19282:19286   */\n      dup2\n        /* \"#utility.yul\":19273:19279   */\n      dup5\n        /* \"#utility.yul\":19179:19287   */\n      tag_377\n      jump\t// in\n    tag_610:\n        /* \"#utility.yul\":19171:19287   */\n      swap1\n      pop\n        /* \"#utility.yul\":18795:19294   */\n      swap4\n      swap3\n      pop\n      pop\n      pop\n      jump\t// out\n        /* \"#utility.yul\":19300:19417   */\n    tag_378:\n        /* \"#utility.yul\":19409:19410   */\n      0x00\n        /* \"#utility.yul\":19406:19407   */\n      dup1\n        /* \"#utility.yul\":19399:19411   */\n      revert\n        /* \"#utility.yul\":19423:19525   */\n    tag_379:\n        /* \"#utility.yul\":19464:19470   */\n      0x00\n        /* \"#utility.yul\":19515:19517   */\n      0x1f\n        /* \"#utility.yul\":19511:19518   */\n      not\n        /* \"#utility.yul\":19506:19508   */\n      0x1f\n        /* \"#utility.yul\":19499:19504   */\n      dup4\n        /* \"#utility.yul\":19495:19509   */\n      add\n        /* \"#utility.yul\":19491:19519   */\n      and\n        /* \"#utility.yul\":19481:19519   */\n      swap1\n      pop\n        /* \"#utility.yul\":19423:19525   */\n      swap2\n      swap1\n      pop\n      jump\t// out\n        /* \"#utility.yul\":19531:19812   */\n    tag_380:\n        /* \"#utility.yul\":19614:19641   */\n      tag_614\n        /* \"#utility.yul\":19636:19640   */\n      dup3\n        /* \"#utility.yul\":19614:19641   */\n      tag_379\n      jump\t// in\n    tag_614:\n        /* \"#utility.yul\":19606:19612   */\n      dup2\n        /* \"#utility.yul\":19602:19642   */\n      add\n        /* \"#utility.yul\":19744:19750   */\n      dup2\n        /* \"#utility.yul\":19732:19742   */\n      dup2\n        /* \"#utility.yul\":19729:19751   */\n      lt\n        /* \"#utility.yul\":19708:19726   */\n      0xffffffffffffffff\n        /* \"#utility.yul\":19696:19706   */\n      dup3\n        /* \"#utility.yul\":19693:19727   */\n      gt\n        /* \"#utility.yul\":19690:19752   */\n      or\n        /* \"#utility.yul\":19687:19775   */\n      iszero\n      tag_615\n      jumpi\n        /* \"#utility.yul\":19755:19773   */\n      tag_616\n      tag_178\n      jump\t// in\n    tag_616:\n        /* \"#utility.yul\":19687:19775   */\n    tag_615:\n        /* \"#utility.yul\":19795:19805   */\n      dup1\n        /* \"#utility.yul\":19791:19793   */\n      0x40\n        /* \"#utility.yul\":19784:19806   */\n      mstore\n        /* \"#utility.yul\":19574:19812   */\n      pop\n        /* \"#utility.yul\":19531:19812   */\n      pop\n      pop\n      jump\t// out\n        /* \"#utility.yul\":19818:19947   */\n    tag_381:\n        /* \"#utility.yul\":19852:19858   */\n      0x00\n        /* \"#utility.yul\":19879:19899   */\n      tag_618\n      tag_322\n      jump\t// in\n    tag_618:\n        /* \"#utility.yul\":19869:19899   */\n      swap1\n      pop\n        /* \"#utility.yul\":19908:19941   */\n      tag_619\n        /* \"#utility.yul\":19936:19940   */\n      dup3\n        /* \"#utility.yul\":19928:19934   */\n      dup3\n        /* \"#utility.yul\":19908:19941   */\n      tag_380\n      jump\t// in\n    tag_619:\n        /* \"#utility.yul\":19818:19947   */\n      swap2\n      swap1\n      pop\n      jump\t// out\n        /* \"#utility.yul\":19953:20264   */\n    tag_382:\n        /* \"#utility.yul\":20030:20034   */\n      0x00\n        /* \"#utility.yul\":20120:20138   */\n      0xffffffffffffffff\n        /* \"#utility.yul\":20112:20118   */\n      dup3\n        /* \"#utility.yul\":20109:20139   */\n      gt\n        /* \"#utility.yul\":20106:20162   */\n      iszero\n      tag_621\n      jumpi\n        /* \"#utility.yul\":20142:20160   */\n      tag_622\n      tag_178\n      jump\t// in\n    tag_622:\n        /* \"#utility.yul\":20106:20162   */\n    tag_621:\n        /* \"#utility.yul\":20192:20196   */\n      0x20\n        /* \"#utility.yul\":20184:20190   */\n      dup3\n        /* \"#utility.yul\":20180:20197   */\n      mul\n        /* \"#utility.yul\":20172:20197   */\n      swap1\n      pop\n        /* \"#utility.yul\":20252:20256   */\n      0x20\n        /* \"#utility.yul\":20246:20250   */\n      dup2\n        /* \"#utility.yul\":20242:20257   */\n      add\n        /* \"#utility.yul\":20234:20257   */\n      swap1\n      pop\n        /* \"#utility.yul\":19953:20264   */\n      swap2\n      swap1\n      pop\n      jump\t// out\n        /* \"#utility.yul\":20270:20387   */\n    tag_383:\n        /* \"#utility.yul\":20379:20380   */\n      0x00\n        /* \"#utility.yul\":20376:20377   */\n      dup1\n        /* \"#utility.yul\":20369:20381   */\n      revert\n        /* \"#utility.yul\":20410:21142   */\n    tag_384:\n        /* \"#utility.yul\":20517:20522   */\n      0x00\n        /* \"#utility.yul\":20542:20623   */\n      tag_625\n        /* \"#utility.yul\":20558:20622   */\n      tag_626\n        /* \"#utility.yul\":20615:20621   */\n      dup5\n        /* \"#utility.yul\":20558:20622   */\n      tag_382\n      jump\t// in\n    tag_626:\n        /* \"#utility.yul\":20542:20623   */\n      tag_381\n      jump\t// in\n    tag_625:\n        /* \"#utility.yul\":20533:20623   */\n      swap1\n      pop\n        /* \"#utility.yul\":20643:20648   */\n      dup1\n        /* \"#utility.yul\":20672:20678   */\n      dup4\n        /* \"#utility.yul\":20665:20670   */\n      dup3\n        /* \"#utility.yul\":20658:20679   */\n      mstore\n        /* \"#utility.yul\":20706:20710   */\n      0x20\n        /* \"#utility.yul\":20699:20704   */\n      dup3\n        /* \"#utility.yul\":20695:20711   */\n      add\n        /* \"#utility.yul\":20688:20711   */\n      swap1\n      pop\n        /* \"#utility.yul\":20759:20763   */\n      0x20\n        /* \"#utility.yul\":20751:20757   */\n      dup5\n        /* \"#utility.yul\":20747:20764   */\n      mul\n        /* \"#utility.yul\":20739:20745   */\n      dup4\n        /* \"#utility.yul\":20735:20765   */\n      add\n        /* \"#utility.yul\":20788:20791   */\n      dup6\n        /* \"#utility.yul\":20780:20786   */\n      dup2\n        /* \"#utility.yul\":20777:20792   */\n      gt\n        /* \"#utility.yul\":20774:20896   */\n      iszero\n      tag_627\n      jumpi\n        /* \"#utility.yul\":20807:20886   */\n      tag_628\n      tag_383\n      jump\t// in\n    tag_628:\n        /* \"#utility.yul\":20774:20896   */\n    tag_627:\n        /* \"#utility.yul\":20922:20928   */\n      dup4\n        /* \"#utility.yul\":20905:21136   */\n    tag_629:\n        /* \"#utility.yul\":20939:20945   */\n      dup2\n        /* \"#utility.yul\":20934:20937   */\n      dup2\n        /* \"#utility.yul\":20931:20946   */\n      lt\n        /* \"#utility.yul\":20905:21136   */\n      iszero\n      tag_631\n      jumpi\n        /* \"#utility.yul\":21014:21017   */\n      dup1\n        /* \"#utility.yul\":21043:21091   */\n      tag_632\n        /* \"#utility.yul\":21087:21090   */\n      dup9\n        /* \"#utility.yul\":21075:21085   */\n      dup3\n        /* \"#utility.yul\":21043:21091   */\n      tag_357\n      jump\t// in\n    tag_632:\n        /* \"#utility.yul\":21038:21041   */\n      dup5\n        /* \"#utility.yul\":21031:21092   */\n      mstore\n        /* \"#utility.yul\":21121:21125   */\n      0x20\n        /* \"#utility.yul\":21116:21119   */\n      dup5\n        /* \"#utility.yul\":21112:21126   */\n      add\n        /* \"#utility.yul\":21105:21126   */\n      swap4\n      pop\n        /* \"#utility.yul\":20981:21136   */\n      pop\n        /* \"#utility.yul\":20965:20969   */\n      0x20\n        /* \"#utility.yul\":20960:20963   */\n      dup2\n        /* \"#utility.yul\":20956:20970   */\n      add\n        /* \"#utility.yul\":20949:20970   */\n      swap1\n      pop\n        /* \"#utility.yul\":20905:21136   */\n      jump(tag_629)\n    tag_631:\n        /* \"#utility.yul\":20909:20930   */\n      pop\n        /* \"#utility.yul\":20523:21142   */\n      pop\n      pop\n        /* \"#utility.yul\":20410:21142   */\n      swap4\n      swap3\n      pop\n      pop\n      pop\n      jump\t// out\n        /* \"#utility.yul\":21165:21550   */\n    tag_385:\n        /* \"#utility.yul\":21247:21252   */\n      0x00\n        /* \"#utility.yul\":21296:21299   */\n      dup3\n        /* \"#utility.yul\":21289:21293   */\n      0x1f\n        /* \"#utility.yul\":21281:21287   */\n      dup4\n        /* \"#utility.yul\":21277:21294   */\n      add\n        /* \"#utility.yul\":21273:21300   */\n      slt\n        /* \"#utility.yul\":21263:21385   */\n      tag_634\n      jumpi\n        /* \"#utility.yul\":21304:21383   */\n      tag_635\n      tag_378\n      jump\t// in\n    tag_635:\n        /* \"#utility.yul\":21263:21385   */\n    tag_634:\n        /* \"#utility.yul\":21414:21420   */\n      dup2\n        /* \"#utility.yul\":21408:21421   */\n      mload\n        /* \"#utility.yul\":21439:21544   */\n      tag_636\n        /* \"#utility.yul\":21540:21543   */\n      dup5\n        /* \"#utility.yul\":21532:21538   */\n      dup3\n        /* \"#utility.yul\":21525:21529   */\n      0x20\n        /* \"#utility.yul\":21517:21523   */\n      dup7\n        /* \"#utility.yul\":21513:21530   */\n      add\n        /* \"#utility.yul\":21439:21544   */\n      tag_384\n      jump\t// in\n    tag_636:\n        /* \"#utility.yul\":21430:21544   */\n      swap2\n      pop\n        /* \"#utility.yul\":21253:21550   */\n      pop\n        /* \"#utility.yul\":21165:21550   */\n      swap3\n      swap2\n      pop\n      pop\n      jump\t// out\n        /* \"#utility.yul\":21556:22110   */\n    tag_190:\n        /* \"#utility.yul\":21651:21657   */\n      0x00\n        /* \"#utility.yul\":21700:21702   */\n      0x20\n        /* \"#utility.yul\":21688:21697   */\n      dup3\n        /* \"#utility.yul\":21679:21686   */\n      dup5\n        /* \"#utility.yul\":21675:21698   */\n      sub\n        /* \"#utility.yul\":21671:21703   */\n      slt\n        /* \"#utility.yul\":21668:21787   */\n      iszero\n      tag_638\n      jumpi\n        /* \"#utility.yul\":21706:21785   */\n      tag_639\n      tag_323\n      jump\t// in\n    tag_639:\n        /* \"#utility.yul\":21668:21787   */\n    tag_638:\n        /* \"#utility.yul\":21847:21848   */\n      0x00\n        /* \"#utility.yul\":21836:21845   */\n      dup3\n        /* \"#utility.yul\":21832:21849   */\n      add\n        /* \"#utility.yul\":21826:21850   */\n      mload\n        /* \"#utility.yul\":21877:21895   */\n      0xffffffffffffffff\n        /* \"#utility.yul\":21869:21875   */\n      dup2\n        /* \"#utility.yul\":21866:21896   */\n      gt\n        /* \"#utility.yul\":21863:21980   */\n      iszero\n      tag_640\n      jumpi\n        /* \"#utility.yul\":21899:21978   */\n      tag_641\n      tag_324\n      jump\t// in\n    tag_641:\n        /* \"#utility.yul\":21863:21980   */\n    tag_640:\n        /* \"#utility.yul\":22004:22093   */\n      tag_642\n        /* \"#utility.yul\":22085:22092   */\n      dup5\n        /* \"#utility.yul\":22076:22082   */\n      dup3\n        /* \"#utility.yul\":22065:22074   */\n      dup6\n        /* \"#utility.yul\":22061:22083   */\n      add\n        /* \"#utility.yul\":22004:22093   */\n      tag_385\n      jump\t// in\n    tag_642:\n        /* \"#utility.yul\":21994:22093   */\n      swap2\n      pop\n        /* \"#utility.yul\":21797:22103   */\n      pop\n        /* \"#utility.yul\":21556:22110   */\n      swap3\n      swap2\n      pop\n      pop\n      jump\t// out\n        /* \"#utility.yul\":22116:22448   */\n    tag_219:\n        /* \"#utility.yul\":22237:22241   */\n      0x00\n        /* \"#utility.yul\":22275:22277   */\n      0x40\n        /* \"#utility.yul\":22264:22273   */\n      dup3\n        /* \"#utility.yul\":22260:22278   */\n      add\n        /* \"#utility.yul\":22252:22278   */\n      swap1\n      pop\n        /* \"#utility.yul\":22288:22359   */\n      tag_644\n        /* \"#utility.yul\":22356:22357   */\n      0x00\n        /* \"#utility.yul\":22345:22354   */\n      dup4\n        /* \"#utility.yul\":22341:22358   */\n      add\n        /* \"#utility.yul\":22332:22338   */\n      dup6\n        /* \"#utility.yul\":22288:22359   */\n      tag_321\n      jump\t// in\n    tag_644:\n        /* \"#utility.yul\":22369:22441   */\n      tag_645\n        /* \"#utility.yul\":22437:22439   */\n      0x20\n        /* \"#utility.yul\":22426:22435   */\n      dup4\n        /* \"#utility.yul\":22422:22440   */\n      add\n        /* \"#utility.yul\":22413:22419   */\n      dup5\n        /* \"#utility.yul\":22369:22441   */\n      tag_321\n      jump\t// in\n    tag_645:\n        /* \"#utility.yul\":22116:22448   */\n      swap4\n      swap3\n      pop\n      pop\n      pop\n      jump\t// out\n        /* \"#utility.yul\":22454:22612   */\n    tag_386:\n        /* \"#utility.yul\":22512:22521   */\n      0x00\n        /* \"#utility.yul\":22545:22606   */\n      tag_647\n        /* \"#utility.yul\":22563:22605   */\n      tag_648\n        /* \"#utility.yul\":22572:22604   */\n      tag_649\n        /* \"#utility.yul\":22598:22603   */\n      dup5\n        /* \"#utility.yul\":22572:22604   */\n      tag_360\n      jump\t// in\n    tag_649:\n        /* \"#utility.yul\":22563:22605   */\n      tag_330\n      jump\t// in\n    tag_648:\n        /* \"#utility.yul\":22545:22606   */\n      tag_320\n      jump\t// in\n    tag_647:\n        /* \"#utility.yul\":22532:22606   */\n      swap1\n      pop\n        /* \"#utility.yul\":22454:22612   */\n      swap2\n      swap1\n      pop\n      jump\t// out\n        /* \"#utility.yul\":22618:22765   */\n    tag_387:\n        /* \"#utility.yul\":22713:22758   */\n      tag_651\n        /* \"#utility.yul\":22752:22757   */\n      dup2\n        /* \"#utility.yul\":22713:22758   */\n      tag_386\n      jump\t// in\n    tag_651:\n        /* \"#utility.yul\":22708:22711   */\n      dup3\n        /* \"#utility.yul\":22701:22759   */\n      mstore\n        /* \"#utility.yul\":22618:22765   */\n      pop\n      pop\n      jump\t// out\n        /* \"#utility.yul\":22771:23602   */\n    tag_243:\n        /* \"#utility.yul\":23034:23038   */\n      0x00\n        /* \"#utility.yul\":23072:23075   */\n      0xa0\n        /* \"#utility.yul\":23061:23070   */\n      dup3\n        /* \"#utility.yul\":23057:23076   */\n      add\n        /* \"#utility.yul\":23049:23076   */\n      swap1\n      pop\n        /* \"#utility.yul\":23086:23157   */\n      tag_653\n        /* \"#utility.yul\":23154:23155   */\n      0x00\n        /* \"#utility.yul\":23143:23152   */\n      dup4\n        /* \"#utility.yul\":23139:23156   */\n      add\n        /* \"#utility.yul\":23130:23136   */\n      dup9\n        /* \"#utility.yul\":23086:23157   */\n      tag_321\n      jump\t// in\n    tag_653:\n        /* \"#utility.yul\":23167:23247   */\n      tag_654\n        /* \"#utility.yul\":23243:23245   */\n      0x20\n        /* \"#utility.yul\":23232:23241   */\n      dup4\n        /* \"#utility.yul\":23228:23246   */\n      add\n        /* \"#utility.yul\":23219:23225   */\n      dup8\n        /* \"#utility.yul\":23167:23247   */\n      tag_387\n      jump\t// in\n    tag_654:\n        /* \"#utility.yul\":23294:23303   */\n      dup2\n        /* \"#utility.yul\":23288:23292   */\n      dup2\n        /* \"#utility.yul\":23284:23304   */\n      sub\n        /* \"#utility.yul\":23279:23281   */\n      0x40\n        /* \"#utility.yul\":23268:23277   */\n      dup4\n        /* \"#utility.yul\":23264:23282   */\n      add\n        /* \"#utility.yul\":23257:23305   */\n      mstore\n        /* \"#utility.yul\":23322:23430   */\n      tag_655\n        /* \"#utility.yul\":23425:23429   */\n      dup2\n        /* \"#utility.yul\":23416:23422   */\n      dup7\n        /* \"#utility.yul\":23322:23430   */\n      tag_377\n      jump\t// in\n    tag_655:\n        /* \"#utility.yul\":23314:23430   */\n      swap1\n      pop\n        /* \"#utility.yul\":23440:23512   */\n      tag_656\n        /* \"#utility.yul\":23508:23510   */\n      0x60\n        /* \"#utility.yul\":23497:23506   */\n      dup4\n        /* \"#utility.yul\":23493:23511   */\n      add\n        /* \"#utility.yul\":23484:23490   */\n      dup6\n        /* \"#utility.yul\":23440:23512   */\n      tag_338\n      jump\t// in\n    tag_656:\n        /* \"#utility.yul\":23522:23595   */\n      tag_657\n        /* \"#utility.yul\":23590:23593   */\n      0x80\n        /* \"#utility.yul\":23579:23588   */\n      dup4\n        /* \"#utility.yul\":23575:23594   */\n      add\n        /* \"#utility.yul\":23566:23572   */\n      dup5\n        /* \"#utility.yul\":23522:23595   */\n      tag_321\n      jump\t// in\n    tag_657:\n        /* \"#utility.yul\":22771:23602   */\n      swap7\n      swap6\n      pop\n      pop\n      pop\n      pop\n      pop\n      pop\n      jump\t// out\n        /* \"#utility.yul\":23608:24637   */\n    tag_256:\n        /* \"#utility.yul\":23913:23917   */\n      0x00\n        /* \"#utility.yul\":23951:23954   */\n      0x0100\n        /* \"#utility.yul\":23940:23949   */\n      dup3\n        /* \"#utility.yul\":23936:23955   */\n      add\n        /* \"#utility.yul\":23928:23955   */\n      swap1\n      pop\n        /* \"#utility.yul\":23965:24036   */\n      tag_659\n        /* \"#utility.yul\":24033:24034   */\n      0x00\n        /* \"#utility.yul\":24022:24031   */\n      dup4\n        /* \"#utility.yul\":24018:24035   */\n      add\n        /* \"#utility.yul\":24009:24015   */\n      dup12\n        /* \"#utility.yul\":23965:24036   */\n      tag_338\n      jump\t// in\n    tag_659:\n        /* \"#utility.yul\":24046:24118   */\n      tag_660\n        /* \"#utility.yul\":24114:24116   */\n      0x20\n        /* \"#utility.yul\":24103:24112   */\n      dup4\n        /* \"#utility.yul\":24099:24117   */\n      add\n        /* \"#utility.yul\":24090:24096   */\n      dup11\n        /* \"#utility.yul\":24046:24118   */\n      tag_338\n      jump\t// in\n    tag_660:\n        /* \"#utility.yul\":24128:24200   */\n      tag_661\n        /* \"#utility.yul\":24196:24198   */\n      0x40\n        /* \"#utility.yul\":24185:24194   */\n      dup4\n        /* \"#utility.yul\":24181:24199   */\n      add\n        /* \"#utility.yul\":24172:24178   */\n      dup10\n        /* \"#utility.yul\":24128:24200   */\n      tag_321\n      jump\t// in\n    tag_661:\n        /* \"#utility.yul\":24210:24282   */\n      tag_662\n        /* \"#utility.yul\":24278:24280   */\n      0x60\n        /* \"#utility.yul\":24267:24276   */\n      dup4\n        /* \"#utility.yul\":24263:24281   */\n      add\n        /* \"#utility.yul\":24254:24260   */\n      dup9\n        /* \"#utility.yul\":24210:24282   */\n      tag_321\n      jump\t// in\n    tag_662:\n        /* \"#utility.yul\":24292:24373   */\n      tag_663\n        /* \"#utility.yul\":24368:24371   */\n      0x80\n        /* \"#utility.yul\":24357:24366   */\n      dup4\n        /* \"#utility.yul\":24353:24372   */\n      add\n        /* \"#utility.yul\":24344:24350   */\n      dup8\n        /* \"#utility.yul\":24292:24373   */\n      tag_370\n      jump\t// in\n    tag_663:\n        /* \"#utility.yul\":24383:24464   */\n      tag_664\n        /* \"#utility.yul\":24459:24462   */\n      0xa0\n        /* \"#utility.yul\":24448:24457   */\n      dup4\n        /* \"#utility.yul\":24444:24463   */\n      add\n        /* \"#utility.yul\":24435:24441   */\n      dup7\n        /* \"#utility.yul\":24383:24464   */\n      tag_370\n      jump\t// in\n    tag_664:\n        /* \"#utility.yul\":24474:24547   */\n      tag_665\n        /* \"#utility.yul\":24542:24545   */\n      0xc0\n        /* \"#utility.yul\":24531:24540   */\n      dup4\n        /* \"#utility.yul\":24527:24546   */\n      add\n        /* \"#utility.yul\":24518:24524   */\n      dup6\n        /* \"#utility.yul\":24474:24547   */\n      tag_338\n      jump\t// in\n    tag_665:\n        /* \"#utility.yul\":24557:24630   */\n      tag_666\n        /* \"#utility.yul\":24625:24628   */\n      0xe0\n        /* \"#utility.yul\":24614:24623   */\n      dup4\n        /* \"#utility.yul\":24610:24629   */\n      add\n        /* \"#utility.yul\":24601:24607   */\n      dup5\n        /* \"#utility.yul\":24557:24630   */\n      tag_321\n      jump\t// in\n    tag_666:\n        /* \"#utility.yul\":23608:24637   */\n      swap10\n      swap9\n      pop\n      pop\n      pop\n      pop\n      pop\n      pop\n      pop\n      pop\n      pop\n      jump\t// out\n        /* \"#utility.yul\":24643:25306   */\n    tag_260:\n        /* \"#utility.yul\":24731:24737   */\n      0x00\n        /* \"#utility.yul\":24739:24745   */\n      dup1\n        /* \"#utility.yul\":24747:24753   */\n      0x00\n        /* \"#utility.yul\":24796:24798   */\n      0x60\n        /* \"#utility.yul\":24784:24793   */\n      dup5\n        /* \"#utility.yul\":24775:24782   */\n      dup7\n        /* \"#utility.yul\":24771:24794   */\n      sub\n        /* \"#utility.yul\":24767:24799   */\n      slt\n        /* \"#utility.yul\":24764:24883   */\n      iszero\n      tag_668\n      jumpi\n        /* \"#utility.yul\":24802:24881   */\n      tag_669\n      tag_323\n      jump\t// in\n    tag_669:\n        /* \"#utility.yul\":24764:24883   */\n    tag_668:\n        /* \"#utility.yul\":24922:24923   */\n      0x00\n        /* \"#utility.yul\":24947:25011   */\n      tag_670\n        /* \"#utility.yul\":25003:25010   */\n      dup7\n        /* \"#utility.yul\":24994:25000   */\n      dup3\n        /* \"#utility.yul\":24983:24992   */\n      dup8\n        /* \"#utility.yul\":24979:25001   */\n      add\n        /* \"#utility.yul\":24947:25011   */\n      tag_357\n      jump\t// in\n    tag_670:\n        /* \"#utility.yul\":24937:25011   */\n      swap4\n      pop\n        /* \"#utility.yul\":24893:25021   */\n      pop\n        /* \"#utility.yul\":25060:25062   */\n      0x20\n        /* \"#utility.yul\":25086:25150   */\n      tag_671\n        /* \"#utility.yul\":25142:25149   */\n      dup7\n        /* \"#utility.yul\":25133:25139   */\n      dup3\n        /* \"#utility.yul\":25122:25131   */\n      dup8\n        /* \"#utility.yul\":25118:25140   */\n      add\n        /* \"#utility.yul\":25086:25150   */\n      tag_357\n      jump\t// in\n    tag_671:\n        /* \"#utility.yul\":25076:25150   */\n      swap3\n      pop\n        /* \"#utility.yul\":25031:25160   */\n      pop\n        /* \"#utility.yul\":25199:25201   */\n      0x40\n        /* \"#utility.yul\":25225:25289   */\n      tag_672\n        /* \"#utility.yul\":25281:25288   */\n      dup7\n        /* \"#utility.yul\":25272:25278   */\n      dup3\n        /* \"#utility.yul\":25261:25270   */\n      dup8\n        /* \"#utility.yul\":25257:25279   */\n      add\n        /* \"#utility.yul\":25225:25289   */\n      tag_357\n      jump\t// in\n    tag_672:\n        /* \"#utility.yul\":25215:25289   */\n      swap2\n      pop\n        /* \"#utility.yul\":25170:25299   */\n      pop\n        /* \"#utility.yul\":24643:25306   */\n      swap3\n      pop\n      swap3\n      pop\n      swap3\n      jump\t// out\n        /* \"#utility.yul\":25312:25481   */\n    tag_388:\n        /* \"#utility.yul\":25452:25473   */\n      0x66756e64206465706f736974206661696c656400000000000000000000000000\n        /* \"#utility.yul\":25448:25449   */\n      0x00\n        /* \"#utility.yul\":25440:25446   */\n      dup3\n        /* \"#utility.yul\":25436:25450   */\n      add\n        /* \"#utility.yul\":25429:25474   */\n      mstore\n        /* \"#utility.yul\":25312:25481   */\n      pop\n      jump\t// out\n        /* \"#utility.yul\":25487:25853   */\n    tag_389:\n        /* \"#utility.yul\":25629:25632   */\n      0x00\n        /* \"#utility.yul\":25650:25717   */\n      tag_675\n        /* \"#utility.yul\":25714:25716   */\n      0x13\n        /* \"#utility.yul\":25709:25712   */\n      dup4\n        /* \"#utility.yul\":25650:25717   */\n      tag_350\n      jump\t// in\n    tag_675:\n        /* \"#utility.yul\":25643:25717   */\n      swap2\n      pop\n        /* \"#utility.yul\":25726:25819   */\n      tag_676\n        /* \"#utility.yul\":25815:25818   */\n      dup3\n        /* \"#utility.yul\":25726:25819   */\n      tag_388\n      jump\t// in\n    tag_676:\n        /* \"#utility.yul\":25844:25846   */\n      0x20\n        /* \"#utility.yul\":25839:25842   */\n      dup3\n        /* \"#utility.yul\":25835:25847   */\n      add\n        /* \"#utility.yul\":25828:25847   */\n      swap1\n      pop\n        /* \"#utility.yul\":25487:25853   */\n      swap2\n      swap1\n      pop\n      jump\t// out\n        /* \"#utility.yul\":25859:26278   */\n    tag_265:\n        /* \"#utility.yul\":26025:26029   */\n      0x00\n        /* \"#utility.yul\":26063:26065   */\n      0x20\n        /* \"#utility.yul\":26052:26061   */\n      dup3\n        /* \"#utility.yul\":26048:26066   */\n      add\n        /* \"#utility.yul\":26040:26066   */\n      swap1\n      pop\n        /* \"#utility.yul\":26112:26121   */\n      dup2\n        /* \"#utility.yul\":26106:26110   */\n      dup2\n        /* \"#utility.yul\":26102:26122   */\n      sub\n        /* \"#utility.yul\":26098:26099   */\n      0x00\n        /* \"#utility.yul\":26087:26096   */\n      dup4\n        /* \"#utility.yul\":26083:26100   */\n      add\n        /* \"#utility.yul\":26076:26123   */\n      mstore\n        /* \"#utility.yul\":26140:26271   */\n      tag_678\n        /* \"#utility.yul\":26266:26270   */\n      dup2\n        /* \"#utility.yul\":26140:26271   */\n      tag_389\n      jump\t// in\n    tag_678:\n        /* \"#utility.yul\":26132:26271   */\n      swap1\n      pop\n        /* \"#utility.yul\":25859:26278   */\n      swap2\n      swap1\n      pop\n      jump\t// out\n        /* \"#utility.yul\":26284:26461   */\n    tag_390:\n        /* \"#utility.yul\":26424:26453   */\n      0x4552525f415554484f52495a45445f414444524553535f4f4e4c590000000000\n        /* \"#utility.yul\":26420:26421   */\n      0x00\n        /* \"#utility.yul\":26412:26418   */\n      dup3\n        /* \"#utility.yul\":26408:26422   */\n      add\n        /* \"#utility.yul\":26401:26454   */\n      mstore\n        /* \"#utility.yul\":26284:26461   */\n      pop\n      jump\t// out\n        /* \"#utility.yul\":26467:26833   */\n    tag_391:\n        /* \"#utility.yul\":26609:26612   */\n      0x00\n        /* \"#utility.yul\":26630:26697   */\n      tag_681\n        /* \"#utility.yul\":26694:26696   */\n      0x1b\n        /* \"#utility.yul\":26689:26692   */\n      dup4\n        /* \"#utility.yul\":26630:26697   */\n      tag_350\n      jump\t// in\n    tag_681:\n        /* \"#utility.yul\":26623:26697   */\n      swap2\n      pop\n        /* \"#utility.yul\":26706:26799   */\n      tag_682\n        /* \"#utility.yul\":26795:26798   */\n      dup3\n        /* \"#utility.yul\":26706:26799   */\n      tag_390\n      jump\t// in\n    tag_682:\n        /* \"#utility.yul\":26824:26826   */\n      0x20\n        /* \"#utility.yul\":26819:26822   */\n      dup3\n        /* \"#utility.yul\":26815:26827   */\n      add\n        /* \"#utility.yul\":26808:26827   */\n      swap1\n      pop\n        /* \"#utility.yul\":26467:26833   */\n      swap2\n      swap1\n      pop\n      jump\t// out\n        /* \"#utility.yul\":26839:27258   */\n    tag_276:\n        /* \"#utility.yul\":27005:27009   */\n      0x00\n        /* \"#utility.yul\":27043:27045   */\n      0x20\n        /* \"#utility.yul\":27032:27041   */\n      dup3\n        /* \"#utility.yul\":27028:27046   */\n      add\n        /* \"#utility.yul\":27020:27046   */\n      swap1\n      pop\n        /* \"#utility.yul\":27092:27101   */\n      dup2\n        /* \"#utility.yul\":27086:27090   */\n      dup2\n        /* \"#utility.yul\":27082:27102   */\n      sub\n        /* \"#utility.yul\":27078:27079   */\n      0x00\n        /* \"#utility.yul\":27067:27076   */\n      dup4\n        /* \"#utility.yul\":27063:27080   */\n      add\n        /* \"#utility.yul\":27056:27103   */\n      mstore\n        /* \"#utility.yul\":27120:27251   */\n      tag_684\n        /* \"#utility.yul\":27246:27250   */\n      dup2\n        /* \"#utility.yul\":27120:27251   */\n      tag_391\n      jump\t// in\n    tag_684:\n        /* \"#utility.yul\":27112:27251   */\n      swap1\n      pop\n        /* \"#utility.yul\":26839:27258   */\n      swap2\n      swap1\n      pop\n      jump\t// out\n        /* \"#utility.yul\":27264:28182   */\n    tag_290:\n        /* \"#utility.yul\":27541:27545   */\n      0x00\n        /* \"#utility.yul\":27579:27582   */\n      0xe0\n        /* \"#utility.yul\":27568:27577   */\n      dup3\n        /* \"#utility.yul\":27564:27583   */\n      add\n        /* \"#utility.yul\":27556:27583   */\n      swap1\n      pop\n        /* \"#utility.yul\":27593:27664   */\n      tag_686\n        /* \"#utility.yul\":27661:27662   */\n      0x00\n        /* \"#utility.yul\":27650:27659   */\n      dup4\n        /* \"#utility.yul\":27646:27663   */\n      add\n        /* \"#utility.yul\":27637:27643   */\n      dup11\n        /* \"#utility.yul\":27593:27664   */\n      tag_338\n      jump\t// in\n    tag_686:\n        /* \"#utility.yul\":27674:27746   */\n      tag_687\n        /* \"#utility.yul\":27742:27744   */\n      0x20\n        /* \"#utility.yul\":27731:27740   */\n      dup4\n        /* \"#utility.yul\":27727:27745   */\n      add\n        /* \"#utility.yul\":27718:27724   */\n      dup10\n        /* \"#utility.yul\":27674:27746   */\n      tag_338\n      jump\t// in\n    tag_687:\n        /* \"#utility.yul\":27756:27828   */\n      tag_688\n        /* \"#utility.yul\":27824:27826   */\n      0x40\n        /* \"#utility.yul\":27813:27822   */\n      dup4\n        /* \"#utility.yul\":27809:27827   */\n      add\n        /* \"#utility.yul\":27800:27806   */\n      dup9\n        /* \"#utility.yul\":27756:27828   */\n      tag_321\n      jump\t// in\n    tag_688:\n        /* \"#utility.yul\":27838:27918   */\n      tag_689\n        /* \"#utility.yul\":27914:27916   */\n      0x60\n        /* \"#utility.yul\":27903:27912   */\n      dup4\n        /* \"#utility.yul\":27899:27917   */\n      add\n        /* \"#utility.yul\":27890:27896   */\n      dup8\n        /* \"#utility.yul\":27838:27918   */\n      tag_370\n      jump\t// in\n    tag_689:\n        /* \"#utility.yul\":27928:28009   */\n      tag_690\n        /* \"#utility.yul\":28004:28007   */\n      0x80\n        /* \"#utility.yul\":27993:28002   */\n      dup4\n        /* \"#utility.yul\":27989:28008   */\n      add\n        /* \"#utility.yul\":27980:27986   */\n      dup7\n        /* \"#utility.yul\":27928:28009   */\n      tag_370\n      jump\t// in\n    tag_690:\n        /* \"#utility.yul\":28019:28092   */\n      tag_691\n        /* \"#utility.yul\":28087:28090   */\n      0xa0\n        /* \"#utility.yul\":28076:28085   */\n      dup4\n        /* \"#utility.yul\":28072:28091   */\n      add\n        /* \"#utility.yul\":28063:28069   */\n      dup6\n        /* \"#utility.yul\":28019:28092   */\n      tag_338\n      jump\t// in\n    tag_691:\n        /* \"#utility.yul\":28102:28175   */\n      tag_692\n        /* \"#utility.yul\":28170:28173   */\n      0xc0\n        /* \"#utility.yul\":28159:28168   */\n      dup4\n        /* \"#utility.yul\":28155:28174   */\n      add\n        /* \"#utility.yul\":28146:28152   */\n      dup5\n        /* \"#utility.yul\":28102:28175   */\n      tag_321\n      jump\t// in\n    tag_692:\n        /* \"#utility.yul\":27264:28182   */\n      swap9\n      swap8\n      pop\n      pop\n      pop\n      pop\n      pop\n      pop\n      pop\n      pop\n      jump\t// out\n        /* \"#utility.yul\":28188:28695   */\n    tag_294:\n        /* \"#utility.yul\":28267:28273   */\n      0x00\n        /* \"#utility.yul\":28275:28281   */\n      dup1\n        /* \"#utility.yul\":28324:28326   */\n      0x40\n        /* \"#utility.yul\":28312:28321   */\n      dup4\n        /* \"#utility.yul\":28303:28310   */\n      dup6\n        /* \"#utility.yul\":28299:28322   */\n      sub\n        /* \"#utility.yul\":28295:28327   */\n      slt\n        /* \"#utility.yul\":28292:28411   */\n      iszero\n      tag_694\n      jumpi\n        /* \"#utility.yul\":28330:28409   */\n      tag_695\n      tag_323\n      jump\t// in\n    tag_695:\n        /* \"#utility.yul\":28292:28411   */\n    tag_694:\n        /* \"#utility.yul\":28450:28451   */\n      0x00\n        /* \"#utility.yul\":28475:28539   */\n      tag_696\n        /* \"#utility.yul\":28531:28538   */\n      dup6\n        /* \"#utility.yul\":28522:28528   */\n      dup3\n        /* \"#utility.yul\":28511:28520   */\n      dup7\n        /* \"#utility.yul\":28507:28529   */\n      add\n        /* \"#utility.yul\":28475:28539   */\n      tag_357\n      jump\t// in\n    tag_696:\n        /* \"#utility.yul\":28465:28539   */\n      swap3\n      pop\n        /* \"#utility.yul\":28421:28549   */\n      pop\n        /* \"#utility.yul\":28588:28590   */\n      0x20\n        /* \"#utility.yul\":28614:28678   */\n      tag_697\n        /* \"#utility.yul\":28670:28677   */\n      dup6\n        /* \"#utility.yul\":28661:28667   */\n      dup3\n        /* \"#utility.yul\":28650:28659   */\n      dup7\n        /* \"#utility.yul\":28646:28668   */\n      add\n        /* \"#utility.yul\":28614:28678   */\n      tag_357\n      jump\t// in\n    tag_697:\n        /* \"#utility.yul\":28604:28678   */\n      swap2\n      pop\n        /* \"#utility.yul\":28559:28688   */\n      pop\n        /* \"#utility.yul\":28188:28695   */\n      swap3\n      pop\n      swap3\n      swap1\n      pop\n      jump\t// out\n        /* \"#utility.yul\":28701:29143   */\n    tag_297:\n        /* \"#utility.yul\":28850:28854   */\n      0x00\n        /* \"#utility.yul\":28888:28890   */\n      0x60\n        /* \"#utility.yul\":28877:28886   */\n      dup3\n        /* \"#utility.yul\":28873:28891   */\n      add\n        /* \"#utility.yul\":28865:28891   */\n      swap1\n      pop\n        /* \"#utility.yul\":28901:28972   */\n      tag_699\n        /* \"#utility.yul\":28969:28970   */\n      0x00\n        /* \"#utility.yul\":28958:28967   */\n      dup4\n        /* \"#utility.yul\":28954:28971   */\n      add\n        /* \"#utility.yul\":28945:28951   */\n      dup7\n        /* \"#utility.yul\":28901:28972   */\n      tag_338\n      jump\t// in\n    tag_699:\n        /* \"#utility.yul\":28982:29054   */\n      tag_700\n        /* \"#utility.yul\":29050:29052   */\n      0x20\n        /* \"#utility.yul\":29039:29048   */\n      dup4\n        /* \"#utility.yul\":29035:29053   */\n      add\n        /* \"#utility.yul\":29026:29032   */\n      dup6\n        /* \"#utility.yul\":28982:29054   */\n      tag_321\n      jump\t// in\n    tag_700:\n        /* \"#utility.yul\":29064:29136   */\n      tag_701\n        /* \"#utility.yul\":29132:29134   */\n      0x40\n        /* \"#utility.yul\":29121:29130   */\n      dup4\n        /* \"#utility.yul\":29117:29135   */\n      add\n        /* \"#utility.yul\":29108:29114   */\n      dup5\n        /* \"#utility.yul\":29064:29136   */\n      tag_338\n      jump\t// in\n    tag_701:\n        /* \"#utility.yul\":28701:29143   */\n      swap5\n      swap4\n      pop\n      pop\n      pop\n      pop\n      jump\t// out\n        /* \"#utility.yul\":29149:29318   */\n    tag_392:\n        /* \"#utility.yul\":29289:29310   */\n      0x746f74616c2073686f756c642062652031303000000000000000000000000000\n        /* \"#utility.yul\":29285:29286   */\n      0x00\n        /* \"#utility.yul\":29277:29283   */\n      dup3\n        /* \"#utility.yul\":29273:29287   */\n      add\n        /* \"#utility.yul\":29266:29311   */\n      mstore\n        /* \"#utility.yul\":29149:29318   */\n      pop\n      jump\t// out\n        /* \"#utility.yul\":29324:29690   */\n    tag_393:\n        /* \"#utility.yul\":29466:29469   */\n      0x00\n        /* \"#utility.yul\":29487:29554   */\n      tag_704\n        /* \"#utility.yul\":29551:29553   */\n      0x13\n        /* \"#utility.yul\":29546:29549   */\n      dup4\n        /* \"#utility.yul\":29487:29554   */\n      tag_350\n      jump\t// in\n    tag_704:\n        /* \"#utility.yul\":29480:29554   */\n      swap2\n      pop\n        /* \"#utility.yul\":29563:29656   */\n      tag_705\n        /* \"#utility.yul\":29652:29655   */\n      dup3\n        /* \"#utility.yul\":29563:29656   */\n      tag_392\n      jump\t// in\n    tag_705:\n        /* \"#utility.yul\":29681:29683   */\n      0x20\n        /* \"#utility.yul\":29676:29679   */\n      dup3\n        /* \"#utility.yul\":29672:29684   */\n      add\n        /* \"#utility.yul\":29665:29684   */\n      swap1\n      pop\n        /* \"#utility.yul\":29324:29690   */\n      swap2\n      swap1\n      pop\n      jump\t// out\n        /* \"#utility.yul\":29696:30115   */\n    tag_313:\n        /* \"#utility.yul\":29862:29866   */\n      0x00\n        /* \"#utility.yul\":29900:29902   */\n      0x20\n        /* \"#utility.yul\":29889:29898   */\n      dup3\n        /* \"#utility.yul\":29885:29903   */\n      add\n        /* \"#utility.yul\":29877:29903   */\n      swap1\n      pop\n        /* \"#utility.yul\":29949:29958   */\n      dup2\n        /* \"#utility.yul\":29943:29947   */\n      dup2\n        /* \"#utility.yul\":29939:29959   */\n      sub\n        /* \"#utility.yul\":29935:29936   */\n      0x00\n        /* \"#utility.yul\":29924:29933   */\n      dup4\n        /* \"#utility.yul\":29920:29937   */\n      add\n        /* \"#utility.yul\":29913:29960   */\n      mstore\n        /* \"#utility.yul\":29977:30108   */\n      tag_707\n        /* \"#utility.yul\":30103:30107   */\n      dup2\n        /* \"#utility.yul\":29977:30108   */\n      tag_393\n      jump\t// in\n    tag_707:\n        /* \"#utility.yul\":29969:30108   */\n      swap1\n      pop\n        /* \"#utility.yul\":29696:30115   */\n      swap2\n      swap1\n      pop\n      jump\t// out\n        /* \"#utility.yul\":30121:30238   */\n    tag_394:\n        /* \"#utility.yul\":30230:30231   */\n      0x00\n        /* \"#utility.yul\":30227:30228   */\n      dup1\n        /* \"#utility.yul\":30220:30232   */\n      revert\n        /* \"#utility.yul\":30418:30868   */\n    tag_396:\n        /* \"#utility.yul\":30518:30523   */\n      0x00\n        /* \"#utility.yul\":30562:30566   */\n      0x20\n        /* \"#utility.yul\":30550:30559   */\n      dup3\n        /* \"#utility.yul\":30545:30548   */\n      dup5\n        /* \"#utility.yul\":30541:30560   */\n      sub\n        /* \"#utility.yul\":30537:30567   */\n      slt\n        /* \"#utility.yul\":30534:30651   */\n      iszero\n      tag_711\n      jumpi\n        /* \"#utility.yul\":30570:30649   */\n      tag_712\n      tag_394\n      jump\t// in\n    tag_712:\n        /* \"#utility.yul\":30534:30651   */\n    tag_711:\n        /* \"#utility.yul\":30669:30690   */\n      tag_713\n        /* \"#utility.yul\":30685:30689   */\n      0x20\n        /* \"#utility.yul\":30669:30690   */\n      tag_381\n      jump\t// in\n    tag_713:\n        /* \"#utility.yul\":30660:30690   */\n      swap1\n      pop\n        /* \"#utility.yul\":30749:30750   */\n      0x00\n        /* \"#utility.yul\":30789:30849   */\n      tag_714\n        /* \"#utility.yul\":30845:30848   */\n      dup5\n        /* \"#utility.yul\":30836:30842   */\n      dup3\n        /* \"#utility.yul\":30825:30834   */\n      dup6\n        /* \"#utility.yul\":30821:30843   */\n      add\n        /* \"#utility.yul\":30789:30849   */\n      tag_357\n      jump\t// in\n    tag_714:\n        /* \"#utility.yul\":30782:30786   */\n      0x00\n        /* \"#utility.yul\":30775:30780   */\n      dup4\n        /* \"#utility.yul\":30771:30787   */\n      add\n        /* \"#utility.yul\":30764:30850   */\n      mstore\n        /* \"#utility.yul\":30700:30861   */\n      pop\n        /* \"#utility.yul\":30418:30868   */\n      swap3\n      swap2\n      pop\n      pop\n      jump\t// out\n        /* \"#utility.yul\":30874:30996   */\n    tag_397:\n        /* \"#utility.yul\":30947:30971   */\n      tag_716\n        /* \"#utility.yul\":30965:30970   */\n      dup2\n        /* \"#utility.yul\":30947:30971   */\n      tag_347\n      jump\t// in\n    tag_716:\n        /* \"#utility.yul\":30940:30945   */\n      dup2\n        /* \"#utility.yul\":30937:30972   */\n      eq\n        /* \"#utility.yul\":30927:30990   */\n      tag_717\n      jumpi\n        /* \"#utility.yul\":30986:30987   */\n      0x00\n        /* \"#utility.yul\":30983:30984   */\n      dup1\n        /* \"#utility.yul\":30976:30988   */\n      revert\n        /* \"#utility.yul\":30927:30990   */\n    tag_717:\n        /* \"#utility.yul\":30874:30996   */\n      pop\n      jump\t// out\n        /* \"#utility.yul\":31002:31145   */\n    tag_398:\n        /* \"#utility.yul\":31059:31064   */\n      0x00\n        /* \"#utility.yul\":31090:31096   */\n      dup2\n        /* \"#utility.yul\":31084:31097   */\n      mload\n        /* \"#utility.yul\":31075:31097   */\n      swap1\n      pop\n        /* \"#utility.yul\":31106:31139   */\n      tag_719\n        /* \"#utility.yul\":31133:31138   */\n      dup2\n        /* \"#utility.yul\":31106:31139   */\n      tag_397\n      jump\t// in\n    tag_719:\n        /* \"#utility.yul\":31002:31145   */\n      swap3\n      swap2\n      pop\n      pop\n      jump\t// out\n        /* \"#utility.yul\":31151:31246   */\n    tag_399:\n        /* \"#utility.yul\":31187:31194   */\n      0x00\n        /* \"#utility.yul\":31227:31239   */\n      0xffffffffff\n        /* \"#utility.yul\":31220:31225   */\n      dup3\n        /* \"#utility.yul\":31216:31240   */\n      and\n        /* \"#utility.yul\":31205:31240   */\n      swap1\n      pop\n        /* \"#utility.yul\":31151:31246   */\n      swap2\n      swap1\n      pop\n      jump\t// out\n        /* \"#utility.yul\":31252:31372   */\n    tag_400:\n        /* \"#utility.yul\":31324:31347   */\n      tag_722\n        /* \"#utility.yul\":31341:31346   */\n      dup2\n        /* \"#utility.yul\":31324:31347   */\n      tag_399\n      jump\t// in\n    tag_722:\n        /* \"#utility.yul\":31317:31322   */\n      dup2\n        /* \"#utility.yul\":31314:31348   */\n      eq\n        /* \"#utility.yul\":31304:31366   */\n      tag_723\n      jumpi\n        /* \"#utility.yul\":31362:31363   */\n      0x00\n        /* \"#utility.yul\":31359:31360   */\n      dup1\n        /* \"#utility.yul\":31352:31364   */\n      revert\n        /* \"#utility.yul\":31304:31366   */\n    tag_723:\n        /* \"#utility.yul\":31252:31372   */\n      pop\n      jump\t// out\n        /* \"#utility.yul\":31378:31519   */\n    tag_401:\n        /* \"#utility.yul\":31434:31439   */\n      0x00\n        /* \"#utility.yul\":31465:31471   */\n      dup2\n        /* \"#utility.yul\":31459:31472   */\n      mload\n        /* \"#utility.yul\":31450:31472   */\n      swap1\n      pop\n        /* \"#utility.yul\":31481:31513   */\n      tag_725\n        /* \"#utility.yul\":31507:31512   */\n      dup2\n        /* \"#utility.yul\":31481:31513   */\n      tag_400\n      jump\t// in\n    tag_725:\n        /* \"#utility.yul\":31378:31519   */\n      swap3\n      swap2\n      pop\n      pop\n      jump\t// out\n        /* \"#utility.yul\":31525:31611   */\n    tag_402:\n        /* \"#utility.yul\":31560:31567   */\n      0x00\n        /* \"#utility.yul\":31600:31604   */\n      0xff\n        /* \"#utility.yul\":31593:31598   */\n      dup3\n        /* \"#utility.yul\":31589:31605   */\n      and\n        /* \"#utility.yul\":31578:31605   */\n      swap1\n      pop\n        /* \"#utility.yul\":31525:31611   */\n      swap2\n      swap1\n      pop\n      jump\t// out\n        /* \"#utility.yul\":31617:31735   */\n    tag_403:\n        /* \"#utility.yul\":31688:31710   */\n      tag_728\n        /* \"#utility.yul\":31704:31709   */\n      dup2\n        /* \"#utility.yul\":31688:31710   */\n      tag_402\n      jump\t// in\n    tag_728:\n        /* \"#utility.yul\":31681:31686   */\n      dup2\n        /* \"#utility.yul\":31678:31711   */\n      eq\n        /* \"#utility.yul\":31668:31729   */\n      tag_729\n      jumpi\n        /* \"#utility.yul\":31725:31726   */\n      0x00\n        /* \"#utility.yul\":31722:31723   */\n      dup1\n        /* \"#utility.yul\":31715:31727   */\n      revert\n        /* \"#utility.yul\":31668:31729   */\n    tag_729:\n        /* \"#utility.yul\":31617:31735   */\n      pop\n      jump\t// out\n        /* \"#utility.yul\":31741:31880   */\n    tag_404:\n        /* \"#utility.yul\":31796:31801   */\n      0x00\n        /* \"#utility.yul\":31827:31833   */\n      dup2\n        /* \"#utility.yul\":31821:31834   */\n      mload\n        /* \"#utility.yul\":31812:31834   */\n      swap1\n      pop\n        /* \"#utility.yul\":31843:31874   */\n      tag_731\n        /* \"#utility.yul\":31868:31873   */\n      dup2\n        /* \"#utility.yul\":31843:31874   */\n      tag_403\n      jump\t// in\n    tag_731:\n        /* \"#utility.yul\":31741:31880   */\n      swap3\n      swap2\n      pop\n      pop\n      jump\t// out\n        /* \"#utility.yul\":31925:34485   */\n    tag_405:\n        /* \"#utility.yul\":32013:32018   */\n      0x00\n        /* \"#utility.yul\":32057:32063   */\n      0x0180\n        /* \"#utility.yul\":32045:32054   */\n      dup3\n        /* \"#utility.yul\":32040:32043   */\n      dup5\n        /* \"#utility.yul\":32036:32055   */\n      sub\n        /* \"#utility.yul\":32032:32064   */\n      slt\n        /* \"#utility.yul\":32029:32148   */\n      iszero\n      tag_733\n      jumpi\n        /* \"#utility.yul\":32067:32146   */\n      tag_734\n      tag_394\n      jump\t// in\n    tag_734:\n        /* \"#utility.yul\":32029:32148   */\n    tag_733:\n        /* \"#utility.yul\":32166:32189   */\n      tag_735\n        /* \"#utility.yul\":32182:32188   */\n      0x0180\n        /* \"#utility.yul\":32166:32189   */\n      tag_381\n      jump\t// in\n    tag_735:\n        /* \"#utility.yul\":32157:32189   */\n      swap1\n      pop\n        /* \"#utility.yul\":32257:32258   */\n      0x00\n        /* \"#utility.yul\":32297:32397   */\n      tag_736\n        /* \"#utility.yul\":32393:32396   */\n      dup5\n        /* \"#utility.yul\":32384:32390   */\n      dup3\n        /* \"#utility.yul\":32373:32382   */\n      dup6\n        /* \"#utility.yul\":32369:32391   */\n      add\n        /* \"#utility.yul\":32297:32397   */\n      tag_396\n      jump\t// in\n    tag_736:\n        /* \"#utility.yul\":32290:32294   */\n      0x00\n        /* \"#utility.yul\":32283:32288   */\n      dup4\n        /* \"#utility.yul\":32279:32295   */\n      add\n        /* \"#utility.yul\":32272:32398   */\n      mstore\n        /* \"#utility.yul\":32199:32409   */\n      pop\n        /* \"#utility.yul\":32478:32480   */\n      0x20\n        /* \"#utility.yul\":32519:32579   */\n      tag_737\n        /* \"#utility.yul\":32575:32578   */\n      dup5\n        /* \"#utility.yul\":32566:32572   */\n      dup3\n        /* \"#utility.yul\":32555:32564   */\n      dup6\n        /* \"#utility.yul\":32551:32573   */\n      add\n        /* \"#utility.yul\":32519:32579   */\n      tag_398\n      jump\t// in\n    tag_737:\n        /* \"#utility.yul\":32512:32516   */\n      0x20\n        /* \"#utility.yul\":32505:32510   */\n      dup4\n        /* \"#utility.yul\":32501:32517   */\n      add\n        /* \"#utility.yul\":32494:32580   */\n      mstore\n        /* \"#utility.yul\":32419:32591   */\n      pop\n        /* \"#utility.yul\":32665:32667   */\n      0x40\n        /* \"#utility.yul\":32706:32766   */\n      tag_738\n        /* \"#utility.yul\":32762:32765   */\n      dup5\n        /* \"#utility.yul\":32753:32759   */\n      dup3\n        /* \"#utility.yul\":32742:32751   */\n      dup6\n        /* \"#utility.yul\":32738:32760   */\n      add\n        /* \"#utility.yul\":32706:32766   */\n      tag_398\n      jump\t// in\n    tag_738:\n        /* \"#utility.yul\":32699:32703   */\n      0x40\n        /* \"#utility.yul\":32692:32697   */\n      dup4\n        /* \"#utility.yul\":32688:32704   */\n      add\n        /* \"#utility.yul\":32681:32767   */\n      mstore\n        /* \"#utility.yul\":32601:32778   */\n      pop\n        /* \"#utility.yul\":32853:32855   */\n      0x60\n        /* \"#utility.yul\":32894:32954   */\n      tag_739\n        /* \"#utility.yul\":32950:32953   */\n      dup5\n        /* \"#utility.yul\":32941:32947   */\n      dup3\n        /* \"#utility.yul\":32930:32939   */\n      dup6\n        /* \"#utility.yul\":32926:32948   */\n      add\n        /* \"#utility.yul\":32894:32954   */\n      tag_398\n      jump\t// in\n    tag_739:\n        /* \"#utility.yul\":32887:32891   */\n      0x60\n        /* \"#utility.yul\":32880:32885   */\n      dup4\n        /* \"#utility.yul\":32876:32892   */\n      add\n        /* \"#utility.yul\":32869:32955   */\n      mstore\n        /* \"#utility.yul\":32788:32966   */\n      pop\n        /* \"#utility.yul\":33046:33049   */\n      0x80\n        /* \"#utility.yul\":33088:33148   */\n      tag_740\n        /* \"#utility.yul\":33144:33147   */\n      dup5\n        /* \"#utility.yul\":33135:33141   */\n      dup3\n        /* \"#utility.yul\":33124:33133   */\n      dup6\n        /* \"#utility.yul\":33120:33142   */\n      add\n        /* \"#utility.yul\":33088:33148   */\n      tag_398\n      jump\t// in\n    tag_740:\n        /* \"#utility.yul\":33081:33085   */\n      0x80\n        /* \"#utility.yul\":33074:33079   */\n      dup4\n        /* \"#utility.yul\":33070:33086   */\n      add\n        /* \"#utility.yul\":33063:33149   */\n      mstore\n        /* \"#utility.yul\":32976:33160   */\n      pop\n        /* \"#utility.yul\":33238:33241   */\n      0xa0\n        /* \"#utility.yul\":33280:33340   */\n      tag_741\n        /* \"#utility.yul\":33336:33339   */\n      dup5\n        /* \"#utility.yul\":33327:33333   */\n      dup3\n        /* \"#utility.yul\":33316:33325   */\n      dup6\n        /* \"#utility.yul\":33312:33334   */\n      add\n        /* \"#utility.yul\":33280:33340   */\n      tag_398\n      jump\t// in\n    tag_741:\n        /* \"#utility.yul\":33273:33277   */\n      0xa0\n        /* \"#utility.yul\":33266:33271   */\n      dup4\n        /* \"#utility.yul\":33262:33278   */\n      add\n        /* \"#utility.yul\":33255:33341   */\n      mstore\n        /* \"#utility.yul\":33170:33352   */\n      pop\n        /* \"#utility.yul\":33426:33429   */\n      0xc0\n        /* \"#utility.yul\":33468:33527   */\n      tag_742\n        /* \"#utility.yul\":33523:33526   */\n      dup5\n        /* \"#utility.yul\":33514:33520   */\n      dup3\n        /* \"#utility.yul\":33503:33512   */\n      dup6\n        /* \"#utility.yul\":33499:33521   */\n      add\n        /* \"#utility.yul\":33468:33527   */\n      tag_401\n      jump\t// in\n    tag_742:\n        /* \"#utility.yul\":33461:33465   */\n      0xc0\n        /* \"#utility.yul\":33454:33459   */\n      dup4\n        /* \"#utility.yul\":33450:33466   */\n      add\n        /* \"#utility.yul\":33443:33528   */\n      mstore\n        /* \"#utility.yul\":33362:33539   */\n      pop\n        /* \"#utility.yul\":33607:33610   */\n      0xe0\n        /* \"#utility.yul\":33649:33709   */\n      tag_743\n        /* \"#utility.yul\":33705:33708   */\n      dup5\n        /* \"#utility.yul\":33696:33702   */\n      dup3\n        /* \"#utility.yul\":33685:33694   */\n      dup6\n        /* \"#utility.yul\":33681:33703   */\n      add\n        /* \"#utility.yul\":33649:33709   */\n      tag_367\n      jump\t// in\n    tag_743:\n        /* \"#utility.yul\":33642:33646   */\n      0xe0\n        /* \"#utility.yul\":33635:33640   */\n      dup4\n        /* \"#utility.yul\":33631:33647   */\n      add\n        /* \"#utility.yul\":33624:33710   */\n      mstore\n        /* \"#utility.yul\":33549:33721   */\n      pop\n        /* \"#utility.yul\":33798:33801   */\n      0x0100\n        /* \"#utility.yul\":33842:33902   */\n      tag_744\n        /* \"#utility.yul\":33898:33901   */\n      dup5\n        /* \"#utility.yul\":33889:33895   */\n      dup3\n        /* \"#utility.yul\":33878:33887   */\n      dup6\n        /* \"#utility.yul\":33874:33896   */\n      add\n        /* \"#utility.yul\":33842:33902   */\n      tag_367\n      jump\t// in\n    tag_744:\n        /* \"#utility.yul\":33833:33839   */\n      0x0100\n        /* \"#utility.yul\":33826:33831   */\n      dup4\n        /* \"#utility.yul\":33822:33840   */\n      add\n        /* \"#utility.yul\":33815:33903   */\n      mstore\n        /* \"#utility.yul\":33731:33914   */\n      pop\n        /* \"#utility.yul\":33993:33996   */\n      0x0120\n        /* \"#utility.yul\":34037:34097   */\n      tag_745\n        /* \"#utility.yul\":34093:34096   */\n      dup5\n        /* \"#utility.yul\":34084:34090   */\n      dup3\n        /* \"#utility.yul\":34073:34082   */\n      dup6\n        /* \"#utility.yul\":34069:34091   */\n      add\n        /* \"#utility.yul\":34037:34097   */\n      tag_367\n      jump\t// in\n    tag_745:\n        /* \"#utility.yul\":34028:34034   */\n      0x0120\n        /* \"#utility.yul\":34021:34026   */\n      dup4\n        /* \"#utility.yul\":34017:34035   */\n      add\n        /* \"#utility.yul\":34010:34098   */\n      mstore\n        /* \"#utility.yul\":33924:34109   */\n      pop\n        /* \"#utility.yul\":34191:34194   */\n      0x0140\n        /* \"#utility.yul\":34235:34295   */\n      tag_746\n        /* \"#utility.yul\":34291:34294   */\n      dup5\n        /* \"#utility.yul\":34282:34288   */\n      dup3\n        /* \"#utility.yul\":34271:34280   */\n      dup6\n        /* \"#utility.yul\":34267:34289   */\n      add\n        /* \"#utility.yul\":34235:34295   */\n      tag_367\n      jump\t// in\n    tag_746:\n        /* \"#utility.yul\":34226:34232   */\n      0x0140\n        /* \"#utility.yul\":34219:34224   */\n      dup4\n        /* \"#utility.yul\":34215:34233   */\n      add\n        /* \"#utility.yul\":34208:34296   */\n      mstore\n        /* \"#utility.yul\":34119:34307   */\n      pop\n        /* \"#utility.yul\":34364:34367   */\n      0x0160\n        /* \"#utility.yul\":34408:34466   */\n      tag_747\n        /* \"#utility.yul\":34462:34465   */\n      dup5\n        /* \"#utility.yul\":34453:34459   */\n      dup3\n        /* \"#utility.yul\":34442:34451   */\n      dup6\n        /* \"#utility.yul\":34438:34460   */\n      add\n        /* \"#utility.yul\":34408:34466   */\n      tag_404\n      jump\t// in\n    tag_747:\n        /* \"#utility.yul\":34399:34405   */\n      0x0160\n        /* \"#utility.yul\":34392:34397   */\n      dup4\n        /* \"#utility.yul\":34388:34406   */\n      add\n        /* \"#utility.yul\":34381:34467   */\n      mstore\n        /* \"#utility.yul\":34317:34478   */\n      pop\n        /* \"#utility.yul\":31925:34485   */\n      swap3\n      swap2\n      pop\n      pop\n      jump\t// out\n        /* \"#utility.yul\":34491:34899   */\n    tag_319:\n        /* \"#utility.yul\":34589:34595   */\n      0x00\n        /* \"#utility.yul\":34638:34641   */\n      0x0180\n        /* \"#utility.yul\":34626:34635   */\n      dup3\n        /* \"#utility.yul\":34617:34624   */\n      dup5\n        /* \"#utility.yul\":34613:34636   */\n      sub\n        /* \"#utility.yul\":34609:34642   */\n      slt\n        /* \"#utility.yul\":34606:34726   */\n      iszero\n      tag_749\n      jumpi\n        /* \"#utility.yul\":34645:34724   */\n      tag_750\n      tag_323\n      jump\t// in\n    tag_750:\n        /* \"#utility.yul\":34606:34726   */\n    tag_749:\n        /* \"#utility.yul\":34765:34766   */\n      0x00\n        /* \"#utility.yul\":34790:34882   */\n      tag_751\n        /* \"#utility.yul\":34874:34881   */\n      dup5\n        /* \"#utility.yul\":34865:34871   */\n      dup3\n        /* \"#utility.yul\":34854:34863   */\n      dup6\n        /* \"#utility.yul\":34850:34872   */\n      add\n        /* \"#utility.yul\":34790:34882   */\n      tag_405\n      jump\t// in\n    tag_751:\n        /* \"#utility.yul\":34780:34882   */\n      swap2\n      pop\n        /* \"#utility.yul\":34736:34892   */\n      pop\n        /* \"#utility.yul\":34491:34899   */\n      swap3\n      swap2\n      pop\n      pop\n      jump\t// out\n\n    auxdata: 0xa26469706673582212203e17933c823ed159bee9efb97d2b85a983d226fe26734f514ab956a4a42bef0e64736f6c63430008130033\n}\n",
				"bytecode": {
					"linkReferences": {},
					"object": "60a06040526301e13380608090815250603260075560326008553480156200002657600080fd5b50604051620035ba380380620035ba83398181016040528101906200004c9190620002d4565b6200005d33620001ad60201b60201c565b84600260006101000a81548173ffffffffffffffffffffffffffffffffffffffff021916908373ffffffffffffffffffffffffffffffffffffffff16021790555083600460006101000a81548173ffffffffffffffffffffffffffffffffffffffff021916908373ffffffffffffffffffffffffffffffffffffffff16021790555082600360006101000a81548173ffffffffffffffffffffffffffffffffffffffff021916908373ffffffffffffffffffffffffffffffffffffffff16021790555081600560006101000a81548173ffffffffffffffffffffffffffffffffffffffff021916908373ffffffffffffffffffffffffffffffffffffffff16021790555080600660006101000a81548173ffffffffffffffffffffffffffffffffffffffff021916908373ffffffffffffffffffffffffffffffffffffffff16021790555050505050506200035c565b8073ffffffffffffffffffffffffffffffffffffffff1660008054906101000a900473ffffffffffffffffffffffffffffffffffffffff1673ffffffffffffffffffffffffffffffffffffffff167f8be0079c531659141344cd1fd0a4f28419497f9722a3daafe3b4186f6b6457e060405160405180910390a3806000806101000a81548173ffffffffffffffffffffffffffffffffffffffff021916908373ffffffffffffffffffffffffffffffffffffffff16021790555050565b600080fd5b600073ffffffffffffffffffffffffffffffffffffffff82169050919050565b60006200029c826200026f565b9050919050565b620002ae816200028f565b8114620002ba57600080fd5b50565b600081519050620002ce81620002a3565b92915050565b600080600080600060a08688031215620002f357620002f26200026a565b5b60006200030388828901620002bd565b95505060206200031688828901620002bd565b94505060406200032988828901620002bd565b93505060606200033c88828901620002bd565b92505060806200034f88828901620002bd565b9150509295509295909350565b60805161323b6200037f600039600081816108840152610f89015261323b6000f3fe608060405234801561001057600080fd5b50600436106101425760003560e01c80639d741e5d116100b8578063d4ee1d901161007c578063d4ee1d901461035d578063d522dd961461037b578063ef1b3166146103ab578063f2fde38b146103db578063f785ccd0146103f7578063fea54e021461042757610142565b80639d741e5d146102b5578063a741ff7c146102d3578063b1c7f1f2146102f1578063b583ba9c1461030f578063c40ce80f1461032d57610142565b806352d66e9c1161010a57806352d66e9c1461020157806370fe251b1461021f57806372eb856b1461023d57806377b53ece1461025b57806379ba5097146102795780638da5cb5b1461029757610142565b8063042f6d0c146101475780632a9b20be146101655780634746e0cc1461019557806351e8fa94146101c557806352bff014146101e3575b600080fd5b61014f610457565b60405161015c91906120ef565b60405180910390f35b61017f600480360381019061017a919061214a565b610478565b60405161018c9190612192565b60405180910390f35b6101af60048036038101906101aa919061214a565b6105ac565b6040516101bc9190612192565b60405180910390f35b6101cd610850565b6040516101da91906120ef565b60405180910390f35b6101eb6108e1565b6040516101f8919061222c565b60405180910390f35b610209610907565b60405161021691906120ef565b60405180910390f35b61022761090d565b6040516102349190612268565b60405180910390f35b610245610933565b60405161025291906120ef565b60405180910390f35b610263610939565b60405161027091906122a4565b60405180910390f35b61028161095f565b60405161028e9190612192565b60405180910390f35b61029f610b38565b6040516102ac91906122e0565b60405180910390f35b6102bd610b5c565b6040516102ca91906122a4565b60405180910390f35b6102db610b82565b6040516102e891906120ef565b60405180910390f35b6102f9610fcc565b604051610306919061231c565b60405180910390f35b610317610ff2565b6040516103249190612192565b60405180910390f35b6103476004803603810190610342919061214a565b6112cb565b6040516103549190612192565b60405180910390f35b61036561190e565b60405161037291906122e0565b60405180910390f35b6103956004803603810190610390919061214a565b611934565b6040516103a29190612192565b60405180910390f35b6103c560048036038101906103c09190612337565b611a10565b6040516103d29190612192565b60405180910390f35b6103f560048036038101906103f091906123a3565b611e5f565b005b610411600480360381019061040c9190612337565b611f31565b60405161041e9190612192565b60405180910390f35b610441600480360381019061043c91906123fc565b612027565b60405161044e9190612454565b60405180910390f35b6000610461610b82565b610469610850565b610473919061249e565b905090565b60008082116104bc576040517f08c379a00000000000000000000000000000000000000000000000000000000081526004016104b39061252f565b60405180910390fd5b6000600560009054906101000a900473ffffffffffffffffffffffffffffffffffffffff1690508073ffffffffffffffffffffffffffffffffffffffff166323b872dd3330866040518463ffffffff1660e01b81526004016105209392919061254f565b6020604051808303816000875af115801561053f573d6000803e3d6000fd5b505050506040513d601f19601f8201168201806040525081019061056391906125b2565b6105a2576040517f08c379a00000000000000000000000000000000000000000000000000000000081526004016105999061262b565b60405180910390fd5b6001915050919050565b60008082116105f0576040517f08c379a00000000000000000000000000000000000000000000000000000000081526004016105e79061252f565b60405180910390fd5b81600560009054906101000a900473ffffffffffffffffffffffffffffffffffffffff1673ffffffffffffffffffffffffffffffffffffffff166370a08231306040518263ffffffff1660e01b815260040161064c91906122a4565b602060405180830381865afa158015610669573d6000803e3d6000fd5b505050506040513d601f19601f8201168201806040525081019061068d9190612660565b10156106ce576040517f08c379a00000000000000000000000000000000000000000000000000000000081526004016106c5906126d9565b60405180910390fd5b600560009054906101000a900473ffffffffffffffffffffffffffffffffffffffff1673ffffffffffffffffffffffffffffffffffffffff1663095ea7b3600360009054906101000a900473ffffffffffffffffffffffffffffffffffffffff16846040518363ffffffff1660e01b815260040161074d9291906126f9565b6020604051808303816000875af115801561076c573d6000803e3d6000fd5b505050506040513d601f19601f8201168201806040525081019061079091906125b2565b50600360009054906101000a900473ffffffffffffffffffffffffffffffffffffffff1673ffffffffffffffffffffffffffffffffffffffff1663e8eda9df600560009054906101000a900473ffffffffffffffffffffffffffffffffffffffff16843060006040518563ffffffff1660e01b8152600401610815949392919061276b565b600060405180830381600087803b15801561082f57600080fd5b505af1158015610843573d6000803e3d6000fd5b5050505060019050919050565b60008061087e600560009054906101000a900473ffffffffffffffffffffffffffffffffffffffff16612027565b905060007f0000000000000000000000000000000000000000000000000000000000000000651792f86480006108b491906127df565b9050600081836fffffffffffffffffffffffffffffffff166108d69190612810565b905080935050505090565b600260009054906101000a900473ffffffffffffffffffffffffffffffffffffffff1681565b60085481565b600460009054906101000a900473ffffffffffffffffffffffffffffffffffffffff1681565b60075481565b600560009054906101000a900473ffffffffffffffffffffffffffffffffffffffff1681565b6000600160009054906101000a900473ffffffffffffffffffffffffffffffffffffffff1673ffffffffffffffffffffffffffffffffffffffff163373ffffffffffffffffffffffffffffffffffffffff16146109f1576040517f08c379a00000000000000000000000000000000000000000000000000000000081526004016109e89061289e565b60405180910390fd5b600160009054906101000a900473ffffffffffffffffffffffffffffffffffffffff166000806101000a81548173ffffffffffffffffffffffffffffffffffffffff021916908373ffffffffffffffffffffffffffffffffffffffff160217905550600160009054906101000a900473ffffffffffffffffffffffffffffffffffffffff1673ffffffffffffffffffffffffffffffffffffffff1660008054906101000a900473ffffffffffffffffffffffffffffffffffffffff1673ffffffffffffffffffffffffffffffffffffffff167f8be0079c531659141344cd1fd0a4f28419497f9722a3daafe3b4186f6b6457e060405160405180910390a36000600160006101000a81548173ffffffffffffffffffffffffffffffffffffffff021916908373ffffffffffffffffffffffffffffffffffffffff1602179055506001905090565b60008054906101000a900473ffffffffffffffffffffffffffffffffffffffff1681565b600660009054906101000a900473ffffffffffffffffffffffffffffffffffffffff1681565b600080600460009054906101000a900473ffffffffffffffffffffffffffffffffffffffff1673ffffffffffffffffffffffffffffffffffffffff1663e6a43905600560009054906101000a900473ffffffffffffffffffffffffffffffffffffffff16600660009054906101000a900473ffffffffffffffffffffffffffffffffffffffff166040518363ffffffff1660e01b8152600401610c269291906128be565b602060405180830381865afa158015610c43573d6000803e3d6000fd5b505050506040513d601f19601f82011682018060405250810190610c6791906128fc565b905060008173ffffffffffffffffffffffffffffffffffffffff166318160ddd6040518163ffffffff1660e01b8152600401602060405180830381865afa158015610cb6573d6000803e3d6000fd5b505050506040513d601f19601f82011682018060405250810190610cda9190612660565b905060008273ffffffffffffffffffffffffffffffffffffffff166370a08231306040518263ffffffff1660e01b8152600401610d1791906122a4565b602060405180830381865afa158015610d34573d6000803e3d6000fd5b505050506040513d601f19601f82011682018060405250810190610d589190612660565b90506000600267ffffffffffffffff811115610d7757610d76612929565b5b604051908082528060200260200182016040528015610da55781602001602082028036833780820191505090505b509050600560009054906101000a900473ffffffffffffffffffffffffffffffffffffffff1681600081518110610ddf57610dde612958565b5b602002602001019073ffffffffffffffffffffffffffffffffffffffff16908173ffffffffffffffffffffffffffffffffffffffff1681525050600660009054906101000a900473ffffffffffffffffffffffffffffffffffffffff1681600181518110610e5057610e4f612958565b5b602002602001019073ffffffffffffffffffffffffffffffffffffffff16908173ffffffffffffffffffffffffffffffffffffffff16815250506000600260009054906101000a900473ffffffffffffffffffffffffffffffffffffffff1673ffffffffffffffffffffffffffffffffffffffff1663d06ca61f6001846040518363ffffffff1660e01b8152600401610eea929190612a80565b600060405180830381865afa158015610f07573d6000803e3d6000fd5b505050506040513d6000823e3d601f19601f82011682018060405250810190610f309190612bda565b600181518110610f4357610f42612958565b5b6020026020010151905060006103e86003868685610f619190612810565b610f6b91906127df565b610f759190612810565b610f7f91906127df565b9050600062278d007f000000000000000000000000000000000000000000000000000000000000000083610fb39190612810565b610fbd91906127df565b90508097505050505050505090565b600360009054906101000a900473ffffffffffffffffffffffffffffffffffffffff1681565b600080600660009054906101000a900473ffffffffffffffffffffffffffffffffffffffff1673ffffffffffffffffffffffffffffffffffffffff166370a08231306040518263ffffffff1660e01b815260040161105091906122a4565b602060405180830381865afa15801561106d573d6000803e3d6000fd5b505050506040513d601f19601f820116820180604052508101906110919190612660565b90506000600560009054906101000a900473ffffffffffffffffffffffffffffffffffffffff1673ffffffffffffffffffffffffffffffffffffffff166370a08231306040518263ffffffff1660e01b81526004016110f091906122a4565b602060405180830381865afa15801561110d573d6000803e3d6000fd5b505050506040513d601f19601f820116820180604052508101906111319190612660565b905060008211156111de57600660009054906101000a900473ffffffffffffffffffffffffffffffffffffffff1673ffffffffffffffffffffffffffffffffffffffff1663a9059cbb33846040518363ffffffff1660e01b81526004016111999291906126f9565b6020604051808303816000875af11580156111b8573d6000803e3d6000fd5b505050506040513d601f19601f820116820180604052508101906111dc91906125b2565b505b600081111561128957600560009054906101000a900473ffffffffffffffffffffffffffffffffffffffff1673ffffffffffffffffffffffffffffffffffffffff1663a9059cbb33836040518363ffffffff1660e01b81526004016112449291906126f9565b6020604051808303816000875af1158015611263573d6000803e3d6000fd5b505050506040513d601f19601f8201168201806040525081019061128791906125b2565b505b7f1cf458cfc40a8e6a6fffcd0094e5551264fd5e735f80a31e7195412023d12a5a81836040516112ba929190612c23565b60405180910390a160019250505090565b600080821161130f576040517f08c379a00000000000000000000000000000000000000000000000000000000081526004016113069061252f565b60405180910390fd5b81600560009054906101000a900473ffffffffffffffffffffffffffffffffffffffff1673ffffffffffffffffffffffffffffffffffffffff166370a08231306040518263ffffffff1660e01b815260040161136b91906122a4565b602060405180830381865afa158015611388573d6000803e3d6000fd5b505050506040513d601f19601f820116820180604052508101906113ac9190612660565b10156113ed576040517f08c379a00000000000000000000000000000000000000000000000000000000081526004016113e4906126d9565b60405180910390fd5b60006002836113fc91906127df565b9050600560009054906101000a900473ffffffffffffffffffffffffffffffffffffffff1673ffffffffffffffffffffffffffffffffffffffff1663095ea7b3600260009054906101000a900473ffffffffffffffffffffffffffffffffffffffff16856040518363ffffffff1660e01b815260040161147d9291906126f9565b6020604051808303816000875af115801561149c573d6000803e3d6000fd5b505050506040513d601f19601f820116820180604052508101906114c091906125b2565b506000600267ffffffffffffffff8111156114de576114dd612929565b5b60405190808252806020026020018201604052801561150c5781602001602082028036833780820191505090505b509050600560009054906101000a900473ffffffffffffffffffffffffffffffffffffffff168160008151811061154657611545612958565b5b602002602001019073ffffffffffffffffffffffffffffffffffffffff16908173ffffffffffffffffffffffffffffffffffffffff1681525050600660009054906101000a900473ffffffffffffffffffffffffffffffffffffffff16816001815181106115b7576115b6612958565b5b602002602001019073ffffffffffffffffffffffffffffffffffffffff16908173ffffffffffffffffffffffffffffffffffffffff1681525050600260009054906101000a900473ffffffffffffffffffffffffffffffffffffffff1673ffffffffffffffffffffffffffffffffffffffff166338ed1739836000843061025842611642919061249e565b6040518663ffffffff1660e01b8152600401611662959493929190612c7d565b6000604051808303816000875af1158015611681573d6000803e3d6000fd5b505050506040513d6000823e3d601f19601f820116820180604052508101906116aa9190612bda565b506000600660009054906101000a900473ffffffffffffffffffffffffffffffffffffffff1673ffffffffffffffffffffffffffffffffffffffff166370a08231306040518263ffffffff1660e01b815260040161170891906122a4565b602060405180830381865afa158015611725573d6000803e3d6000fd5b505050506040513d601f19601f820116820180604052508101906117499190612660565b9050600660009054906101000a900473ffffffffffffffffffffffffffffffffffffffff1673ffffffffffffffffffffffffffffffffffffffff1663095ea7b3600260009054906101000a900473ffffffffffffffffffffffffffffffffffffffff16836040518363ffffffff1660e01b81526004016117ca9291906126f9565b6020604051808303816000875af11580156117e9573d6000803e3d6000fd5b505050506040513d601f19601f8201168201806040525081019061180d91906125b2565b50600260009054906101000a900473ffffffffffffffffffffffffffffffffffffffff1673ffffffffffffffffffffffffffffffffffffffff1663e8e33700600560009054906101000a900473ffffffffffffffffffffffffffffffffffffffff16600660009054906101000a900473ffffffffffffffffffffffffffffffffffffffff16868560018030426040518963ffffffff1660e01b81526004016118bc989796959493929190612cd7565b6060604051808303816000875af11580156118db573d6000803e3d6000fd5b505050506040513d601f19601f820116820180604052508101906118ff9190612d55565b50505060019350505050919050565b600160009054906101000a900473ffffffffffffffffffffffffffffffffffffffff1681565b600061193f82610478565b61197e576040517f08c379a000000000000000000000000000000000000000000000000000000000815260040161197590612df4565b60405180910390fd5b60006064600754846119909190612810565b61199a91906127df565b905060006064600854856119ae9190612810565b6119b891906127df565b90506119c3816105ac565b506119cd826112cb565b507fd30fc8a1b5907be76206421a3040262f1f6aed0d418c05312ef5ff8de0c9ae4c846040516119fd91906120ef565b60405180910390a1600192505050919050565b60003373ffffffffffffffffffffffffffffffffffffffff1660008054906101000a900473ffffffffffffffffffffffffffffffffffffffff1673ffffffffffffffffffffffffffffffffffffffff1614611aa0576040517f08c379a0000000000000000000000000000000000000000000000000000000008152600401611a9790612e60565b60405180910390fd5b60008311611ae3576040517f08c379a0000000000000000000000000000000000000000000000000000000008152600401611ada9061252f565b60405180910390fd5b60018203611d68576000600460009054906101000a900473ffffffffffffffffffffffffffffffffffffffff1673ffffffffffffffffffffffffffffffffffffffff1663e6a43905600560009054906101000a900473ffffffffffffffffffffffffffffffffffffffff16600660009054906101000a900473ffffffffffffffffffffffffffffffffffffffff166040518363ffffffff1660e01b8152600401611b8e9291906128be565b602060405180830381865afa158015611bab573d6000803e3d6000fd5b505050506040513d601f19601f82011682018060405250810190611bcf91906128fc565b90508073ffffffffffffffffffffffffffffffffffffffff1663095ea7b3600260009054906101000a900473ffffffffffffffffffffffffffffffffffffffff16866040518363ffffffff1660e01b8152600401611c2e9291906126f9565b6020604051808303816000875af1158015611c4d573d6000803e3d6000fd5b505050506040513d601f19601f82011682018060405250810190611c7191906125b2565b50600260009054906101000a900473ffffffffffffffffffffffffffffffffffffffff1673ffffffffffffffffffffffffffffffffffffffff1663baa2abde600560009054906101000a900473ffffffffffffffffffffffffffffffffffffffff16600660009054906101000a900473ffffffffffffffffffffffffffffffffffffffff168760018030426040518863ffffffff1660e01b8152600401611d1e9796959493929190612e80565b60408051808303816000875af1158015611d3c573d6000803e3d6000fd5b505050506040513d601f19601f82011682018060405250810190611d609190612eef565b505050611e1c565b600360009054906101000a900473ffffffffffffffffffffffffffffffffffffffff1673ffffffffffffffffffffffffffffffffffffffff166369328dec600560009054906101000a900473ffffffffffffffffffffffffffffffffffffffff1685306040518463ffffffff1660e01b8152600401611de993929190612f2f565b600060405180830381600087803b158015611e0357600080fd5b505af1158015611e17573d6000803e3d6000fd5b505050505b7fa9c4e7142b50777bc004c81693bd532cbdaf27fffc387d8f20d1e5a605cdfbe78383604051611e4d929190612c23565b60405180910390a16001905092915050565b3373ffffffffffffffffffffffffffffffffffffffff1660008054906101000a900473ffffffffffffffffffffffffffffffffffffffff1673ffffffffffffffffffffffffffffffffffffffff1614611eed576040517f08c379a0000000000000000000000000000000000000000000000000000000008152600401611ee490612e60565b60405180910390fd5b80600160006101000a81548173ffffffffffffffffffffffffffffffffffffffff021916908373ffffffffffffffffffffffffffffffffffffffff16021790555050565b60003373ffffffffffffffffffffffffffffffffffffffff1660008054906101000a900473ffffffffffffffffffffffffffffffffffffffff1673ffffffffffffffffffffffffffffffffffffffff1614611fc1576040517f08c379a0000000000000000000000000000000000000000000000000000000008152600401611fb890612e60565b60405180910390fd5b60648284611fcf919061249e565b1461200f576040517f08c379a000000000000000000000000000000000000000000000000000000000815260040161200690612fb2565b60405180910390fd5b82600781905550816008819055506001905092915050565b600080600360009054906101000a900473ffffffffffffffffffffffffffffffffffffffff1673ffffffffffffffffffffffffffffffffffffffff166335ea6a75846040518263ffffffff1660e01b815260040161208591906122a4565b61018060405180830381865afa1580156120a3573d6000803e3d6000fd5b505050506040513d601f19601f820116820180604052508101906120c791906131d7565b90508060600151915050919050565b6000819050919050565b6120e9816120d6565b82525050565b600060208201905061210460008301846120e0565b92915050565b6000604051905090565b600080fd5b600080fd5b612127816120d6565b811461213257600080fd5b50565b6000813590506121448161211e565b92915050565b6000602082840312156121605761215f612114565b5b600061216e84828501612135565b91505092915050565b60008115159050919050565b61218c81612177565b82525050565b60006020820190506121a76000830184612183565b92915050565b600073ffffffffffffffffffffffffffffffffffffffff82169050919050565b6000819050919050565b60006121f26121ed6121e8846121ad565b6121cd565b6121ad565b9050919050565b6000612204826121d7565b9050919050565b6000612216826121f9565b9050919050565b6122268161220b565b82525050565b6000602082019050612241600083018461221d565b92915050565b6000612252826121f9565b9050919050565b61226281612247565b82525050565b600060208201905061227d6000830184612259565b92915050565b600061228e826121ad565b9050919050565b61229e81612283565b82525050565b60006020820190506122b96000830184612295565b92915050565b60006122ca826121ad565b9050919050565b6122da816122bf565b82525050565b60006020820190506122f560008301846122d1565b92915050565b6000612306826121f9565b9050919050565b612316816122fb565b82525050565b6000602082019050612331600083018461230d565b92915050565b6000806040838503121561234e5761234d612114565b5b600061235c85828601612135565b925050602061236d85828601612135565b9150509250929050565b612380816122bf565b811461238b57600080fd5b50565b60008135905061239d81612377565b92915050565b6000602082840312156123b9576123b8612114565b5b60006123c78482850161238e565b91505092915050565b6123d981612283565b81146123e457600080fd5b50565b6000813590506123f6816123d0565b92915050565b60006020828403121561241257612411612114565b5b6000612420848285016123e7565b91505092915050565b60006fffffffffffffffffffffffffffffffff82169050919050565b61244e81612429565b82525050565b60006020820190506124696000830184612445565b92915050565b7f4e487b7100000000000000000000000000000000000000000000000000000000600052601160045260246000fd5b60006124a9826120d6565b91506124b4836120d6565b92508282019050808211156124cc576124cb61246f565b5b92915050565b600082825260208201905092915050565b7f616d6f756e742063616e27742062652030000000000000000000000000000000600082015250565b60006125196011836124d2565b9150612524826124e3565b602082019050919050565b600060208201905081810360008301526125488161250c565b9050919050565b60006060820190506125646000830186612295565b6125716020830185612295565b61257e60408301846120e0565b949350505050565b61258f81612177565b811461259a57600080fd5b50565b6000815190506125ac81612586565b92915050565b6000602082840312156125c8576125c7612114565b5b60006125d68482850161259d565b91505092915050565b7f4661696c656420746f207472616e736665722055534443000000000000000000600082015250565b60006126156017836124d2565b9150612620826125df565b602082019050919050565b6000602082019050818103600083015261264481612608565b9050919050565b60008151905061265a8161211e565b92915050565b60006020828403121561267657612675612114565b5b60006126848482850161264b565b91505092915050565b7f6e6f7420656e6f7567682066756e647300000000000000000000000000000000600082015250565b60006126c36010836124d2565b91506126ce8261268d565b602082019050919050565b600060208201905081810360008301526126f2816126b6565b9050919050565b600060408201905061270e6000830185612295565b61271b60208301846120e0565b9392505050565b6000819050919050565b600061ffff82169050919050565b600061275561275061274b84612722565b6121cd565b61272c565b9050919050565b6127658161273a565b82525050565b60006080820190506127806000830187612295565b61278d60208301866120e0565b61279a6040830185612295565b6127a7606083018461275c565b95945050505050565b7f4e487b7100000000000000000000000000000000000000000000000000000000600052601260045260246000fd5b60006127ea826120d6565b91506127f5836120d6565b925082612805576128046127b0565b5b828204905092915050565b600061281b826120d6565b9150612826836120d6565b9250828202612834816120d6565b9150828204841483151761284b5761284a61246f565b5b5092915050565b7f4552525f4f4e4c595f4e45575f4f574e45520000000000000000000000000000600082015250565b60006128886012836124d2565b915061289382612852565b602082019050919050565b600060208201905081810360008301526128b78161287b565b9050919050565b60006040820190506128d36000830185612295565b6128e06020830184612295565b9392505050565b6000815190506128f6816123d0565b92915050565b60006020828403121561291257612911612114565b5b6000612920848285016128e7565b91505092915050565b7f4e487b7100000000000000000000000000000000000000000000000000000000600052604160045260246000fd5b7f4e487b7100000000000000000000000000000000000000000000000000000000600052603260045260246000fd5b6000819050919050565b60006129ac6129a76129a284612987565b6121cd565b6120d6565b9050919050565b6129bc81612991565b82525050565b600081519050919050565b600082825260208201905092915050565b6000819050602082019050919050565b6129f781612283565b82525050565b6000612a0983836129ee565b60208301905092915050565b6000602082019050919050565b6000612a2d826129c2565b612a3781856129cd565b9350612a42836129de565b8060005b83811015612a73578151612a5a88826129fd565b9750612a6583612a15565b925050600181019050612a46565b5085935050505092915050565b6000604082019050612a9560008301856129b3565b8181036020830152612aa78184612a22565b90509392505050565b600080fd5b6000601f19601f8301169050919050565b612acf82612ab5565b810181811067ffffffffffffffff82111715612aee57612aed612929565b5b80604052505050565b6000612b0161210a565b9050612b0d8282612ac6565b919050565b600067ffffffffffffffff821115612b2d57612b2c612929565b5b602082029050602081019050919050565b600080fd5b6000612b56612b5184612b12565b612af7565b90508083825260208201905060208402830185811115612b7957612b78612b3e565b5b835b81811015612ba25780612b8e888261264b565b845260208401935050602081019050612b7b565b5050509392505050565b600082601f830112612bc157612bc0612ab0565b5b8151612bd1848260208601612b43565b91505092915050565b600060208284031215612bf057612bef612114565b5b600082015167ffffffffffffffff811115612c0e57612c0d612119565b5b612c1a84828501612bac565b91505092915050565b6000604082019050612c3860008301856120e0565b612c4560208301846120e0565b9392505050565b6000612c67612c62612c5d84612722565b6121cd565b6120d6565b9050919050565b612c7781612c4c565b82525050565b600060a082019050612c9260008301886120e0565b612c9f6020830187612c6e565b8181036040830152612cb18186612a22565b9050612cc06060830185612295565b612ccd60808301846120e0565b9695505050505050565b600061010082019050612ced600083018b612295565b612cfa602083018a612295565b612d0760408301896120e0565b612d1460608301886120e0565b612d2160808301876129b3565b612d2e60a08301866129b3565b612d3b60c0830185612295565b612d4860e08301846120e0565b9998505050505050505050565b600080600060608486031215612d6e57612d6d612114565b5b6000612d7c8682870161264b565b9350506020612d8d8682870161264b565b9250506040612d9e8682870161264b565b9150509250925092565b7f66756e64206465706f736974206661696c656400000000000000000000000000600082015250565b6000612dde6013836124d2565b9150612de982612da8565b602082019050919050565b60006020820190508181036000830152612e0d81612dd1565b9050919050565b7f4552525f415554484f52495a45445f414444524553535f4f4e4c590000000000600082015250565b6000612e4a601b836124d2565b9150612e5582612e14565b602082019050919050565b60006020820190508181036000830152612e7981612e3d565b9050919050565b600060e082019050612e95600083018a612295565b612ea26020830189612295565b612eaf60408301886120e0565b612ebc60608301876129b3565b612ec960808301866129b3565b612ed660a0830185612295565b612ee360c08301846120e0565b98975050505050505050565b60008060408385031215612f0657612f05612114565b5b6000612f148582860161264b565b9250506020612f258582860161264b565b9150509250929050565b6000606082019050612f446000830186612295565b612f5160208301856120e0565b612f5e6040830184612295565b949350505050565b7f746f74616c2073686f756c642062652031303000000000000000000000000000600082015250565b6000612f9c6013836124d2565b9150612fa782612f66565b602082019050919050565b60006020820190508181036000830152612fcb81612f8f565b9050919050565b600080fd5b600060208284031215612fed57612fec612fd2565b5b612ff76020612af7565b905060006130078482850161264b565b60008301525092915050565b61301c81612429565b811461302757600080fd5b50565b60008151905061303981613013565b92915050565b600064ffffffffff82169050919050565b6130598161303f565b811461306457600080fd5b50565b60008151905061307681613050565b92915050565b600060ff82169050919050565b6130928161307c565b811461309d57600080fd5b50565b6000815190506130af81613089565b92915050565b600061018082840312156130cc576130cb612fd2565b5b6130d7610180612af7565b905060006130e784828501612fd7565b60008301525060206130fb8482850161302a565b602083015250604061310f8482850161302a565b60408301525060606131238482850161302a565b60608301525060806131378482850161302a565b60808301525060a061314b8482850161302a565b60a08301525060c061315f84828501613067565b60c08301525060e0613173848285016128e7565b60e083015250610100613188848285016128e7565b6101008301525061012061319e848285016128e7565b610120830152506101406131b4848285016128e7565b610140830152506101606131ca848285016130a0565b6101608301525092915050565b600061018082840312156131ee576131ed612114565b5b60006131fc848285016130b5565b9150509291505056fea26469706673582212203e17933c823ed159bee9efb97d2b85a983d226fe26734f514ab956a4a42bef0e64736f6c63430008130033",
					"opcodes": "PUSH1 0xA0 PUSH1 0x40 MSTORE PUSH4 0x1E13380 PUSH1 0x80 SWAP1 DUP2 MSTORE POP PUSH1 0x32 PUSH1 0x7 SSTORE PUSH1 0x32 PUSH1 0x8 SSTORE CALLVALUE DUP1 ISZERO PUSH3 0x26 JUMPI PUSH1 0x0 DUP1 REVERT JUMPDEST POP PUSH1 0x40 MLOAD PUSH3 0x35BA CODESIZE SUB DUP1 PUSH3 0x35BA DUP4 CODECOPY DUP2 DUP2 ADD PUSH1 0x40 MSTORE DUP2 ADD SWAP1 PUSH3 0x4C SWAP2 SWAP1 PUSH3 0x2D4 JUMP JUMPDEST PUSH3 0x5D CALLER PUSH3 0x1AD PUSH1 0x20 SHL PUSH1 0x20 SHR JUMP JUMPDEST DUP5 PUSH1 0x2 PUSH1 0x0 PUSH2 0x100 EXP DUP2 SLOAD DUP2 PUSH20 0xFFFFFFFFFFFFFFFFFFFFFFFFFFFFFFFFFFFFFFFF MUL NOT AND SWAP1 DUP4 PUSH20 0xFFFFFFFFFFFFFFFFFFFFFFFFFFFFFFFFFFFFFFFF AND MUL OR SWAP1 SSTORE POP DUP4 PUSH1 0x4 PUSH1 0x0 PUSH2 0x100 EXP DUP2 SLOAD DUP2 PUSH20 0xFFFFFFFFFFFFFFFFFFFFFFFFFFFFFFFFFFFFFFFF MUL NOT AND SWAP1 DUP4 PUSH20 0xFFFFFFFFFFFFFFFFFFFFFFFFFFFFFFFFFFFFFFFF AND MUL OR SWAP1 SSTORE POP DUP3 PUSH1 0x3 PUSH1 0x0 PUSH2 0x100 EXP DUP2 SLOAD DUP2 PUSH20 0xFFFFFFFFFFFFFFFFFFFFFFFFFFFFFFFFFFFFFFFF MUL NOT AND SWAP1 DUP4 PUSH20 0xFFFFFFFFFFFFFFFFFFFFFFFFFFFFFFFFFFFFFFFF AND MUL OR SWAP1 SSTORE POP DUP2 PUSH1 0x5 PUSH1 0x0 PUSH2 0x100 EXP DUP2 SLOAD DUP2 PUSH20 0xFFFFFFFFFFFFFFFFFFFFFFFFFFFFFFFFFFFFFFFF MUL NOT AND SWAP1 DUP4 PUSH20 0xFFFFFFFFFFFFFFFFFFFFFFFFFFFFFFFFFFFFFFFF AND MUL OR SWAP1 SSTORE POP DUP1 PUSH1 0x6 PUSH1 0x0 PUSH2 0x100 EXP DUP2 SLOAD DUP2 PUSH20 0xFFFFFFFFFFFFFFFFFFFFFFFFFFFFFFFFFFFFFFFF MUL NOT AND SWAP1 DUP4 PUSH20 0xFFFFFFFFFFFFFFFFFFFFFFFFFFFFFFFFFFFFFFFF AND MUL OR SWAP1 SSTORE POP POP POP POP POP POP PUSH3 0x35C JUMP JUMPDEST DUP1 PUSH20 0xFFFFFFFFFFFFFFFFFFFFFFFFFFFFFFFFFFFFFFFF AND PUSH1 0x0 DUP1 SLOAD SWAP1 PUSH2 0x100 EXP SWAP1 DIV PUSH20 0xFFFFFFFFFFFFFFFFFFFFFFFFFFFFFFFFFFFFFFFF AND PUSH20 0xFFFFFFFFFFFFFFFFFFFFFFFFFFFFFFFFFFFFFFFF AND PUSH32 0x8BE0079C531659141344CD1FD0A4F28419497F9722A3DAAFE3B4186F6B6457E0 PUSH1 0x40 MLOAD PUSH1 0x40 MLOAD DUP1 SWAP2 SUB SWAP1 LOG3 DUP1 PUSH1 0x0 DUP1 PUSH2 0x100 EXP DUP2 SLOAD DUP2 PUSH20 0xFFFFFFFFFFFFFFFFFFFFFFFFFFFFFFFFFFFFFFFF MUL NOT AND SWAP1 DUP4 PUSH20 0xFFFFFFFFFFFFFFFFFFFFFFFFFFFFFFFFFFFFFFFF AND MUL OR SWAP1 SSTORE POP POP JUMP JUMPDEST PUSH1 0x0 DUP1 REVERT JUMPDEST PUSH1 0x0 PUSH20 0xFFFFFFFFFFFFFFFFFFFFFFFFFFFFFFFFFFFFFFFF DUP3 AND SWAP1 POP SWAP2 SWAP1 POP JUMP JUMPDEST PUSH1 0x0 PUSH3 0x29C DUP3 PUSH3 0x26F JUMP JUMPDEST SWAP1 POP SWAP2 SWAP1 POP JUMP JUMPDEST PUSH3 0x2AE DUP2 PUSH3 0x28F JUMP JUMPDEST DUP2 EQ PUSH3 0x2BA JUMPI PUSH1 0x0 DUP1 REVERT JUMPDEST POP JUMP JUMPDEST PUSH1 0x0 DUP2 MLOAD SWAP1 POP PUSH3 0x2CE DUP2 PUSH3 0x2A3 JUMP JUMPDEST SWAP3 SWAP2 POP POP JUMP JUMPDEST PUSH1 0x0 DUP1 PUSH1 0x0 DUP1 PUSH1 0x0 PUSH1 0xA0 DUP7 DUP9 SUB SLT ISZERO PUSH3 0x2F3 JUMPI PUSH3 0x2F2 PUSH3 0x26A JUMP JUMPDEST JUMPDEST PUSH1 0x0 PUSH3 0x303 DUP9 DUP3 DUP10 ADD PUSH3 0x2BD JUMP JUMPDEST SWAP6 POP POP PUSH1 0x20 PUSH3 0x316 DUP9 DUP3 DUP10 ADD PUSH3 0x2BD JUMP JUMPDEST SWAP5 POP POP PUSH1 0x40 PUSH3 0x329 DUP9 DUP3 DUP10 ADD PUSH3 0x2BD JUMP JUMPDEST SWAP4 POP POP PUSH1 0x60 PUSH3 0x33C DUP9 DUP3 DUP10 ADD PUSH3 0x2BD JUMP JUMPDEST SWAP3 POP POP PUSH1 0x80 PUSH3 0x34F DUP9 DUP3 DUP10 ADD PUSH3 0x2BD JUMP JUMPDEST SWAP2 POP POP SWAP3 SWAP6 POP SWAP3 SWAP6 SWAP1 SWAP4 POP JUMP JUMPDEST PUSH1 0x80 MLOAD PUSH2 0x323B PUSH3 0x37F PUSH1 0x0 CODECOPY PUSH1 0x0 DUP2 DUP2 PUSH2 0x884 ADD MSTORE PUSH2 0xF89 ADD MSTORE PUSH2 0x323B PUSH1 0x0 RETURN INVALID PUSH1 0x80 PUSH1 0x40 MSTORE CALLVALUE DUP1 ISZERO PUSH2 0x10 JUMPI PUSH1 0x0 DUP1 REVERT JUMPDEST POP PUSH1 0x4 CALLDATASIZE LT PUSH2 0x142 JUMPI PUSH1 0x0 CALLDATALOAD PUSH1 0xE0 SHR DUP1 PUSH4 0x9D741E5D GT PUSH2 0xB8 JUMPI DUP1 PUSH4 0xD4EE1D90 GT PUSH2 0x7C JUMPI DUP1 PUSH4 0xD4EE1D90 EQ PUSH2 0x35D JUMPI DUP1 PUSH4 0xD522DD96 EQ PUSH2 0x37B JUMPI DUP1 PUSH4 0xEF1B3166 EQ PUSH2 0x3AB JUMPI DUP1 PUSH4 0xF2FDE38B EQ PUSH2 0x3DB JUMPI DUP1 PUSH4 0xF785CCD0 EQ PUSH2 0x3F7 JUMPI DUP1 PUSH4 0xFEA54E02 EQ PUSH2 0x427 JUMPI PUSH2 0x142 JUMP JUMPDEST DUP1 PUSH4 0x9D741E5D EQ PUSH2 0x2B5 JUMPI DUP1 PUSH4 0xA741FF7C EQ PUSH2 0x2D3 JUMPI DUP1 PUSH4 0xB1C7F1F2 EQ PUSH2 0x2F1 JUMPI DUP1 PUSH4 0xB583BA9C EQ PUSH2 0x30F JUMPI DUP1 PUSH4 0xC40CE80F EQ PUSH2 0x32D JUMPI PUSH2 0x142 JUMP JUMPDEST DUP1 PUSH4 0x52D66E9C GT PUSH2 0x10A JUMPI DUP1 PUSH4 0x52D66E9C EQ PUSH2 0x201 JUMPI DUP1 PUSH4 0x70FE251B EQ PUSH2 0x21F JUMPI DUP1 PUSH4 0x72EB856B EQ PUSH2 0x23D JUMPI DUP1 PUSH4 0x77B53ECE EQ PUSH2 0x25B JUMPI DUP1 PUSH4 0x79BA5097 EQ PUSH2 0x279 JUMPI DUP1 PUSH4 0x8DA5CB5B EQ PUSH2 0x297 JUMPI PUSH2 0x142 JUMP JUMPDEST DUP1 PUSH4 0x42F6D0C EQ PUSH2 0x147 JUMPI DUP1 PUSH4 0x2A9B20BE EQ PUSH2 0x165 JUMPI DUP1 PUSH4 0x4746E0CC EQ PUSH2 0x195 JUMPI DUP1 PUSH4 0x51E8FA94 EQ PUSH2 0x1C5 JUMPI DUP1 PUSH4 0x52BFF014 EQ PUSH2 0x1E3 JUMPI JUMPDEST PUSH1 0x0 DUP1 REVERT JUMPDEST PUSH2 0x14F PUSH2 0x457 JUMP JUMPDEST PUSH1 0x40 MLOAD PUSH2 0x15C SWAP2 SWAP1 PUSH2 0x20EF JUMP JUMPDEST PUSH1 0x40 MLOAD DUP1 SWAP2 SUB SWAP1 RETURN JUMPDEST PUSH2 0x17F PUSH1 0x4 DUP1 CALLDATASIZE SUB DUP2 ADD SWAP1 PUSH2 0x17A SWAP2 SWAP1 PUSH2 0x214A JUMP JUMPDEST PUSH2 0x478 JUMP JUMPDEST PUSH1 0x40 MLOAD PUSH2 0x18C SWAP2 SWAP1 PUSH2 0x2192 JUMP JUMPDEST PUSH1 0x40 MLOAD DUP1 SWAP2 SUB SWAP1 RETURN JUMPDEST PUSH2 0x1AF PUSH1 0x4 DUP1 CALLDATASIZE SUB DUP2 ADD SWAP1 PUSH2 0x1AA SWAP2 SWAP1 PUSH2 0x214A JUMP JUMPDEST PUSH2 0x5AC JUMP JUMPDEST PUSH1 0x40 MLOAD PUSH2 0x1BC SWAP2 SWAP1 PUSH2 0x2192 JUMP JUMPDEST PUSH1 0x40 MLOAD DUP1 SWAP2 SUB SWAP1 RETURN JUMPDEST PUSH2 0x1CD PUSH2 0x850 JUMP JUMPDEST PUSH1 0x40 MLOAD PUSH2 0x1DA SWAP2 SWAP1 PUSH2 0x20EF JUMP JUMPDEST PUSH1 0x40 MLOAD DUP1 SWAP2 SUB SWAP1 RETURN JUMPDEST PUSH2 0x1EB PUSH2 0x8E1 JUMP JUMPDEST PUSH1 0x40 MLOAD PUSH2 0x1F8 SWAP2 SWAP1 PUSH2 0x222C JUMP JUMPDEST PUSH1 0x40 MLOAD DUP1 SWAP2 SUB SWAP1 RETURN JUMPDEST PUSH2 0x209 PUSH2 0x907 JUMP JUMPDEST PUSH1 0x40 MLOAD PUSH2 0x216 SWAP2 SWAP1 PUSH2 0x20EF JUMP JUMPDEST PUSH1 0x40 MLOAD DUP1 SWAP2 SUB SWAP1 RETURN JUMPDEST PUSH2 0x227 PUSH2 0x90D JUMP JUMPDEST PUSH1 0x40 MLOAD PUSH2 0x234 SWAP2 SWAP1 PUSH2 0x2268 JUMP JUMPDEST PUSH1 0x40 MLOAD DUP1 SWAP2 SUB SWAP1 RETURN JUMPDEST PUSH2 0x245 PUSH2 0x933 JUMP JUMPDEST PUSH1 0x40 MLOAD PUSH2 0x252 SWAP2 SWAP1 PUSH2 0x20EF JUMP JUMPDEST PUSH1 0x40 MLOAD DUP1 SWAP2 SUB SWAP1 RETURN JUMPDEST PUSH2 0x263 PUSH2 0x939 JUMP JUMPDEST PUSH1 0x40 MLOAD PUSH2 0x270 SWAP2 SWAP1 PUSH2 0x22A4 JUMP JUMPDEST PUSH1 0x40 MLOAD DUP1 SWAP2 SUB SWAP1 RETURN JUMPDEST PUSH2 0x281 PUSH2 0x95F JUMP JUMPDEST PUSH1 0x40 MLOAD PUSH2 0x28E SWAP2 SWAP1 PUSH2 0x2192 JUMP JUMPDEST PUSH1 0x40 MLOAD DUP1 SWAP2 SUB SWAP1 RETURN JUMPDEST PUSH2 0x29F PUSH2 0xB38 JUMP JUMPDEST PUSH1 0x40 MLOAD PUSH2 0x2AC SWAP2 SWAP1 PUSH2 0x22E0 JUMP JUMPDEST PUSH1 0x40 MLOAD DUP1 SWAP2 SUB SWAP1 RETURN JUMPDEST PUSH2 0x2BD PUSH2 0xB5C JUMP JUMPDEST PUSH1 0x40 MLOAD PUSH2 0x2CA SWAP2 SWAP1 PUSH2 0x22A4 JUMP JUMPDEST PUSH1 0x40 MLOAD DUP1 SWAP2 SUB SWAP1 RETURN JUMPDEST PUSH2 0x2DB PUSH2 0xB82 JUMP JUMPDEST PUSH1 0x40 MLOAD PUSH2 0x2E8 SWAP2 SWAP1 PUSH2 0x20EF JUMP JUMPDEST PUSH1 0x40 MLOAD DUP1 SWAP2 SUB SWAP1 RETURN JUMPDEST PUSH2 0x2F9 PUSH2 0xFCC JUMP JUMPDEST PUSH1 0x40 MLOAD PUSH2 0x306 SWAP2 SWAP1 PUSH2 0x231C JUMP JUMPDEST PUSH1 0x40 MLOAD DUP1 SWAP2 SUB SWAP1 RETURN JUMPDEST PUSH2 0x317 PUSH2 0xFF2 JUMP JUMPDEST PUSH1 0x40 MLOAD PUSH2 0x324 SWAP2 SWAP1 PUSH2 0x2192 JUMP JUMPDEST PUSH1 0x40 MLOAD DUP1 SWAP2 SUB SWAP1 RETURN JUMPDEST PUSH2 0x347 PUSH1 0x4 DUP1 CALLDATASIZE SUB DUP2 ADD SWAP1 PUSH2 0x342 SWAP2 SWAP1 PUSH2 0x214A JUMP JUMPDEST PUSH2 0x12CB JUMP JUMPDEST PUSH1 0x40 MLOAD PUSH2 0x354 SWAP2 SWAP1 PUSH2 0x2192 JUMP JUMPDEST PUSH1 0x40 MLOAD DUP1 SWAP2 SUB SWAP1 RETURN JUMPDEST PUSH2 0x365 PUSH2 0x190E JUMP JUMPDEST PUSH1 0x40 MLOAD PUSH2 0x372 SWAP2 SWAP1 PUSH2 0x22E0 JUMP JUMPDEST PUSH1 0x40 MLOAD DUP1 SWAP2 SUB SWAP1 RETURN JUMPDEST PUSH2 0x395 PUSH1 0x4 DUP1 CALLDATASIZE SUB DUP2 ADD SWAP1 PUSH2 0x390 SWAP2 SWAP1 PUSH2 0x214A JUMP JUMPDEST PUSH2 0x1934 JUMP JUMPDEST PUSH1 0x40 MLOAD PUSH2 0x3A2 SWAP2 SWAP1 PUSH2 0x2192 JUMP JUMPDEST PUSH1 0x40 MLOAD DUP1 SWAP2 SUB SWAP1 RETURN JUMPDEST PUSH2 0x3C5 PUSH1 0x4 DUP1 CALLDATASIZE SUB DUP2 ADD SWAP1 PUSH2 0x3C0 SWAP2 SWAP1 PUSH2 0x2337 JUMP JUMPDEST PUSH2 0x1A10 JUMP JUMPDEST PUSH1 0x40 MLOAD PUSH2 0x3D2 SWAP2 SWAP1 PUSH2 0x2192 JUMP JUMPDEST PUSH1 0x40 MLOAD DUP1 SWAP2 SUB SWAP1 RETURN JUMPDEST PUSH2 0x3F5 PUSH1 0x4 DUP1 CALLDATASIZE SUB DUP2 ADD SWAP1 PUSH2 0x3F0 SWAP2 SWAP1 PUSH2 0x23A3 JUMP JUMPDEST PUSH2 0x1E5F JUMP JUMPDEST STOP JUMPDEST PUSH2 0x411 PUSH1 0x4 DUP1 CALLDATASIZE SUB DUP2 ADD SWAP1 PUSH2 0x40C SWAP2 SWAP1 PUSH2 0x2337 JUMP JUMPDEST PUSH2 0x1F31 JUMP JUMPDEST PUSH1 0x40 MLOAD PUSH2 0x41E SWAP2 SWAP1 PUSH2 0x2192 JUMP JUMPDEST PUSH1 0x40 MLOAD DUP1 SWAP2 SUB SWAP1 RETURN JUMPDEST PUSH2 0x441 PUSH1 0x4 DUP1 CALLDATASIZE SUB DUP2 ADD SWAP1 PUSH2 0x43C SWAP2 SWAP1 PUSH2 0x23FC JUMP JUMPDEST PUSH2 0x2027 JUMP JUMPDEST PUSH1 0x40 MLOAD PUSH2 0x44E SWAP2 SWAP1 PUSH2 0x2454 JUMP JUMPDEST PUSH1 0x40 MLOAD DUP1 SWAP2 SUB SWAP1 RETURN JUMPDEST PUSH1 0x0 PUSH2 0x461 PUSH2 0xB82 JUMP JUMPDEST PUSH2 0x469 PUSH2 0x850 JUMP JUMPDEST PUSH2 0x473 SWAP2 SWAP1 PUSH2 0x249E JUMP JUMPDEST SWAP1 POP SWAP1 JUMP JUMPDEST PUSH1 0x0 DUP1 DUP3 GT PUSH2 0x4BC JUMPI PUSH1 0x40 MLOAD PUSH32 0x8C379A000000000000000000000000000000000000000000000000000000000 DUP2 MSTORE PUSH1 0x4 ADD PUSH2 0x4B3 SWAP1 PUSH2 0x252F JUMP JUMPDEST PUSH1 0x40 MLOAD DUP1 SWAP2 SUB SWAP1 REVERT JUMPDEST PUSH1 0x0 PUSH1 0x5 PUSH1 0x0 SWAP1 SLOAD SWAP1 PUSH2 0x100 EXP SWAP1 DIV PUSH20 0xFFFFFFFFFFFFFFFFFFFFFFFFFFFFFFFFFFFFFFFF AND SWAP1 POP DUP1 PUSH20 0xFFFFFFFFFFFFFFFFFFFFFFFFFFFFFFFFFFFFFFFF AND PUSH4 0x23B872DD CALLER ADDRESS DUP7 PUSH1 0x40 MLOAD DUP5 PUSH4 0xFFFFFFFF AND PUSH1 0xE0 SHL DUP2 MSTORE PUSH1 0x4 ADD PUSH2 0x520 SWAP4 SWAP3 SWAP2 SWAP1 PUSH2 0x254F JUMP JUMPDEST PUSH1 0x20 PUSH1 0x40 MLOAD DUP1 DUP4 SUB DUP2 PUSH1 0x0 DUP8 GAS CALL ISZERO DUP1 ISZERO PUSH2 0x53F JUMPI RETURNDATASIZE PUSH1 0x0 DUP1 RETURNDATACOPY RETURNDATASIZE PUSH1 0x0 REVERT JUMPDEST POP POP POP POP PUSH1 0x40 MLOAD RETURNDATASIZE PUSH1 0x1F NOT PUSH1 0x1F DUP3 ADD AND DUP3 ADD DUP1 PUSH1 0x40 MSTORE POP DUP2 ADD SWAP1 PUSH2 0x563 SWAP2 SWAP1 PUSH2 0x25B2 JUMP JUMPDEST PUSH2 0x5A2 JUMPI PUSH1 0x40 MLOAD PUSH32 0x8C379A000000000000000000000000000000000000000000000000000000000 DUP2 MSTORE PUSH1 0x4 ADD PUSH2 0x599 SWAP1 PUSH2 0x262B JUMP JUMPDEST PUSH1 0x40 MLOAD DUP1 SWAP2 SUB SWAP1 REVERT JUMPDEST PUSH1 0x1 SWAP2 POP POP SWAP2 SWAP1 POP JUMP JUMPDEST PUSH1 0x0 DUP1 DUP3 GT PUSH2 0x5F0 JUMPI PUSH1 0x40 MLOAD PUSH32 0x8C379A000000000000000000000000000000000000000000000000000000000 DUP2 MSTORE PUSH1 0x4 ADD PUSH2 0x5E7 SWAP1 PUSH2 0x252F JUMP JUMPDEST PUSH1 0x40 MLOAD DUP1 SWAP2 SUB SWAP1 REVERT JUMPDEST DUP2 PUSH1 0x5 PUSH1 0x0 SWAP1 SLOAD SWAP1 PUSH2 0x100 EXP SWAP1 DIV PUSH20 0xFFFFFFFFFFFFFFFFFFFFFFFFFFFFFFFFFFFFFFFF AND PUSH20 0xFFFFFFFFFFFFFFFFFFFFFFFFFFFFFFFFFFFFFFFF AND PUSH4 0x70A08231 ADDRESS PUSH1 0x40 MLOAD DUP3 PUSH4 0xFFFFFFFF AND PUSH1 0xE0 SHL DUP2 MSTORE PUSH1 0x4 ADD PUSH2 0x64C SWAP2 SWAP1 PUSH2 0x22A4 JUMP JUMPDEST PUSH1 0x20 PUSH1 0x40 MLOAD DUP1 DUP4 SUB DUP2 DUP7 GAS STATICCALL ISZERO DUP1 ISZERO PUSH2 0x669 JUMPI RETURNDATASIZE PUSH1 0x0 DUP1 RETURNDATACOPY RETURNDATASIZE PUSH1 0x0 REVERT JUMPDEST POP POP POP POP PUSH1 0x40 MLOAD RETURNDATASIZE PUSH1 0x1F NOT PUSH1 0x1F DUP3 ADD AND DUP3 ADD DUP1 PUSH1 0x40 MSTORE POP DUP2 ADD SWAP1 PUSH2 0x68D SWAP2 SWAP1 PUSH2 0x2660 JUMP JUMPDEST LT ISZERO PUSH2 0x6CE JUMPI PUSH1 0x40 MLOAD PUSH32 0x8C379A000000000000000000000000000000000000000000000000000000000 DUP2 MSTORE PUSH1 0x4 ADD PUSH2 0x6C5 SWAP1 PUSH2 0x26D9 JUMP JUMPDEST PUSH1 0x40 MLOAD DUP1 SWAP2 SUB SWAP1 REVERT JUMPDEST PUSH1 0x5 PUSH1 0x0 SWAP1 SLOAD SWAP1 PUSH2 0x100 EXP SWAP1 DIV PUSH20 0xFFFFFFFFFFFFFFFFFFFFFFFFFFFFFFFFFFFFFFFF AND PUSH20 0xFFFFFFFFFFFFFFFFFFFFFFFFFFFFFFFFFFFFFFFF AND PUSH4 0x95EA7B3 PUSH1 0x3 PUSH1 0x0 SWAP1 SLOAD SWAP1 PUSH2 0x100 EXP SWAP1 DIV PUSH20 0xFFFFFFFFFFFFFFFFFFFFFFFFFFFFFFFFFFFFFFFF AND DUP5 PUSH1 0x40 MLOAD DUP4 PUSH4 0xFFFFFFFF AND PUSH1 0xE0 SHL DUP2 MSTORE PUSH1 0x4 ADD PUSH2 0x74D SWAP3 SWAP2 SWAP1 PUSH2 0x26F9 JUMP JUMPDEST PUSH1 0x20 PUSH1 0x40 MLOAD DUP1 DUP4 SUB DUP2 PUSH1 0x0 DUP8 GAS CALL ISZERO DUP1 ISZERO PUSH2 0x76C JUMPI RETURNDATASIZE PUSH1 0x0 DUP1 RETURNDATACOPY RETURNDATASIZE PUSH1 0x0 REVERT JUMPDEST POP POP POP POP PUSH1 0x40 MLOAD RETURNDATASIZE PUSH1 0x1F NOT PUSH1 0x1F DUP3 ADD AND DUP3 ADD DUP1 PUSH1 0x40 MSTORE POP DUP2 ADD SWAP1 PUSH2 0x790 SWAP2 SWAP1 PUSH2 0x25B2 JUMP JUMPDEST POP PUSH1 0x3 PUSH1 0x0 SWAP1 SLOAD SWAP1 PUSH2 0x100 EXP SWAP1 DIV PUSH20 0xFFFFFFFFFFFFFFFFFFFFFFFFFFFFFFFFFFFFFFFF AND PUSH20 0xFFFFFFFFFFFFFFFFFFFFFFFFFFFFFFFFFFFFFFFF AND PUSH4 0xE8EDA9DF PUSH1 0x5 PUSH1 0x0 SWAP1 SLOAD SWAP1 PUSH2 0x100 EXP SWAP1 DIV PUSH20 0xFFFFFFFFFFFFFFFFFFFFFFFFFFFFFFFFFFFFFFFF AND DUP5 ADDRESS PUSH1 0x0 PUSH1 0x40 MLOAD DUP6 PUSH4 0xFFFFFFFF AND PUSH1 0xE0 SHL DUP2 MSTORE PUSH1 0x4 ADD PUSH2 0x815 SWAP5 SWAP4 SWAP3 SWAP2 SWAP1 PUSH2 0x276B JUMP JUMPDEST PUSH1 0x0 PUSH1 0x40 MLOAD DUP1 DUP4 SUB DUP2 PUSH1 0x0 DUP8 DUP1 EXTCODESIZE ISZERO DUP1 ISZERO PUSH2 0x82F JUMPI PUSH1 0x0 DUP1 REVERT JUMPDEST POP GAS CALL ISZERO DUP1 ISZERO PUSH2 0x843 JUMPI RETURNDATASIZE PUSH1 0x0 DUP1 RETURNDATACOPY RETURNDATASIZE PUSH1 0x0 REVERT JUMPDEST POP POP POP POP PUSH1 0x1 SWAP1 POP SWAP2 SWAP1 POP JUMP JUMPDEST PUSH1 0x0 DUP1 PUSH2 0x87E PUSH1 0x5 PUSH1 0x0 SWAP1 SLOAD SWAP1 PUSH2 0x100 EXP SWAP1 DIV PUSH20 0xFFFFFFFFFFFFFFFFFFFFFFFFFFFFFFFFFFFFFFFF AND PUSH2 0x2027 JUMP JUMPDEST SWAP1 POP PUSH1 0x0 PUSH32 0x0 PUSH6 0x1792F8648000 PUSH2 0x8B4 SWAP2 SWAP1 PUSH2 0x27DF JUMP JUMPDEST SWAP1 POP PUSH1 0x0 DUP2 DUP4 PUSH16 0xFFFFFFFFFFFFFFFFFFFFFFFFFFFFFFFF AND PUSH2 0x8D6 SWAP2 SWAP1 PUSH2 0x2810 JUMP JUMPDEST SWAP1 POP DUP1 SWAP4 POP POP POP POP SWAP1 JUMP JUMPDEST PUSH1 0x2 PUSH1 0x0 SWAP1 SLOAD SWAP1 PUSH2 0x100 EXP SWAP1 DIV PUSH20 0xFFFFFFFFFFFFFFFFFFFFFFFFFFFFFFFFFFFFFFFF AND DUP2 JUMP JUMPDEST PUSH1 0x8 SLOAD DUP2 JUMP JUMPDEST PUSH1 0x4 PUSH1 0x0 SWAP1 SLOAD SWAP1 PUSH2 0x100 EXP SWAP1 DIV PUSH20 0xFFFFFFFFFFFFFFFFFFFFFFFFFFFFFFFFFFFFFFFF AND DUP2 JUMP JUMPDEST PUSH1 0x7 SLOAD DUP2 JUMP JUMPDEST PUSH1 0x5 PUSH1 0x0 SWAP1 SLOAD SWAP1 PUSH2 0x100 EXP SWAP1 DIV PUSH20 0xFFFFFFFFFFFFFFFFFFFFFFFFFFFFFFFFFFFFFFFF AND DUP2 JUMP JUMPDEST PUSH1 0x0 PUSH1 0x1 PUSH1 0x0 SWAP1 SLOAD SWAP1 PUSH2 0x100 EXP SWAP1 DIV PUSH20 0xFFFFFFFFFFFFFFFFFFFFFFFFFFFFFFFFFFFFFFFF AND PUSH20 0xFFFFFFFFFFFFFFFFFFFFFFFFFFFFFFFFFFFFFFFF AND CALLER PUSH20 0xFFFFFFFFFFFFFFFFFFFFFFFFFFFFFFFFFFFFFFFF AND EQ PUSH2 0x9F1 JUMPI PUSH1 0x40 MLOAD PUSH32 0x8C379A000000000000000000000000000000000000000000000000000000000 DUP2 MSTORE PUSH1 0x4 ADD PUSH2 0x9E8 SWAP1 PUSH2 0x289E JUMP JUMPDEST PUSH1 0x40 MLOAD DUP1 SWAP2 SUB SWAP1 REVERT JUMPDEST PUSH1 0x1 PUSH1 0x0 SWAP1 SLOAD SWAP1 PUSH2 0x100 EXP SWAP1 DIV PUSH20 0xFFFFFFFFFFFFFFFFFFFFFFFFFFFFFFFFFFFFFFFF AND PUSH1 0x0 DUP1 PUSH2 0x100 EXP DUP2 SLOAD DUP2 PUSH20 0xFFFFFFFFFFFFFFFFFFFFFFFFFFFFFFFFFFFFFFFF MUL NOT AND SWAP1 DUP4 PUSH20 0xFFFFFFFFFFFFFFFFFFFFFFFFFFFFFFFFFFFFFFFF AND MUL OR SWAP1 SSTORE POP PUSH1 0x1 PUSH1 0x0 SWAP1 SLOAD SWAP1 PUSH2 0x100 EXP SWAP1 DIV PUSH20 0xFFFFFFFFFFFFFFFFFFFFFFFFFFFFFFFFFFFFFFFF AND PUSH20 0xFFFFFFFFFFFFFFFFFFFFFFFFFFFFFFFFFFFFFFFF AND PUSH1 0x0 DUP1 SLOAD SWAP1 PUSH2 0x100 EXP SWAP1 DIV PUSH20 0xFFFFFFFFFFFFFFFFFFFFFFFFFFFFFFFFFFFFFFFF AND PUSH20 0xFFFFFFFFFFFFFFFFFFFFFFFFFFFFFFFFFFFFFFFF AND PUSH32 0x8BE0079C531659141344CD1FD0A4F28419497F9722A3DAAFE3B4186F6B6457E0 PUSH1 0x40 MLOAD PUSH1 0x40 MLOAD DUP1 SWAP2 SUB SWAP1 LOG3 PUSH1 0x0 PUSH1 0x1 PUSH1 0x0 PUSH2 0x100 EXP DUP2 SLOAD DUP2 PUSH20 0xFFFFFFFFFFFFFFFFFFFFFFFFFFFFFFFFFFFFFFFF MUL NOT AND SWAP1 DUP4 PUSH20 0xFFFFFFFFFFFFFFFFFFFFFFFFFFFFFFFFFFFFFFFF AND MUL OR SWAP1 SSTORE POP PUSH1 0x1 SWAP1 POP SWAP1 JUMP JUMPDEST PUSH1 0x0 DUP1 SLOAD SWAP1 PUSH2 0x100 EXP SWAP1 DIV PUSH20 0xFFFFFFFFFFFFFFFFFFFFFFFFFFFFFFFFFFFFFFFF AND DUP2 JUMP JUMPDEST PUSH1 0x6 PUSH1 0x0 SWAP1 SLOAD SWAP1 PUSH2 0x100 EXP SWAP1 DIV PUSH20 0xFFFFFFFFFFFFFFFFFFFFFFFFFFFFFFFFFFFFFFFF AND DUP2 JUMP JUMPDEST PUSH1 0x0 DUP1 PUSH1 0x4 PUSH1 0x0 SWAP1 SLOAD SWAP1 PUSH2 0x100 EXP SWAP1 DIV PUSH20 0xFFFFFFFFFFFFFFFFFFFFFFFFFFFFFFFFFFFFFFFF AND PUSH20 0xFFFFFFFFFFFFFFFFFFFFFFFFFFFFFFFFFFFFFFFF AND PUSH4 0xE6A43905 PUSH1 0x5 PUSH1 0x0 SWAP1 SLOAD SWAP1 PUSH2 0x100 EXP SWAP1 DIV PUSH20 0xFFFFFFFFFFFFFFFFFFFFFFFFFFFFFFFFFFFFFFFF AND PUSH1 0x6 PUSH1 0x0 SWAP1 SLOAD SWAP1 PUSH2 0x100 EXP SWAP1 DIV PUSH20 0xFFFFFFFFFFFFFFFFFFFFFFFFFFFFFFFFFFFFFFFF AND PUSH1 0x40 MLOAD DUP4 PUSH4 0xFFFFFFFF AND PUSH1 0xE0 SHL DUP2 MSTORE PUSH1 0x4 ADD PUSH2 0xC26 SWAP3 SWAP2 SWAP1 PUSH2 0x28BE JUMP JUMPDEST PUSH1 0x20 PUSH1 0x40 MLOAD DUP1 DUP4 SUB DUP2 DUP7 GAS STATICCALL ISZERO DUP1 ISZERO PUSH2 0xC43 JUMPI RETURNDATASIZE PUSH1 0x0 DUP1 RETURNDATACOPY RETURNDATASIZE PUSH1 0x0 REVERT JUMPDEST POP POP POP POP PUSH1 0x40 MLOAD RETURNDATASIZE PUSH1 0x1F NOT PUSH1 0x1F DUP3 ADD AND DUP3 ADD DUP1 PUSH1 0x40 MSTORE POP DUP2 ADD SWAP1 PUSH2 0xC67 SWAP2 SWAP1 PUSH2 0x28FC JUMP JUMPDEST SWAP1 POP PUSH1 0x0 DUP2 PUSH20 0xFFFFFFFFFFFFFFFFFFFFFFFFFFFFFFFFFFFFFFFF AND PUSH4 0x18160DDD PUSH1 0x40 MLOAD DUP2 PUSH4 0xFFFFFFFF AND PUSH1 0xE0 SHL DUP2 MSTORE PUSH1 0x4 ADD PUSH1 0x20 PUSH1 0x40 MLOAD DUP1 DUP4 SUB DUP2 DUP7 GAS STATICCALL ISZERO DUP1 ISZERO PUSH2 0xCB6 JUMPI RETURNDATASIZE PUSH1 0x0 DUP1 RETURNDATACOPY RETURNDATASIZE PUSH1 0x0 REVERT JUMPDEST POP POP POP POP PUSH1 0x40 MLOAD RETURNDATASIZE PUSH1 0x1F NOT PUSH1 0x1F DUP3 ADD AND DUP3 ADD DUP1 PUSH1 0x40 MSTORE POP DUP2 ADD SWAP1 PUSH2 0xCDA SWAP2 SWAP1 PUSH2 0x2660 JUMP JUMPDEST SWAP1 POP PUSH1 0x0 DUP3 PUSH20 0xFFFFFFFFFFFFFFFFFFFFFFFFFFFFFFFFFFFFFFFF AND PUSH4 0x70A08231 ADDRESS PUSH1 0x40 MLOAD DUP3 PUSH4 0xFFFFFFFF AND PUSH1 0xE0 SHL DUP2 MSTORE PUSH1 0x4 ADD PUSH2 0xD17 SWAP2 SWAP1 PUSH2 0x22A4 JUMP JUMPDEST PUSH1 0x20 PUSH1 0x40 MLOAD DUP1 DUP4 SUB DUP2 DUP7 GAS STATICCALL ISZERO DUP1 ISZERO PUSH2 0xD34 JUMPI RETURNDATASIZE PUSH1 0x0 DUP1 RETURNDATACOPY RETURNDATASIZE PUSH1 0x0 REVERT JUMPDEST POP POP POP POP PUSH1 0x40 MLOAD RETURNDATASIZE PUSH1 0x1F NOT PUSH1 0x1F DUP3 ADD AND DUP3 ADD DUP1 PUSH1 0x40 MSTORE POP DUP2 ADD SWAP1 PUSH2 0xD58 SWAP2 SWAP1 PUSH2 0x2660 JUMP JUMPDEST SWAP1 POP PUSH1 0x0 PUSH1 0x2 PUSH8 0xFFFFFFFFFFFFFFFF DUP2 GT ISZERO PUSH2 0xD77 JUMPI PUSH2 0xD76 PUSH2 0x2929 JUMP JUMPDEST JUMPDEST PUSH1 0x40 MLOAD SWAP1 DUP1 DUP3 MSTORE DUP1 PUSH1 0x20 MUL PUSH1 0x20 ADD DUP3 ADD PUSH1 0x40 MSTORE DUP1 ISZERO PUSH2 0xDA5 JUMPI DUP2 PUSH1 0x20 ADD PUSH1 0x20 DUP3 MUL DUP1 CALLDATASIZE DUP4 CALLDATACOPY DUP1 DUP3 ADD SWAP2 POP POP SWAP1 POP JUMPDEST POP SWAP1 POP PUSH1 0x5 PUSH1 0x0 SWAP1 SLOAD SWAP1 PUSH2 0x100 EXP SWAP1 DIV PUSH20 0xFFFFFFFFFFFFFFFFFFFFFFFFFFFFFFFFFFFFFFFF AND DUP2 PUSH1 0x0 DUP2 MLOAD DUP2 LT PUSH2 0xDDF JUMPI PUSH2 0xDDE PUSH2 0x2958 JUMP JUMPDEST JUMPDEST PUSH1 0x20 MUL PUSH1 0x20 ADD ADD SWAP1 PUSH20 0xFFFFFFFFFFFFFFFFFFFFFFFFFFFFFFFFFFFFFFFF AND SWAP1 DUP2 PUSH20 0xFFFFFFFFFFFFFFFFFFFFFFFFFFFFFFFFFFFFFFFF AND DUP2 MSTORE POP POP PUSH1 0x6 PUSH1 0x0 SWAP1 SLOAD SWAP1 PUSH2 0x100 EXP SWAP1 DIV PUSH20 0xFFFFFFFFFFFFFFFFFFFFFFFFFFFFFFFFFFFFFFFF AND DUP2 PUSH1 0x1 DUP2 MLOAD DUP2 LT PUSH2 0xE50 JUMPI PUSH2 0xE4F PUSH2 0x2958 JUMP JUMPDEST JUMPDEST PUSH1 0x20 MUL PUSH1 0x20 ADD ADD SWAP1 PUSH20 0xFFFFFFFFFFFFFFFFFFFFFFFFFFFFFFFFFFFFFFFF AND SWAP1 DUP2 PUSH20 0xFFFFFFFFFFFFFFFFFFFFFFFFFFFFFFFFFFFFFFFF AND DUP2 MSTORE POP POP PUSH1 0x0 PUSH1 0x2 PUSH1 0x0 SWAP1 SLOAD SWAP1 PUSH2 0x100 EXP SWAP1 DIV PUSH20 0xFFFFFFFFFFFFFFFFFFFFFFFFFFFFFFFFFFFFFFFF AND PUSH20 0xFFFFFFFFFFFFFFFFFFFFFFFFFFFFFFFFFFFFFFFF AND PUSH4 0xD06CA61F PUSH1 0x1 DUP5 PUSH1 0x40 MLOAD DUP4 PUSH4 0xFFFFFFFF AND PUSH1 0xE0 SHL DUP2 MSTORE PUSH1 0x4 ADD PUSH2 0xEEA SWAP3 SWAP2 SWAP1 PUSH2 0x2A80 JUMP JUMPDEST PUSH1 0x0 PUSH1 0x40 MLOAD DUP1 DUP4 SUB DUP2 DUP7 GAS STATICCALL ISZERO DUP1 ISZERO PUSH2 0xF07 JUMPI RETURNDATASIZE PUSH1 0x0 DUP1 RETURNDATACOPY RETURNDATASIZE PUSH1 0x0 REVERT JUMPDEST POP POP POP POP PUSH1 0x40 MLOAD RETURNDATASIZE PUSH1 0x0 DUP3 RETURNDATACOPY RETURNDATASIZE PUSH1 0x1F NOT PUSH1 0x1F DUP3 ADD AND DUP3 ADD DUP1 PUSH1 0x40 MSTORE POP DUP2 ADD SWAP1 PUSH2 0xF30 SWAP2 SWAP1 PUSH2 0x2BDA JUMP JUMPDEST PUSH1 0x1 DUP2 MLOAD DUP2 LT PUSH2 0xF43 JUMPI PUSH2 0xF42 PUSH2 0x2958 JUMP JUMPDEST JUMPDEST PUSH1 0x20 MUL PUSH1 0x20 ADD ADD MLOAD SWAP1 POP PUSH1 0x0 PUSH2 0x3E8 PUSH1 0x3 DUP7 DUP7 DUP6 PUSH2 0xF61 SWAP2 SWAP1 PUSH2 0x2810 JUMP JUMPDEST PUSH2 0xF6B SWAP2 SWAP1 PUSH2 0x27DF JUMP JUMPDEST PUSH2 0xF75 SWAP2 SWAP1 PUSH2 0x2810 JUMP JUMPDEST PUSH2 0xF7F SWAP2 SWAP1 PUSH2 0x27DF JUMP JUMPDEST SWAP1 POP PUSH1 0x0 PUSH3 0x278D00 PUSH32 0x0 DUP4 PUSH2 0xFB3 SWAP2 SWAP1 PUSH2 0x2810 JUMP JUMPDEST PUSH2 0xFBD SWAP2 SWAP1 PUSH2 0x27DF JUMP JUMPDEST SWAP1 POP DUP1 SWAP8 POP POP POP POP POP POP POP POP SWAP1 JUMP JUMPDEST PUSH1 0x3 PUSH1 0x0 SWAP1 SLOAD SWAP1 PUSH2 0x100 EXP SWAP1 DIV PUSH20 0xFFFFFFFFFFFFFFFFFFFFFFFFFFFFFFFFFFFFFFFF AND DUP2 JUMP JUMPDEST PUSH1 0x0 DUP1 PUSH1 0x6 PUSH1 0x0 SWAP1 SLOAD SWAP1 PUSH2 0x100 EXP SWAP1 DIV PUSH20 0xFFFFFFFFFFFFFFFFFFFFFFFFFFFFFFFFFFFFFFFF AND PUSH20 0xFFFFFFFFFFFFFFFFFFFFFFFFFFFFFFFFFFFFFFFF AND PUSH4 0x70A08231 ADDRESS PUSH1 0x40 MLOAD DUP3 PUSH4 0xFFFFFFFF AND PUSH1 0xE0 SHL DUP2 MSTORE PUSH1 0x4 ADD PUSH2 0x1050 SWAP2 SWAP1 PUSH2 0x22A4 JUMP JUMPDEST PUSH1 0x20 PUSH1 0x40 MLOAD DUP1 DUP4 SUB DUP2 DUP7 GAS STATICCALL ISZERO DUP1 ISZERO PUSH2 0x106D JUMPI RETURNDATASIZE PUSH1 0x0 DUP1 RETURNDATACOPY RETURNDATASIZE PUSH1 0x0 REVERT JUMPDEST POP POP POP POP PUSH1 0x40 MLOAD RETURNDATASIZE PUSH1 0x1F NOT PUSH1 0x1F DUP3 ADD AND DUP3 ADD DUP1 PUSH1 0x40 MSTORE POP DUP2 ADD SWAP1 PUSH2 0x1091 SWAP2 SWAP1 PUSH2 0x2660 JUMP JUMPDEST SWAP1 POP PUSH1 0x0 PUSH1 0x5 PUSH1 0x0 SWAP1 SLOAD SWAP1 PUSH2 0x100 EXP SWAP1 DIV PUSH20 0xFFFFFFFFFFFFFFFFFFFFFFFFFFFFFFFFFFFFFFFF AND PUSH20 0xFFFFFFFFFFFFFFFFFFFFFFFFFFFFFFFFFFFFFFFF AND PUSH4 0x70A08231 ADDRESS PUSH1 0x40 MLOAD DUP3 PUSH4 0xFFFFFFFF AND PUSH1 0xE0 SHL DUP2 MSTORE PUSH1 0x4 ADD PUSH2 0x10F0 SWAP2 SWAP1 PUSH2 0x22A4 JUMP JUMPDEST PUSH1 0x20 PUSH1 0x40 MLOAD DUP1 DUP4 SUB DUP2 DUP7 GAS STATICCALL ISZERO DUP1 ISZERO PUSH2 0x110D JUMPI RETURNDATASIZE PUSH1 0x0 DUP1 RETURNDATACOPY RETURNDATASIZE PUSH1 0x0 REVERT JUMPDEST POP POP POP POP PUSH1 0x40 MLOAD RETURNDATASIZE PUSH1 0x1F NOT PUSH1 0x1F DUP3 ADD AND DUP3 ADD DUP1 PUSH1 0x40 MSTORE POP DUP2 ADD SWAP1 PUSH2 0x1131 SWAP2 SWAP1 PUSH2 0x2660 JUMP JUMPDEST SWAP1 POP PUSH1 0x0 DUP3 GT ISZERO PUSH2 0x11DE JUMPI PUSH1 0x6 PUSH1 0x0 SWAP1 SLOAD SWAP1 PUSH2 0x100 EXP SWAP1 DIV PUSH20 0xFFFFFFFFFFFFFFFFFFFFFFFFFFFFFFFFFFFFFFFF AND PUSH20 0xFFFFFFFFFFFFFFFFFFFFFFFFFFFFFFFFFFFFFFFF AND PUSH4 0xA9059CBB CALLER DUP5 PUSH1 0x40 MLOAD DUP4 PUSH4 0xFFFFFFFF AND PUSH1 0xE0 SHL DUP2 MSTORE PUSH1 0x4 ADD PUSH2 0x1199 SWAP3 SWAP2 SWAP1 PUSH2 0x26F9 JUMP JUMPDEST PUSH1 0x20 PUSH1 0x40 MLOAD DUP1 DUP4 SUB DUP2 PUSH1 0x0 DUP8 GAS CALL ISZERO DUP1 ISZERO PUSH2 0x11B8 JUMPI RETURNDATASIZE PUSH1 0x0 DUP1 RETURNDATACOPY RETURNDATASIZE PUSH1 0x0 REVERT JUMPDEST POP POP POP POP PUSH1 0x40 MLOAD RETURNDATASIZE PUSH1 0x1F NOT PUSH1 0x1F DUP3 ADD AND DUP3 ADD DUP1 PUSH1 0x40 MSTORE POP DUP2 ADD SWAP1 PUSH2 0x11DC SWAP2 SWAP1 PUSH2 0x25B2 JUMP JUMPDEST POP JUMPDEST PUSH1 0x0 DUP2 GT ISZERO PUSH2 0x1289 JUMPI PUSH1 0x5 PUSH1 0x0 SWAP1 SLOAD SWAP1 PUSH2 0x100 EXP SWAP1 DIV PUSH20 0xFFFFFFFFFFFFFFFFFFFFFFFFFFFFFFFFFFFFFFFF AND PUSH20 0xFFFFFFFFFFFFFFFFFFFFFFFFFFFFFFFFFFFFFFFF AND PUSH4 0xA9059CBB CALLER DUP4 PUSH1 0x40 MLOAD DUP4 PUSH4 0xFFFFFFFF AND PUSH1 0xE0 SHL DUP2 MSTORE PUSH1 0x4 ADD PUSH2 0x1244 SWAP3 SWAP2 SWAP1 PUSH2 0x26F9 JUMP JUMPDEST PUSH1 0x20 PUSH1 0x40 MLOAD DUP1 DUP4 SUB DUP2 PUSH1 0x0 DUP8 GAS CALL ISZERO DUP1 ISZERO PUSH2 0x1263 JUMPI RETURNDATASIZE PUSH1 0x0 DUP1 RETURNDATACOPY RETURNDATASIZE PUSH1 0x0 REVERT JUMPDEST POP POP POP POP PUSH1 0x40 MLOAD RETURNDATASIZE PUSH1 0x1F NOT PUSH1 0x1F DUP3 ADD AND DUP3 ADD DUP1 PUSH1 0x40 MSTORE POP DUP2 ADD SWAP1 PUSH2 0x1287 SWAP2 SWAP1 PUSH2 0x25B2 JUMP JUMPDEST POP JUMPDEST PUSH32 0x1CF458CFC40A8E6A6FFFCD0094E5551264FD5E735F80A31E7195412023D12A5A DUP2 DUP4 PUSH1 0x40 MLOAD PUSH2 0x12BA SWAP3 SWAP2 SWAP1 PUSH2 0x2C23 JUMP JUMPDEST PUSH1 0x40 MLOAD DUP1 SWAP2 SUB SWAP1 LOG1 PUSH1 0x1 SWAP3 POP POP POP SWAP1 JUMP JUMPDEST PUSH1 0x0 DUP1 DUP3 GT PUSH2 0x130F JUMPI PUSH1 0x40 MLOAD PUSH32 0x8C379A000000000000000000000000000000000000000000000000000000000 DUP2 MSTORE PUSH1 0x4 ADD PUSH2 0x1306 SWAP1 PUSH2 0x252F JUMP JUMPDEST PUSH1 0x40 MLOAD DUP1 SWAP2 SUB SWAP1 REVERT JUMPDEST DUP2 PUSH1 0x5 PUSH1 0x0 SWAP1 SLOAD SWAP1 PUSH2 0x100 EXP SWAP1 DIV PUSH20 0xFFFFFFFFFFFFFFFFFFFFFFFFFFFFFFFFFFFFFFFF AND PUSH20 0xFFFFFFFFFFFFFFFFFFFFFFFFFFFFFFFFFFFFFFFF AND PUSH4 0x70A08231 ADDRESS PUSH1 0x40 MLOAD DUP3 PUSH4 0xFFFFFFFF AND PUSH1 0xE0 SHL DUP2 MSTORE PUSH1 0x4 ADD PUSH2 0x136B SWAP2 SWAP1 PUSH2 0x22A4 JUMP JUMPDEST PUSH1 0x20 PUSH1 0x40 MLOAD DUP1 DUP4 SUB DUP2 DUP7 GAS STATICCALL ISZERO DUP1 ISZERO PUSH2 0x1388 JUMPI RETURNDATASIZE PUSH1 0x0 DUP1 RETURNDATACOPY RETURNDATASIZE PUSH1 0x0 REVERT JUMPDEST POP POP POP POP PUSH1 0x40 MLOAD RETURNDATASIZE PUSH1 0x1F NOT PUSH1 0x1F DUP3 ADD AND DUP3 ADD DUP1 PUSH1 0x40 MSTORE POP DUP2 ADD SWAP1 PUSH2 0x13AC SWAP2 SWAP1 PUSH2 0x2660 JUMP JUMPDEST LT ISZERO PUSH2 0x13ED JUMPI PUSH1 0x40 MLOAD PUSH32 0x8C379A000000000000000000000000000000000000000000000000000000000 DUP2 MSTORE PUSH1 0x4 ADD PUSH2 0x13E4 SWAP1 PUSH2 0x26D9 JUMP JUMPDEST PUSH1 0x40 MLOAD DUP1 SWAP2 SUB SWAP1 REVERT JUMPDEST PUSH1 0x0 PUSH1 0x2 DUP4 PUSH2 0x13FC SWAP2 SWAP1 PUSH2 0x27DF JUMP JUMPDEST SWAP1 POP PUSH1 0x5 PUSH1 0x0 SWAP1 SLOAD SWAP1 PUSH2 0x100 EXP SWAP1 DIV PUSH20 0xFFFFFFFFFFFFFFFFFFFFFFFFFFFFFFFFFFFFFFFF AND PUSH20 0xFFFFFFFFFFFFFFFFFFFFFFFFFFFFFFFFFFFFFFFF AND PUSH4 0x95EA7B3 PUSH1 0x2 PUSH1 0x0 SWAP1 SLOAD SWAP1 PUSH2 0x100 EXP SWAP1 DIV PUSH20 0xFFFFFFFFFFFFFFFFFFFFFFFFFFFFFFFFFFFFFFFF AND DUP6 PUSH1 0x40 MLOAD DUP4 PUSH4 0xFFFFFFFF AND PUSH1 0xE0 SHL DUP2 MSTORE PUSH1 0x4 ADD PUSH2 0x147D SWAP3 SWAP2 SWAP1 PUSH2 0x26F9 JUMP JUMPDEST PUSH1 0x20 PUSH1 0x40 MLOAD DUP1 DUP4 SUB DUP2 PUSH1 0x0 DUP8 GAS CALL ISZERO DUP1 ISZERO PUSH2 0x149C JUMPI RETURNDATASIZE PUSH1 0x0 DUP1 RETURNDATACOPY RETURNDATASIZE PUSH1 0x0 REVERT JUMPDEST POP POP POP POP PUSH1 0x40 MLOAD RETURNDATASIZE PUSH1 0x1F NOT PUSH1 0x1F DUP3 ADD AND DUP3 ADD DUP1 PUSH1 0x40 MSTORE POP DUP2 ADD SWAP1 PUSH2 0x14C0 SWAP2 SWAP1 PUSH2 0x25B2 JUMP JUMPDEST POP PUSH1 0x0 PUSH1 0x2 PUSH8 0xFFFFFFFFFFFFFFFF DUP2 GT ISZERO PUSH2 0x14DE JUMPI PUSH2 0x14DD PUSH2 0x2929 JUMP JUMPDEST JUMPDEST PUSH1 0x40 MLOAD SWAP1 DUP1 DUP3 MSTORE DUP1 PUSH1 0x20 MUL PUSH1 0x20 ADD DUP3 ADD PUSH1 0x40 MSTORE DUP1 ISZERO PUSH2 0x150C JUMPI DUP2 PUSH1 0x20 ADD PUSH1 0x20 DUP3 MUL DUP1 CALLDATASIZE DUP4 CALLDATACOPY DUP1 DUP3 ADD SWAP2 POP POP SWAP1 POP JUMPDEST POP SWAP1 POP PUSH1 0x5 PUSH1 0x0 SWAP1 SLOAD SWAP1 PUSH2 0x100 EXP SWAP1 DIV PUSH20 0xFFFFFFFFFFFFFFFFFFFFFFFFFFFFFFFFFFFFFFFF AND DUP2 PUSH1 0x0 DUP2 MLOAD DUP2 LT PUSH2 0x1546 JUMPI PUSH2 0x1545 PUSH2 0x2958 JUMP JUMPDEST JUMPDEST PUSH1 0x20 MUL PUSH1 0x20 ADD ADD SWAP1 PUSH20 0xFFFFFFFFFFFFFFFFFFFFFFFFFFFFFFFFFFFFFFFF AND SWAP1 DUP2 PUSH20 0xFFFFFFFFFFFFFFFFFFFFFFFFFFFFFFFFFFFFFFFF AND DUP2 MSTORE POP POP PUSH1 0x6 PUSH1 0x0 SWAP1 SLOAD SWAP1 PUSH2 0x100 EXP SWAP1 DIV PUSH20 0xFFFFFFFFFFFFFFFFFFFFFFFFFFFFFFFFFFFFFFFF AND DUP2 PUSH1 0x1 DUP2 MLOAD DUP2 LT PUSH2 0x15B7 JUMPI PUSH2 0x15B6 PUSH2 0x2958 JUMP JUMPDEST JUMPDEST PUSH1 0x20 MUL PUSH1 0x20 ADD ADD SWAP1 PUSH20 0xFFFFFFFFFFFFFFFFFFFFFFFFFFFFFFFFFFFFFFFF AND SWAP1 DUP2 PUSH20 0xFFFFFFFFFFFFFFFFFFFFFFFFFFFFFFFFFFFFFFFF AND DUP2 MSTORE POP POP PUSH1 0x2 PUSH1 0x0 SWAP1 SLOAD SWAP1 PUSH2 0x100 EXP SWAP1 DIV PUSH20 0xFFFFFFFFFFFFFFFFFFFFFFFFFFFFFFFFFFFFFFFF AND PUSH20 0xFFFFFFFFFFFFFFFFFFFFFFFFFFFFFFFFFFFFFFFF AND PUSH4 0x38ED1739 DUP4 PUSH1 0x0 DUP5 ADDRESS PUSH2 0x258 TIMESTAMP PUSH2 0x1642 SWAP2 SWAP1 PUSH2 0x249E JUMP JUMPDEST PUSH1 0x40 MLOAD DUP7 PUSH4 0xFFFFFFFF AND PUSH1 0xE0 SHL DUP2 MSTORE PUSH1 0x4 ADD PUSH2 0x1662 SWAP6 SWAP5 SWAP4 SWAP3 SWAP2 SWAP1 PUSH2 0x2C7D JUMP JUMPDEST PUSH1 0x0 PUSH1 0x40 MLOAD DUP1 DUP4 SUB DUP2 PUSH1 0x0 DUP8 GAS CALL ISZERO DUP1 ISZERO PUSH2 0x1681 JUMPI RETURNDATASIZE PUSH1 0x0 DUP1 RETURNDATACOPY RETURNDATASIZE PUSH1 0x0 REVERT JUMPDEST POP POP POP POP PUSH1 0x40 MLOAD RETURNDATASIZE PUSH1 0x0 DUP3 RETURNDATACOPY RETURNDATASIZE PUSH1 0x1F NOT PUSH1 0x1F DUP3 ADD AND DUP3 ADD DUP1 PUSH1 0x40 MSTORE POP DUP2 ADD SWAP1 PUSH2 0x16AA SWAP2 SWAP1 PUSH2 0x2BDA JUMP JUMPDEST POP PUSH1 0x0 PUSH1 0x6 PUSH1 0x0 SWAP1 SLOAD SWAP1 PUSH2 0x100 EXP SWAP1 DIV PUSH20 0xFFFFFFFFFFFFFFFFFFFFFFFFFFFFFFFFFFFFFFFF AND PUSH20 0xFFFFFFFFFFFFFFFFFFFFFFFFFFFFFFFFFFFFFFFF AND PUSH4 0x70A08231 ADDRESS PUSH1 0x40 MLOAD DUP3 PUSH4 0xFFFFFFFF AND PUSH1 0xE0 SHL DUP2 MSTORE PUSH1 0x4 ADD PUSH2 0x1708 SWAP2 SWAP1 PUSH2 0x22A4 JUMP JUMPDEST PUSH1 0x20 PUSH1 0x40 MLOAD DUP1 DUP4 SUB DUP2 DUP7 GAS STATICCALL ISZERO DUP1 ISZERO PUSH2 0x1725 JUMPI RETURNDATASIZE PUSH1 0x0 DUP1 RETURNDATACOPY RETURNDATASIZE PUSH1 0x0 REVERT JUMPDEST POP POP POP POP PUSH1 0x40 MLOAD RETURNDATASIZE PUSH1 0x1F NOT PUSH1 0x1F DUP3 ADD AND DUP3 ADD DUP1 PUSH1 0x40 MSTORE POP DUP2 ADD SWAP1 PUSH2 0x1749 SWAP2 SWAP1 PUSH2 0x2660 JUMP JUMPDEST SWAP1 POP PUSH1 0x6 PUSH1 0x0 SWAP1 SLOAD SWAP1 PUSH2 0x100 EXP SWAP1 DIV PUSH20 0xFFFFFFFFFFFFFFFFFFFFFFFFFFFFFFFFFFFFFFFF AND PUSH20 0xFFFFFFFFFFFFFFFFFFFFFFFFFFFFFFFFFFFFFFFF AND PUSH4 0x95EA7B3 PUSH1 0x2 PUSH1 0x0 SWAP1 SLOAD SWAP1 PUSH2 0x100 EXP SWAP1 DIV PUSH20 0xFFFFFFFFFFFFFFFFFFFFFFFFFFFFFFFFFFFFFFFF AND DUP4 PUSH1 0x40 MLOAD DUP4 PUSH4 0xFFFFFFFF AND PUSH1 0xE0 SHL DUP2 MSTORE PUSH1 0x4 ADD PUSH2 0x17CA SWAP3 SWAP2 SWAP1 PUSH2 0x26F9 JUMP JUMPDEST PUSH1 0x20 PUSH1 0x40 MLOAD DUP1 DUP4 SUB DUP2 PUSH1 0x0 DUP8 GAS CALL ISZERO DUP1 ISZERO PUSH2 0x17E9 JUMPI RETURNDATASIZE PUSH1 0x0 DUP1 RETURNDATACOPY RETURNDATASIZE PUSH1 0x0 REVERT JUMPDEST POP POP POP POP PUSH1 0x40 MLOAD RETURNDATASIZE PUSH1 0x1F NOT PUSH1 0x1F DUP3 ADD AND DUP3 ADD DUP1 PUSH1 0x40 MSTORE POP DUP2 ADD SWAP1 PUSH2 0x180D SWAP2 SWAP1 PUSH2 0x25B2 JUMP JUMPDEST POP PUSH1 0x2 PUSH1 0x0 SWAP1 SLOAD SWAP1 PUSH2 0x100 EXP SWAP1 DIV PUSH20 0xFFFFFFFFFFFFFFFFFFFFFFFFFFFFFFFFFFFFFFFF AND PUSH20 0xFFFFFFFFFFFFFFFFFFFFFFFFFFFFFFFFFFFFFFFF AND PUSH4 0xE8E33700 PUSH1 0x5 PUSH1 0x0 SWAP1 SLOAD SWAP1 PUSH2 0x100 EXP SWAP1 DIV PUSH20 0xFFFFFFFFFFFFFFFFFFFFFFFFFFFFFFFFFFFFFFFF AND PUSH1 0x6 PUSH1 0x0 SWAP1 SLOAD SWAP1 PUSH2 0x100 EXP SWAP1 DIV PUSH20 0xFFFFFFFFFFFFFFFFFFFFFFFFFFFFFFFFFFFFFFFF AND DUP7 DUP6 PUSH1 0x1 DUP1 ADDRESS TIMESTAMP PUSH1 0x40 MLOAD DUP10 PUSH4 0xFFFFFFFF AND PUSH1 0xE0 SHL DUP2 MSTORE PUSH1 0x4 ADD PUSH2 0x18BC SWAP9 SWAP8 SWAP7 SWAP6 SWAP5 SWAP4 SWAP3 SWAP2 SWAP1 PUSH2 0x2CD7 JUMP JUMPDEST PUSH1 0x60 PUSH1 0x40 MLOAD DUP1 DUP4 SUB DUP2 PUSH1 0x0 DUP8 GAS CALL ISZERO DUP1 ISZERO PUSH2 0x18DB JUMPI RETURNDATASIZE PUSH1 0x0 DUP1 RETURNDATACOPY RETURNDATASIZE PUSH1 0x0 REVERT JUMPDEST POP POP POP POP PUSH1 0x40 MLOAD RETURNDATASIZE PUSH1 0x1F NOT PUSH1 0x1F DUP3 ADD AND DUP3 ADD DUP1 PUSH1 0x40 MSTORE POP DUP2 ADD SWAP1 PUSH2 0x18FF SWAP2 SWAP1 PUSH2 0x2D55 JUMP JUMPDEST POP POP POP PUSH1 0x1 SWAP4 POP POP POP POP SWAP2 SWAP1 POP JUMP JUMPDEST PUSH1 0x1 PUSH1 0x0 SWAP1 SLOAD SWAP1 PUSH2 0x100 EXP SWAP1 DIV PUSH20 0xFFFFFFFFFFFFFFFFFFFFFFFFFFFFFFFFFFFFFFFF AND DUP2 JUMP JUMPDEST PUSH1 0x0 PUSH2 0x193F DUP3 PUSH2 0x478 JUMP JUMPDEST PUSH2 0x197E JUMPI PUSH1 0x40 MLOAD PUSH32 0x8C379A000000000000000000000000000000000000000000000000000000000 DUP2 MSTORE PUSH1 0x4 ADD PUSH2 0x1975 SWAP1 PUSH2 0x2DF4 JUMP JUMPDEST PUSH1 0x40 MLOAD DUP1 SWAP2 SUB SWAP1 REVERT JUMPDEST PUSH1 0x0 PUSH1 0x64 PUSH1 0x7 SLOAD DUP5 PUSH2 0x1990 SWAP2 SWAP1 PUSH2 0x2810 JUMP JUMPDEST PUSH2 0x199A SWAP2 SWAP1 PUSH2 0x27DF JUMP JUMPDEST SWAP1 POP PUSH1 0x0 PUSH1 0x64 PUSH1 0x8 SLOAD DUP6 PUSH2 0x19AE SWAP2 SWAP1 PUSH2 0x2810 JUMP JUMPDEST PUSH2 0x19B8 SWAP2 SWAP1 PUSH2 0x27DF JUMP JUMPDEST SWAP1 POP PUSH2 0x19C3 DUP2 PUSH2 0x5AC JUMP JUMPDEST POP PUSH2 0x19CD DUP3 PUSH2 0x12CB JUMP JUMPDEST POP PUSH32 0xD30FC8A1B5907BE76206421A3040262F1F6AED0D418C05312EF5FF8DE0C9AE4C DUP5 PUSH1 0x40 MLOAD PUSH2 0x19FD SWAP2 SWAP1 PUSH2 0x20EF JUMP JUMPDEST PUSH1 0x40 MLOAD DUP1 SWAP2 SUB SWAP1 LOG1 PUSH1 0x1 SWAP3 POP POP POP SWAP2 SWAP1 POP JUMP JUMPDEST PUSH1 0x0 CALLER PUSH20 0xFFFFFFFFFFFFFFFFFFFFFFFFFFFFFFFFFFFFFFFF AND PUSH1 0x0 DUP1 SLOAD SWAP1 PUSH2 0x100 EXP SWAP1 DIV PUSH20 0xFFFFFFFFFFFFFFFFFFFFFFFFFFFFFFFFFFFFFFFF AND PUSH20 0xFFFFFFFFFFFFFFFFFFFFFFFFFFFFFFFFFFFFFFFF AND EQ PUSH2 0x1AA0 JUMPI PUSH1 0x40 MLOAD PUSH32 0x8C379A000000000000000000000000000000000000000000000000000000000 DUP2 MSTORE PUSH1 0x4 ADD PUSH2 0x1A97 SWAP1 PUSH2 0x2E60 JUMP JUMPDEST PUSH1 0x40 MLOAD DUP1 SWAP2 SUB SWAP1 REVERT JUMPDEST PUSH1 0x0 DUP4 GT PUSH2 0x1AE3 JUMPI PUSH1 0x40 MLOAD PUSH32 0x8C379A000000000000000000000000000000000000000000000000000000000 DUP2 MSTORE PUSH1 0x4 ADD PUSH2 0x1ADA SWAP1 PUSH2 0x252F JUMP JUMPDEST PUSH1 0x40 MLOAD DUP1 SWAP2 SUB SWAP1 REVERT JUMPDEST PUSH1 0x1 DUP3 SUB PUSH2 0x1D68 JUMPI PUSH1 0x0 PUSH1 0x4 PUSH1 0x0 SWAP1 SLOAD SWAP1 PUSH2 0x100 EXP SWAP1 DIV PUSH20 0xFFFFFFFFFFFFFFFFFFFFFFFFFFFFFFFFFFFFFFFF AND PUSH20 0xFFFFFFFFFFFFFFFFFFFFFFFFFFFFFFFFFFFFFFFF AND PUSH4 0xE6A43905 PUSH1 0x5 PUSH1 0x0 SWAP1 SLOAD SWAP1 PUSH2 0x100 EXP SWAP1 DIV PUSH20 0xFFFFFFFFFFFFFFFFFFFFFFFFFFFFFFFFFFFFFFFF AND PUSH1 0x6 PUSH1 0x0 SWAP1 SLOAD SWAP1 PUSH2 0x100 EXP SWAP1 DIV PUSH20 0xFFFFFFFFFFFFFFFFFFFFFFFFFFFFFFFFFFFFFFFF AND PUSH1 0x40 MLOAD DUP4 PUSH4 0xFFFFFFFF AND PUSH1 0xE0 SHL DUP2 MSTORE PUSH1 0x4 ADD PUSH2 0x1B8E SWAP3 SWAP2 SWAP1 PUSH2 0x28BE JUMP JUMPDEST PUSH1 0x20 PUSH1 0x40 MLOAD DUP1 DUP4 SUB DUP2 DUP7 GAS STATICCALL ISZERO DUP1 ISZERO PUSH2 0x1BAB JUMPI RETURNDATASIZE PUSH1 0x0 DUP1 RETURNDATACOPY RETURNDATASIZE PUSH1 0x0 REVERT JUMPDEST POP POP POP POP PUSH1 0x40 MLOAD RETURNDATASIZE PUSH1 0x1F NOT PUSH1 0x1F DUP3 ADD AND DUP3 ADD DUP1 PUSH1 0x40 MSTORE POP DUP2 ADD SWAP1 PUSH2 0x1BCF SWAP2 SWAP1 PUSH2 0x28FC JUMP JUMPDEST SWAP1 POP DUP1 PUSH20 0xFFFFFFFFFFFFFFFFFFFFFFFFFFFFFFFFFFFFFFFF AND PUSH4 0x95EA7B3 PUSH1 0x2 PUSH1 0x0 SWAP1 SLOAD SWAP1 PUSH2 0x100 EXP SWAP1 DIV PUSH20 0xFFFFFFFFFFFFFFFFFFFFFFFFFFFFFFFFFFFFFFFF AND DUP7 PUSH1 0x40 MLOAD DUP4 PUSH4 0xFFFFFFFF AND PUSH1 0xE0 SHL DUP2 MSTORE PUSH1 0x4 ADD PUSH2 0x1C2E SWAP3 SWAP2 SWAP1 PUSH2 0x26F9 JUMP JUMPDEST PUSH1 0x20 PUSH1 0x40 MLOAD DUP1 DUP4 SUB DUP2 PUSH1 0x0 DUP8 GAS CALL ISZERO DUP1 ISZERO PUSH2 0x1C4D JUMPI RETURNDATASIZE PUSH1 0x0 DUP1 RETURNDATACOPY RETURNDATASIZE PUSH1 0x0 REVERT JUMPDEST POP POP POP POP PUSH1 0x40 MLOAD RETURNDATASIZE PUSH1 0x1F NOT PUSH1 0x1F DUP3 ADD AND DUP3 ADD DUP1 PUSH1 0x40 MSTORE POP DUP2 ADD SWAP1 PUSH2 0x1C71 SWAP2 SWAP1 PUSH2 0x25B2 JUMP JUMPDEST POP PUSH1 0x2 PUSH1 0x0 SWAP1 SLOAD SWAP1 PUSH2 0x100 EXP SWAP1 DIV PUSH20 0xFFFFFFFFFFFFFFFFFFFFFFFFFFFFFFFFFFFFFFFF AND PUSH20 0xFFFFFFFFFFFFFFFFFFFFFFFFFFFFFFFFFFFFFFFF AND PUSH4 0xBAA2ABDE PUSH1 0x5 PUSH1 0x0 SWAP1 SLOAD SWAP1 PUSH2 0x100 EXP SWAP1 DIV PUSH20 0xFFFFFFFFFFFFFFFFFFFFFFFFFFFFFFFFFFFFFFFF AND PUSH1 0x6 PUSH1 0x0 SWAP1 SLOAD SWAP1 PUSH2 0x100 EXP SWAP1 DIV PUSH20 0xFFFFFFFFFFFFFFFFFFFFFFFFFFFFFFFFFFFFFFFF AND DUP8 PUSH1 0x1 DUP1 ADDRESS TIMESTAMP PUSH1 0x40 MLOAD DUP9 PUSH4 0xFFFFFFFF AND PUSH1 0xE0 SHL DUP2 MSTORE PUSH1 0x4 ADD PUSH2 0x1D1E SWAP8 SWAP7 SWAP6 SWAP5 SWAP4 SWAP3 SWAP2 SWAP1 PUSH2 0x2E80 JUMP JUMPDEST PUSH1 0x40 DUP1 MLOAD DUP1 DUP4 SUB DUP2 PUSH1 0x0 DUP8 GAS CALL ISZERO DUP1 ISZERO PUSH2 0x1D3C JUMPI RETURNDATASIZE PUSH1 0x0 DUP1 RETURNDATACOPY RETURNDATASIZE PUSH1 0x0 REVERT JUMPDEST POP POP POP POP PUSH1 0x40 MLOAD RETURNDATASIZE PUSH1 0x1F NOT PUSH1 0x1F DUP3 ADD AND DUP3 ADD DUP1 PUSH1 0x40 MSTORE POP DUP2 ADD SWAP1 PUSH2 0x1D60 SWAP2 SWAP1 PUSH2 0x2EEF JUMP JUMPDEST POP POP POP PUSH2 0x1E1C JUMP JUMPDEST PUSH1 0x3 PUSH1 0x0 SWAP1 SLOAD SWAP1 PUSH2 0x100 EXP SWAP1 DIV PUSH20 0xFFFFFFFFFFFFFFFFFFFFFFFFFFFFFFFFFFFFFFFF AND PUSH20 0xFFFFFFFFFFFFFFFFFFFFFFFFFFFFFFFFFFFFFFFF AND PUSH4 0x69328DEC PUSH1 0x5 PUSH1 0x0 SWAP1 SLOAD SWAP1 PUSH2 0x100 EXP SWAP1 DIV PUSH20 0xFFFFFFFFFFFFFFFFFFFFFFFFFFFFFFFFFFFFFFFF AND DUP6 ADDRESS PUSH1 0x40 MLOAD DUP5 PUSH4 0xFFFFFFFF AND PUSH1 0xE0 SHL DUP2 MSTORE PUSH1 0x4 ADD PUSH2 0x1DE9 SWAP4 SWAP3 SWAP2 SWAP1 PUSH2 0x2F2F JUMP JUMPDEST PUSH1 0x0 PUSH1 0x40 MLOAD DUP1 DUP4 SUB DUP2 PUSH1 0x0 DUP8 DUP1 EXTCODESIZE ISZERO DUP1 ISZERO PUSH2 0x1E03 JUMPI PUSH1 0x0 DUP1 REVERT JUMPDEST POP GAS CALL ISZERO DUP1 ISZERO PUSH2 0x1E17 JUMPI RETURNDATASIZE PUSH1 0x0 DUP1 RETURNDATACOPY RETURNDATASIZE PUSH1 0x0 REVERT JUMPDEST POP POP POP POP JUMPDEST PUSH32 0xA9C4E7142B50777BC004C81693BD532CBDAF27FFFC387D8F20D1E5A605CDFBE7 DUP4 DUP4 PUSH1 0x40 MLOAD PUSH2 0x1E4D SWAP3 SWAP2 SWAP1 PUSH2 0x2C23 JUMP JUMPDEST PUSH1 0x40 MLOAD DUP1 SWAP2 SUB SWAP1 LOG1 PUSH1 0x1 SWAP1 POP SWAP3 SWAP2 POP POP JUMP JUMPDEST CALLER PUSH20 0xFFFFFFFFFFFFFFFFFFFFFFFFFFFFFFFFFFFFFFFF AND PUSH1 0x0 DUP1 SLOAD SWAP1 PUSH2 0x100 EXP SWAP1 DIV PUSH20 0xFFFFFFFFFFFFFFFFFFFFFFFFFFFFFFFFFFFFFFFF AND PUSH20 0xFFFFFFFFFFFFFFFFFFFFFFFFFFFFFFFFFFFFFFFF AND EQ PUSH2 0x1EED JUMPI PUSH1 0x40 MLOAD PUSH32 0x8C379A000000000000000000000000000000000000000000000000000000000 DUP2 MSTORE PUSH1 0x4 ADD PUSH2 0x1EE4 SWAP1 PUSH2 0x2E60 JUMP JUMPDEST PUSH1 0x40 MLOAD DUP1 SWAP2 SUB SWAP1 REVERT JUMPDEST DUP1 PUSH1 0x1 PUSH1 0x0 PUSH2 0x100 EXP DUP2 SLOAD DUP2 PUSH20 0xFFFFFFFFFFFFFFFFFFFFFFFFFFFFFFFFFFFFFFFF MUL NOT AND SWAP1 DUP4 PUSH20 0xFFFFFFFFFFFFFFFFFFFFFFFFFFFFFFFFFFFFFFFF AND MUL OR SWAP1 SSTORE POP POP JUMP JUMPDEST PUSH1 0x0 CALLER PUSH20 0xFFFFFFFFFFFFFFFFFFFFFFFFFFFFFFFFFFFFFFFF AND PUSH1 0x0 DUP1 SLOAD SWAP1 PUSH2 0x100 EXP SWAP1 DIV PUSH20 0xFFFFFFFFFFFFFFFFFFFFFFFFFFFFFFFFFFFFFFFF AND PUSH20 0xFFFFFFFFFFFFFFFFFFFFFFFFFFFFFFFFFFFFFFFF AND EQ PUSH2 0x1FC1 JUMPI PUSH1 0x40 MLOAD PUSH32 0x8C379A000000000000000000000000000000000000000000000000000000000 DUP2 MSTORE PUSH1 0x4 ADD PUSH2 0x1FB8 SWAP1 PUSH2 0x2E60 JUMP JUMPDEST PUSH1 0x40 MLOAD DUP1 SWAP2 SUB SWAP1 REVERT JUMPDEST PUSH1 0x64 DUP3 DUP5 PUSH2 0x1FCF SWAP2 SWAP1 PUSH2 0x249E JUMP JUMPDEST EQ PUSH2 0x200F JUMPI PUSH1 0x40 MLOAD PUSH32 0x8C379A000000000000000000000000000000000000000000000000000000000 DUP2 MSTORE PUSH1 0x4 ADD PUSH2 0x2006 SWAP1 PUSH2 0x2FB2 JUMP JUMPDEST PUSH1 0x40 MLOAD DUP1 SWAP2 SUB SWAP1 REVERT JUMPDEST DUP3 PUSH1 0x7 DUP2 SWAP1 SSTORE POP DUP2 PUSH1 0x8 DUP2 SWAP1 SSTORE POP PUSH1 0x1 SWAP1 POP SWAP3 SWAP2 POP POP JUMP JUMPDEST PUSH1 0x0 DUP1 PUSH1 0x3 PUSH1 0x0 SWAP1 SLOAD SWAP1 PUSH2 0x100 EXP SWAP1 DIV PUSH20 0xFFFFFFFFFFFFFFFFFFFFFFFFFFFFFFFFFFFFFFFF AND PUSH20 0xFFFFFFFFFFFFFFFFFFFFFFFFFFFFFFFFFFFFFFFF AND PUSH4 0x35EA6A75 DUP5 PUSH1 0x40 MLOAD DUP3 PUSH4 0xFFFFFFFF AND PUSH1 0xE0 SHL DUP2 MSTORE PUSH1 0x4 ADD PUSH2 0x2085 SWAP2 SWAP1 PUSH2 0x22A4 JUMP JUMPDEST PUSH2 0x180 PUSH1 0x40 MLOAD DUP1 DUP4 SUB DUP2 DUP7 GAS STATICCALL ISZERO DUP1 ISZERO PUSH2 0x20A3 JUMPI RETURNDATASIZE PUSH1 0x0 DUP1 RETURNDATACOPY RETURNDATASIZE PUSH1 0x0 REVERT JUMPDEST POP POP POP POP PUSH1 0x40 MLOAD RETURNDATASIZE PUSH1 0x1F NOT PUSH1 0x1F DUP3 ADD AND DUP3 ADD DUP1 PUSH1 0x40 MSTORE POP DUP2 ADD SWAP1 PUSH2 0x20C7 SWAP2 SWAP1 PUSH2 0x31D7 JUMP JUMPDEST SWAP1 POP DUP1 PUSH1 0x60 ADD MLOAD SWAP2 POP POP SWAP2 SWAP1 POP JUMP JUMPDEST PUSH1 0x0 DUP2 SWAP1 POP SWAP2 SWAP1 POP JUMP JUMPDEST PUSH2 0x20E9 DUP2 PUSH2 0x20D6 JUMP JUMPDEST DUP3 MSTORE POP POP JUMP JUMPDEST PUSH1 0x0 PUSH1 0x20 DUP3 ADD SWAP1 POP PUSH2 0x2104 PUSH1 0x0 DUP4 ADD DUP5 PUSH2 0x20E0 JUMP JUMPDEST SWAP3 SWAP2 POP POP JUMP JUMPDEST PUSH1 0x0 PUSH1 0x40 MLOAD SWAP1 POP SWAP1 JUMP JUMPDEST PUSH1 0x0 DUP1 REVERT JUMPDEST PUSH1 0x0 DUP1 REVERT JUMPDEST PUSH2 0x2127 DUP2 PUSH2 0x20D6 JUMP JUMPDEST DUP2 EQ PUSH2 0x2132 JUMPI PUSH1 0x0 DUP1 REVERT JUMPDEST POP JUMP JUMPDEST PUSH1 0x0 DUP2 CALLDATALOAD SWAP1 POP PUSH2 0x2144 DUP2 PUSH2 0x211E JUMP JUMPDEST SWAP3 SWAP2 POP POP JUMP JUMPDEST PUSH1 0x0 PUSH1 0x20 DUP3 DUP5 SUB SLT ISZERO PUSH2 0x2160 JUMPI PUSH2 0x215F PUSH2 0x2114 JUMP JUMPDEST JUMPDEST PUSH1 0x0 PUSH2 0x216E DUP5 DUP3 DUP6 ADD PUSH2 0x2135 JUMP JUMPDEST SWAP2 POP POP SWAP3 SWAP2 POP POP JUMP JUMPDEST PUSH1 0x0 DUP2 ISZERO ISZERO SWAP1 POP SWAP2 SWAP1 POP JUMP JUMPDEST PUSH2 0x218C DUP2 PUSH2 0x2177 JUMP JUMPDEST DUP3 MSTORE POP POP JUMP JUMPDEST PUSH1 0x0 PUSH1 0x20 DUP3 ADD SWAP1 POP PUSH2 0x21A7 PUSH1 0x0 DUP4 ADD DUP5 PUSH2 0x2183 JUMP JUMPDEST SWAP3 SWAP2 POP POP JUMP JUMPDEST PUSH1 0x0 PUSH20 0xFFFFFFFFFFFFFFFFFFFFFFFFFFFFFFFFFFFFFFFF DUP3 AND SWAP1 POP SWAP2 SWAP1 POP JUMP JUMPDEST PUSH1 0x0 DUP2 SWAP1 POP SWAP2 SWAP1 POP JUMP JUMPDEST PUSH1 0x0 PUSH2 0x21F2 PUSH2 0x21ED PUSH2 0x21E8 DUP5 PUSH2 0x21AD JUMP JUMPDEST PUSH2 0x21CD JUMP JUMPDEST PUSH2 0x21AD JUMP JUMPDEST SWAP1 POP SWAP2 SWAP1 POP JUMP JUMPDEST PUSH1 0x0 PUSH2 0x2204 DUP3 PUSH2 0x21D7 JUMP JUMPDEST SWAP1 POP SWAP2 SWAP1 POP JUMP JUMPDEST PUSH1 0x0 PUSH2 0x2216 DUP3 PUSH2 0x21F9 JUMP JUMPDEST SWAP1 POP SWAP2 SWAP1 POP JUMP JUMPDEST PUSH2 0x2226 DUP2 PUSH2 0x220B JUMP JUMPDEST DUP3 MSTORE POP POP JUMP JUMPDEST PUSH1 0x0 PUSH1 0x20 DUP3 ADD SWAP1 POP PUSH2 0x2241 PUSH1 0x0 DUP4 ADD DUP5 PUSH2 0x221D JUMP JUMPDEST SWAP3 SWAP2 POP POP JUMP JUMPDEST PUSH1 0x0 PUSH2 0x2252 DUP3 PUSH2 0x21F9 JUMP JUMPDEST SWAP1 POP SWAP2 SWAP1 POP JUMP JUMPDEST PUSH2 0x2262 DUP2 PUSH2 0x2247 JUMP JUMPDEST DUP3 MSTORE POP POP JUMP JUMPDEST PUSH1 0x0 PUSH1 0x20 DUP3 ADD SWAP1 POP PUSH2 0x227D PUSH1 0x0 DUP4 ADD DUP5 PUSH2 0x2259 JUMP JUMPDEST SWAP3 SWAP2 POP POP JUMP JUMPDEST PUSH1 0x0 PUSH2 0x228E DUP3 PUSH2 0x21AD JUMP JUMPDEST SWAP1 POP SWAP2 SWAP1 POP JUMP JUMPDEST PUSH2 0x229E DUP2 PUSH2 0x2283 JUMP JUMPDEST DUP3 MSTORE POP POP JUMP JUMPDEST PUSH1 0x0 PUSH1 0x20 DUP3 ADD SWAP1 POP PUSH2 0x22B9 PUSH1 0x0 DUP4 ADD DUP5 PUSH2 0x2295 JUMP JUMPDEST SWAP3 SWAP2 POP POP JUMP JUMPDEST PUSH1 0x0 PUSH2 0x22CA DUP3 PUSH2 0x21AD JUMP JUMPDEST SWAP1 POP SWAP2 SWAP1 POP JUMP JUMPDEST PUSH2 0x22DA DUP2 PUSH2 0x22BF JUMP JUMPDEST DUP3 MSTORE POP POP JUMP JUMPDEST PUSH1 0x0 PUSH1 0x20 DUP3 ADD SWAP1 POP PUSH2 0x22F5 PUSH1 0x0 DUP4 ADD DUP5 PUSH2 0x22D1 JUMP JUMPDEST SWAP3 SWAP2 POP POP JUMP JUMPDEST PUSH1 0x0 PUSH2 0x2306 DUP3 PUSH2 0x21F9 JUMP JUMPDEST SWAP1 POP SWAP2 SWAP1 POP JUMP JUMPDEST PUSH2 0x2316 DUP2 PUSH2 0x22FB JUMP JUMPDEST DUP3 MSTORE POP POP JUMP JUMPDEST PUSH1 0x0 PUSH1 0x20 DUP3 ADD SWAP1 POP PUSH2 0x2331 PUSH1 0x0 DUP4 ADD DUP5 PUSH2 0x230D JUMP JUMPDEST SWAP3 SWAP2 POP POP JUMP JUMPDEST PUSH1 0x0 DUP1 PUSH1 0x40 DUP4 DUP6 SUB SLT ISZERO PUSH2 0x234E JUMPI PUSH2 0x234D PUSH2 0x2114 JUMP JUMPDEST JUMPDEST PUSH1 0x0 PUSH2 0x235C DUP6 DUP3 DUP7 ADD PUSH2 0x2135 JUMP JUMPDEST SWAP3 POP POP PUSH1 0x20 PUSH2 0x236D DUP6 DUP3 DUP7 ADD PUSH2 0x2135 JUMP JUMPDEST SWAP2 POP POP SWAP3 POP SWAP3 SWAP1 POP JUMP JUMPDEST PUSH2 0x2380 DUP2 PUSH2 0x22BF JUMP JUMPDEST DUP2 EQ PUSH2 0x238B JUMPI PUSH1 0x0 DUP1 REVERT JUMPDEST POP JUMP JUMPDEST PUSH1 0x0 DUP2 CALLDATALOAD SWAP1 POP PUSH2 0x239D DUP2 PUSH2 0x2377 JUMP JUMPDEST SWAP3 SWAP2 POP POP JUMP JUMPDEST PUSH1 0x0 PUSH1 0x20 DUP3 DUP5 SUB SLT ISZERO PUSH2 0x23B9 JUMPI PUSH2 0x23B8 PUSH2 0x2114 JUMP JUMPDEST JUMPDEST PUSH1 0x0 PUSH2 0x23C7 DUP5 DUP3 DUP6 ADD PUSH2 0x238E JUMP JUMPDEST SWAP2 POP POP SWAP3 SWAP2 POP POP JUMP JUMPDEST PUSH2 0x23D9 DUP2 PUSH2 0x2283 JUMP JUMPDEST DUP2 EQ PUSH2 0x23E4 JUMPI PUSH1 0x0 DUP1 REVERT JUMPDEST POP JUMP JUMPDEST PUSH1 0x0 DUP2 CALLDATALOAD SWAP1 POP PUSH2 0x23F6 DUP2 PUSH2 0x23D0 JUMP JUMPDEST SWAP3 SWAP2 POP POP JUMP JUMPDEST PUSH1 0x0 PUSH1 0x20 DUP3 DUP5 SUB SLT ISZERO PUSH2 0x2412 JUMPI PUSH2 0x2411 PUSH2 0x2114 JUMP JUMPDEST JUMPDEST PUSH1 0x0 PUSH2 0x2420 DUP5 DUP3 DUP6 ADD PUSH2 0x23E7 JUMP JUMPDEST SWAP2 POP POP SWAP3 SWAP2 POP POP JUMP JUMPDEST PUSH1 0x0 PUSH16 0xFFFFFFFFFFFFFFFFFFFFFFFFFFFFFFFF DUP3 AND SWAP1 POP SWAP2 SWAP1 POP JUMP JUMPDEST PUSH2 0x244E DUP2 PUSH2 0x2429 JUMP JUMPDEST DUP3 MSTORE POP POP JUMP JUMPDEST PUSH1 0x0 PUSH1 0x20 DUP3 ADD SWAP1 POP PUSH2 0x2469 PUSH1 0x0 DUP4 ADD DUP5 PUSH2 0x2445 JUMP JUMPDEST SWAP3 SWAP2 POP POP JUMP JUMPDEST PUSH32 0x4E487B7100000000000000000000000000000000000000000000000000000000 PUSH1 0x0 MSTORE PUSH1 0x11 PUSH1 0x4 MSTORE PUSH1 0x24 PUSH1 0x0 REVERT JUMPDEST PUSH1 0x0 PUSH2 0x24A9 DUP3 PUSH2 0x20D6 JUMP JUMPDEST SWAP2 POP PUSH2 0x24B4 DUP4 PUSH2 0x20D6 JUMP JUMPDEST SWAP3 POP DUP3 DUP3 ADD SWAP1 POP DUP1 DUP3 GT ISZERO PUSH2 0x24CC JUMPI PUSH2 0x24CB PUSH2 0x246F JUMP JUMPDEST JUMPDEST SWAP3 SWAP2 POP POP JUMP JUMPDEST PUSH1 0x0 DUP3 DUP3 MSTORE PUSH1 0x20 DUP3 ADD SWAP1 POP SWAP3 SWAP2 POP POP JUMP JUMPDEST PUSH32 0x616D6F756E742063616E27742062652030000000000000000000000000000000 PUSH1 0x0 DUP3 ADD MSTORE POP JUMP JUMPDEST PUSH1 0x0 PUSH2 0x2519 PUSH1 0x11 DUP4 PUSH2 0x24D2 JUMP JUMPDEST SWAP2 POP PUSH2 0x2524 DUP3 PUSH2 0x24E3 JUMP JUMPDEST PUSH1 0x20 DUP3 ADD SWAP1 POP SWAP2 SWAP1 POP JUMP JUMPDEST PUSH1 0x0 PUSH1 0x20 DUP3 ADD SWAP1 POP DUP2 DUP2 SUB PUSH1 0x0 DUP4 ADD MSTORE PUSH2 0x2548 DUP2 PUSH2 0x250C JUMP JUMPDEST SWAP1 POP SWAP2 SWAP1 POP JUMP JUMPDEST PUSH1 0x0 PUSH1 0x60 DUP3 ADD SWAP1 POP PUSH2 0x2564 PUSH1 0x0 DUP4 ADD DUP7 PUSH2 0x2295 JUMP JUMPDEST PUSH2 0x2571 PUSH1 0x20 DUP4 ADD DUP6 PUSH2 0x2295 JUMP JUMPDEST PUSH2 0x257E PUSH1 0x40 DUP4 ADD DUP5 PUSH2 0x20E0 JUMP JUMPDEST SWAP5 SWAP4 POP POP POP POP JUMP JUMPDEST PUSH2 0x258F DUP2 PUSH2 0x2177 JUMP JUMPDEST DUP2 EQ PUSH2 0x259A JUMPI PUSH1 0x0 DUP1 REVERT JUMPDEST POP JUMP JUMPDEST PUSH1 0x0 DUP2 MLOAD SWAP1 POP PUSH2 0x25AC DUP2 PUSH2 0x2586 JUMP JUMPDEST SWAP3 SWAP2 POP POP JUMP JUMPDEST PUSH1 0x0 PUSH1 0x20 DUP3 DUP5 SUB SLT ISZERO PUSH2 0x25C8 JUMPI PUSH2 0x25C7 PUSH2 0x2114 JUMP JUMPDEST JUMPDEST PUSH1 0x0 PUSH2 0x25D6 DUP5 DUP3 DUP6 ADD PUSH2 0x259D JUMP JUMPDEST SWAP2 POP POP SWAP3 SWAP2 POP POP JUMP JUMPDEST PUSH32 0x4661696C656420746F207472616E736665722055534443000000000000000000 PUSH1 0x0 DUP3 ADD MSTORE POP JUMP JUMPDEST PUSH1 0x0 PUSH2 0x2615 PUSH1 0x17 DUP4 PUSH2 0x24D2 JUMP JUMPDEST SWAP2 POP PUSH2 0x2620 DUP3 PUSH2 0x25DF JUMP JUMPDEST PUSH1 0x20 DUP3 ADD SWAP1 POP SWAP2 SWAP1 POP JUMP JUMPDEST PUSH1 0x0 PUSH1 0x20 DUP3 ADD SWAP1 POP DUP2 DUP2 SUB PUSH1 0x0 DUP4 ADD MSTORE PUSH2 0x2644 DUP2 PUSH2 0x2608 JUMP JUMPDEST SWAP1 POP SWAP2 SWAP1 POP JUMP JUMPDEST PUSH1 0x0 DUP2 MLOAD SWAP1 POP PUSH2 0x265A DUP2 PUSH2 0x211E JUMP JUMPDEST SWAP3 SWAP2 POP POP JUMP JUMPDEST PUSH1 0x0 PUSH1 0x20 DUP3 DUP5 SUB SLT ISZERO PUSH2 0x2676 JUMPI PUSH2 0x2675 PUSH2 0x2114 JUMP JUMPDEST JUMPDEST PUSH1 0x0 PUSH2 0x2684 DUP5 DUP3 DUP6 ADD PUSH2 0x264B JUMP JUMPDEST SWAP2 POP POP SWAP3 SWAP2 POP POP JUMP JUMPDEST PUSH32 0x6E6F7420656E6F7567682066756E647300000000000000000000000000000000 PUSH1 0x0 DUP3 ADD MSTORE POP JUMP JUMPDEST PUSH1 0x0 PUSH2 0x26C3 PUSH1 0x10 DUP4 PUSH2 0x24D2 JUMP JUMPDEST SWAP2 POP PUSH2 0x26CE DUP3 PUSH2 0x268D JUMP JUMPDEST PUSH1 0x20 DUP3 ADD SWAP1 POP SWAP2 SWAP1 POP JUMP JUMPDEST PUSH1 0x0 PUSH1 0x20 DUP3 ADD SWAP1 POP DUP2 DUP2 SUB PUSH1 0x0 DUP4 ADD MSTORE PUSH2 0x26F2 DUP2 PUSH2 0x26B6 JUMP JUMPDEST SWAP1 POP SWAP2 SWAP1 POP JUMP JUMPDEST PUSH1 0x0 PUSH1 0x40 DUP3 ADD SWAP1 POP PUSH2 0x270E PUSH1 0x0 DUP4 ADD DUP6 PUSH2 0x2295 JUMP JUMPDEST PUSH2 0x271B PUSH1 0x20 DUP4 ADD DUP5 PUSH2 0x20E0 JUMP JUMPDEST SWAP4 SWAP3 POP POP POP JUMP JUMPDEST PUSH1 0x0 DUP2 SWAP1 POP SWAP2 SWAP1 POP JUMP JUMPDEST PUSH1 0x0 PUSH2 0xFFFF DUP3 AND SWAP1 POP SWAP2 SWAP1 POP JUMP JUMPDEST PUSH1 0x0 PUSH2 0x2755 PUSH2 0x2750 PUSH2 0x274B DUP5 PUSH2 0x2722 JUMP JUMPDEST PUSH2 0x21CD JUMP JUMPDEST PUSH2 0x272C JUMP JUMPDEST SWAP1 POP SWAP2 SWAP1 POP JUMP JUMPDEST PUSH2 0x2765 DUP2 PUSH2 0x273A JUMP JUMPDEST DUP3 MSTORE POP POP JUMP JUMPDEST PUSH1 0x0 PUSH1 0x80 DUP3 ADD SWAP1 POP PUSH2 0x2780 PUSH1 0x0 DUP4 ADD DUP8 PUSH2 0x2295 JUMP JUMPDEST PUSH2 0x278D PUSH1 0x20 DUP4 ADD DUP7 PUSH2 0x20E0 JUMP JUMPDEST PUSH2 0x279A PUSH1 0x40 DUP4 ADD DUP6 PUSH2 0x2295 JUMP JUMPDEST PUSH2 0x27A7 PUSH1 0x60 DUP4 ADD DUP5 PUSH2 0x275C JUMP JUMPDEST SWAP6 SWAP5 POP POP POP POP POP JUMP JUMPDEST PUSH32 0x4E487B7100000000000000000000000000000000000000000000000000000000 PUSH1 0x0 MSTORE PUSH1 0x12 PUSH1 0x4 MSTORE PUSH1 0x24 PUSH1 0x0 REVERT JUMPDEST PUSH1 0x0 PUSH2 0x27EA DUP3 PUSH2 0x20D6 JUMP JUMPDEST SWAP2 POP PUSH2 0x27F5 DUP4 PUSH2 0x20D6 JUMP JUMPDEST SWAP3 POP DUP3 PUSH2 0x2805 JUMPI PUSH2 0x2804 PUSH2 0x27B0 JUMP JUMPDEST JUMPDEST DUP3 DUP3 DIV SWAP1 POP SWAP3 SWAP2 POP POP JUMP JUMPDEST PUSH1 0x0 PUSH2 0x281B DUP3 PUSH2 0x20D6 JUMP JUMPDEST SWAP2 POP PUSH2 0x2826 DUP4 PUSH2 0x20D6 JUMP JUMPDEST SWAP3 POP DUP3 DUP3 MUL PUSH2 0x2834 DUP2 PUSH2 0x20D6 JUMP JUMPDEST SWAP2 POP DUP3 DUP3 DIV DUP5 EQ DUP4 ISZERO OR PUSH2 0x284B JUMPI PUSH2 0x284A PUSH2 0x246F JUMP JUMPDEST JUMPDEST POP SWAP3 SWAP2 POP POP JUMP JUMPDEST PUSH32 0x4552525F4F4E4C595F4E45575F4F574E45520000000000000000000000000000 PUSH1 0x0 DUP3 ADD MSTORE POP JUMP JUMPDEST PUSH1 0x0 PUSH2 0x2888 PUSH1 0x12 DUP4 PUSH2 0x24D2 JUMP JUMPDEST SWAP2 POP PUSH2 0x2893 DUP3 PUSH2 0x2852 JUMP JUMPDEST PUSH1 0x20 DUP3 ADD SWAP1 POP SWAP2 SWAP1 POP JUMP JUMPDEST PUSH1 0x0 PUSH1 0x20 DUP3 ADD SWAP1 POP DUP2 DUP2 SUB PUSH1 0x0 DUP4 ADD MSTORE PUSH2 0x28B7 DUP2 PUSH2 0x287B JUMP JUMPDEST SWAP1 POP SWAP2 SWAP1 POP JUMP JUMPDEST PUSH1 0x0 PUSH1 0x40 DUP3 ADD SWAP1 POP PUSH2 0x28D3 PUSH1 0x0 DUP4 ADD DUP6 PUSH2 0x2295 JUMP JUMPDEST PUSH2 0x28E0 PUSH1 0x20 DUP4 ADD DUP5 PUSH2 0x2295 JUMP JUMPDEST SWAP4 SWAP3 POP POP POP JUMP JUMPDEST PUSH1 0x0 DUP2 MLOAD SWAP1 POP PUSH2 0x28F6 DUP2 PUSH2 0x23D0 JUMP JUMPDEST SWAP3 SWAP2 POP POP JUMP JUMPDEST PUSH1 0x0 PUSH1 0x20 DUP3 DUP5 SUB SLT ISZERO PUSH2 0x2912 JUMPI PUSH2 0x2911 PUSH2 0x2114 JUMP JUMPDEST JUMPDEST PUSH1 0x0 PUSH2 0x2920 DUP5 DUP3 DUP6 ADD PUSH2 0x28E7 JUMP JUMPDEST SWAP2 POP POP SWAP3 SWAP2 POP POP JUMP JUMPDEST PUSH32 0x4E487B7100000000000000000000000000000000000000000000000000000000 PUSH1 0x0 MSTORE PUSH1 0x41 PUSH1 0x4 MSTORE PUSH1 0x24 PUSH1 0x0 REVERT JUMPDEST PUSH32 0x4E487B7100000000000000000000000000000000000000000000000000000000 PUSH1 0x0 MSTORE PUSH1 0x32 PUSH1 0x4 MSTORE PUSH1 0x24 PUSH1 0x0 REVERT JUMPDEST PUSH1 0x0 DUP2 SWAP1 POP SWAP2 SWAP1 POP JUMP JUMPDEST PUSH1 0x0 PUSH2 0x29AC PUSH2 0x29A7 PUSH2 0x29A2 DUP5 PUSH2 0x2987 JUMP JUMPDEST PUSH2 0x21CD JUMP JUMPDEST PUSH2 0x20D6 JUMP JUMPDEST SWAP1 POP SWAP2 SWAP1 POP JUMP JUMPDEST PUSH2 0x29BC DUP2 PUSH2 0x2991 JUMP JUMPDEST DUP3 MSTORE POP POP JUMP JUMPDEST PUSH1 0x0 DUP2 MLOAD SWAP1 POP SWAP2 SWAP1 POP JUMP JUMPDEST PUSH1 0x0 DUP3 DUP3 MSTORE PUSH1 0x20 DUP3 ADD SWAP1 POP SWAP3 SWAP2 POP POP JUMP JUMPDEST PUSH1 0x0 DUP2 SWAP1 POP PUSH1 0x20 DUP3 ADD SWAP1 POP SWAP2 SWAP1 POP JUMP JUMPDEST PUSH2 0x29F7 DUP2 PUSH2 0x2283 JUMP JUMPDEST DUP3 MSTORE POP POP JUMP JUMPDEST PUSH1 0x0 PUSH2 0x2A09 DUP4 DUP4 PUSH2 0x29EE JUMP JUMPDEST PUSH1 0x20 DUP4 ADD SWAP1 POP SWAP3 SWAP2 POP POP JUMP JUMPDEST PUSH1 0x0 PUSH1 0x20 DUP3 ADD SWAP1 POP SWAP2 SWAP1 POP JUMP JUMPDEST PUSH1 0x0 PUSH2 0x2A2D DUP3 PUSH2 0x29C2 JUMP JUMPDEST PUSH2 0x2A37 DUP2 DUP6 PUSH2 0x29CD JUMP JUMPDEST SWAP4 POP PUSH2 0x2A42 DUP4 PUSH2 0x29DE JUMP JUMPDEST DUP1 PUSH1 0x0 JUMPDEST DUP4 DUP2 LT ISZERO PUSH2 0x2A73 JUMPI DUP2 MLOAD PUSH2 0x2A5A DUP9 DUP3 PUSH2 0x29FD JUMP JUMPDEST SWAP8 POP PUSH2 0x2A65 DUP4 PUSH2 0x2A15 JUMP JUMPDEST SWAP3 POP POP PUSH1 0x1 DUP2 ADD SWAP1 POP PUSH2 0x2A46 JUMP JUMPDEST POP DUP6 SWAP4 POP POP POP POP SWAP3 SWAP2 POP POP JUMP JUMPDEST PUSH1 0x0 PUSH1 0x40 DUP3 ADD SWAP1 POP PUSH2 0x2A95 PUSH1 0x0 DUP4 ADD DUP6 PUSH2 0x29B3 JUMP JUMPDEST DUP2 DUP2 SUB PUSH1 0x20 DUP4 ADD MSTORE PUSH2 0x2AA7 DUP2 DUP5 PUSH2 0x2A22 JUMP JUMPDEST SWAP1 POP SWAP4 SWAP3 POP POP POP JUMP JUMPDEST PUSH1 0x0 DUP1 REVERT JUMPDEST PUSH1 0x0 PUSH1 0x1F NOT PUSH1 0x1F DUP4 ADD AND SWAP1 POP SWAP2 SWAP1 POP JUMP JUMPDEST PUSH2 0x2ACF DUP3 PUSH2 0x2AB5 JUMP JUMPDEST DUP2 ADD DUP2 DUP2 LT PUSH8 0xFFFFFFFFFFFFFFFF DUP3 GT OR ISZERO PUSH2 0x2AEE JUMPI PUSH2 0x2AED PUSH2 0x2929 JUMP JUMPDEST JUMPDEST DUP1 PUSH1 0x40 MSTORE POP POP POP JUMP JUMPDEST PUSH1 0x0 PUSH2 0x2B01 PUSH2 0x210A JUMP JUMPDEST SWAP1 POP PUSH2 0x2B0D DUP3 DUP3 PUSH2 0x2AC6 JUMP JUMPDEST SWAP2 SWAP1 POP JUMP JUMPDEST PUSH1 0x0 PUSH8 0xFFFFFFFFFFFFFFFF DUP3 GT ISZERO PUSH2 0x2B2D JUMPI PUSH2 0x2B2C PUSH2 0x2929 JUMP JUMPDEST JUMPDEST PUSH1 0x20 DUP3 MUL SWAP1 POP PUSH1 0x20 DUP2 ADD SWAP1 POP SWAP2 SWAP1 POP JUMP JUMPDEST PUSH1 0x0 DUP1 REVERT JUMPDEST PUSH1 0x0 PUSH2 0x2B56 PUSH2 0x2B51 DUP5 PUSH2 0x2B12 JUMP JUMPDEST PUSH2 0x2AF7 JUMP JUMPDEST SWAP1 POP DUP1 DUP4 DUP3 MSTORE PUSH1 0x20 DUP3 ADD SWAP1 POP PUSH1 0x20 DUP5 MUL DUP4 ADD DUP6 DUP2 GT ISZERO PUSH2 0x2B79 JUMPI PUSH2 0x2B78 PUSH2 0x2B3E JUMP JUMPDEST JUMPDEST DUP4 JUMPDEST DUP2 DUP2 LT ISZERO PUSH2 0x2BA2 JUMPI DUP1 PUSH2 0x2B8E DUP9 DUP3 PUSH2 0x264B JUMP JUMPDEST DUP5 MSTORE PUSH1 0x20 DUP5 ADD SWAP4 POP POP PUSH1 0x20 DUP2 ADD SWAP1 POP PUSH2 0x2B7B JUMP JUMPDEST POP POP POP SWAP4 SWAP3 POP POP POP JUMP JUMPDEST PUSH1 0x0 DUP3 PUSH1 0x1F DUP4 ADD SLT PUSH2 0x2BC1 JUMPI PUSH2 0x2BC0 PUSH2 0x2AB0 JUMP JUMPDEST JUMPDEST DUP2 MLOAD PUSH2 0x2BD1 DUP5 DUP3 PUSH1 0x20 DUP7 ADD PUSH2 0x2B43 JUMP JUMPDEST SWAP2 POP POP SWAP3 SWAP2 POP POP JUMP JUMPDEST PUSH1 0x0 PUSH1 0x20 DUP3 DUP5 SUB SLT ISZERO PUSH2 0x2BF0 JUMPI PUSH2 0x2BEF PUSH2 0x2114 JUMP JUMPDEST JUMPDEST PUSH1 0x0 DUP3 ADD MLOAD PUSH8 0xFFFFFFFFFFFFFFFF DUP2 GT ISZERO PUSH2 0x2C0E JUMPI PUSH2 0x2C0D PUSH2 0x2119 JUMP JUMPDEST JUMPDEST PUSH2 0x2C1A DUP5 DUP3 DUP6 ADD PUSH2 0x2BAC JUMP JUMPDEST SWAP2 POP POP SWAP3 SWAP2 POP POP JUMP JUMPDEST PUSH1 0x0 PUSH1 0x40 DUP3 ADD SWAP1 POP PUSH2 0x2C38 PUSH1 0x0 DUP4 ADD DUP6 PUSH2 0x20E0 JUMP JUMPDEST PUSH2 0x2C45 PUSH1 0x20 DUP4 ADD DUP5 PUSH2 0x20E0 JUMP JUMPDEST SWAP4 SWAP3 POP POP POP JUMP JUMPDEST PUSH1 0x0 PUSH2 0x2C67 PUSH2 0x2C62 PUSH2 0x2C5D DUP5 PUSH2 0x2722 JUMP JUMPDEST PUSH2 0x21CD JUMP JUMPDEST PUSH2 0x20D6 JUMP JUMPDEST SWAP1 POP SWAP2 SWAP1 POP JUMP JUMPDEST PUSH2 0x2C77 DUP2 PUSH2 0x2C4C JUMP JUMPDEST DUP3 MSTORE POP POP JUMP JUMPDEST PUSH1 0x0 PUSH1 0xA0 DUP3 ADD SWAP1 POP PUSH2 0x2C92 PUSH1 0x0 DUP4 ADD DUP9 PUSH2 0x20E0 JUMP JUMPDEST PUSH2 0x2C9F PUSH1 0x20 DUP4 ADD DUP8 PUSH2 0x2C6E JUMP JUMPDEST DUP2 DUP2 SUB PUSH1 0x40 DUP4 ADD MSTORE PUSH2 0x2CB1 DUP2 DUP7 PUSH2 0x2A22 JUMP JUMPDEST SWAP1 POP PUSH2 0x2CC0 PUSH1 0x60 DUP4 ADD DUP6 PUSH2 0x2295 JUMP JUMPDEST PUSH2 0x2CCD PUSH1 0x80 DUP4 ADD DUP5 PUSH2 0x20E0 JUMP JUMPDEST SWAP7 SWAP6 POP POP POP POP POP POP JUMP JUMPDEST PUSH1 0x0 PUSH2 0x100 DUP3 ADD SWAP1 POP PUSH2 0x2CED PUSH1 0x0 DUP4 ADD DUP12 PUSH2 0x2295 JUMP JUMPDEST PUSH2 0x2CFA PUSH1 0x20 DUP4 ADD DUP11 PUSH2 0x2295 JUMP JUMPDEST PUSH2 0x2D07 PUSH1 0x40 DUP4 ADD DUP10 PUSH2 0x20E0 JUMP JUMPDEST PUSH2 0x2D14 PUSH1 0x60 DUP4 ADD DUP9 PUSH2 0x20E0 JUMP JUMPDEST PUSH2 0x2D21 PUSH1 0x80 DUP4 ADD DUP8 PUSH2 0x29B3 JUMP JUMPDEST PUSH2 0x2D2E PUSH1 0xA0 DUP4 ADD DUP7 PUSH2 0x29B3 JUMP JUMPDEST PUSH2 0x2D3B PUSH1 0xC0 DUP4 ADD DUP6 PUSH2 0x2295 JUMP JUMPDEST PUSH2 0x2D48 PUSH1 0xE0 DUP4 ADD DUP5 PUSH2 0x20E0 JUMP JUMPDEST SWAP10 SWAP9 POP POP POP POP POP POP POP POP POP JUMP JUMPDEST PUSH1 0x0 DUP1 PUSH1 0x0 PUSH1 0x60 DUP5 DUP7 SUB SLT ISZERO PUSH2 0x2D6E JUMPI PUSH2 0x2D6D PUSH2 0x2114 JUMP JUMPDEST JUMPDEST PUSH1 0x0 PUSH2 0x2D7C DUP7 DUP3 DUP8 ADD PUSH2 0x264B JUMP JUMPDEST SWAP4 POP POP PUSH1 0x20 PUSH2 0x2D8D DUP7 DUP3 DUP8 ADD PUSH2 0x264B JUMP JUMPDEST SWAP3 POP POP PUSH1 0x40 PUSH2 0x2D9E DUP7 DUP3 DUP8 ADD PUSH2 0x264B JUMP JUMPDEST SWAP2 POP POP SWAP3 POP SWAP3 POP SWAP3 JUMP JUMPDEST PUSH32 0x66756E64206465706F736974206661696C656400000000000000000000000000 PUSH1 0x0 DUP3 ADD MSTORE POP JUMP JUMPDEST PUSH1 0x0 PUSH2 0x2DDE PUSH1 0x13 DUP4 PUSH2 0x24D2 JUMP JUMPDEST SWAP2 POP PUSH2 0x2DE9 DUP3 PUSH2 0x2DA8 JUMP JUMPDEST PUSH1 0x20 DUP3 ADD SWAP1 POP SWAP2 SWAP1 POP JUMP JUMPDEST PUSH1 0x0 PUSH1 0x20 DUP3 ADD SWAP1 POP DUP2 DUP2 SUB PUSH1 0x0 DUP4 ADD MSTORE PUSH2 0x2E0D DUP2 PUSH2 0x2DD1 JUMP JUMPDEST SWAP1 POP SWAP2 SWAP1 POP JUMP JUMPDEST PUSH32 0x4552525F415554484F52495A45445F414444524553535F4F4E4C590000000000 PUSH1 0x0 DUP3 ADD MSTORE POP JUMP JUMPDEST PUSH1 0x0 PUSH2 0x2E4A PUSH1 0x1B DUP4 PUSH2 0x24D2 JUMP JUMPDEST SWAP2 POP PUSH2 0x2E55 DUP3 PUSH2 0x2E14 JUMP JUMPDEST PUSH1 0x20 DUP3 ADD SWAP1 POP SWAP2 SWAP1 POP JUMP JUMPDEST PUSH1 0x0 PUSH1 0x20 DUP3 ADD SWAP1 POP DUP2 DUP2 SUB PUSH1 0x0 DUP4 ADD MSTORE PUSH2 0x2E79 DUP2 PUSH2 0x2E3D JUMP JUMPDEST SWAP1 POP SWAP2 SWAP1 POP JUMP JUMPDEST PUSH1 0x0 PUSH1 0xE0 DUP3 ADD SWAP1 POP PUSH2 0x2E95 PUSH1 0x0 DUP4 ADD DUP11 PUSH2 0x2295 JUMP JUMPDEST PUSH2 0x2EA2 PUSH1 0x20 DUP4 ADD DUP10 PUSH2 0x2295 JUMP JUMPDEST PUSH2 0x2EAF PUSH1 0x40 DUP4 ADD DUP9 PUSH2 0x20E0 JUMP JUMPDEST PUSH2 0x2EBC PUSH1 0x60 DUP4 ADD DUP8 PUSH2 0x29B3 JUMP JUMPDEST PUSH2 0x2EC9 PUSH1 0x80 DUP4 ADD DUP7 PUSH2 0x29B3 JUMP JUMPDEST PUSH2 0x2ED6 PUSH1 0xA0 DUP4 ADD DUP6 PUSH2 0x2295 JUMP JUMPDEST PUSH2 0x2EE3 PUSH1 0xC0 DUP4 ADD DUP5 PUSH2 0x20E0 JUMP JUMPDEST SWAP9 SWAP8 POP POP POP POP POP POP POP POP JUMP JUMPDEST PUSH1 0x0 DUP1 PUSH1 0x40 DUP4 DUP6 SUB SLT ISZERO PUSH2 0x2F06 JUMPI PUSH2 0x2F05 PUSH2 0x2114 JUMP JUMPDEST JUMPDEST PUSH1 0x0 PUSH2 0x2F14 DUP6 DUP3 DUP7 ADD PUSH2 0x264B JUMP JUMPDEST SWAP3 POP POP PUSH1 0x20 PUSH2 0x2F25 DUP6 DUP3 DUP7 ADD PUSH2 0x264B JUMP JUMPDEST SWAP2 POP POP SWAP3 POP SWAP3 SWAP1 POP JUMP JUMPDEST PUSH1 0x0 PUSH1 0x60 DUP3 ADD SWAP1 POP PUSH2 0x2F44 PUSH1 0x0 DUP4 ADD DUP7 PUSH2 0x2295 JUMP JUMPDEST PUSH2 0x2F51 PUSH1 0x20 DUP4 ADD DUP6 PUSH2 0x20E0 JUMP JUMPDEST PUSH2 0x2F5E PUSH1 0x40 DUP4 ADD DUP5 PUSH2 0x2295 JUMP JUMPDEST SWAP5 SWAP4 POP POP POP POP JUMP JUMPDEST PUSH32 0x746F74616C2073686F756C642062652031303000000000000000000000000000 PUSH1 0x0 DUP3 ADD MSTORE POP JUMP JUMPDEST PUSH1 0x0 PUSH2 0x2F9C PUSH1 0x13 DUP4 PUSH2 0x24D2 JUMP JUMPDEST SWAP2 POP PUSH2 0x2FA7 DUP3 PUSH2 0x2F66 JUMP JUMPDEST PUSH1 0x20 DUP3 ADD SWAP1 POP SWAP2 SWAP1 POP JUMP JUMPDEST PUSH1 0x0 PUSH1 0x20 DUP3 ADD SWAP1 POP DUP2 DUP2 SUB PUSH1 0x0 DUP4 ADD MSTORE PUSH2 0x2FCB DUP2 PUSH2 0x2F8F JUMP JUMPDEST SWAP1 POP SWAP2 SWAP1 POP JUMP JUMPDEST PUSH1 0x0 DUP1 REVERT JUMPDEST PUSH1 0x0 PUSH1 0x20 DUP3 DUP5 SUB SLT ISZERO PUSH2 0x2FED JUMPI PUSH2 0x2FEC PUSH2 0x2FD2 JUMP JUMPDEST JUMPDEST PUSH2 0x2FF7 PUSH1 0x20 PUSH2 0x2AF7 JUMP JUMPDEST SWAP1 POP PUSH1 0x0 PUSH2 0x3007 DUP5 DUP3 DUP6 ADD PUSH2 0x264B JUMP JUMPDEST PUSH1 0x0 DUP4 ADD MSTORE POP SWAP3 SWAP2 POP POP JUMP JUMPDEST PUSH2 0x301C DUP2 PUSH2 0x2429 JUMP JUMPDEST DUP2 EQ PUSH2 0x3027 JUMPI PUSH1 0x0 DUP1 REVERT JUMPDEST POP JUMP JUMPDEST PUSH1 0x0 DUP2 MLOAD SWAP1 POP PUSH2 0x3039 DUP2 PUSH2 0x3013 JUMP JUMPDEST SWAP3 SWAP2 POP POP JUMP JUMPDEST PUSH1 0x0 PUSH5 0xFFFFFFFFFF DUP3 AND SWAP1 POP SWAP2 SWAP1 POP JUMP JUMPDEST PUSH2 0x3059 DUP2 PUSH2 0x303F JUMP JUMPDEST DUP2 EQ PUSH2 0x3064 JUMPI PUSH1 0x0 DUP1 REVERT JUMPDEST POP JUMP JUMPDEST PUSH1 0x0 DUP2 MLOAD SWAP1 POP PUSH2 0x3076 DUP2 PUSH2 0x3050 JUMP JUMPDEST SWAP3 SWAP2 POP POP JUMP JUMPDEST PUSH1 0x0 PUSH1 0xFF DUP3 AND SWAP1 POP SWAP2 SWAP1 POP JUMP JUMPDEST PUSH2 0x3092 DUP2 PUSH2 0x307C JUMP JUMPDEST DUP2 EQ PUSH2 0x309D JUMPI PUSH1 0x0 DUP1 REVERT JUMPDEST POP JUMP JUMPDEST PUSH1 0x0 DUP2 MLOAD SWAP1 POP PUSH2 0x30AF DUP2 PUSH2 0x3089 JUMP JUMPDEST SWAP3 SWAP2 POP POP JUMP JUMPDEST PUSH1 0x0 PUSH2 0x180 DUP3 DUP5 SUB SLT ISZERO PUSH2 0x30CC JUMPI PUSH2 0x30CB PUSH2 0x2FD2 JUMP JUMPDEST JUMPDEST PUSH2 0x30D7 PUSH2 0x180 PUSH2 0x2AF7 JUMP JUMPDEST SWAP1 POP PUSH1 0x0 PUSH2 0x30E7 DUP5 DUP3 DUP6 ADD PUSH2 0x2FD7 JUMP JUMPDEST PUSH1 0x0 DUP4 ADD MSTORE POP PUSH1 0x20 PUSH2 0x30FB DUP5 DUP3 DUP6 ADD PUSH2 0x302A JUMP JUMPDEST PUSH1 0x20 DUP4 ADD MSTORE POP PUSH1 0x40 PUSH2 0x310F DUP5 DUP3 DUP6 ADD PUSH2 0x302A JUMP JUMPDEST PUSH1 0x40 DUP4 ADD MSTORE POP PUSH1 0x60 PUSH2 0x3123 DUP5 DUP3 DUP6 ADD PUSH2 0x302A JUMP JUMPDEST PUSH1 0x60 DUP4 ADD MSTORE POP PUSH1 0x80 PUSH2 0x3137 DUP5 DUP3 DUP6 ADD PUSH2 0x302A JUMP JUMPDEST PUSH1 0x80 DUP4 ADD MSTORE POP PUSH1 0xA0 PUSH2 0x314B DUP5 DUP3 DUP6 ADD PUSH2 0x302A JUMP JUMPDEST PUSH1 0xA0 DUP4 ADD MSTORE POP PUSH1 0xC0 PUSH2 0x315F DUP5 DUP3 DUP6 ADD PUSH2 0x3067 JUMP JUMPDEST PUSH1 0xC0 DUP4 ADD MSTORE POP PUSH1 0xE0 PUSH2 0x3173 DUP5 DUP3 DUP6 ADD PUSH2 0x28E7 JUMP JUMPDEST PUSH1 0xE0 DUP4 ADD MSTORE POP PUSH2 0x100 PUSH2 0x3188 DUP5 DUP3 DUP6 ADD PUSH2 0x28E7 JUMP JUMPDEST PUSH2 0x100 DUP4 ADD MSTORE POP PUSH2 0x120 PUSH2 0x319E DUP5 DUP3 DUP6 ADD PUSH2 0x28E7 JUMP JUMPDEST PUSH2 0x120 DUP4 ADD MSTORE POP PUSH2 0x140 PUSH2 0x31B4 DUP5 DUP3 DUP6 ADD PUSH2 0x28E7 JUMP JUMPDEST PUSH2 0x140 DUP4 ADD MSTORE POP PUSH2 0x160 PUSH2 0x31CA DUP5 DUP3 DUP6 ADD PUSH2 0x30A0 JUMP JUMPDEST PUSH2 0x160 DUP4 ADD MSTORE POP SWAP3 SWAP2 POP POP JUMP JUMPDEST PUSH1 0x0 PUSH2 0x180 DUP3 DUP5 SUB SLT ISZERO PUSH2 0x31EE JUMPI PUSH2 0x31ED PUSH2 0x2114 JUMP JUMPDEST JUMPDEST PUSH1 0x0 PUSH2 0x31FC DUP5 DUP3 DUP6 ADD PUSH2 0x30B5 JUMP JUMPDEST SWAP2 POP POP SWAP3 SWAP2 POP POP JUMP INVALID LOG2 PUSH5 0x6970667358 0x22 SLT KECCAK256 RETURNDATACOPY OR SWAP4 EXTCODECOPY DUP3 RETURNDATACOPY 0xD1 MSIZE 0xBE 0xE9 0xEF 0xB9 PUSH30 0x2B85A983D226FE26734F514AB956A4A42BEF0E64736F6C63430008130033 "
				},
				"gasEstimates": {
					"creation": {
						"codeDepositCost": "2571800",
						"executionCost": "infinite",
						"totalCost": "infinite"
					},
					"external": {
						"aaveRatio()": "2452",
						"acceptOwnership()": "59108",
						"addFundsToAave(uint256)": "infinite",
						"addLiquidityToUniswap(uint256)": "infinite",
						"calculateAaveYield()": "infinite",
						"calculateAggregatedYeild()": "infinite",
						"calculateUniswapYeild()": "infinite",
						"depositAndDistributeFunds(uint256)": "infinite",
						"getCurrentLiquidityRate(address)": "infinite",
						"ilendingpool()": "infinite",
						"iuniswapv2router02()": "infinite",
						"newOwner()": "2536",
						"onlyDeposit(uint256)": "infinite",
						"owner()": "2644",
						"setRatio(uint256,uint256)": "infinite",
						"transferOwnership(address)": "26977",
						"uniswapRatio()": "2496",
						"uniswapV2factory()": "infinite",
						"usdcTokenAddress()": "2603",
						"usdtTokenAddress()": "2537",
						"withdrawAllToWallet()": "infinite",
						"withdrawFromPool(uint256,uint256)": "infinite"
					}
				},
				"methodIdentifiers": {
					"aaveRatio()": "52d66e9c",
					"acceptOwnership()": "79ba5097",
					"addFundsToAave(uint256)": "4746e0cc",
					"addLiquidityToUniswap(uint256)": "c40ce80f",
					"calculateAaveYield()": "51e8fa94",
					"calculateAggregatedYeild()": "042f6d0c",
					"calculateUniswapYeild()": "a741ff7c",
					"depositAndDistributeFunds(uint256)": "d522dd96",
					"getCurrentLiquidityRate(address)": "fea54e02",
					"ilendingpool()": "b1c7f1f2",
					"iuniswapv2router02()": "52bff014",
					"newOwner()": "d4ee1d90",
					"onlyDeposit(uint256)": "2a9b20be",
					"owner()": "8da5cb5b",
					"setRatio(uint256,uint256)": "f785ccd0",
					"transferOwnership(address)": "f2fde38b",
					"uniswapRatio()": "72eb856b",
					"uniswapV2factory()": "70fe251b",
					"usdcTokenAddress()": "77b53ece",
					"usdtTokenAddress()": "9d741e5d",
					"withdrawAllToWallet()": "b583ba9c",
					"withdrawFromPool(uint256,uint256)": "ef1b3166"
				}
			},
			"storageLayout": {
				"storage": [
					{
						"astId": 677,
						"contract": "contracts/TreasuryContract/treasurycontract.sol:Treasury",
						"label": "owner",
						"offset": 0,
						"slot": "0",
						"type": "t_address_payable"
					},
					{
						"astId": 679,
						"contract": "contracts/TreasuryContract/treasurycontract.sol:Treasury",
						"label": "newOwner",
						"offset": 0,
						"slot": "1",
						"type": "t_address_payable"
					},
					{
						"astId": 795,
						"contract": "contracts/TreasuryContract/treasurycontract.sol:Treasury",
						"label": "iuniswapv2router02",
						"offset": 0,
						"slot": "2",
						"type": "t_contract(IUniswapV2Router02)609"
					},
					{
						"astId": 798,
						"contract": "contracts/TreasuryContract/treasurycontract.sol:Treasury",
						"label": "ilendingpool",
						"offset": 0,
						"slot": "3",
						"type": "t_contract(ILendingPool)213"
					},
					{
						"astId": 801,
						"contract": "contracts/TreasuryContract/treasurycontract.sol:Treasury",
						"label": "uniswapV2factory",
						"offset": 0,
						"slot": "4",
						"type": "t_contract(IUniswapV2Factory)672"
					},
					{
						"astId": 803,
						"contract": "contracts/TreasuryContract/treasurycontract.sol:Treasury",
						"label": "usdcTokenAddress",
						"offset": 0,
						"slot": "5",
						"type": "t_address"
					},
					{
						"astId": 805,
						"contract": "contracts/TreasuryContract/treasurycontract.sol:Treasury",
						"label": "usdtTokenAddress",
						"offset": 0,
						"slot": "6",
						"type": "t_address"
					},
					{
						"astId": 808,
						"contract": "contracts/TreasuryContract/treasurycontract.sol:Treasury",
						"label": "uniswapRatio",
						"offset": 0,
						"slot": "7",
						"type": "t_uint256"
					},
					{
						"astId": 811,
						"contract": "contracts/TreasuryContract/treasurycontract.sol:Treasury",
						"label": "aaveRatio",
						"offset": 0,
						"slot": "8",
						"type": "t_uint256"
					}
				],
				"types": {
					"t_address": {
						"encoding": "inplace",
						"label": "address",
						"numberOfBytes": "20"
					},
					"t_address_payable": {
						"encoding": "inplace",
						"label": "address payable",
						"numberOfBytes": "20"
					},
					"t_contract(ILendingPool)213": {
						"encoding": "inplace",
						"label": "contract ILendingPool",
						"numberOfBytes": "20"
					},
					"t_contract(IUniswapV2Factory)672": {
						"encoding": "inplace",
						"label": "contract IUniswapV2Factory",
						"numberOfBytes": "20"
					},
					"t_contract(IUniswapV2Router02)609": {
						"encoding": "inplace",
						"label": "contract IUniswapV2Router02",
						"numberOfBytes": "20"
					},
					"t_uint256": {
						"encoding": "inplace",
						"label": "uint256",
						"numberOfBytes": "32"
					}
				}
			},
			"userdoc": {
				"kind": "user",
				"methods": {},
				"version": 1
			}
		}
	}
}